:100000000C9428020C9450020C9450020C94500250
:100010000C9450020C9450020C9450020C94500218
:100020000C9450020C9450020C9450020C94500208
:100030000C9450020C9450020C9450020C945002F8
:100040000C94E4050C9450020C9450020C94500251
:100050000C9450020C9450020C9450020C945002D8
:100060000C94EB0D0C9450024128D441CF830083B3
:100070003041ED846403128141E88385017941CBED
:1000800085392C00340241F7812041EA8200004189
:10009000C0812641C1811141C582353E41C781BE23
:1000A00041B182001B41F281084126810141E08F6C
:1000B0001F1A180A0F064587320A07020705004172
:1000C000E18F0025270510093A784D05180D383ABB
:1000D0001F41B6840A82270041B78107413A815502
:1000E000413681E8412A82000082013F412B820093
:1000F000008200EF4111FCFC4129D4FFFF00000009
:1001000000240027002A0000000000250028002B02
:1001100000040404040404040402020202020203B0
:1001200003030303030102040810204080010204BA
:10013000081020010204081020000000080002013D
:1001400000000304070000000000000000000000A1
:10015000000000000030787830300030006C6C6CAB
:1001600000000000006C6CFE6CFE6C6C00307CC00B
:10017000780CF8300000C6CC183066C600386C38F1
:1001800076DCCC76006060C00000000000183060B3
:100190006060301800603018181830600000663C4D
:1001A000FF3C660000003030FC30300000000000F2
:1001B0000000703060000000FC0000000000000043
:1001C0000000303000060C183060C0800078CCDCB5
:1001D000FCECCC780030F030303030FC0078CC0CC7
:1001E0003860CCFC0078CC0C380CCC78001C3C6C13
:1001F000CCFE0C0C00FCC0F80C0CCC78003860C0B5
:10020000F8CCCC7800FCCC0C183060600078CCCCFA
:1002100078CCCC780078CCCC7C0C18700000003006
:100220003000303000000030300070306018306036
:10023000C0603018000000FC00FC000000603018B6
:100240000C1830600078CC0C18300030007CC6DE12
:10025000DEDEC078003078CCCCFCCCCC00FC66660E
:100260007C6666FC003C66C0C0C0663C00FC6C66F8
:1002700066666CFC00FE6268786862FE00FE62687A
:10028000786860F0003C66C0C0CE663E00CCCCCC46
:10029000FCCCCCCC0078303030303078001E0C0CE8
:1002A0000CCCCC7800E6666C786C66E600F060609A
:1002B000606266FE00C6EEFED6C6C6C600C6E6F69C
:1002C000DECEC6C600386CC6C6C66C3800FC666694
:1002D0007C6060F00078CCCCCCDC781C00FC6666DE
:1002E0007C786CE60078CCE0381CCC7800FCB4302C
:1002F0003030307800CCCCCCCCCCCCFC00CCCCCCCE
:10030000CCCC783000C6C6C6D6FEEEC600C6C66CDB
:10031000386CC6C600CCCCCC7830307800FECC9897
:100320003062C6FE007860606060607800C0603057
:10033000180C060200781818181818780010386C75
:10034000C60000000000000000000000FF30301870
:1003500000000000000000780C7CCC7600E0607C9F
:10036000666666BC00000078CCC0CC78001C0C0C23
:100370007CCCCC7600000078CCFCC07800386C6077
:10038000F06060F000000076CCCC7C0CF8E0606C93
:10039000766666E6003000703030307800180078FD
:1003A000181818D870E060666C786CE60070303011
:1003B00030303078000000ECFED6C6C6000000F8F1
:1003C000CCCCCCCC00000078CCCCCC78000000DCCD
:1003D00066667C60F0000076CCCC7C0C1E0000D8F9
:1003E0006C6C60F00000007CC0780CF80010307C71
:1003F00030303418000000CCCCCCCC76000000CCDF
:10040000CCCC7830000000C6C6D6FE6C000000C61A
:100410006C386CC6000000CCCCCC7C0CF80000FC26
:10042000983064FC001C3030E030301C0018181884
:100430000018181800E030301C3030E00076DC0086
:10044000000000000010386CC6C6C6FE000027166B
:1004500011241FBECFEFD8E0DEBFCDBF11E0A0E07A
:10046000B1E0ECEAF1E302C005900D92A23EB107C3
:10047000D9F722E0A2EEB1E001C01D92AD3BB20778
:10048000E1F712E0C8E2D2E004C02197FE010E9429
:100490004716C732D107C9F70E94410F0C94D418F0
:1004A0000C940000CF92DF92EF92FF920F931F9374
:1004B000CF93DF937C01262F972F8A018091EF0144
:1004C000882391F0C62FD72F6E01C40ED51ECC15F0
:1004D000DD0571F06991D701ED91FC910190F081FA
:1004E000E02DC7010995F3CF642F822F0E94190FC9
:1004F000C801DF91CF911F910F91FF90EF90DF9096
:10050000CF900895CF93DF931F92CDB7DEB7698365
:100510002091EF012223D1F020911102203240F0EE
:1005200021E030E0FC013383228380E090E015C0BD
:100530008091F001E82FF0E0EF50FE4F9981908319
:100540008F5F8093F0018093110205C061E0CE01BE
:1005500001960E94190F81E090E00F90DF91CF91FA
:100560000895CF92DF92EF92FF920F931F93CF9354
:10057000DF936C017A018B01C0E0D0E0CE15DF057E
:1005800089F0D8016D918D01D601ED91FC9101901A
:10059000F081E02DC6010995892B11F47E0102C07E
:1005A0002196ECCFC701DF91CF911F910F91FF9062
:1005B000EF90DF90CF9008953FB7F89480916D024F
:1005C00090916E02A0916F02B091700226B5A89B27
:1005D00005C02F3F19F00196A11DB11D3FBFBA2FD5
:1005E000A92F982F8827820F911DA11DB11DBC0135
:1005F000CD0142E0660F771F881F991F4A95D1F7FA
:1006000008955F9A08950E944418CF93DF931F9234
:10061000CDB7DEB7872F5F982B9A2D989CB59F7B1F
:100620009CBD2D9A9CB590649CBD69830E94990BDA
:100630002B9A2D989CB59F7B9CBD2D9A9CB5906460
:100640009CBD6981862F0E94990B5F9A0F90DF9164
:10065000CF910895CF93DF931F92CDB7DEB7872F49
:100660002B9A2D989CB59F7B9CBD2D9A9CB5906430
:100670009CBD69830E94990B2B9A2D989CB59F7BFA
:100680009CBD2D9A9CB590649CBD6981862F0F906E
:10069000DF91CF910C94990B4F925F926F927F9262
:1006A0008F929F92AF92BF92CF92EF92FF920F9351
:1006B0001F93CF93DF935C01CB014A0138012701DF
:1006C000E90129912223A1F0D501ED91FC91068445
:1006D000F785E02D32E0C32E72018301A401BC0135
:1006E000C5010995F50126813781281739074CF78F
:1006F000DF91CF911F910F91FF90EF90CF90BF901E
:10070000AF909F908F907F906F905F904F900895E3
:100710002F923F924F925F926F927F928F929F9211
:10072000AF92BF92CF92EF92FF920F931F93CF930E
:10073000DF935C013B014A012901C0E0D0E088E27F
:1007400090E0F40124813581C217D30740F5D5012B
:10075000ED91FC9126843784F401A081B18110973A
:1007600029F410927102A1E7B2E002C0AC0FBD1FE4
:1007700022E0C22E30EEE32EFF24FA9482012C9167
:10078000A301BC01C501F1010995D50116962D9172
:100790003C9117972817390714F02196D2CFDF9193
:1007A000CF911F910F91FF90EF90CF90BF90AF909E
:1007B0009F908F907F906F905F904F903F902F9081
:1007C00008952F923F924F925F926F927F928F92F5
:1007D0009F92AF92BF92CF92DF92EF92FF920F93D0
:1007E0001F93CF93DF93CDB7DEB760970FB6F89422
:1007F000DEBF0FBECDBF988B8F875B016A017A0188
:1008000002E310E022EB30E0AB0167E470E00E940D
:10081000A00BC5010A969C838B830EE110E02BE0B0
:1008200030E0AC016CE370E08F8598890E94A00BEA
:100830002BE030E04B815C8169EF70E08F85988917
:100840000E94A00BF501B796FA87E98786EF682E1C
:1008500077247A949AE0492E512C212C312C8B81CB
:100860009C819C878B87FE87ED87AB84BC84A21814
:10087000B3087601850126E430E0A501E6E4F0E066
:10088000E419F509FE83ED83BF018F8598890E94E5
:10089000510C86E490E08219930998878F838B80AE
:1008A0009C8084189508840126E430E0A401BC01F2
:1008B0008F8598890E94510C850129EF30E0A501B0
:1008C000520199EFA90EB11CB5018F8598890E943C
:1008D000510CF101E750FF4FFA83E983840129EFBE
:1008E00030E0A401BF018F8598890E94510C8D844E
:1008F0009E84820C931C840129EF30E0A401B50191
:100900008F8598890E94510CA984BA84A40CB51CC7
:10091000850129EF30E0A50169817A818F85988969
:100920000E94510C840126E430E0A4016D817E8197
:100930008F8598890E94510C850126E430E0A5013D
:100940006F8178858F8598890E94510CC10101962D
:10095000260C371C3101680E791E77FC09C0F1E0C6
:100960004F1A51081301241835083101641875080D
:100970001C01481659060CF078CF60960FB6F89413
:10098000DEBF0FBECDBFDF91CF911F910F91FF90C2
:10099000EF90DF90CF90BF90AF909F908F907F901F
:1009A0006F905F904F903F902F900895EF92FF923D
:1009B0000F931F93CF93DF93EC01198218821B8250
:1009C0001A821D821C8261157105A9F17B01FB0150
:1009D00001900020E9F731978F01061B170BB80132
:1009E0006F5F7F4F80E090E00E947A17009759F088
:1009F000998388831B830A832C813D81232B81F477
:100A0000FC0110820DC088819981009711F00E942D
:100A1000E216198218821D821C821B821A820BC068
:100A20001D830C83B701DF91CF911F910F91FF9030
:100A3000EF900C945218DF91CF911F910F91FF907E
:100A4000EF90089590E0FC01E75CFE4F3491FC01CB
:100A5000EB5DFE4F2491FC01EF5EFE4FE491EE232F
:100A600009F43BC0332339F1333091F038F431309D
:100A7000A9F0323001F584B58F7D12C0373091F086
:100A80003830A1F03430B9F4809180008F7D03C0FC
:100A9000809180008F77809380000DC084B58F7720
:100AA00084BD09C08091B0008F7703C08091B000F1
:100AB0008F7D8093B000F0E0EE0FFF1FE95FFE4FE7
:100AC000A591B4918FB7F894EC91611103C0209572
:100AD0002E2301C02E2B2C938FBF0895CF93DF932D
:100AE00090E0FC01EB5DFE4F2491FC01EF5EFE4FB8
:100AF0008491882361F190E0880F991FFC01E350F5
:100B0000FF4FC591D491FC01E95FFE4FA591B491CF
:100B1000611109C09FB7F89488812095822388834A
:100B2000EC912E230BC0623061F49FB7F8943881AA
:100B3000822F809583238883EC912E2B2C939FBF4B
:100B400006C08FB7F894E8812E2B28838FBFDF91E2
:100B5000CF9108958F929F92AF92BF92CF92DF92E2
:100B6000EF92FF926B017C010E94DC024B015C0161
:100B7000C114D104E104F104F1F00E94DC02DC01B3
:100B8000CB0188199909AA09BB09883E9340A105A0
:100B9000B10570F321E0C21AD108E108F10888EE2E
:100BA000880E83E0981EA11CB11CC114D104E1047D
:100BB000F10419F7DDCFFF90EF90DF90CF90BF9059
:100BC000AF909F908F9008951F920F920FB60F9243
:100BD00011242F933F938F939F93AF93BF93809153
:100BE000690290916A02A0916B02B0916C023091FF
:100BF000680223E0230F2D3720F40196A11DB11DBB
:100C000005C026E8230F0296A11DB11D209368029E
:100C10008093690290936A02A0936B02B0936C0276
:100C200080916D0290916E02A0916F02B09170025E
:100C30000196A11DB11D80936D0290936E02A09349
:100C40006F02B0937002BF91AF919F918F913F91CE
:100C50002F910F900FBE0F901F9018952F923F92DB
:100C60004F925F926F927F928F929F92AF92BF92BC
:100C7000CF92DF92EF92FF920F931F93CF93DF9368
:100C8000CDB7DEB763970FB6F894DEBF0FBECDBF0A
:100C90005C016B015B8B4A8BCB01019622E3289FA1
:100CA0004001299F900C112486E0869FA001879F18
:100CB000500D11244A0D5B1DB4016E51710920E0E5
:100CC0003CEFF50182A193A10E948803E12C9CEFE7
:100CD000F92E840121E031E0A40168E270E0F50121
:100CE00082A193A10E94510C2401FAE04F0E511CE5
:100CF00034018AE0681A7108820128E230E0A30119
:100D000068E270E0F50182A193A10E94510C21E0FC
:100D100031E0A30161E071E0F50182A193A10E949D
:100D2000510CF50122A033A0F6013C96EE0FFF1FF7
:100D3000EA0DFB1D4BE0BE016F5F7F4F808191810B
:100D40000E945918A4014550510930EEE32EFF24AA
:100D5000FA9400E01CEF9E012F5F3F4F68E171E0C5
:100D6000C1010E944C0342E3C42ED12C812C912C52
:100D7000EA89FB898E169F069CF4E12C8CEFF82EF5
:100D800082019601A301B601F50182A193A10E94FF
:100D9000510CFFEF8F1A9F0A8AE0C80ED11CE8CFD2
:100DA00063960FB6F894DEBF0FBECDBFDF91CF9133
:100DB0001F910F91FF90EF90DF90CF90BF90AF9079
:100DC0009F908F907F906F905F904F903F902F906B
:100DD0000895AF92BF92CF92DF92EF92FF920F935E
:100DE0001F93CF93DF935C016F5F7F4F82E3869FFA
:100DF0006001879FD00C112487E1849FE001859FCB
:100E0000D00D1124AD968601065F1F4FA6014A50F2
:100E10005109F50182A193A1232B91F03FE1E32E2B
:100E2000F12C9E01BE010E94510CDF91CF911F91C8
:100E30000F91FF90EF90DF90CF90BF90AF9008950B
:100E400020EEE22EFF24FA949E01BE010E94510C76
:100E500020E03CEFA601BE01F50182A193A1DF9144
:100E6000CF911F910F91FF90EF90DF90CF90BF90A7
:100E7000AF900C94130CCF93C62F81E08093EF01B9
:100E800082E5809367021092F00110921102642FA4
:100E90008BE592E00E9482026C2F8BE592E00E942B
:100EA000820280911102813208F045C0909138028F
:100EB0009111FCCF92E09093380291E09093370229
:100EC0009FEF909336021092350280933402A1EF87
:100ED000B1E022E132E0F9019E2F921B981718F43D
:100EE0009D919193F9CF1092330280913302846ADD
:100EF0008093330280913202813061F41092320289
:100F0000809133028093BB008091BC0083FDF8CFB9
:100F100085EC01C085EE8093BC0080913802823060
:100F2000E1F3809136028F3F31F0809136028032BA
:100F300011F0809136021092F0011092110210927D
:100F4000EF018FE39CE90197F1F700C00000CF911A
:100F50000895CF92DF92FF920F931F93CF93DF9369
:100F6000CDB7DEB72C970FB6F894DEBF0FBECDBF5E
:100F70008C01809138028111FCCF81E0809338028E
:100F8000809337029FEF909336021092350295E0DE
:100F9000909334028093330280913302846A809369
:100FA000330280913202813061F4109232028091DA
:100FB00033028093BB008091BC0083FDF8CF85ECA9
:100FC00001C085EE8093BC00809138028130E1F34E
:100FD00080913502863018F4F090350202C036E078
:100FE000F32EA2E1B2E029E332E0F9018E2F821B59
:100FF0008F1518F48D918193F9CF10925902F092C8
:101000005A02CE0101966C0180915902F81649F0FE
:101010008BE592E00E94100BF601819391936F0192
:10102000F3CF8981F80180838B8181838B859C85B7
:101030009C0121703327F1E02F27F8012583969535
:101040008795F1E08F278170F801848340E060E0AC
:10105000C8010E943B07F801208130E0828190E0C6
:10106000A901481B590B4333510514F082E006C017
:10107000821B930BC39724F081E0F801868302C0A2
:10108000F8011682F801218130E0838190E0A90106
:10109000481B590B4333510514F083E006C0821BF3
:1010A000930BC3971CF084E0F8018683F8018681D6
:1010B0002C960FB6F894DEBF0FBECDBFDF91CF9157
:1010C0001F910F91FF90DF90CF900895AF92BF9244
:1010D000CF92DF92EF92FF920F931F93CF93DF9304
:1010E000CDB7DEB761970FB6F894DEBF0FBECDBFA8
:1010F0007C016B01DC0190968D919C9191970E94EF
:10110000A907BFEFE2E5F7E0B150E040F040E1F7BA
:1011100000C000008601000F111F0E0D1F1DD80119
:1011200058968D919C915997F70187A300A0F1A142
:10113000E02D2681213019F4009709F04CC026815A
:10114000223049F4D80158962D913C915997293075
:10115000310509F049C0F801408D518D9927481794
:10116000590709F447C021E030E0B601C7010E94E9
:10117000E906D70197964C9150E020E030E0B601A7
:10118000C7010E94E906F701A2A0B3A04BE0BE018F
:101190006F5F7F4FD80158968D919C9159970E940F
:1011A0005918BFEFCB1ADB0A82E38C9DA0018D9DFD
:1011B000500D11244550510980EEE82EFF24FA9479
:1011C00000E01CEF9E012F5F3F4F68E171E0C50119
:1011D0000E944C030FC09C0121503109D80159963F
:1011E0003C932E935897ABCF2F5F3F4FF801318F31
:1011F000208FB1CF61960FB6F894DEBF0FBECDBF82
:10120000DF91CF911F910F91FF90EF90DF90CF90E2
:10121000BF90AF900895862F5F982B9A2D989CB51C
:101220009F7B9CBD2D9A9CB590649CBD0E94990BA0
:101230005F9A0895862F5F982B982D989CB59F7B79
:101240009CBD2D9A9CB590649CBD0E94990B5F9AA1
:1012500008956CE20E941A095F980895AF92BF92B8
:10126000CF92DF92EF92FF920F931F93CF93DF9372
:10127000EC015B017A0169016AE20E941A09B50179
:10128000CE010E940503B601CE010E9405036BE268
:10129000CE010E941A09B701CE010E940503B801D0
:1012A000CE01DF91CF911F910F91FF90EF90DF90D2
:1012B000CF90BF90AF900C940503CF92EF92FF9226
:1012C0000F931F93CF93DF93EC01262F6A3081F4A5
:1012D0008EAD9FAD9BAF8AAF2CA92F778CAD9DAD06
:1012E00038E0239F800D911D11249DAF8CAF47C026
:1012F000862F8B7F893009F442C06AAD7BAD2032E6
:1013000019F461157105D9F1E881F981E8ACF9ACFE
:101310000EA91FA94CAD5DAD0088F189E02DCCA8C8
:10132000CE010995BC019BAF8AAF8DA9882339F105
:101330002CA92F77822F90E048EF420390011124CF
:101340004E815F81420F531F46175707C4F44EADBD
:101350005FAD5BAF4AAF43E0880F991F4A95E1F755
:101360004CAD5DAD840F951F9DAF8CAF4885598501
:10137000240F351F2817390714F41DAE1CAE81E069
:1013800090E0DF91CF911F910F91FF90EF90CF9060
:101390000895CF92EF92FF920F931F93DC01ED918E
:1013A000FC910684F785E02D09951F910F91FF9020
:1013B000EF90CF9008952F923F924F925F926F924D
:1013C0007F928F929F92AF92BF92CF92DF92EF92D5
:1013D000FF920F931F93CF93DF9300D01F92CDB74F
:1013E000DEB79B838A83480188E02802900111249C
:1013F000D901A35BBF4F5D01BC2DBF77CB2EEA8126
:10140000FB8186819781F1E0FB1708F463C06B01D3
:1014100028E0C20ED11C8C159D050CF46EC0AA816B
:10142000BB811896ED91FC9119979A01285F3F4F67
:10143000E217F3070CF461C0AA81BB81ED91FC9126
:1014400011978A01095F1F4F9B01295F3F4F06805B
:10145000F781E02DCD010995AA81BB81ED91FC9129
:1014600011970084F185E02DCD0109958501085F74
:101470001F4FF5014490FFEFAF1ABF0A98E0692EA5
:10148000712C20E8522EAA81BB81ED91FC9111971D
:10149000852D84210284F385E02D882319F0B40181
:1014A000CD0103C0B7018A819B8109955694B1E0B3
:1014B0006B1A710841F7A016B106D9F6AA81BB8153
:1014C000ED91FC9111970484F585E02DCD010995EE
:1014D000C60176C0B8E0CB9E800111243B01600EAE
:1014E000711E861597054CF0040F151FEA81FB81CC
:1014F000208531852017310714F4019661C0AA8137
:10150000BB81ED91FC911197015011090680F78183
:10151000E02D930121503109CD010995AA81BB81AC
:10152000ED91FC9111970084F185E02DCD01099595
:101530002501B8E04B0E511CF5012490FFEFAF1AC6
:10154000BF0A3C2C08E010E080E8D82E8D2D8221C7
:101550002C2DA1F0AA81BB81ED91FC911197028401
:10156000F385E02DB401CD0129830995298121500E
:1015700089F7D6940150110949F710C0AA81BB819F
:10158000ED91FC9111970284F385E02DB701CD0117
:10159000298309952981215089F7EBCF3A9431109D
:1015A000D1CFA414B50409F0C7CFAA81BB81ED91B6
:1015B000FC9111970484F585E02DCD010995C301B7
:1015C0000F900F900F90DF91CF911F910F91FF908F
:1015D000EF90DF90CF90BF90AF909F908F907F90D3
:1015E0006F905F904F903F902F90089585ED80937E
:1015F000BC008091BC0084FDFCCF1092380208959D
:101600000895E091590280915A02E81730F4F0E011
:10161000E75CFD4F808190E008958FEF9FEF089584
:101620009091590280915A02981750F4E92FF0E0F6
:10163000E75CFD4F208130E09F5F9093590202C02C
:101640002FEF3FEFC901089580915A0290E0209159
:101650005902821B910908950F931F93CF93DF9333
:10166000EC016930710519F06A35710571F48AE58C
:1016700090E09D838C8380EF90E09F838E8380E455
:1016800091E09987888718E434C06231710519F0B8
:10169000643B710571F484EB90E09D838C8380E45E
:1016A00091E09F838E8380EF90E09987888718E38D
:1016B00020C06B31710521F07E7F6E30710571F4B1
:1016C0008EE091E09D838C8380EF90E09F838E83FA
:1016D00080E491E09987888718E80BC01D821C82FE
:1016E00080E491E09F838E8380EF90E099878887E4
:1016F00018EE66E3CE010E941A09612FCE010E9406
:101700000B09E881F98108851985015011092E819D
:101710003F81215031090680F781E02D40E050E003
:1017200060E070E0CE010995DF91CF911F910F919C
:1017300008958EBD00000DB407FEFDCF8EB508954F
:101740008F929F92AF92BF92CF92DF92EF92FF92D1
:101750000F931F93CF93DF93EC01690158012E8102
:101760003F81621773071CF0B901615071098885C8
:101770009985481759071CF0AC0141505109FB01EC
:10178000EC0DFD1DE217F3071CF06901C61AD70A1C
:101790009A012A0D3B1D281739071CF05C01A41A79
:1017A000B50AE881F9818A010A0D1B1D0150110952
:1017B0009B012C0D3D1D215031090680F781E02D44
:1017C000CE010995E881F9810084F185E02DCE01F3
:1017D00009959501D6010E9438164B015C01E881FC
:1017E000F98181149104A104B10461F00284F385AC
:1017F000E02DB701CE01099581E0881A9108A10872
:10180000B108EDCF0484F585E02DCE01DF91CF91B5
:101810001F910F91FF90EF90DF90CF90BF90AF900E
:101820009F908F900994EF92FF920F931F93CF9305
:10183000DF93EC018E819F81681779075CF58885BD
:1018400099854817590734F57901E881F9810680AF
:10185000F781E02D8A019B01CE010995E881F9818C
:101860000084F185E02DCE010995E881F98102849B
:10187000F385E02DB701CE010995E881F981048453
:10188000F585E02DCE01DF91CF911F910F91FF9053
:10189000EF900994DF91CF911F910F91FF90EF90FE
:1018A00008952F923F924F925F926F927F928F9204
:1018B0009F92AF92BF92CF92DF92EF92FF920F93DF
:1018C0001F93CF93DF93CDB7DEB728970FB6F89469
:1018D000DEBF0FBECDBF4C016B0158874F8359014E
:1018E00062177307A1F40417150744F4042715279A
:1018F0004027512758874F83042715272F81388584
:10190000021B130B0F5F1F4F21E030E015C04F810A
:10191000588540175107B9F42617370734F4A6261F
:10192000B726CA24DB24AC24BD2495012C193D091B
:101930002F5F3F4F01E010E04F815885B601C40191
:101940000E94A00BA0C0FC0126813781621773079B
:1019500024F06901F1E0CF1AD108F4018085918566
:101960004F8158854817590724F0FC013197F887B3
:10197000EF83A216B30624F05901F1E0AF1AB108C3
:10198000081719071CF08C010150110935016C185A
:101990007D0828012F813885421A530A77FE08C036
:1019A0007194619471084FEF5FEF5A83498304C0CB
:1019B00081E090E09A83898357FE08C05194419456
:1019C0005108EFEFFFEFFC83EB8304C021E030E030
:1019D0003C832B83A301440F551F5E834D8312016B
:1019E000220C331C97014F815885B601C4010E9417
:1019F000130C461457041CF5810106191709CA1463
:101A0000DB0409F440C017FD0CC08F819885EB8181
:101A1000FC818E0F9F1F98878F832D813E81021B33
:101A2000130B49815A81C40ED51E020D131D970157
:101A30004F815885B601C4010E94130CE0CFAD80E0
:101A4000BE80A418B5088F81988580179107D9F0BA
:101A5000B7FC06C089819A81C80ED91EA218B308A6
:101A6000EF81F8852B813C81E20FF31FF887EF832C
:101A70004D815E81A40EB51E9701AF01B601C40170
:101A80000E94130CE0CF28960FB6F894DEBF0FBE6D
:101A9000CDBFDF91CF911F910F91FF90EF90DF901D
:101AA000CF90BF90AF909F908F907F906F905F90FE
:101AB0004F903F902F9008958F929F92AF92BF9238
:101AC000EF92FF920F931F93CF93DF93EC017B0173
:101AD000E881F98108851985015011092E813F811E
:101AE000215031090680F781E02D40E050E060E0B0
:101AF00070E00995E881F9810084F185E02DCE013F
:101B00000995AE81BF81288539850E9438164B0121
:101B10005C0183E0B694A794979487948A95D1F753
:101B2000E881F98181149104A104B10409F444C04D
:101B30000284F385E02DB701CE010995E881F98192
:101B40000284F385E02DB701CE010995E881F98182
:101B50000284F385E02DB701CE010995E881F98172
:101B60000284F385E02DB701CE010995E881F98162
:101B70000284F385E02DB701CE010995E881F98152
:101B80000284F385E02DB701CE010995E881F98142
:101B90000284F385E02DB701CE010995E881F98132
:101BA0000284F385E02DB701CE01099581E0881A02
:101BB0009108A108B108B4CF0484F585E02DCE01C9
:101BC000DF91CF911F910F91FF90EF90BF90AF9059
:101BD0009F908F9009941F920F920FB60F9211242D
:101BE0002F933F934F935F936F937F938F939F9325
:101BF000AF93BF93EF93FF938091B900887F8036B6
:101C000009F49CC068F5883209F45BC090F4803117
:101C100009F454C038F4882309F4F6C0883009F474
:101C20004DC0F6C0883109F44CC0803209F45DC063
:101C3000EFC0803409F468C048F4803309F455C01B
:101C4000883309F0E5C080933602D8C0803509F4A6
:101C50004FC0883509F45DC0883409F0D9C0D6C0BA
:101C6000883909F4C7C0A8F4883709F467C038F484
:101C7000883609F463C0803709F460C0C9C0883869
:101C800009F4B8C0803909F45FC0803809F0C0C0D9
:101C90005BC0803B09F486C038F4803A09F466C022
:101CA000883A09F47FC0B4C0803C09F4A7C0883CDE
:101CB00009F4A4C0883B09F48AC0AAC08091330209
:101CC00010C09091350280913402981770F5E09120
:101CD000350281E08E0F80933502F0E0EE5EFD4F1D
:101CE00080818093BB0085EC86C0809336028EC0D5
:101CF000E091350281E08E0F809335028091BB0028
:101D0000F0E0EE5EFD4F80839091350280913402C9
:101D10006EC0E091350281E08E0F80933502809194
:101D2000BB00F0E0EE5EFD4F8083809137028111B1
:101D30006DC081E08093320284EA61C083E08093C9
:101D400038021092B802CFCF8091B802803208F0EA
:101D500051C0E091B80281E08E0F8093B80280916B
:101D6000BB00F0E0E856FD4F8083BDCF85EC80934B
:101D7000BC00109238028091B802803230F4E091B9
:101D8000B802F0E0E856FD4F10826091B80270E0B2
:101D9000E0919602F091970288E992E009951092FD
:101DA000B80236C084E080933802109295021092F7
:101DB0009402E0919202F09193020995809194022D
:101DC000811105C081E08093940210927202E0912B
:101DD000950281E08E0F80939502F0E0EE58FD4F62
:101DE00080818093BB009091950280919402981716
:101DF00008F479CF85E88093BC000AC085EC809315
:101E0000BC001092380204C0109236020E94F60AFA
:101E1000FF91EF91BF91AF919F918F917F916F91C2
:101E20005F914F913F912F910F900FBE0F901F9098
:101E3000189540919402262F30E0240F311D213255
:101E40003105DCF4209138022430C9F4FC0180E033
:101E500090E0861758F4309194022191DC01AE583D
:101E6000BD4FA30FB11D2C930196F3CF8091940227
:101E7000680F6093940280E0089581E0089582E005
:101E80000895CF93DF9300D01F92CDB7DEB778943B
:101E900084B5826084BD84B5816084BD85B582606F
:101EA00085BD85B5816085BD80916E008160809320
:101EB0006E00109281008091810082608093810089
:101EC0008091810081608093810080918000816099
:101ED000809380008091B10084608093B1008091F4
:101EE000B00081608093B00080917A00846080931C
:101EF0007A0080917A00826080937A0080917A00E3
:101F0000816080937A0080917A00806880937A0063
:101F10001092C10083E690E00E944D1620E030E070
:101F2000D901A050BF4F40E050E06D91FA01E20F9F
:101F3000F31FE80FF91F60834F5F5F4F4B30510570
:101F4000A1F7255F3F4F2336310551F79093EE01FE
:101F50008093ED0181E490E00E944D164C01DC017C
:101F600013961C921E92129715961C921E9214970D
:101F700080E491E017969C938E93169780EF90E003
:101F800019969C938E9318971F961C921E921E97DB
:101F90001D961C921E921C971B961C921E921A97BD
:101FA00057961C921E92569755961C921E925497C5
:101FB00053961C921E92529751961C921E925097C5
:101FC000F40110AA11AA12AA13AA81E084AB85AB6E
:101FD00017AA16AA8FEF9FEF91AF80AF17AE16AE7C
:101FE00015AE14AE13AE12AE85E791E091838083F7
:101FF0009092EC018092EB0161E088E00E946E0516
:10200000289861E089E00E946E0561E087E00E9407
:102010006E0561E08DE00E946E0561E08BE00E943C
:102020006E0560E08CE00E946E0529985F9A61E081
:1020300086E00E946E055E9AF401E05CFF4F10821C
:102040008CB5837F8CBD8CB58F7D8CBD1FB7F8940C
:102050008091E301811127C0EBE1F1E08491EFE28F
:10206000F1E09491E82FF0E0EE0FFF1FE350FF4FF7
:10207000A591B491EC91E92321F461E08AE00E94FA
:10208000220561E08AE00E946E058CB580618CBDFE
:102090008CB580648CBD61E08DE00E946E0561E0CE
:1020A0008BE00E946E058091E3018F5F8093E301D6
:1020B0001FBF8CB58C7F81608CBD8DB581608DBD5F
:1020C0005F9A289862E370E080E090E00E94AA05A1
:1020D000289A68E770E080E090E00E94AA05E8E6B0
:1020E000F0E06F012FEFC21AD20A64916F3FA1F1A5
:1020F000862F807C8038B1F0803C39F1803411F03B
:10210000F601EFCF162F1F735F01012FFFEFAF1AFC
:10211000BF0A0023B9F0F5016491C4010E941A09B5
:102120000150F4CF162F1F735F01012FFFEFAF1A7D
:10213000BF0A002339F0F5016491C4010E940B0924
:102140000150F4CFC10ED11CDBCF6F7370E080E083
:1021500090E00E94AA05D4CF60E070E0C4010E9424
:102160005C0D8CB58C7F8CBD8DB58E7F8DBD61E097
:1021700089E00E946E05E2E4F1E0E491E33019F1B8
:1021800050F4E130D1F0E230E1F584B5806284BDF5
:102190008FE788BD3AC0E73011F1E83049F1E4300B
:1021A00081F5809180008062809380008FE790E0CD
:1021B00090938B0080938A0028C084B5806884BD8A
:1021C0008FE787BD22C08091800080688093800067
:1021D0008FE790E0909389008093880016C08091EB
:1021E000B00080688093B0008FE78093B3000DC08B
:1021F0008091B00080628093B0008FE78093B4003C
:1022000004C060E089E00E94220587E090E00E941F
:102210004D168C01DC0116961C92109259021092F8
:102220005A021092F001109211021092380281E0CD
:10223000809337021092320261E082E10E9422050F
:1022400061E083E10E9422058091B9008E7F809336
:10225000B9008091B9008D7F8093B90088E48093A4
:10226000B80085E48093BC0040EF65E5C8010E949A
:102270003B074BEF60E0C8010E943B07BFEFE1EE78
:10228000F4E0B150E040F040E1F700C00000C801C8
:102290000E94A907C8010E94A907D8018C91129633
:1022A0008C93129711968C91119713968C9310938F
:1022B000EA010093E901AA24A394B2E06B2E18E08E
:1022C000712E06E0B02E8091E80181119EC087E05A
:1022D00090E00E944D161C018090E9019090EA0167
:1022E000C090EB01D090EC01FC011482A582168213
:1022F00091828082D382C28260EE7FEFC6010E940B
:102300005C0DC4010E94A907D40116968C918330FC
:1023100019F4F101148205C0843019F4D101149626
:10232000AC92F10154808581851509F451C0552086
:1023300029F1F1E05F124CC04FE150E066E970E036
:10234000C6010E94E1037FE1E72EF12C00E01CEFC3
:102350002FE931E04AEA50E069E670E0C6010E94E8
:102360004C0340E05CEF68E270E0C6010E94E103CC
:10237000E12CECEFFE2E0FE110E021C040E05CEF1D
:1023800066E970E0C6010E94E103E12CFCEFFF2E3C
:102390000FE110E02FE931E04AEA50E069E670E031
:1023A000C6010E944C034FE150E068E270E0C601B4
:1023B0000E94E103AFE1EA2EF12C00E01CEF27EAD6
:1023C00031E04CE350E060E570E0C6010E944C0350
:1023D000D10115965C92F4018581882359F055202E
:1023E00031F0F1E05F1206C0F101668203C0D10155
:1023F0001696AC92D10116968C91882309F481CF60
:102400008093E801C1010E94E2161091E8011130A9
:1024100009F07EC28FE090E00E944D168C01C090C2
:10242000ED01D090EE018091E9019091EA01F8016F
:1024300093838283D582C4821093E7010093E601DF
:1024400086E090E00E944D169B838A838091EB0189
:102450009091EC01AA81BB8111969C938E93139667
:10246000DC92CE92129715961C930E9314976DECF6
:1024700074EA0E945C0D54E4E52E59E2F52E08ED55
:1024800010E028E031E04DE050E060E370E0EA81E8
:10249000FB81808191810E94A00B612C712C6DE0E9
:1024A000A62EB12C6982812C912C00E3C02ED12C58
:1024B000EBE0E69D1001E79D300C1124AA81BB8161
:1024C0001296ED91FC9113972101480C591CE40DD3
:1024D000F51D8081833019F1A0F48130D9F082306C
:1024E00009F062C03DE6E32E3BEAF32E08E110E07E
:1024F00028E130E0A501B601AA81BB818D919C91B4
:1025000051C0843059F1853009F04EC08FE1E82E7A
:10251000F12C3EC04DECE42E44EAF42E39C0E12CFF
:1025200028EFF22E08E110E028E130E0A501B60125
:10253000EA81FB81808191810E94A00BAA81BB81ED
:102540001496ED91FC9115978682B981B7838286A6
:1025500083861086118624E026870FC0E12C98EF31
:10256000F92E08E110E028E130E0A501B601EA818A
:10257000FB81808191810E94A00BAA81BB81129670
:102580008D919C911397FC01E40DF51D10820CC0F8
:1025900008E110E028E130E0A501B601EA81FB8105
:1025A000808191810E94A00BF8E1CF0ED11C2FEF0A
:1025B000821A920A88E3C81681E0D80609F07ECF15
:1025C00098E1A90EB11CAFEF6A1A7A0AB5EEAB1604
:1025D000B10409F067CF8A819B819093E5018093D4
:1025E000E401BBE0BB2E18E1A12E8091E90190919E
:1025F000EA010E94A907E091E901F091EA018581D1
:10260000882309F479C0C090E401D090E501D60197
:102610001496ED91FC91159793858285458550E040
:10262000B8E19B9F400D511D1124435F5F4F6485AE
:1026300070E0E8E18E9F600D711D1124605D7F4F99
:10264000E4E4EE2EE9E2FE2E08E110E028E130E0BD
:10265000D6018D919C910E94A00BD6011496ED910C
:10266000FC91159797818681418550E0B8E19B9F49
:10267000400D511D1124435F5F4F608570E0E8E11C
:102680008E9F600D711D1124605D7F4FFFE1EF2E65
:10269000F12C28E130E0D6018D919C910E94A00B95
:1026A000BFEFEBE7F2E9B150E040F040E1F700C0E6
:1026B0000000D6011496ED91FC91159797818681C3
:1026C000418550E0B8E19B9F400D511D1124435FAF
:1026D0005F4F608570E0E8E18E9F600D711D1124F1
:1026E000605D7F4FE12CA8EFFA2E28E130E0D601A3
:1026F0008D919C910E94A00BE091E601F091E70181
:10270000A281B38116968C918230C9F118F4813080
:1027100041F06BCF833009F47EC0843009F4A9C046
:1027200064CF9185911158C08085811125C0878122
:1027300026819FEF920F44815581893009F455CF4E
:102740009B3009F452CFB89ED0011124A90FB11DBE
:10275000A40FB51F8C913FEF380F323008F445CFEE
:10276000853009F442CF222309F43FCF9683868532
:10277000BA2DB81B8B2FB8C09685891BB5C0918523
:1027800091112AC0908591111DC0878196819F5F0C
:1027900024813581893009F428CF9B3009F425CF75
:1027A000B89ED0011124A90FB11DA20FB31F8C91A7
:1027B0009FEF980F923008F418CF853009F415CFA9
:1027C000868592C08685890F883108F48DC0108671
:1027D00086818F5F8683D7C1692F70E08685282F19
:1027E00030E0220F331F261737071CF0981B892F64
:1027F00068C048E150E0461B570B241735070CF41E
:10280000F4CE890F8187883109F0BDC187818F5F40
:1028100087831186B8C1908591115AC08185811135
:1028200025C097818FEF890F26814481558189309A
:1028300009F4DBCE2B3009F4D8CEB89ED001112498
:10284000A20FB11DA40FB51F2C913FEF320F3230F4
:1028500008F4CBCE253009F4C8CE992309F4C5CEAF
:10286000878386852A2D281B822F2BC09685891B5E
:1028700028C0908591112CC0918591111EC0A7810F
:1028800081E08A0F968124813581893009F4ADCEAB
:102890009B3009F4AACEB89ED0011124A90FB11D16
:1028A000A20FB31F8C919FEF980F923008F49DCE2A
:1028B000853009F49ACE868504C08685890F8831D3
:1028C00010F4818760C1118687818F5F87835BC128
:1028D000692F70E08685282F30E0220F331F2617DE
:1028E000370724F0981B892F80874DC148E150E0BD
:1028F000461B570B241735070CF477CE890F8087BA
:10290000883109F040C186818F5F868310863BC184
:10291000123009F0D8CC89E290E00E944D162C01CB
:102920008090E9019090EA01C090EB01D090EC0119
:1029300062EB71E00E94D6046DEB71E0C201069675
:102940000E94D60467EC71E0C2010C960E94D60486
:1029500064ED71E0C20142960E94D604E9E6F1E01E
:10296000D2015896872D01900D928A95E1F7D201F8
:1029700094961C9294979596AC92959798961C93E2
:10298000989791969C928E9290979396DC92CE9285
:10299000929760EE7FEFC6010E945C0D41E050E02F
:1029A00060E070E0C2010E942E06F201408D518D60
:1029B00021E030E060E070E0C2010E94E9066201BF
:1029C000FAE1CF0ED11C420120E2820E911C01E0FF
:1029D00010E040E050E0B801C2010E942E06D6018E
:1029E0004D915D916D0121E030E0B801C2010E947E
:1029F000E9060F5F1F4FC814D90459F7F20180A1EF
:102A000091A10E94A907D2019096ED91FC91919716
:102A10008681833021F494968C9181110FC1868137
:102A2000843029F4F20184A1833009F00CC1FFEF56
:102A300021EE84E0F15020408040E1F700C000002A
:102A4000D20194968C91813059F028F0823071F047
:102A50008330E9F16FC0F20165A161110BC034C090
:102A6000D20195966C916130B9F55DC0F20165A116
:102A7000623051F1A201B69E400D511D1124F2E3C6
:102A80006F9FB00111246C5E7F4F20E03CEFD201BC
:102A900092968D919C9193970E948803F20164A174
:102AA000A201B69E400D511D1124F2E36F9FB001AB
:102AB00011246C5E7F4F2FE130E0D20192968D9110
:102AC0009C9193970E948803F20164A12FC0D201C8
:102AD00095966C91633039F1A201B69E400D511D5F
:102AE0001124B2E36B9FB00111246C5E7F4F20E094
:102AF0003CEFF20182A193A10E948803D201949637
:102B00006C91A201B69E400D511D1124B2E36B9F42
:102B1000B00111246C5E7F4F2FE130E0F20182A101
:102B200093A10E948803D20194966C9170E0C20137
:102B30000E946608F20184A185A300A0F1A1E02D06
:102B40008481882319F0D20198961C92F20180A505
:102B5000823009F453CF8093E8014114510409F401
:102B6000B2CB8201085E1F4F0415150541F00650D7
:102B70001109D8018D919C910E94E216F5CFC801F0
:102B80000E94E216A0CBC090E401D090E501D601EE
:102B90001496ED91FC91159793858285458550E0BB
:102BA000B8E19B9F400D511D1124435F5F4F648529
:102BB00070E0E8E18E9F600D711D1124605D7F4F14
:102BC00084E4E82E89E2F82E08E110E028E130E004
:102BD000D6018D919C910E94A00BD6011496ED9187
:102BE000FC911597978141858681608550E0B8E119
:102BF0009B9F400D511D1124435F5F4F70E0E8E142
:102C00008E9F600D711D1124605D7F4FE12C98EF48
:102C1000F92E28E130E0D6018D919C910E94A00B05
:102C2000D6011496ED91FC91159786818287878154
:102C300083878085848781858587D7CC8150D20121
:102C400094968C93ECCE8F5FF20184A3F0CEEBE5EB
:102C5000F2E01382128288EE93E0A0E0B0E0848379
:102C60009583A683B7838BE891E091838083089551
:102C70000E94C518332312F48A1B9B0B0C94421636
:102C80000E94C518B7FF0895821B930B0895EE0F9D
:102C9000FF1F0590F491E02D0994CF93DF938230CC
:102CA000910510F482E090E0E091BB02F091BC024B
:102CB00020E030E0C0E0D0E0309711F14081518158
:102CC00048175907C0F04817590761F4828193816A
:102CD000209719F09B838A832BC09093BC0280932A
:102CE000BB0226C02115310519F04217530718F40D
:102CF0009A01BE01DF01EF010280F381E02DDCCFFC
:102D00002115310509F1281B390B2430310590F4C8
:102D100012968D919C9113976115710521F0FB011D
:102D20009383828304C09093BC028093BB02FD0115
:102D3000329644C0FD01E20FF31F8193919322501C
:102D400031092D933C933AC02091B9023091BA02D7
:102D5000232B41F420916501309166013093BA0232
:102D60002093B9022091630130916401211531054E
:102D700041F42DB73EB74091670150916801241B83
:102D8000350BE091B902F091BA02E217F307A0F413
:102D90002E1B3F0B2817390778F0AC014E5F5F4FB1
:102DA0002417350748F04E0F5F1F5093BA02409327
:102DB000B9028193919302C0E0E0F0E0CF01DF918E
:102DC000CF9108950F931F93CF93DF93009709F44A
:102DD0008CC0FC013297138212820091BB021091C9
:102DE000BC020115110581F420813181820F931FEE
:102DF0002091B9023091BA022817390779F5F0937A
:102E0000BA02E093B90271C0D80140E050E0AE17B9
:102E1000BF0750F412962D913C911397AD012115E7
:102E2000310509F1D901F3CF9D01DA013383228302
:102E300060817181860F971F8217930769F4EC01F7
:102E400028813981260F371F2E5F3F4F3183208322
:102E50008A819B8193838283452B29F4F093BC0262
:102E6000E093BB0242C01396FC93EE931297ED01E0
:102E7000499159919E01240F351FE217F30771F410
:102E800080819181840F951F029611969C938E9359
:102E90008281938113969C938E931297E0E0F0E0E9
:102EA000D80112968D919C911397009719F0F80113
:102EB0008C01F6CF8D919C9198012E5F3F4F820F30
:102EC000931F2091B9023091BA022817390769F48B
:102ED000309729F41092BC021092BB0202C01382F8
:102EE00012821093BA020093B902DF91CF911F9121
:102EF0000F910895A0E0B0E0E0E8F7E10C9492189B
:102F0000EC01009721F4CB010E944D16B8C0FC01E2
:102F1000E60FF71F9C0122503109E217F30708F46E
:102F2000ACC0D9010D911C91119706171707B0F08D
:102F30000530110508F49FC0C8010497861797074C
:102F400008F499C002501109061B170B0193119345
:102F50006D937C93CF010E94E2168DC05B01A01A95
:102F6000B10A4C01800E911EA091BB02B091BC022F
:102F700040E050E0E12CF12C109709F44AC0A8156C
:102F8000B905D1F56D907C901197630182E0C80E70
:102F9000D11CCA14DB0480F1A3014A195B096A0140
:102FA00082E0C80ED11C1296BC9012971396AC9179
:102FB000B5E0CB16D10440F0B282A38351834083A5
:102FC000D9016D937C930AC00E5F1F4FC301800F20
:102FD000911FF90191838083EB2DFA2FE114F10405
:102FE00031F0D7011396FC93EE93129744C0F093FF
:102FF000BC02E093BB023FC08D919C911197481792
:10300000590708F4AC017D0112960D90BC91A02DDA
:10301000B3CF8091B9029091BA0288159905E1F475
:1030200046175707C8F48091630190916401009797
:1030300041F48DB79EB74091670150916801841BA0
:10304000950BE817F907C8F4F093BA02E093B902B8
:10305000F901718360830FC0CB010E944D167C0182
:10306000009759F0A801BE010E944918CE010E94A4
:10307000E216C70104C0CE0102C080E090E0CDB7E7
:10308000DEB7EEE00C94AE1881E090E0F8940C947A
:10309000D418FB01DC0102C001900D924150504058
:1030A000D8F70895FB01DC0101900D920020E1F7B3
:1030B0000895BB274A3031F4992322F4BDE290955C
:1030C00081959F4F0C946518BB27FB015527AA27B4
:1030D000880F991FAA1FA41710F0A41B83955051A5
:1030E000B9F7A05DAA3308F0A95DA193009779F71D
:1030F000B111B1931192CB010C947E18DC01FC014B
:10310000672F71917723E1F7329704C07C916D931B
:1031100070836291AE17BF07C8F308952F923F9254
:103120004F925F926F927F928F929F92AF92BF92D7
:10313000CF92DF92EF92FF920F931F93CF93DF9383
:10314000CDB7DEB7CA1BDB0B0FB6F894DEBF0FBEE0
:10315000CDBF09942A88398848885F846E847D842D
:103160008C849B84AA84B984C884DF80EE80FD802F
:103170000C811B81AA81B981CE0FD11D0FB6F894A5
:10318000DEBF0FBECDBFED010895A29FB001B39F7A
:10319000C001A39F700D811D1124911DB29F700D60
:0C31A000811D1124911D0895F894FFCFAB
:1031AC000300000000000000000000050102010007
:1031BC000100010001000000000000000000000000
:1031CC0000000100010001000100010000000000EE
:1031DC0000020000000000000100010001000100DD
:1031EC0001000000000000000000020002000100CD
:1031FC0001000100010001000000000000000000BF
:10320C000200040000BD0280000000040007000062
:10321C0000000000005D09B1022C0B2E0929092ABF
:10322C00030103DB09C909000000008202520224D9
:10323C000B100B010B000B000000000303B1024F3D
:10324C007074696F6E730053746172742047616D92
:10325C0065004272696768744E6573730047616DEF
:10326C0065537065656400426F6D622044656E73D2
:10327C00697479004C6576656C2053656C65637474
:02328C00000040
:00000001FF
