:100000000C9470020C9498020C9498020C94980230
:100010000C9498020C9498020C9498020C949802F8
:100020000C9498020C9498020C9498020C949802E8
:100030000C9498020C9498020C9498020C949802D8
:100040000C945F0D0C9498020C9498020C949802F6
:100050000C9498020C9498020C9498020C949802B8
:100060000C947F120C949802F10DF40DF70DFA0D1B
:10007000FD0D000E030E060E090E0C0E0F0E120ED5
:10008000200E150E180E4C0E4F0E520E550E580E19
:100090005B0E5E0E610E640E670E6A0E6D0E7B0EB9
:1000A000700E730ECB0ECE0ED10ED40ED70EDA0E0E
:1000B000DD0EE00EE30EE60EE90EEC0EFA0EEF0E8C
:1000C000F20E270F2A0F2D0F300F330F360F390F77
:1000D0003C0F3F0F420F450F480F560F4B0F4E0F6F
:1000E0004128D441CF8300833041ED8464031281E1
:1000F00041E88385017941CB85392C00340241F7F1
:10010000812041EA82000041C0812641C181114124
:10011000C582353E41C781BE41B182001B41F2819B
:10012000084126810141E08F1F1A180A0F064587F2
:10013000320A070207050041E18F00252705100953
:100140003A784D05180D383A1F41B6840A822700C7
:1001500041B78107413A8155413681E8412A820001
:100160000082013F412B8200008200EF4111FCFC24
:100170004129D4FFFF43616C6962726174696F6EDB
:100180000043616C6962726174696F6E0000000007
:10019000000000000030787830300030006C6C6C6B
:1001A00000000000006C6CFE6CFE6C6C00307CC0CB
:1001B000780CF8300000C6CC183066C600386C38B1
:1001C00076DCCC76006060C0000000000018306073
:1001D0006060301800603018181830600000663C0D
:1001E000FF3C660000003030FC30300000000000B2
:1001F0000000703060000000FC0000000000000003
:100200000000303000060C183060C0800078CCDC74
:10021000FCECCC780030F030303030FC0078CC0C86
:100220003860CCFC0078CC0C380CCC78001C3C6CD2
:10023000CCFE0C0C00FCC0F80C0CCC78003860C074
:10024000F8CCCC7800FCCC0C183060600078CCCCBA
:1002500078CCCC780078CCCC7C0C187000000030C6
:1002600030003030000000303000703060183060F6
:10027000C0603018000000FC00FC00000060301876
:100280000C1830600078CC0C18300030007CC6DED2
:10029000DEDEC078003078CCCCFCCCCC00FC6666CE
:1002A0007C6666FC003C66C0C0C0663C00FC6C66B8
:1002B00066666CFC00FE6268786862FE00FE62683A
:1002C000786860F0003C66C0C0CE663E00CCCCCC06
:1002D000FCCCCCCC0078303030303078001E0C0CA8
:1002E0000CCCCC7800E6666C786C66E600F060605A
:1002F000606266FE00C6EEFED6C6C6C600C6E6F65C
:10030000DECEC6C600386CC6C6C66C3800FC666653
:100310007C6060F00078CCCCCCDC781C00FC66669D
:100320007C786CE60078CCE0381CCC7800FCB430EB
:100330003030307800CCCCCCCCCCCCFC00CCCCCC8D
:10034000CCCC783000C6C6C6D6FEEEC600C6C66C9B
:10035000386CC6C600CCCCCC7830307800FECC9857
:100360003062C6FE007860606060607800C0603017
:10037000180C060200781818181818780010386C35
:10038000C60000000000000000000000FF30301830
:1003900000000000000000780C7CCC7600E0607C5F
:1003A000666666BC00000078CCC0CC78001C0C0CE3
:1003B0007CCCCC7600000078CCFCC07800386C6037
:1003C000F06060F000000076CCCC7C0CF8E0606C53
:1003D000766666E6003000703030307800180078BD
:1003E000181818D870E060666C786CE600703030D1
:1003F00030303078000000ECFED6C6C6000000F8B1
:10040000CCCCCCCC00000078CCCCCC78000000DC8C
:1004100066667C60F0000076CCCC7C0C1E0000D8B8
:100420006C6C60F00000007CC0780CF80010307C30
:1004300030303418000000CCCCCCCC76000000CC9E
:10044000CCCC7830000000C6C6D6FE6C000000C6DA
:100450006C386CC6000000CCCCCC7C0CF80000FCE6
:10046000983064FC001C3030E030301C0018181844
:100470000018181800E030301C3030E00076DC0046
:10048000000000000010386CC6C6C6FE0000000068
:1004900000240027002A0000000000250028002B6F
:1004A000000404040404040404020202020202031D
:1004B0000303030303010204081020408001020427
:1004C00008102001020408102000000008000201AA
:1004D0000000030407000000000000000000D21F1D
:1004E00011241FBECFEFD8E0DEBFCDBF15E0A0E0E6
:1004F000B1E0E6EFF5E402C005900D92A430B1073B
:10050000D9F725E0A4E0B5E001C01D92AF3DB207E8
:10051000E1F712E0C0E7D2E004C02197FE010E949B
:10052000F31FCF36D107C9F70E94AD130C94F922FF
:100530000C9400005F9A08958EBD00000DB407FE74
:10054000FDCF8EB50895CF93DF931F92CDB7DEB761
:10055000872F5F982B9A2D989CB59F7B9CBD2D9AD9
:100560009CB590649CBD69830E949C022B9A2D9837
:100570009CB59F7B9CBD2D9A9CB590649CBD698168
:10058000862F0E949C025F9A0F90DF91CF91089571
:10059000CF93DF931F92CDB7DEB7872F2B9A2D987D
:1005A0009CB59F7B9CBD2D9A9CB590649CBD698336
:1005B0000E949C022B9A2D989CB59F7B9CBD2D9AE6
:1005C0009CB590649CBD6981862F0F90DF91CF917F
:1005D0000C949C024F925F926F927F928F929F92A7
:1005E000AF92BF92CF92DF92EF92FF920F931F9341
:1005F000CF93DF93EC01E888F9888C899D890A897B
:100600001B89E816F90609F474C0FD8AEC8A288D66
:10061000398D4A8D5B8DD7010E9489224B015C0187
:100620002C8D3D8D4E8D5F8DD8010E948922AB01AE
:10063000BC01480D591D6A1D7B1D88A199A1AAA165
:10064000BBA15A016B01A80EB91ECA1EDB1EC60152
:10065000B50128A939A94AA95BA90E94C822490164
:100660005A01DA01C9012C813D812A35310509F190
:1006700018F4232B41F03BC0243B310521F02E30F0
:100680003140B9F034C02E813F81A901440F551F7C
:1006900060E070E084169506A606B70628F5A90165
:1006A00060E070E084169506A606B70600F1C90161
:1006B00015C0488559852A01440C551C612C712CA4
:1006C00084149504A604B70478F42A01612C712CD3
:1006D00084149504A604B70450F0CA010197092EAA
:1006E000000CAA0BBB0B03C080E090E0DC019B87F1
:1006F0008A878E899F890817190709F45FC01F8BA5
:100700000E8B2CA13DA14EA15FA1D7010E94892291
:100710004B015C0128A539A54AA55BA5D8010E941B
:100720008922AB01BC01480D591D6A1D7B1D8CA59A
:100730009DA5AEA5BFA55A016B01A80EB91ECA1E84
:10074000DB1EC601B50128A939A94AA95BA90E94E7
:10075000C822DA01C9016C817D816A35710571F0A9
:1007600018F4672B41F028C0643B710521F06E300E
:10077000714021F021C06885798502C06E817F813A
:100780004B01880C991CA12CB12C281539054A0560
:100790005B0578F44B01A12CB12C281539054A05CD
:1007A0005B0550F0CB010197092E000CAA0BBB0B87
:1007B00003C080E090E0DC019D878C87DF91CF91C2
:1007C0001F910F91FF90EF90DF90CF90BF90AF906F
:1007D0009F908F907F906F905F904F900895CF92F1
:1007E000EF92FF920F931F93CF93DF93EC01262F8D
:1007F0006A3081F48EAD9FAD9BAF8AAF2CA92F7765
:100800008CAD9DAD38E0239F800D911D11249DAFCF
:100810008CAF47C0862F8B7F893009F442C06AAD08
:100820007BAD203219F461157105D9F1E881F981A8
:10083000E8ACF9AC0EA91FA94CAD5DAD0088F189FB
:10084000E02DCCA8CE010995BC019BAF8AAF8DA944
:10085000882339F12CA92F77822F90E048EF4203AB
:10086000900111244E815F81420F531F4617570795
:10087000C4F44EAD5FAD5BAF4AAF43E0880F991F44
:100880004A95E1F74CAD5DAD840F951F9DAF8CAFE0
:1008900048855985240F351F2817390714F41DAED4
:1008A0001CAE81E090E0DF91CF911F910F91FF90FE
:1008B000EF90CF900895CF92EF92FF920F931F93F6
:1008C000DC01ED91FC910684F785E02D09951F91DF
:1008D0000F91FF90EF90CF9008952F923F924F92FB
:1008E0005F926F927F928F929F92AF92BF92CF92C0
:1008F000DF92EF92FF920F931F93CF93DF9300D07D
:100900001F92CDB7DEB79B838A83480188E0280217
:1009100090011124D901A357BF4F5D01BC2DBF77B2
:10092000CB2EEA81FB8186819781F1E0FB1708F4E9
:1009300063C06B0128E0C20ED11C8C159D050CF420
:100940006EC0AA81BB811896ED91FC9119979A010E
:10095000285F3F4FE217F3070CF461C0AA81BB8107
:10096000ED91FC9111978A01095F1F4F9B01295F4F
:100970003F4F0680F781E02DCD010995AA81BB810B
:10098000ED91FC9111970084F185E02DCD01099541
:100990008501085F1F4FF5014490FFEFAF1ABF0AB2
:1009A00098E0692E712C20E8522EAA81BB81ED912E
:1009B000FC911197852D84210284F385E02D8823F5
:1009C00019F0B401CD0103C0B7018A819B8109955B
:1009D0005694B1E06B1A710841F7A016B106D9F62A
:1009E000AA81BB81ED91FC9111970484F585E02DDE
:1009F000CD010995C60176C0B8E0CB9E80011124D7
:100A00003B01600E711E861597054CF0040F151FF3
:100A1000EA81FB81208531852017310714F4019686
:100A200061C0AA81BB81ED91FC9111970150110920
:100A30000680F781E02D930121503109CD01099500
:100A4000AA81BB81ED91FC9111970084F185E02D85
:100A5000CD0109952501B8E04B0E511CF5012490FC
:100A6000FFEFAF1ABF0A3C2C08E010E080E8D82E58
:100A70008D2D82212C2DA1F0AA81BB81ED91FC91BD
:100A800011970284F385E02DB401CD0129830995E6
:100A90002981215089F7D6940150110949F710C0D6
:100AA000AA81BB81ED91FC9111970284F385E02D21
:100AB000B701CD01298309952981215089F7EBCF11
:100AC0003A943110D1CFA414B50409F0C7CFAA814C
:100AD000BB81ED91FC9111970484F585E02DCD014A
:100AE0000995C3010F900F900F90DF91CF911F9147
:100AF0000F91FF90EF90DF90CF90BF90AF909F90BD
:100B00008F907F906F905F904F903F902F900895BF
:100B10004F925F926F927F928F929F92AF92BF920D
:100B2000CF92DF92EF92FF920F931F93CF93DF93B9
:100B30005C014B01EA01422E502E3701425051090F
:100B40006250710988EAE82E81E3F82E04E110E092
:100B500020E130E0F501808191810E943410930101
:100B6000AE01B401C501411003C00E949C0E02C039
:100B70000E94C40DAE01485F5F4F9601B401C501EC
:100B8000511012C0DF91CF911F910F91FF90EF9004
:100B9000DF90CF90BF90AF909F908F907F906F909D
:100BA0005F904F900C949C0EDF91CF911F910F910D
:100BB000FF90EF90DF90CF90BF90AF909F908F907D
:100BC0007F906F905F904F900C94C40DCF93C62F81
:100BD00081E08093110582E58093890510921205CA
:100BE00010923305642F8DE795E00E9405106C2F5D
:100BF0008DE795E00E94051080913305813208F061
:100C000045C090915A059111FCCF92E090935A05FE
:100C100091E0909359059FEF9093580510925705D6
:100C200080935605A3E1B5E024E335E0F9019E2F5A
:100C3000921B981718F49D919193F9CF1092550536
:100C400080915505846A80935505809154058130C3
:100C500061F410925405809155058093BB008091FA
:100C6000BC0083FDF8CF85EC01C085EE8093BC000D
:100C700080915A058230E1F3809158058F3F31F021
:100C800080915805803211F080915805109212051C
:100C900010923305109211058FE39CE90197F1F74B
:100CA00000C00000CF910895CF92DF92FF920F9382
:100CB0001F93CF93DF93CDB7DEB72C970FB6F89481
:100CC000DEBF0FBECDBF8C0180915A058111FCCFD4
:100CD00081E080935A05809359059FEF90935805C2
:100CE0001092570595E09093560580935505809195
:100CF0005505846A8093550580915405813061F4CF
:100D000010925405809155058093BB008091BC00E2
:100D100083FDF8CF85EC01C085EE8093BC00809107
:100D20005A058130E1F380915705863018F4F09030
:100D3000570502C036E0F32EA4E3B5E02BE535E01D
:100D4000F9018E2F821B8F1518F48D918193F9CFA5
:100D500010927B05F0927C05CE0101966C0180918A
:100D60007B05F81649F08DE795E00E94B90FF60172
:100D7000819391936F01F3CF8981F80180838B81F7
:100D800081838B859C859C0121703327F1E02F277F
:100D9000F801258396958795F1E08F278170F801FA
:100DA000848340E060E0C8010E94E605F8012081EC
:100DB00030E0828190E0A901481B590B4630510573
:100DC00014F082E006C0821B930B069724F081E0AA
:100DD000F801868302C0F8011682F801218130E013
:100DE000838190E0A901481B590B4630510514F04E
:100DF00083E006C0821B930B06971CF084E0F80189
:100E00008683F80186812C960FB6F894DEBF0FBE5C
:100E1000CDBFDF91CF911F910F91FF90DF90CF90C9
:100E20000895862F5F982B9A2D989CB59F7B9CBD2B
:100E30002D9A9CB590649CBD0E949C025F9A089577
:100E4000862F5F982B982D989CB59F7B9CBD2D9AE3
:100E50009CB590649CBD0E949C025F9A08956CE2D0
:100E60000E9420075F980895AF92BF92CF92DF92C1
:100E7000EF92FF920F931F93CF93DF93EC015B01EF
:100E80007A0169016AE20E942007B501CE010E9441
:100E9000A302B601CE010E94A3026BE2CE010E9422
:100EA0002007B701CE010E94A302B801CE01DF9155
:100EB000CF911F910F91FF90EF90DF90CF90BF9057
:100EC000AF900C94A3020F931F93CF93DF93EC0189
:100ED0006930710519F06A35710571F48AE590E0A1
:100EE0009D838C8380EF90E09F838E8380E491E0EC
:100EF0009987888718E434C06231710519F0643B22
:100F0000710571F484EB90E09D838C8380E491E023
:100F10009F838E8380EF90E09987888718E320C0B5
:100F20006B31710521F07E7F6E30710571F48EE0BA
:100F300091E09D838C8380EF90E09F838E8380E49B
:100F400091E09987888718E80BC01D821C8280E495
:100F500091E09F838E8380EF90E09987888718EED9
:100F600066E3CE010E942007612FCE010E94110787
:100F7000E881F98108851985015011092E813F8189
:100F8000215031090680F781E02D40E050E060E01B
:100F900070E0CE010995DF91CF911F910F910895D7
:100FA0009CB5282F23709C7F922B9CBD2DB582FB76
:100FB000992790F9822F8E7F892B8DBD0895BF923E
:100FC000CF92DF92EF92FF920F931F93CF93DF9315
:100FD0008C01FCB4DDB585E00E94D0075E9888EBFB
:100FE0000E949C0280E00E949C02C82F88EC0E9414
:100FF0009C0280E00E949C025E9A80958F77CF775A
:10100000C80FC63008F45EC05E9880E90E949C025A
:1010100080E00E949C02C82E80E00E949C0280E931
:101020000E949C0280E00E949C02D82E80E00E94D8
:101030009C02E82ECD1044C080ED0E949C0280E00E
:101040000E949C02D82E80E00E949C0280ED0E94AB
:101050009C0280E00E949C02B82E80E00E949C02CC
:10106000DB102EC094E0C99E900111244E2D50E05B
:1010700096E0559547959A95E1F7422B532B6FEFE4
:1010800073E0FB01E41BF50BAF01A9F0F4E0DF9E78
:10109000B0011124282F30E086E0359527958A95F8
:1010A000E1F7262B372B2115310529F0F801518B5B
:1010B000408B338B228B8C2F90E0F80197878687AB
:1010C0005E9A03C0F80117861686FCBCDDBD81E080
:1010D000F80126853785232B09F480E0DF91CF9135
:1010E0001F910F91FF90EF90DF90CF90BF900895E8
:1010F000CF93DF93EC010E94EA028C819D810097DF
:1011000019F48C859D8516C08A35910529F42885AA
:1011100039858A859B8507C0843B910549F42885DC
:1011200039858C859D85A901481B590BCA0102C0D0
:101130008A859B85DF91CF910895CF93DF93EC0152
:101140000E94EA028C819D81009719F48A859B8513
:1011500014C08A35910519F48C859D850EC02E81A9
:101160003F81843B910519F48A859B8502C08C855B
:101170009D85A901481B590BCA01DF91CF910895A4
:101180002F923F924F925F926F927F928F929F9297
:10119000AF92BF92CF92DF92EF92FF920F931F9385
:1011A000CF93DF93CDB7DEB763970FB6F894DEBF6A
:1011B0000FBECDBF6C014B01CB01880F991F96016B
:1011C000280F391F3B8B2A8BF901808DF60187A3ED
:1011D00082A193A10E949D08092E000CAA0BBB0BB3
:1011E0009C01AD012852310941095109A9E0B0E043
:1011F0000E947E222CED30E040E050E00E945F2211
:10120000EA89FB89318F208FF60187A190E0821750
:10121000930709F46FC0C401019662E3689F10014F
:10122000699F300C11243101FAE06F0E711C21010D
:101230008AE0481A510887E1829FB001839F700DB0
:101240001124635D7F4F9AECE92E92ECF92E830115
:101250009B01A201F60182A193A10E94E510F60173
:10126000A7A0F7E1AF9E500111242DE2A20EB11C00
:1012700021E1E22E24E7F22E9501A201B501F6014B
:1012800082A193A10E94E51028EA31E3A101B501F2
:10129000F60182A193A10E94A710F601A2A0B3A01B
:1012A000910125503109190133E08316910449F465
:1012B000868D978D892B29F408EA11E322E035E029
:1012C00013C04BE0BE016F5F7F4FEA89FB89808DC1
:1012D000918D0E94142281E1E82E84E7F82E08EA1D
:1012E00011E39E012F5F3F4FA10168E171E0C5014D
:1012F0000E94200B63960FB6F894DEBF0FBECDBFE1
:10130000DF91CF911F910F91FF90EF90DF90CF90E1
:10131000BF90AF909F908F907F906F905F904F9015
:101320003F902F9008952F923F924F925F926F922D
:101330007F928F929F92AF92BF92CF92DF92EF9265
:10134000FF920F931F93CF93DF9300D000D0CDB7C0
:10135000DEB76C013B015A01790144245524421A3D
:10136000530A1C821B822B813C81E216F3060CF48B
:101370006AC08B809C808A0C9B1C9801A40113017D
:101380002E0C3F1CB101C6010E94A7109801A401B8
:10139000C3018E199F099A838983BC01C6010E94EB
:1013A000A7104501EB81FC818E1A9F0A9801A401C8
:1013B000B101C6010E94A7109801A40169817A8138
:1013C000C6010E94A7102B803C80260C371C980178
:1013D00045018E0C9F1CA401B101C6010E94A710FB
:1013E00093018B819C81281B390B3A8329839801B7
:1013F000A40169817A81C6010E94A7109801450164
:101400008E189F08A401B101C6010E94A71098017F
:10141000A40169817A81C6010E94A7108B819C81F9
:101420000196EB81FC814E0E5F1E480E591E57FC43
:1014300007C0F1E0EF1AF1084E185F084E185F0878
:101440009C838B8390CF0F900F900F900F90DF9124
:10145000CF911F910F91FF90EF90DF90CF90BF90B1
:10146000AF909F908F907F906F905F904F903F9044
:101470002F900895CF92DF92EF92FF920F931F93D8
:10148000CF93DF936C017A018B01C0E0D0E0CE15E1
:10149000DF0589F0D8016D918D01D601ED91FC91A8
:1014A0000190F081E02DC6010995892B11F47E0190
:1014B00002C02196ECCFC701DF91CF911F910F9110
:1014C000FF90EF90DF90CF9008953FB7F894809110
:1014D0008F0590919005A0919105B091920526B548
:1014E000A89B05C02F3F19F00196A11DB11D3FBF5C
:1014F000BA2FA92F982F8827820F911DA11DB11DEA
:10150000BC01CD0142E0660F771F881F991F4A95E5
:10151000D1F708950E94FF218F929F92AF92BF92C0
:10152000CF92EF92FF920F931F93CF93DF935C01C3
:101530004A01F9019491E9019923E1F0D501ED9176
:10154000FC910684F785E02DCC24C394EE24EA9424
:10155000FE2C00E010E0292FA401C5010995BC0173
:101560002196F50186819781861797071CF0FE0169
:101570009491E2CFCB01DF91CF911F910F91FF901A
:10158000EF90CF90BF90AF909F908F9008952F9243
:101590003F924F925F926F927F928F929F92AF9203
:1015A000BF92CF92EF92FF920F931F93CF93DF934F
:1015B0005C013B014A012901C0E0D0E088E290E0F3
:1015C000F40124813581C217D30740F5D501ED918F
:1015D000FC9126843784F401A081B181109729F40D
:1015E00010929305A3E9B5E002C0AC0FBD1F22E045
:1015F000C22E31E1E32E34E7F32E82012C91A301B8
:10160000BC01C501F1010995D50116962D913C91BA
:1016100017972817390714F02196D2CFDF91CF9171
:101620001F910F91FF90EF90CF90BF90AF909F9040
:101630008F907F906F905F904F903F902F90089584
:101640004F925F926F927F928F929F92AF92BF92D2
:10165000CF92EF92FF920F931F93CF93DF935C0192
:10166000CB014A0138012701E90129912223A1F088
:10167000D501ED91FC910684F785E02D32E0C32E73
:1016800072018301A401BC01C5010995F501268100
:101690003781281739074CF7DF91CF911F910F91B0
:1016A000FF90EF90CF90BF90AF909F908F907F90E2
:1016B0006F905F904F9008952F923F924F925F925C
:1016C0006F927F928F929F92AF92BF92CF92DF9252
:1016D000EF92FF920F931F93CF93DF93CDB7DEB7B7
:1016E00060970FB6F894DEBF0FBECDBF988B8F8783
:1016F0005B016A017A0102E310E022EB30E0AB010A
:1017000067E470E00E943410C5010A969C838B83C5
:101710000EE110E02BE030E0AC016CE370E08F856F
:1017200098890E9434102BE030E04B815C8169EF96
:1017300070E08F8598890E943410F501B796FA877A
:10174000E98786EF682E77247A949AE0492E512C07
:10175000212C312C8B819C819C878B87FE87ED8788
:10176000AB84BC84A218B3087601850126E430E07E
:10177000A501E6E4F0E0E419F509FE83ED83BF017D
:101780008F8598890E94E51086E490E0821993097C
:1017900098878F838B809C8084189508840126E429
:1017A00030E0A401BC018F8598890E94E510850175
:1017B00029EF30E0A501520199EFA90EB11CB50146
:1017C0008F8598890E94E510F101E750FF4FFA8359
:1017D000E983840129EF30E0A401BF018F85988956
:1017E0000E94E5108D849E84820C931C840129EF55
:1017F00030E0A401B5018F8598890E94E510A98485
:10180000BA84A40CB51C850129EF30E0A5016981DB
:101810007A818F8598890E94E510840126E430E062
:10182000A4016D817E818F8598890E94E5108501D4
:1018300026E430E0A5016F8178858F8598890E9424
:10184000E510C1010196260C371C3101680E791E86
:1018500077FC09C0F1E04F1A51081301241835082C
:101860003101641875081C01481659060CF078CF30
:1018700060960FB6F894DEBF0FBECDBFDF91CF915B
:101880001F910F91FF90EF90DF90CF90BF90AF909E
:101890009F908F907F906F905F904F903F902F9090
:1018A0000895EF92FF920F931F93CF93DF93EC0174
:1018B000198218821B821A821D821C826115710591
:1018C000A9F17B01FB0101900020E9F731978F011D
:1018D000061B170BB8016F5F7F4F80E090E00E94FE
:1018E0003521009759F0998388831B830A832C81C3
:1018F0003D81232B81F4FC0110820DC088819981E8
:10190000009711F00E949D20198218821D821C826E
:101910001B821A820BC01D830C83B701DF91CF910C
:101920001F910F91FF90EF900C940D22DF91CF91BA
:101930001F910F91FF90EF90089590E0FC01E75305
:10194000FB4F3491FC01EB54FB4F2491FC01EF550C
:10195000FB4FE491EE2309F43BC0332339F13330DC
:1019600091F038F43130A9F0323001F584B58F7D33
:1019700012C0373091F03830A1F03430B9F4809192
:1019800080008F7D03C0809180008F7780938000DE
:101990000DC084B58F7784BD09C08091B0008F776A
:1019A00003C08091B0008F7D8093B000F0E0EE0F17
:1019B000FF1FE956FB4FA591B4918FB7F894EC91B6
:1019C000611103C020952E2301C02E2B2C938FBFB5
:1019D0000895CF93DF9390E0FC01EB54FB4F2491EB
:1019E000FC01EF55FB4F8491882361F190E0880F53
:1019F000991FFC01E357FB4FC591D491FC01E956B7
:101A0000FB4FA591B491611109C09FB7F8948881EB
:101A1000209582238883EC912E230BC0623061F4E1
:101A20009FB7F8943881822F809583238883EC9127
:101A30002E2B2C939FBF06C08FB7F894E8812E2BD6
:101A400028838FBFDF91CF9108958F929F92AF929D
:101A5000BF92CF92DF92EF92FF926B017C010E94C6
:101A6000650A4B015C01C114D104E104F104F1F0F9
:101A70000E94650ADC01CB0188199909AA09BB09F2
:101A8000883E9340A105B10570F321E0C21AD10848
:101A9000E108F10888EE880E83E0981EA11CB11CB5
:101AA000C114D104E104F10419F7DDCFFF90EF90E8
:101AB000DF90CF90BF90AF909F908F9008951F922E
:101AC0000F920FB60F9211242F933F938F939F93F2
:101AD000AF93BF9380918B0590918C05A0918D055C
:101AE000B0918E0530918A0523E0230F2D3720F425
:101AF0000196A11DB11D05C026E8230F0296A11D68
:101B0000B11D20938A0580938B0590938C05A0933B
:101B10008D05B0938E0580918F0590919005A091D1
:101B20009105B09192050196A11DB11D80938F057D
:101B300090939005A0939105B0939205BF91AF91BA
:101B40009F918F913F912F910F900FBE0F901F90FB
:101B50001895CF92DF92EF92FF920F93FC012583AD
:101B60001282138223EAC22E23E0D22E33E0E32E28
:101B700034E0F32E00E020E00E9488050F91FF90F2
:101B8000EF90DF90CF9008955F926F927F928F9247
:101B90009F92AF92BF92CF92DF92EF92FF920F93FC
:101BA0001F93CF93DF93EC014B0169018D8181304D
:101BB00009F058C07A01A12CB12C36016A0C7B1CAB
:101BC00084019BE0592EF301E50DF11DE0818E2F7C
:101BD00090E08F309105A0F5FC01EC5CFF4F0C9478
:101BE000F31F28EA31E326C024E031E223C02AE8CB
:101BF00036E620C026EC34E41DC022E833E21AC0E9
:101C000028EA33EA17C025E03AE714C024E839E5AA
:101C100011C02CE43FEF0EC023E23DED0BC02FEFCF
:101C20003FEF08C02BEF3EED05C028E135E802C0CC
:101C300020E133E4A701B801888199810E94A710AF
:101C40005A940F5F1F4F8FEF5812BDCF8CE0A80E34
:101C5000B11C8FEFE81AF80A80E6A816B10409F063
:101C6000ACCF5AC0823009F057C07A01A12CB12CF8
:101C700036016A0C7B1C84018BE0582EF301E50DC4
:101C8000F11DE0818E2F90E08F309105A0F5FC01D1
:101C9000ED5BFF4F0C94F31F28EA31E326C024E0EC
:101CA00031E223C028EC39EE20C023E830EB1DC020
:101CB00020E030E81AC028EA33EA17C025E03AE706
:101CC00014C024E839E511C02CE43FEF0EC023E234
:101CD0003DED0BC02FEF3FEF08C02BEF3EED05C0F1
:101CE00028E135E802C020E133E4A701B80188818A
:101CF00099810E94A7105A940F5F1F4F8FEF5812BF
:101D0000BDCF8CE0A80EB11C8FEFE81AF80A80E670
:101D1000A816B10409F0ACCFDF91CF911F910F91BC
:101D2000FF90EF90DF90CF90BF90AF909F908F90FB
:101D30007F906F905F9008954F925F926F927F9225
:101D40008F929F92AF92BF92CF92DF92EF92FF92CB
:101D50000F931F93CF93DF93EC015B018D81813053
:101D600009F059C069018A012A0188E0480E511C16
:101D70003B01ACE06A0E711C75014601D401ED9186
:101D80004D018E2F90E08F309105A0F5FC01EE5AA9
:101D9000FF4F0C94F31F28EA31E326C024E031E220
:101DA00023C02AE836E620C026EC34E41DC022E831
:101DB00033E21AC028EA33EA17C025E03AE714C034
:101DC00024E839E511C02CE43FEF0EC023E23DEDDD
:101DD0000BC02FEF3FEF08C02BEF3EED05C028E111
:101DE00035E802C020E133E4A801B7018881998178
:101DF0000E94A710BFEFEB1AFB0AE614F70409F0E4
:101E0000BDCF8CE0C80ED11C0F5F1F4F0415150508
:101E100009F0B2CF5BC0823009F058C069018A0175
:101E20002A01A8E04A0E511C3B01BCE06B0E711C5C
:101E300075014601D401ED914D018E2F90E08F3058
:101E40009105A0F5FC01EF59FF4F0C94F31F28EA10
:101E500031E326C024E031E223C028EC39EE20C073
:101E600023E830EB1DC020E030E81AC028EA33EA4E
:101E700017C025E03AE714C024E839E511C02CE486
:101E80003FEF0EC023E23DED0BC02FEF3FEF08C048
:101E90002BEF3EED05C028E135E802C020E133E438
:101EA000A801B701888199810E94A710BFEFEB1AA2
:101EB000FB0AE614F70409F0BDCF8CE0C80ED11C74
:101EC0000F5F1F4F0415150509F0B2CFDF91CF91B9
:101ED0001F910F91FF90EF90DF90CF90BF90AF9048
:101EE0009F908F907F906F905F904F90089585EDB9
:101EF0008093BC008091BC0084FDFCCF10925A05F9
:101F000008954091B605262F30E0240F311D21326F
:101F10003105DCF420915A052430C9F4FC0180E03D
:101F200090E0861758F43091B6052191DC01AC564B
:101F3000BA4FA30FB11D2C930196F3CF8091B60534
:101F4000680F6093B60580E0089581E0089582E00F
:101F500008950895E0917B0580917C05E81730F4A1
:101F6000F0E0E55AFA4F808190E008958FEF9FEFFF
:101F7000089590917B0580917C05981750F4E92F86
:101F8000F0E0E55AFA4F208130E09F5F90937B05A7
:101F900002C02FEF3FEFC901089580917C0590E0CA
:101FA00020917B05821B91090895CF92DF92EF92D9
:101FB000FF920F931F93CF93DF937C01262F972FD0
:101FC0008A0180911105882391F0C62FD72F6E01C9
:101FD000C40ED51ECC15DD0571F06991D701ED91C8
:101FE000FC910190F081E02DC7010995F3CF642F9A
:101FF000822F0E94810FC801DF91CF911F910F9115
:10200000FF90EF90DF90CF900895CF93DF931F92D2
:10201000CDB7DEB76983209111052223D1F020913D
:102020003305203240F021E030E0FC01338322838D
:1020300080E090E015C080911205E82FF0E0ED5EA1
:10204000FA4F998190838F5F8093120580933305B7
:1020500005C061E0CE0101960E94810F81E090E011
:102060000F90DF91CF9108958F929F92AF92BF9280
:10207000CF92DF92EF92FF920F931F93CF93DF9354
:10208000EC01690158012E813F81621773071CF032
:10209000B9016150710988859985481759071CF065
:1020A000AC0141505109FB01EC0DFD1DE217F30796
:1020B0001CF06901C61AD70A9A012A0D3B1D281780
:1020C00039071CF05C01A41AB50AE881F9818A017C
:1020D0000A0D1B1D015011099B012C0D3D1D2150A6
:1020E00031090680F781E02DCE010995E881F9815B
:1020F0000084F185E02DCE0109959501D6010E945D
:10210000F91F4B015C01E881F98181149104A1045C
:10211000B10461F00284F385E02DB701CE01099589
:1021200081E0881A9108A108B108EDCF0484F585F3
:10213000E02DCE01DF91CF911F910F91FF90EF9095
:10214000DF90CF90BF90AF909F908F900994EF92C7
:10215000FF920F931F93CF93DF93EC018E819F81AA
:10216000681779075CF5888599854817590734F50C
:102170007901E881F9810680F781E02D8A019B01D0
:10218000CE010995E881F9810084F185E02DCE0129
:102190000995E881F9810284F385E02DB701CE012C
:1021A0000995E881F9810484F585E02DCE01DF9160
:1021B000CF911F910F91FF90EF900994DF91CF91F4
:1021C0001F910F91FF90EF9008952F923F924F92A1
:1021D0005F926F927F928F929F92AF92BF92CF92B7
:1021E000DF92EF92FF920F931F93CF93DF93CDB7C0
:1021F000DEB728970FB6F894DEBF0FBECDBF4C01F7
:102200006B0158874F83590162177307A1F40417B4
:10221000150744F4042715274027512758874F8373
:10222000042715272F813885021B130B0F5F1F4FC3
:1022300021E030E015C04F81588540175107B9F4AF
:102240002617370734F4A626B726CA24DB24AC2485
:10225000BD2495012C193D092F5F3F4F01E010E08F
:102260004F815885B601C4010E943410A0C0FC0102
:10227000268137816217730724F06901F1E0CF1AD4
:10228000D108F401808591854F81588548175907F9
:1022900024F0FC013197F887EF83A216B30624F0EF
:1022A0005901F1E0AF1AB108081719071CF08C01A9
:1022B0000150110935016C187D0828012F813885DE
:1022C000421A530A77FE08C07194619471084FEF67
:1022D0005FEF5A83498304C081E090E09A83898349
:1022E00057FE08C0519441945108EFEFFFEFFC8373
:1022F000EB8304C021E030E03C832B83A301440F37
:10230000551F5E834D831201220C331C97014F81B0
:102310005885B601C4010E94A710461457041CF545
:10232000810106191709CA14DB0409F440C017FD1E
:102330000CC08F819885EB81FC818E0F9F1F988741
:102340008F832D813E81021B130B49815A81C40E5C
:10235000D51E020D131D97014F815885B601C4018A
:102360000E94A710E0CFAD80BE80A418B5088F8171
:10237000988580179107D9F0B7FC06C089819A81AA
:10238000C80ED91EA218B308EF81F8852B813C81B5
:10239000E20FF31FF887EF834D815E81A40EB51E17
:1023A0009701AF01B601C4010E94A710E0CF2896A3
:1023B0000FB6F894DEBF0FBECDBFDF91CF911F9156
:1023C0000F91FF90EF90DF90CF90BF90AF909F90D4
:1023D0008F907F906F905F904F903F902F900895D7
:1023E0008F929F92AF92BF92EF92FF920F931F93A3
:1023F000CF93DF93EC017B01E881F9810885198592
:10240000015011092E813F81215031090680F78149
:10241000E02D40E050E060E070E00995E881F9814E
:102420000084F185E02DCE010995AE81BF8128851C
:1024300039850E94F91F4B015C0183E0B694A79493
:10244000979487948A95D1F7E881F9818114910452
:10245000A104B10409F444C00284F385E02DB7015E
:10246000CE010995E881F9810284F385E02DB70159
:10247000CE010995E881F9810284F385E02DB70149
:10248000CE010995E881F9810284F385E02DB70139
:10249000CE010995E881F9810284F385E02DB70129
:1024A000CE010995E881F9810284F385E02DB70119
:1024B000CE010995E881F9810284F385E02DB70109
:1024C000CE010995E881F9810284F385E02DB701F9
:1024D000CE01099581E0881A9108A108B108B4CF0E
:1024E0000484F585E02DCE01DF91CF911F910F91EE
:1024F000FF90EF90BF90AF909F908F9009941F92A4
:102500000F920FB60F9211242F933F934F935F9327
:102510006F937F938F939F93AF93BF93EF93FF93AB
:102520008091B900887F803609F49CC068F58832B4
:1025300009F45BC090F4803109F454C038F4882366
:1025400009F4F6C0883009F44DC0F6C0883109F4AA
:102550004CC0803209F45DC0EFC0803409F468C01B
:1025600048F4803309F455C0883309F0E5C08093FE
:102570005805D8C0803509F44FC0883509F45DC0CE
:10258000883409F0D9C0D6C0883909F4C7C0A8F486
:10259000883709F467C038F4883609F463C0803797
:1025A00009F460C0C9C0883809F4B8C0803909F49A
:1025B0005FC0803809F0C0C05BC0803B09F486C0B2
:1025C00038F4803A09F466C0883A09F47FC0B4C090
:1025D000803C09F4A7C0883C09F4A4C0883B09F4F6
:1025E0008AC0AAC08091550510C09091570580916E
:1025F0005605981770F5E091570581E08E0F80938E
:102600005705F0E0EC5CFA4F80818093BB0085ECCD
:1026100086C0809358058EC0E091570581E08E0FEB
:10262000809357058091BB00F0E0EC5CFA4F80830B
:1026300090915705809156056EC0E091570581E055
:102640008E0F809357058091BB00F0E0EC5CFA4F51
:1026500080838091590581116DC081E0809354057C
:1026600084EA61C083E080935A051092DA05CFCFE7
:102670008091DA05803208F051C0E091DA0581E0FE
:102680008E0F8093DA058091BB00F0E0E654FA4F9C
:102690008083BDCF85EC8093BC0010925A05809159
:1026A000DA05803230F4E091DA05F0E0E654FA4FD2
:1026B00010826091DA0570E0E091B805F091B905FB
:1026C0008AEB95E009951092DA0536C084E0809394
:1026D0005A051092B7051092B605E091B405F09135
:1026E000B50509958091B605811105C081E08093FB
:1026F000B60510929405E091B70581E08E0F8093A6
:10270000B705F0E0EC56FA4F80818093BB009091C2
:10271000B7058091B605981708F479CF85E88093BE
:10272000BC000AC085EC8093BC0010925A0504C01E
:10273000109258050E94770FFF91EF91BF91AF91D2
:102740009F918F917F916F915F914F913F912F91C9
:102750000F900FBE0F901F901895CF93DF93CDB7BA
:10276000DEB7C656D1090FB6F894DEBF0FBECDBF97
:10277000789484B5826084BD84B5816084BD85B55C
:10278000826085BD85B5816085BD80916E00816068
:1027900080936E001092810080918100826080930E
:1027A0008100809181008160809381008091800010
:1027B0008160809380008091B10084608093B1003B
:1027C0008091B00081608093B00080917A00846035
:1027D00080937A0080917A00826080937A00809161
:1027E0007A00816080937A0080917A00806880937B
:1027F0007A001092C10083E690E00E94082020E059
:1028000030E0D901A05CBC4F40E050E06D91FA018E
:10281000E20FF31FE80FF91F60834F5F5F4F4B30EC
:102820005105A1F7255F3F4F2336310551F79093AE
:10283000100580930F0581E490E00E940820FC01C0
:10284000138212821582148280E491E0978386833A
:1028500080EF90E09187808717861686158614860C
:1028600013861286178A168A158A148A138A128A80
:10287000118A108A10AA11AA12AA13AA11E014AB85
:1028800015AB17AA16AA8FEF9FEF91AF80AF17AEC7
:1028900016AE15AE14AE13AE12AE81E994E091837C
:1028A0008083F0930E05E0930D0587E090E00E9491
:1028B00008207C01DC0116961C9210927B05109278
:1028C0007C05109212051092330510925A05109350
:1028D00059051092540561E082E10E949D0C61E06F
:1028E00083E10E949D0C8091B9008E7F8093B90096
:1028F0008091B9008D7F8093B90088E48093B800FF
:1029000085E48093BC0040EF65E5C7010E94E605C1
:102910004BEF60E0C7010E94E605BFEFE1EEF4E097
:10292000B150E040F040E1F700C00000C7010E9454
:102930005406C7010E945406D7018C9112968C93BD
:10294000129711968C91119713968C93F0920C0517
:10295000E0920B05E0900D05F0900E0561E088E037
:102960000E94E90C289861E089E00E94E90C61E08E
:1029700087E00E94E90C61E08DE00E94E90C61E0D3
:102980008BE00E94E90C60E08CE00E94E90C299841
:102990005F9A61E086E00E94E90C5E9AF701E05CD4
:1029A000FF4F10828CB5837F8CBD8CB58F7D8CBD25
:1029B0001FB7F89480910505811127C0EBEAF4E078
:1029C0008491EFEBF4E09491E82FF0E0EE0FFF1F1D
:1029D000E357FB4FA591B491EC91E92321F461E019
:1029E0008AE00E949D0C61E08AE00E94E90C8CB5AF
:1029F00080618CBD8CB580648CBD61E08DE00E94EF
:102A0000E90C61E08BE00E94E90C809105058F5F85
:102A1000809305051FBF85E00E94D0075F9A289824
:102A200062E370E080E090E00E94250D289A68E75C
:102A300070E080E090E00E94250DE0EEF0E06F0194
:102A4000BFEFCB1ADB0A64916F3FA1F1862F807C28
:102A50008038B1F0803C39F1803411F0F601EFCFCD
:102A6000162F1F735F01012FFFEFAF1ABF0A00235C
:102A7000B9F0F5016491C7010E9420070150F4CF1D
:102A8000162F1F735F01012FFFEFAF1ABF0A00233C
:102A900039F0F5016491C7010E9411070150F4CF8C
:102AA000C10ED11CDBCF6F7370E080E090E00E941C
:102AB000250DD4CF60E070E0C7010E94F01180E0E6
:102AC0000E94D00761E089E00E94E90CE2EDF4E0A9
:102AD000E491E33019F150F4E130D1F0E230E1F566
:102AE00084B5806284BD8FE788BD3AC0E73011F1BC
:102AF000E83049F1E43081F5809180008062809374
:102B000080008FE790E090938B0080938A0028C02C
:102B100084B5806884BD8FE787BD22C08091800026
:102B20008068809380008FE790E090938900809385
:102B3000880016C08091B00080688093B0008FE755
:102B40008093B3000DC08091B00080628093B0008C
:102B50008FE78093B40004C060E089E00E949D0C80
:102B600020900D0530900E05D1011E968D919C91FF
:102B70001F97892BD1F480E090E00E9449228A3A85
:102B8000A1F47101B8E1EB0EF11C00E010E00F5F61
:102B90001F4FC8010E944922F70181937F010C3128
:102BA0001105A9F722242394CAC388E1EDE6F4E0D5
:102BB000DE01599601900D928A95E1F7D1011496A4
:102BC0000D90BC91A02DA796BFAFAEAFA797D10136
:102BD000ED91FC910480F581E02D60E070E0C10191
:102BE00009956FEF7FEFC1010E94F011F10140855F
:102BF000518557FF02C04F5F5F4F559547954A502B
:102C00005109D10116966D917C91179777FF02C0FB
:102C10006F5F7F4F759567956253710921E831E0C9
:102C2000C1010E948C0AC1010E94DF078111FBCF04
:102C3000FE017996FEAFEDAF1EAA1DAA4DA95EA9B1
:102C40004330510509F4E4C0ADADBEAD14968D908E
:102C50009C9015974D905C9000E010E022E030E0F1
:102C6000A401B201C1010E94930925E030E0A40152
:102C7000B201C1010E94930900E018EF2AE030E0A0
:102C8000A401B201C1010E949309C1010E94DF07A2
:102C90008823A1F2EEEFFFEFFAABE9ABC12CD12C08
:102CA00012E0A12EB12CA601480D591DE12CB8EF60
:102CB000FB2E8A0132016A0C7B1C9301B2016A1956
:102CC0007B097AAF69AFC1010E94E510A4014C19DC
:102CD0005D098A01930169AD7AADC1010E94E510D9
:102CE0003601640C751CC2018C199D099AAF89AF1D
:102CF000A4014A0D5B1D8A019301BC01C1010E9420
:102D0000E510A4014A195B098A01930169AD7AAD06
:102D1000C1010E94E510C6010196A9A9BAA9CA0E6F
:102D2000DB1EF601E80FF91FFAABE9ABEF3F2FEF1F
:102D3000F20759F031E0A31AB1086F01CA18DB0895
:102D4000A6014A195B095AAB49AB6C01A816B90632
:102D50000CF0A9CFEDA9FEA9A3E0EE0FFF1FAA95E5
:102D6000E1F761E070E06C0F7D1FE60FF71FD10106
:102D700050968D919C915197092E000CAA0BBB0B7C
:102D800080839183A283B383D10152968D919C91CC
:102D90005397092E000CAA0BBB0B84839583A68343
:102DA000B78364E670E080E090E00E94250D6FEF4D
:102DB0007FEFC1010E94F011BDA9B230E9F0F1012D
:102DC0004085518557FF02C04F5F5F4F559547952E
:102DD0004A505109D10116966D917C91179777FF52
:102DE00002C06F5F7F4F759567956253710925E744
:102DF00031E0C1010E948C0AEDA9FEA93196FEAB1B
:102E0000EDAB2DAD3EAD285F3F4F3EAF2DAF16CFA2
:102E100069817A818B819C816DAB7EAB8FAB98AFE2
:102E200089899A89AB89BC8989AB9AABABABBCABBE
:102E30002DA93EA94FA958AD281B390B4A0B5B0B96
:102E400025962CAF3DAF4EAF5FAF25974D855E8584
:102E50006F85788965964CAF5DAF6EAF7FAF659734
:102E60006D897E898F89988D21966CAF7DAF8EAFED
:102E70009FAF219765962CAD3DAD4EAD5FAD65978B
:102E8000261B370B480B590B69962CAF3DAF4EAF45
:102E90005FAF699749855A856B857C8549AF5AAF85
:102EA0006BAF7CAF89A99AA9ABA9BCA9481B590BE8
:102EB0006A0B7B0B6D964CAF5DAF6EAF7FAF6D97BE
:102EC0002D813E814F815885A1962CAF3DAF4EAFED
:102ED0005FAFA19721966CAD7DAD8EAD9FAD219773
:102EE000261B370B480B590BA5962CAF3DAF4EAFA9
:102EF0005FAFA59769962CAD3DAD4EAD5FAD6997BF
:102F000025966CAD7DAD8EAD9FAD25970E94E31FDC
:102F10006B017C01A5962CAD3DAD4EAD5FADA59787
:102F20006D966CAD7DAD8EAD9FAD6D970E94E31F2C
:102F3000C61AD70AE80AF90AD101D096CD92DD92D5
:102F4000ED92FC92D397CD28CE28CF2809F4CCC19E
:102F5000298D3A8D4B8D5C8D29962CAF3DAF4EAFB0
:102F60005FAF2997C9A4DAA4EBA4FCA429013A0114
:102F70004C185D086E087F0849A15AA16BA17CA17D
:102F80002D964CAF5DAF6EAF7FAF2D974C195D099D
:102F90006E097F0961964CAF5DAF6EAF7FAF6197F1
:102FA000A301920169966CAD7DAD8EAD9FAD699721
:102FB0000E94E31F4B015C0161962CAD3DAD4EAD0F
:102FC0005FAD6197A5966CAD7DAD8EAD9FADA597BC
:102FD0000E94E31F861A970AA80AB90AD1015896D7
:102FE0008D929D92AD92BC925B9725966CAD7DAD16
:102FF0008EAD9FAD25970E94E31F4B015C01A3019D
:1030000092016D966CAD7DAD8EAD9FAD6D970E94BA
:10301000E31F861A970AA80AB90AF101848E958ED1
:10302000A68EB78EA70196016DA97EA98FA998AD2E
:103030000E94E31F4B015C0129962CAD3DAD4EADC6
:103040005FAD299769A97AA98BA99CA90E94E31F62
:10305000A5019401261B370B480B590B65966CADE7
:103060007DAD8EAD9FAD65970E94E31F2B013C01A6
:103070002D962CAD3DAD4EAD5FAD2D9769A97AA9CA
:103080008BA99CA90E94E31F4B015C01A70196013B
:1030900069AD7AAD8BAD9CAD0E94E31FA501940193
:1030A000261B370B480B590BA1966CAD7DAD8EAD31
:1030B0009FADA1970E94E31F460E571E681E791E02
:1030C00029962CAD3DAD4EAD5FAD299769AD7AAD7A
:1030D0008BAD9CAD0E94E31F6B017C012D962CAD46
:1030E0003DAD4EAD5FAD2D976DA97EA98FA998AD71
:1030F0000E94E31FA7019601261B370B480B590BB3
:1031000021966CAD7DAD8EAD9FAD21970E94E31FE2
:10311000460E571E681E791E40A251A262A273A2DB
:103120002D8D3E8D4F8D58A129962CAF3DAF4EAFC2
:103130005FAF29978DA49EA4AFA4B8A869017A01B6
:10314000C818D908EA08FB084DA15EA16FA178A5AF
:103150002D964CAF5DAF6EAF7FAF2D9748195909D3
:103160006A097B0961964CAF5DAF6EAF7FAF619727
:10317000A701960169966CAD7DAD8EAD9FAD699747
:103180000E94E31F2B013C0161962CAD3DAD4EAD7D
:103190005FAD6197A5966CAD7DAD8EAD9FADA597EA
:1031A0000E94E31F461A570A680A790A44A255A2E8
:1031B00066A277A225966CAD7DAD8EAD9FAD2597AD
:1031C0000E94E31F2B013C01A70196016D966CAD97
:1031D0007DAD8EAD9FAD6D970E94E31F461A570AD5
:1031E000680A790A40A651A662A673A6A5019401B1
:1031F0006DA97EA98FA998AD0E94E31F6B017C0188
:1032000029962CAD3DAD4EAD5FAD299769A97AA940
:103210008BA99CA90E94E31FA7019601261B370BCF
:10322000480B590B65966CAD7DAD8EAD9FAD659726
:103230000E94E31F2B013C012D962CAD3DAD4EAD00
:103240005FAD2D9769A97AA98BA99CA90E94E31F5C
:103250006B017C01A501940169AD7AAD8BAD9CAD8C
:103260000E94E31FA7019601261B370B480B590B41
:10327000A1966CAD7DAD8EAD9FADA1970E94E31F71
:10328000460E571E681E791E29962CAD3DAD4EADDB
:103290005FAD299769AD7AAD8BAD9CAD0E94E31F00
:1032A0006B017C012D962CAD3DAD4EAD5FAD2D97E4
:1032B0006DA97EA98FA998AD0E94E31FA701960171
:1032C000261B370B480B590B21966CAD7DAD8EAD8F
:1032D0009FAD21970E94E31F460E571E681E791E60
:1032E00044A655A666A677A6D101ED91FC9104806F
:1032F000F581E02DA7966EAD7FADA797C101099529
:10330000C1010E94DF078111FBCF6AEA80E090E0F3
:103310000E9451227101B8E1EB0EF11C01E010E0B6
:10332000F70161917F01C8010E9451220F5F1F4F79
:103330000D311105A9F736CCC7010E949D2066E02A
:10334000362E80910A058111A0C085E090E00E9490
:1033500008205C01C0900D05D0900E05DC0112968E
:103360001C92129713962C92139714961C921497F2
:10337000CD92DC92C6010E94DF0761E174E7C601CD
:103380000E94F01148EA51E368E270E0C6010E9431
:103390005C0B58EAE52E51E3F52E0AEC12EC2BEB10
:1033A00034E04CE350E060E570E0C6010E94200B81
:1033B00048EA51E366E970E0C6010E945C0B26EC26
:1033C00034E04AEA50E069E670E0C6010E94200B52
:1033D000C6010E94DF07F60186859785892B09F4CF
:1033E00049C0C6010E949D08CD970CF4D4C3C60104
:1033F0000E949D088E3091400CF0CDC3C6010E9402
:1034000078088E970CF4C7C3C6010E9478088F35E0
:1034100091050CF0C0C34AEC52EC68E270E0C601C2
:103420000E945C0B4AECE42E42ECF42E08EA11E315
:103430002BEB34E04CE350E060E570E0C6010E9405
:10344000200B48EA51E366E970E0C6010E945C0B7C
:1034500058EAE52E51E3F52E0AEC12EC26EC34E0A6
:103460004AEA50E069E670E0C6010E94200BD501EF
:1034700014962C92D50114968C91882309F4A8CF28
:1034800080930A05C5010E949D2010910A05113004
:1034900009F006C28DE090E00E9408208C01E090C7
:1034A0000F05F090100580910B0590910C05F80127
:1034B00091838083F382E2821093090500930805CB
:1034C00088E090E00E9408206C0180910D059091A9
:1034D0000E05D60111969C938E931396FC92EE9254
:1034E000129715961C930E93149761E174E70E944E
:1034F000F01138EAE32E31E3F32E08ED10E028E076
:1035000031E04DE050E060E370E0F60180819181B0
:103510000E94341041E1642E712C412C512C49AA97
:10352000130154E0251A310886E3882E912CA12C32
:10353000B12C8BE0849DB001859D700D11247EAB74
:103540006DABB40166507109D6011296ED91FC91F4
:103550001397EDA8FEA8EA0CFB1CEE0DFF1D808161
:103560008230F9F080F4813009F05CC021E1E22E74
:1035700024E7F22E08E110E028E130E0A101F60195
:10358000808191811AC08330D9F0843009F04AC01B
:1035900022E0A301B401F601868197810E94A90D62
:1035A00038C09AECE92E92ECF92E08E110E028E1FF
:1035B00030E0A101D6018D919C910E94341032C05F
:1035C00086E090E00E9408208C01F60180819181C4
:1035D000D80112961C92129713961C921397149668
:1035E0001C9214978D939C9321E0A301B401C80110
:1035F0000E94A90DF601178306830480F581E02D52
:10360000A48229A92583A086A1861682178234E088
:103610003487D60112968D919C911397FC01EE0D83
:10362000FF1D1082BFEFAB1ABB0AE8E18E0E911CA2
:10363000FEE38F16F1E09F0609F083CF2FEF421AC9
:10364000520A38E1630E711C49EE6416710409F0E8
:1036500066CFD0920705C0920605B8E16B2E712C9B
:103660001BE0812E08E1502E9924939480910B0544
:1036700090910C050E945406E0910805F09109050F
:10368000A081B18116968C918230F1F118F48130CD
:1036900041F0ECCF833009F47FC0843009F4B5C029
:1036A000E5CF9781911121C0868181111BC0858151
:1036B00024819FEF920F428153818930B9F29B3070
:1036C000A9F2889ED0011124A90FB11DA40FB51F26
:1036D0008C918150823050F2222341F29483848570
:1036E000952DC8C09485891BC7C0492F50E084859B
:1036F000282F30E0220F331F24173507C4F5D301DC
:10370000A41BB50BAD013AC09781911126C09681DB
:10371000911119C0858194819F5F22813381893005
:1037200009F4A4CF9B3009F4A1CF889ED0011124C5
:10373000A90FB11DA20FB31F8C918150823008F4E4
:1037400095CF848599C08485890F883108F494C009
:10375000168284818F5F848369C2492F50E08485FB
:10376000282F30E0220F331F241735071CF0981B39
:10377000892F6FC0B301641B750BAB01241735078C
:103780000CF474CF890F8783883109F04FC285818B
:103790008F5F858317824AC29681911127C08781E6
:1037A000811121C025818FEF820F94814281538145
:1037B000893009F45BCF9B3009F458CF889ED00143
:1037C0001124A90FB11DA40FB51F9C9191509230E7
:1037D00008F44CCF222309F449CF85838485752DC5
:1037E000781B872F36C09485891B33C0492F50E042
:1037F0008485282F30E0220F331F24173507D4F596
:10380000D301A41BB50BAD013DC09681911128C019
:10381000978191111AC0A58181E08A0F948122813C
:103820003381893009F422CF9B3009F41FCF889E61
:10383000D0011124A90FB11DA20FB31F8C9181508B
:10384000823008F413CF848504C08485890F8831C1
:1038500010F48783EBC1178285818F5F8583E6C172
:10386000492F50E08485282F30E0220F331F241782
:10387000350724F0981B892F8683D8C1B301641BB8
:10388000750BAB01241735070CF4F0CE890F868336
:10389000883109F0CBC184818F5F84831682C6C1D1
:1038A000123009F04ECD89E290E00E9408206C01B0
:1038B000E0900D05F0900E056EEC74E00E94510C46
:1038C00069ED74E0C60106960E94510C63EE74E047
:1038D000C6010C960E94510C60EF74E0C60142963E
:1038E0000E94510C88E0E5E8F4E0D601589601907A
:1038F0000D928A95E1F7F60114A225A210A7F3A272
:10390000E2A261E174E7C7010E94F011F1E1EF2E3C
:10391000F4E7FF2E08EA11E32DEF34E043E050E036
:103920006AEF70E0D60192968D919C9193970E94D8
:10393000200B3601F6017896FAABE9ABA4E1AA2E8A
:10394000B12CF9A9FDAF2AA922962FAF22974501E4
:103950003EE1830E911C28EA31E3A301B501D601B3
:1039600092968D919C9193970E94C70A68EAE62EE1
:1039700061E3F62E840121E031E0A40168E270E009
:10398000F60182A193A10E94E5104501F8E28F0E95
:10399000911C250124E1420E511C840128E230E0F3
:1039A000A20168E270E0D60192968D919C91939766
:1039B0000E94E51021E031E0A20161E071E0F60132
:1039C00082A193A10E94E51029A93AA93AAF29AF93
:1039D000D60192960D90BC91A02DBEABADAB4BE045
:1039E000BE016F5F7F4FF90181919191FAABE9AB15
:1039F0000E941422A501475E5F4F71E1E72E74E734
:103A0000F72E08EA11E39E012F5F3F4F68E171E056
:103A10008DA99EA90E94200BA9ADBAAD8D919C9154
:103A2000B7E1B89FB001B99F700D1124635D7F4F5E
:103A3000EAECEE2EE2ECFE2E84019B01A201F601DF
:103A400082A193A10E94E510F2E3AF0EB11C26E023
:103A5000620E711C3CEDA316B10409F078CFD601BB
:103A600092968D919C9193970E94DF07F60182A117
:103A700093A1DC011E962D913C911F97232B09F4F5
:103A80006DC00E949D0888970CF456C0F60182A173
:103A900093A10E949D088A3091400CF04DC0F60120
:103AA00082A193A10E9478084E975CF0D60192966D
:103AB0008D919C9193970E947808873491050CF41E
:103AC00003C2F60182A193A10E9478088335910573
:103AD0005CF0D60192968D919C9193970E94780804
:103AE0008C3791050CF42CC2F60182A193A10E949F
:103AF0007808883891055CF0D60192968D919C915A
:103B000093970E947808813B91050CF422C2D6015C
:103B100092968D919C9193970E9478088E3B910587
:103B20005CF0D60192968D919C9193970E947808B3
:103B3000873E91050CF418C2D60192968D919C9106
:103B400093970E949D088B3F910544F0F60182A156
:103B500093A10E94780844970CF40EC2D60198965F
:103B60008C91823009F47BCF80930A05C114D10473
:103B700009F4E7CBEDAC2296FFAC2297EC14FD04E0
:103B800009F4DACBB6E0EB1AF108F70180819181F4
:103B90000E949D20F3CFC6010E949D08CD970CF492
:103BA00069CCC6010E949D088E3091400CF062CC19
:103BB000C6010E9478088C3991050CF45BCCC601D3
:103BC0000E9478088D3C91050CF054CC48EA51E3F2
:103BD00068E270E0C6010E945C0B28EAE22E21E355
:103BE000F22E0AEC12EC2BEB34E04CE350E060E5F3
:103BF00070E0C6010E94200B4AEC52EC66E970E0CE
:103C0000C6010E945C0B3AECE32E32ECF32E08EA7C
:103C100011E326EC34E04AEA50E069E670E0C601C0
:103C20000E94200B22E0F501248324CCA0900605FD
:103C3000B0900705D5011496ED91FC9115979185EB
:103C40008085438550E0B8E19B9F400D511D1124B4
:103C5000435F5F4F628570E0E8E18E9F600D711DEC
:103C60001124605D7F4F98EAE92E91E3F92E08E177
:103C700010E028E130E0D5018D919C910E94341034
:103C8000D5011496ED91FC911597A081B1811696FE
:103C90001C91123009F041C08581478150E028E134
:103CA000829F400D511D11244F5E5F4F84816681BC
:103CB00070E038E1839F600D711D11246A5C7F4FB5
:103CC000D50116962D903C901797F101958212829E
:103CD00013828481882389F030E0C32E31E0D32E13
:103CE000E0ECEE2EE1E0FE2E00E020E0C1010E94BB
:103CF0008805D10114961C9231C090E6C92E91E03E
:103D0000D92E20ECE22E21E0F22E00E020E0C101CD
:103D10000E948805F101948221C0133008F069C027
:103D200011112AC095818481478150E078E1979FE5
:103D3000400D511D11244F5E5F4F668170E098E188
:103D4000899F600D711D11246A5C7F4F21E0D501B0
:103D500016968D919C9117970E94A90DD5011496E6
:103D6000ED91FC911597848180878581818786817B
:103D70008287878183877ACC113081F7858147815B
:103D800050E0B8E18B9F400D511D11244F5E5F4FF5
:103D90008481668170E0E8E18E9F600D711D1124C1
:103DA0006A5C7F4FD50116962D903C901797F101D4
:103DB0001583128313838481882359F0B0E0CB2EBE
:103DC000B1E0DB2E10ECE12E11E0F12E01E021E05C
:103DD0008DCFF0E6CF2EF1E0DF2EA0ECEA2EA1E0B1
:103DE000FA2E01E021E0C1010E948805F10114834F
:103DF000B5CF133031F58581478150E028E1829FAE
:103E0000400D511D11244F5E5F4F8481668170E02B
:103E100038E1839F600D711D11246A5C7F4FD501CD
:103E200016962D903C901797F101958200E2C02ED6
:103E300002E0D02E80E8E82E82E0F82E0381228175
:103E400029C0143009F08ACF8581478150E028E1EC
:103E5000829F400D511D11244F5E5F4F848166810A
:103E600070E038E1839F600D711D11246A5C7F4F03
:103E7000D50116962D903C901797F101958292826C
:103E8000B0EECB2EB2E0DB2E13E0E12E14E0F12EEB
:103E9000038121E0C1010E948805D10112968C9115
:103EA0001297882319F012961C9202C0F101928297
:103EB000D10113968C911397882319F013961C92B5
:103EC0004DCFF10193824ACFD60194961C929497DC
:103ED00095966C91662369F1A601369E400D511DA1
:103EE0001124B2E36B9FB00111246C5E7F4F28EA6E
:103EF00031E3F60182A193A10E94C70AD6019496EC
:103F00006C91A601369E400D511D1124B2E36B9FAA
:103F1000B00111246C5E7F4F2AEC32ECF60182A1D5
:103F200093A10E94C70AD60194968C919497959676
:103F30008C93F60164A170E0C6010E94C008FCCD1C
:103F4000D60194962C92949795966C91613021F6B7
:103F5000F0CFE2E0D6019496EC93949795966C910D
:103F6000623009F0B9CFE5CF23E0F60124A365A1C3
:103F7000633009F0B1CFDDCF81E1E82E84E7F82E80
:103F80000AEC12EC2DEF34E043E050E06AEF70E011
:103F9000D60192968D919C9193970E94200BF601E9
:103FA00010A6DCCDEDE7F5E01382128288EE93E0F7
:103FB000A0E0B0E084839583A683B78387EA94E08A
:103FC000918380830895DB018F939F930E947E22CB
:103FD000BF91AF91A29F800D911DA39F900DB29FA5
:103FE000900D11240895EE0FFF1F0590F491E02D20
:103FF00009940E94EA22332312F48A1B9B0B0C942F
:1040000003200E94EA22B7FF0895821B930B0895B4
:10401000CF93DF938230910510F482E090E0E0913D
:10402000DD05F091DE0520E030E0C0E0D0E0309723
:1040300011F14081518148175907C0F048175907BD
:1040400061F482819381209719F09B838A832BC02E
:104050009093DE058093DD0526C02115310519F00A
:104060004217530718F49A01BE01DF01EF010280E5
:10407000F381E02DDCCF2115310509F1281B390B27
:104080002430310590F412968D919C91139761150F
:10409000710521F0FB019383828304C09093DE05B8
:1040A0008093DD05FD01329644C0FD01E20FF31F50
:1040B00081939193225031092D933C933AC02091E2
:1040C000DB053091DC05232B41F420916504309110
:1040D00066043093DC052093DB0520916304309166
:1040E00064042115310541F42DB73EB740916704B2
:1040F00050916804241B350BE091DB05F091DC0541
:10410000E217F307A0F42E1B3F0B2817390778F0AE
:10411000AC014E5F5F4F2417350748F04E0F5F1F0D
:104120005093DC054093DB058193919302C0E0E05E
:10413000F0E0CF01DF91CF9108950F931F93CF93BC
:10414000DF93009709F48CC0FC013297138212822E
:104150000091DD051091DE050115110581F4208126
:104160003181820F931F2091DB053091DC052817E8
:10417000390779F5F093DC05E093DB0571C0D801D0
:1041800040E050E0AE17BF0750F412962D913C91DD
:104190001397AD012115310509F1D901F3CF9D0127
:1041A000DA013383228360817181860F971F821722
:1041B000930769F4EC0128813981260F371F2E5FA0
:1041C0003F4F318320838A819B8193838283452B58
:1041D00029F4F093DE05E093DD0542C01396FC93CD
:1041E000EE931297ED01499159919E01240F351FCD
:1041F000E217F30771F480819181840F951F029675
:1042000011969C938E938281938113969C938E93A7
:104210001297E0E0F0E0D80112968D919C911397EF
:10422000009719F0F8018C01F6CF8D919C919801BF
:104230002E5F3F4F820F931F2091DB053091DC05ED
:104240002817390769F4309729F41092DE05109287
:10425000DD0502C0138212821093DC050093DB059A
:10426000DF91CF911F910F910895A0E0B0E0EBE3B3
:10427000F1E20C949522EC01009721F4CB010E940D
:104280000820B8C0FC01E60FF71F9C01225031093D
:10429000E217F30708F4ACC0D9010D911C911197F6
:1042A00006171707B0F00530110508F49FC0C801C4
:1042B00004978617970708F499C002501109061B46
:1042C000170B019311936D937C93CF010E949D2056
:1042D0008DC05B01A01AB10A4C01800E911EA09105
:1042E000DD05B091DE0540E050E0E12CF12C1097A7
:1042F00009F44AC0A815B905D1F56D907C901197C5
:10430000630182E0C80ED11CCA14DB0480F1A30152
:104310004A195B096A0182E0C80ED11C1296BC9052
:1043200012971396AC91B5E0CB16D10440F0B2824F
:10433000A38351834083D9016D937C930AC00E5FA0
:104340001F4FC301800F911FF90191838083EB2DD3
:10435000FA2FE114F10431F0D7011396FC93EE9398
:10436000129744C0F093DE05E093DD053FC08D91C8
:104370009C9111974817590708F4AC017D011296DA
:104380000D90BC91A02DB3CF8091DB059091DC0501
:1043900088159905E1F446175707C8F4809163041E
:1043A00090916404009741F48DB79EB740916704E3
:1043B00050916804841B950BE817F907C8F4F09333
:1043C000DC05E093DB05F901718360830FC0CB014D
:1043D0000E9408207C01009759F0A801BE010E94AC
:1043E0000422CE010E949D20C70104C0CE0102C05C
:1043F00080E090E0CDB7DEB7EEE00C94B12281E032
:1044000090E0F8940C94F922FB01DC0102C00190C9
:104410000D9241505040D8F70895FB01DC01019006
:104420000D920020E1F70895BB274A3031F499231B
:1044300022F4BDE2909581959F4F0C942022BB27DA
:10444000FB015527AA27880F991FAA1FA41710F050
:10445000A41B83955051B9F7A05DAA3308F0A95D5C
:10446000A193009779F7B111B1931192CB010C94FC
:104470003922DC01FC01672F71917723E1F7329734
:1044800004C07C916D9370836291AE17BF07C8F32F
:104490000895F999FECF92BD81BDF89A992780B50C
:1044A0000895262FF999FECF1FBA92BD81BD20BD78
:1044B0000FB6F894FA9AF99A0FBE01960895052E50
:1044C00097FB1EF400940E94762257FD07D00E94AD
:1044D000C82207FC03D04EF40C94762250954095E8
:1044E000309521953F4F4F4F5F4F089590958095A0
:1044F000709561957F4F8F4F9F4F08950E94EA22DC
:10450000A59F900DB49F900DA49F800D911D112427
:104510000895B7FF0C947E220E947E22821B930B8B
:1045200008952F923F924F925F926F927F928F9257
:104530009F92AF92BF92CF92DF92EF92FF920F9332
:104540001F93CF93DF93CDB7DEB7CA1BDB0B0FB63C
:10455000F894DEBF0FBECDBF09942A8839884888F9
:104560005F846E847D848C849B84AA84B984C8848F
:10457000DF80EE80FD800C811B81AA81B981CE0F86
:10458000D11D0FB6F894DEBF0FBECDBFED0108956B
:10459000A1E21A2EAA1BBB1BFD010DC0AA1FBB1F47
:1045A000EE1FFF1FA217B307E407F50720F0A21BB9
:1045B000B30BE40BF50B661F771F881F991F1A9426
:1045C00069F760957095809590959B01AC01BD0150
:1045D000CF010895A29FB001B39FC001A39F700DAA
:1045E000811D1124911DB29F700D811D1124911DFB
:0645F0000895F894FFCFCE
:1045F6000001010101010909010100000001090191
:104606000401010101010100000105010304060581
:104616000508080100000101040304010609080158
:10462600000001090808080901010100000107014D
:104636000104030401060501000106060701010144
:10464600060505010000010101010101010101004A
:10465600000100000101090901010000000000003D
:10466600010301010601000000000000010203072A
:104676000501000000000001010302010808010015
:1046860000000001090808010908010000000000F7
:1046960001010302010101000000000001070106FB
:1046A60005050100000000000001010101010000F4
:1046B60000000001010404010100000000000104E3
:1046C60003020208090101000001020202030901B6
:1046D600010506010103040109080106050706058F
:1046E6000403010801010505060901010404010886
:1046F6000806070B0D080100010401090807070A4F
:104706000C08010101040101090807080809010054
:104716000001030101010304010709010105050464
:104726000301040401070501010905010202010153
:104736000101010001080901030203030901000048
:10474600000101040808080904010000000107012E
:104756000403040101060100000001010101010634
:104766000505010000000000000000010101000035
:104776000000000000010506010000000000000125
:1047860001060505060100000001010608080806E5
:1047960005010100010801090303030409010801D9
:1047A60000090104010402030101090100010901D4
:1047B60003030202030101000001010104030302D5
:1047C60004010100000001070103040301010100C7
:1047D600000106010109090101060901000105059B
:1047E6000101010401060501000106080801020392
:1047F6000401010000000109080103010101010093
:104806000000010101080105050101000000010188
:104816000403010606050100000000010101010173
:104826000106010000000000000101010101000075
:10483600030000000000000000000000010201006B
:104846000102010001000000020000000200000059
:104856000000010201000102010201000000020045
:104866000002020000000000010201020100010234
:104876000100000000020200000002000200010028
:10488600010001000102010000000000000000001C
:1048960000000400010301010909010104010001EE
:1048A60005050403010104030605010109060102C9
:1048B60002020301060901010809000302030301BC
:1048C60009080100010104080808090401010000A3
:1048D60001060104030304000601000001050601A8
:1048E60001010106050100000001010100000001AF
:1048F60001000000000001040304040100000000A0
:104906000001030202020304010000000101060582
:104916000608090301010001090705050506050545
:10492600070801010906060606090606060901002A
:1049360001060B0D08080D0B0601000001090A0C03
:1049460008080C0A090100000001090808080809FE
:104956000100000000DF05800001000000140000D7
:1049660000140000002C01000078000000A00000E8
:1049760000DC00000009000500070001000000003F
:1049860000EF033A0A630734072F07C8029A026D3D
:10499600045B04000000000510D50FCD0FB90FAA67
:1049A6000FA90F000000008A0A3A0A537461727454
:1049B6002047616D65004F7074696F6E73004272B7
:1049C600696768744E6573730047616D65537065FA
:1049D600656400426F6D622044656E736974790088
:1049E6004C6576656C2053656C6563740042414383
:0449F6004B00520020
:00000001FF
