:100000000C9435000C94ED010C945D000C945D0093
:100010000C945D000C945D000C945D000C945D00EC
:100020000C9402030C945D000C945D000C945D0034
:100030000C945D000C945D000C945D000C945D00CC
:100040000C945D000C945D000C94BB010C94950124
:100050000C945D000C945D000C945D000C945D00AC
:100060000C945D000C945D001D0311241FBECFEFA6
:10007000D8E0DEBFCDBF11E0A0E0B1E0EAE7FAE0F2
:1000800002C005900D92AA31B107D9F721E0AAE18B
:10009000B1E001C01D92AD3CB207E1F710E0C5E34D
:1000A000D0E004C02197FE010E940304C433D107AD
:1000B000C9F70E9472030C943B050C940000CF9288
:1000C000DF92EF92FF920F931F93CF93DF936C0118
:1000D0007A018B01C0E0D0E0CE15DF0589F0D801B0
:1000E0006D918D01D601ED91FC910190F081E02D93
:1000F000C6010995892B11F47E0102C02196ECCF2F
:10010000C701DF91CF911F910F91FF90EF90DF908A
:10011000CF900895FC01918D828D981761F0828DAA
:10012000DF01A80FB11D5D968C91928D9F5F9F732B
:10013000928F90E008958FEF9FEF0895FC01918DCD
:10014000828D981731F0828DE80FF11D858D90E03A
:1001500008958FEF9FEF0895FC01918D228D892FD7
:1001600090E0805C9F4F821B91098F7399270895BF
:10017000FC01848DDF01A80FB11DA35ABF4F2C9144
:10018000848D90E001968F739927848FA689B78913
:100190002C93A089B1898C9180648C93938D848DEC
:1001A000981306C00288F389E02D80818F7D8083BB
:1001B0000895EF92FF920F931F93CF93DF93EC017B
:1001C00081E0888F9B8D8C8D981305C0E889F98913
:1001D000808185FD24C0F62E0B8D10E00F5F1F4F30
:1001E0000F731127E02E8C8DE8120CC00FB607FCA0
:1001F000FACFE889F989808185FFF5CFCE010E9489
:10020000B800F1CF8B8DFE01E80FF11DE35AFF4FCF
:10021000F0820B8FEA89FB898081806207C0EE89BA
:10022000FF896083E889F98980818064808381E027
:1002300090E0DF91CF911F910F91FF90EF90089583
:10024000CF93DF93EC01888D8823C9F0EA89FB897D
:10025000808185FD05C0A889B9898C9186FD0FC074
:100260000FB607FCF5CF808185FFF2CFA889B98949
:100270008C9185FFEDCFCE010E94B800E7CFDF91D2
:10028000CF9108958F929F92AF92BF920F931F9339
:10029000CF93DF93CDB7DEB7A1970FB6F894DEBF4B
:1002A0000FBECDBF19A2423008F44AE08E010F5DA7
:1002B0001F4F842E912CA12CB12CA50194010E94DA
:1002C000E103E62FB901CA0101501109EA3014F423
:1002D000E05D01C0E95CD801EC93232B242B252B96
:1002E00061F70115110571F0F80101900020E9F79F
:1002F0003197AF01401B510BB80188E291E00E9499
:100300005F0002C080E090E0A1960FB6F894DEBFD7
:100310000FBECDBFDF91CF911F910F91BF90AF90D6
:100320009F908F9008950E9436051F920F920FB6EE
:100330000F9211242F933F934F935F936F937F936B
:100340008F939F93AF93BF93EF93FF9388E291E0D6
:100350000E94B800FF91EF91BF91AF919F918F9153
:100360007F916F915F914F913F912F910F900FBEB1
:100370000F901F9018951F920F920FB60F92112495
:100380002F938F939F93EF93FF93E0913801F09118
:1003900039018081E0913E01F0913F0182FD12C060
:1003A0009081809141018F5F8F732091420182176C
:1003B00051F0E0914101F0E0E85DFE4F958F8093B0
:1003C000410101C08081FF91EF919F918F912F9109
:1003D0000F900FBE0F901F9018951F920F920FB69F
:1003E0000F9211242F933F934F935F936F937F93BB
:1003F0008F939F93AF93BF93EF93FF9395B181E05A
:10040000892785B98091240190912501079729F5C5
:1004100010922301109222018091200190912101DC
:1004200018161906ACF480911E0190911F0190934B
:100430002701809326011092250110922401109229
:1004400021011092200190931D0180931C0105C091
:1004500001969093210180932001E091C501F091D4
:10046000C6014A9B03C011821082BBC0808191816A
:1004700090931B0180931A016091220170912301D6
:10048000161617060CF0A0C020912401309125010A
:10049000273031050CF098C0409120015091210186
:1004A000452B09F091C0A0911E01B0911F01FC01E4
:1004B000369741E050E0022E02C0440F551F0A94C7
:1004C000E2F7399768F44A2B5B2B50931F01409356
:1004D0001E012F5F3F4F309325012093240107C059
:1004E0009D01242B352B30931F0120931E019C016D
:1004F0002C5131092930310550F4209124013091DB
:1005000025012F5F3F4F30932501209324019C014B
:10051000235331092930310550F4209124013091C1
:1005200025012E5F3F4F30932501209324019C012C
:10053000275431092930310550F42091240130919C
:1005400025012D5F3F4F30932501209324019C010D
:10055000205631092930310550F420912401309181
:1005600025012C5F3F4F30932501209324019C01EE
:10057000245731092930310550F42091240130915C
:1005800025012B5F3F4F30932501209324019C01CF
:100590002D5831092930310550F420912401309132
:1005A00025012A5F3F4F3093250120932401815A72
:1005B0009109099748F480912401909125010796AB
:1005C000909325018093240180911A0190911B0141
:1005D0004097099730F46F5F7F4F709323016093CA
:1005E0002201FF91EF91BF91AF919F918F917F91E8
:1005F0006F915F914F913F912F910F900FBE0F9090
:100600001F9018951F920F920FB60F9211248F937F
:100610009F93EF93FF93E091C501F091C601808114
:100620009181019691838083FF91EF919F918F91AA
:100630000F900FBE0F901F901895E8E2F1E0138223
:10064000128288EE93E0A0E0B0E084839583A683D5
:10065000B7838AE091E09183808385EC90E0958771
:10066000848784EC90E09787868780EC90E0918B7C
:10067000808B81EC90E0938B828B82EC90E0958B69
:10068000848B86EC90E0978B868B118E128E138E66
:10069000148E82E090E00E94090423E22093B000CF
:1006A0002AE02093B10023E32093B3002AE12093B2
:1006B000B40024E0209370009093C8018093C70198
:1006C00082E090E00E9409049C015298E9E6F0E083
:1006D000908191609083E89A78943093C60120933A
:1006E000C5010895209AE0913801F091390182E026
:1006F0008083E0913401F09135011082E091360160
:10070000F09137018FEC808310924001E0913C0121
:10071000F0913D0186E08083E0913A01F0913B0148
:10072000808180618083E0913A01F0913B0180817A
:1007300088608083E0913A01F0913B01808180687C
:100740008083E0913A01F0913B0180818F7D80832D
:100750002FEF81EE94E0215080409040E1F700C0FF
:100760000000C0902601D09027010D2C000CEE084F
:10077000FF08F7FE14C0E0912801F09129010190D3
:10078000F081E02D6DE288E291E0099566277727F8
:10079000CB016C197D098E099F094AE003C04AE02C
:1007A000C701B6010E94420142E050E066E171E0FB
:1007B00088E291E00E945F008FE19EE40197F1F7EB
:1007C000CECFA1E21A2EAA1BBB1BFD010DC0AA1F92
:1007D000BB1FEE1FFF1FA217B307E407F50720F0AA
:1007E000A21BB30BE40BF50B661F771F881F991F25
:1007F0001A9469F760957095809590959B01AC016E
:10080000BD01CF010895EE0FFF1F0590F491E02D7B
:100810000994CF93DF938230910510F482E090E049
:10082000E091CB01F091CC0120E030E0C0E0D0E0DD
:10083000309711F14081518148175907C0F048178E
:10084000590761F482819381209719F09B838A83F1
:100850002BC09093CC018093CB0126C0211531058C
:1008600019F04217530718F49A01BE01DF01EF0196
:100870000280F381E02DDCCF2115310509F1281B21
:10088000390B2430310590F412968D919C91139779
:100890006115710521F0FB019383828304C090935D
:1008A000CC018093CB01FD01329644C0FD01E20FE3
:1008B000F31F81939193225031092D933C933AC0B9
:1008C0002091C9013091CA01232B41F420910201EA
:1008D000309103013093CA012093C9012091000196
:1008E000309101012115310541F42DB73EB74091FA
:1008F000040150910501241B350BE091C901F091D1
:10090000CA01E217F307A0F42E1B3F0B2817390783
:1009100078F0AC014E5F5F4F2417350748F04E0F5B
:100920005F1F5093CA014093C9018193919302C004
:10093000E0E0F0E0CF01DF91CF9108950F931F9396
:10094000CF93DF93009709F48CC0FC013297138298
:1009500012820091CB011091CC010115110581F497
:1009600020813181820F931F2091C9013091CA01EA
:100970002817390779F5F093CA01E093C90171C0CE
:10098000D80140E050E0AE17BF0750F412962D9109
:100990003C911397AD012115310509F1D901F3CF30
:1009A0009D01DA013383228360817181860F971F55
:1009B0008217930769F4EC0128813981260F371FCC
:1009C0002E5F3F4F318320838A819B819383828373
:1009D000452B29F4F093CC01E093CB0142C0139650
:1009E000FC93EE931297ED01499159919E01240FCA
:1009F000351FE217F30771F480819181840F951FF1
:100A0000029611969C938E938281938113969C9368
:100A10008E931297E0E0F0E0D80112968D919C91B0
:100A20001397009719F0F8018C01F6CF8D919C91E6
:100A300098012E5F3F4F820F931F2091C901309183
:100A4000CA012817390769F4309729F41092CC01AC
:100A50001092CB0102C0138212821093CA0100933C
:100A6000C901DF91CF911F910F91089581E090E02E
:0A0A7000F8940C943B05F894FFCFB6
:100A7A000000CD01800000000000D9005F00AC003A
:0A0A8A008A009E0020010D0A000002
:00000001FF
