:100000000C94E0030C940A040C9408040C94080467
:100010000C9408040C9408040C9408040C94080430
:100020000C942F050C9408040C9408040C940804F8
:100030000C9408040C9408040C9408040C94080410
:100040000C9408040C9408040C94C60C0C94A00C9A
:100050000C9408040C9408040C9408040C940804F0
:100060000C9488150C9408047D0880088308860881
:1000700089088C088F089208950898089B08A90899
:100080009E08A108D908DC08DF08E208E508E808AE
:10009000EB08EE08F108F408F7080509FA08FD086E
:1000A000030F060F090F0C0F0F0F120F150F180F6C
:1000B0001B0F1E0F210F2F0F240F270F5C0F5F0F39
:1000C000620F650F680F6B0F6E0F710F740F770F54
:1000D0007A0F880F7D0F800F4128D441CF83008392
:1000E0003041ED846403128141E88385017941CB7D
:1000F00085392C00340241F7812041EA8200004119
:10010000C0812641C1811141C582353E41C781BEB2
:1001100041B182001B41F281084126810141E08FFB
:100120001F1A180A0F064587320A07020705004101
:10013000E18F0025270510093A784D05180D383A4A
:100140001F41B6840A82270041B78107413A815591
:10015000413681E8412A82000082013F412B820022
:10016000008200EF4111FCFC4129D4FFFF00010394
:10017000010101030401070901010505040301044C
:100180000401070501010905010202010101010144
:100190000001080901030203030901000000010135
:1001A0000408080809040100000001070104030411
:1001B0000101060100000001010101010605050120
:1001C000000000000000000001010100000000002C
:1001D0000000010506010000000000000101060505
:1001E00005060100000001010608080806050101D6
:1001F00000010801090303030409010801000901C2
:1002000004010402030101090100010901030302C1
:1002100002030101000001010104030302040101C2
:1002200000000001070103040301010100000106B1
:10023000010109090101060901000105050101018A
:10024000040106050100010608080102030401017A
:100250000000000109080103010101010000000183
:10026000010108010505010100000001010403016D
:10027000060605010000000001010101010106015F
:100280000000000000000101010101000000010167
:100290000101010909010100000001090104010136
:1002A000010101010000010501030406050508081C
:1002B0000100000101040304010609080100000116
:1002C00009080808090101010000010701010403F0
:1002D00004010605010001060607010101060505E6
:1002E0000100000101010101010101010000010003
:1002F00000010109090101000000000000010301E3
:1003000001060100000000000001020307050100D2
:1003100000000000010103020108080100000000C4
:10032000010908080109080100000000000101039B
:10033000020101010000000000010701060505019E
:1003400000000000000001010101010000000000A8
:100350000101040401010000000000010403020285
:10036000080901010000010202020309010105065A
:10037000010103040109080106050706050403013C
:100380000801010505060901010404010808060722
:100390000B0D080100010401090807070A0C0801F8
:1003A000010104010109080708080901000001030F
:1003B000010109090101040100010505040301010E
:1003C00004030605010109060102020203010609F0
:1003D00001010809000302030301090801000101EA
:1003E00004080808090401010000010601040303D0
:1003F00004000601000001050601010101060501D6
:1004000000000001010100000001010000000000E7
:1004100001040304040100000000000103020202C1
:10042000030401000000010106050608090301019B
:10043000000109070505050605050708010109066C
:100440000606060906060609010001060B0D080846
:100450000D0B0601000001090A0C08080C0A09012D
:100460000000000109080808080901000000000058
:1004700000240027002A0000000000250028002B8F
:10048000000404040404040404020202020202033D
:100490000303030303010204081020408001020447
:1004A00008102001020408102000000008000201CA
:1004B000000003040700000000000000000000002E
:1004C000000000000030787830300030006C6C6C38
:1004D00000000000006C6CFE6CFE6C6C00307CC098
:1004E000780CF8300000C6CC183066C600386C387E
:1004F00076DCCC76006060C0000000000018306040
:100500006060301800603018181830600000663CD9
:10051000FF3C660000003030FC303000000000007E
:100520000000703060000000FC00000000000000CF
:100530000000303000060C183060C0800078CCDC41
:10054000FCECCC780030F030303030FC0078CC0C53
:100550003860CCFC0078CC0C380CCC78001C3C6C9F
:10056000CCFE0C0C00FCC0F80C0CCC78003860C041
:10057000F8CCCC7800FCCC0C183060600078CCCC87
:1005800078CCCC780078CCCC7C0C18700000003093
:1005900030003030000000303000703060183060C3
:1005A000C0603018000000FC00FC00000060301843
:1005B0000C1830600078CC0C18300030007CC6DE9F
:1005C000DEDEC078003078CCCCFCCCCC00FC66669B
:1005D0007C6666FC003C66C0C0C0663C00FC6C6685
:1005E00066666CFC00FE6268786862FE00FE626807
:1005F000786860F0003C66C0C0CE663E00CCCCCCD3
:10060000FCCCCCCC0078303030303078001E0C0C74
:100610000CCCCC7800E6666C786C66E600F0606026
:10062000606266FE00C6EEFED6C6C6C600C6E6F628
:10063000DECEC6C600386CC6C6C66C3800FC666620
:100640007C6060F00078CCCCCCDC781C00FC66666A
:100650007C786CE60078CCE0381CCC7800FCB430B8
:100660003030307800CCCCCCCCCCCCFC00CCCCCC5A
:10067000CCCC783000C6C6C6D6FEEEC600C6C66C68
:10068000386CC6C600CCCCCC7830307800FECC9824
:100690003062C6FE007860606060607800C06030E4
:1006A000180C060200781818181818780010386C02
:1006B000C60000000000000000000000FF303018FD
:1006C00000000000000000780C7CCC7600E0607C2C
:1006D000666666BC00000078CCC0CC78001C0C0CB0
:1006E0007CCCCC7600000078CCFCC07800386C6004
:1006F000F06060F000000076CCCC7C0CF8E0606C20
:10070000766666E600300070303030780018007889
:10071000181818D870E060666C786CE6007030309D
:1007200030303078000000ECFED6C6C6000000F87D
:10073000CCCCCCCC00000078CCCCCC78000000DC59
:1007400066667C60F0000076CCCC7C0C1E0000D885
:100750006C6C60F00000007CC0780CF80010307CFD
:1007600030303418000000CCCCCCCC76000000CC6B
:10077000CCCC7830000000C6C6D6FE6C000000C6A7
:100780006C386CC6000000CCCCCC7C0CF80000FCB3
:10079000983064FC001C3030E030301C0018181811
:1007A0000018181800E030301C3030E00076DC0013
:1007B000000000000010386CC6C6C6FE0000891D8F
:1007C00011241FBECFEFD8E0DEBFCDBF13E0A0E005
:1007D000B1E0E4E1FFE302C005900D92A630B1075D
:1007E000D9F724E0A6E0B3E001C01D92A239B20718
:1007F000E1F713E0C0EED3E004C02197FE010E94B0
:10080000081ECF3DD107C9F70E94B6160C94881F69
:100810000C9400001F920F920FB60F9211242F9389
:100820003F934F935F936F937F938F939F93AF9378
:10083000BF93EF93FF93E0914304F09144044A9BEC
:10084000C1C0808183879685911104C095859111DF
:10085000BBC051C0913009F04EC0918990FF4BC090
:10086000158614861686278530892115310509F4E9
:100870003FC046A157A141305105B9F04230510562
:1008800031F1452BA9F59181DF01A90FB11DA90F08
:10089000B11D14963C932E93139721E0290F243019
:1008A00011F0218325C0918323C0948DDF01A90F0E
:1008B000B11DA90FB11D5F963C932E935E9721E069
:1008C000290F243011F0248F13C0948F11C0928906
:1008D000DF01A90FB11DA90FB11D55963C932E93B1
:1008E000549721E0290F243011F0228B01C0928B04
:1008F000108A1786118A9685923009F04EC0918928
:1009000015861486168690FD45C0278530892115E9
:10091000310509F43FC046A157A141305105B9F056
:100920004230510531F1452BA9F59181DF01A90F25
:10093000B11DA90FB11D14963C932E93139721E07E
:10094000290F243011F0218325C0918323C0948D79
:10095000DF01A90FB11DA90FB11D5F963C932E9326
:100960005E9721E0290F243011F0248F13C0948F5B
:1009700011C09289DF01A90FB11DA90FB11D5596B4
:100980003C932E93549721E0290F243011F0228BB1
:1009900001C0928B108A1786118A90EE980F9730BB
:1009A00088F19FEB980F9730A8F19EE9980F983047
:1009B000D8F18C52873008F041C0868590E00196CE
:1009C00086873CC010823AC024859CEE980F9730F1
:1009D00028F030E02F5F3F4F24878DCF41E050E07B
:1009E000022E02C0440F551F0A94E2F767857089F2
:1009F000462B572B508B4787418950E04F5F5F4F05
:100A0000418BE7CF258530E02F5F3F4F258717A229
:100A100016A2C7CF258530E02F5F3F4F258722E004
:100A200030E037A326A3C1CF21E030E037A326A3CF
:100A3000258530E02F5F3F4F2587BBCFFF91EF919A
:100A4000BF91AF919F918F917F916F915F914F91E6
:100A50003F912F910F900FBE0F901F9018951F92EE
:100A60000F920FB60F9211242F933F938F939F9362
:100A7000AF93BF93EF93FF93E0914304F09144044D
:100A8000808190E001968083E0914504F0914604D6
:100A9000828190E00196982F82838681813059F47B
:100AA0009D3049F487818111539AE0914504F0917A
:100AB000460416821282E0914504F0914604828138
:100AC000883C39F48681811104C084819581892B09
:100AD00079F0E0914504F091460493899923A1F0BF
:100AE00024813581232B81F486818823D1F00CC0A9
:100AF0009AB188E089278AB9E0914504F0914604CB
:100B000081E086831282E5CF958D992309F444C054
:100B100024813581232B09F03FC086818823F9F099
:100B20003BC08489891720F491E0980F948B03C00F
:100B3000148A138A80E0DF01A80FB11DA80FB11D30
:100B400055968D919C91569795838483539AE09105
:100B50004504F0914604128282E090E01AC0868D2E
:100B6000891708F08DC091E0980F968FDF01A80FCC
:100B7000B11DA80FB11D5F968D919C9190979583A3
:100B80008483539AE0914504F0914604128281E0F7
:100B900090E090A787A308C09085992329F024812D
:100BA0003581232B09F470C0E0914504F09146048F
:100BB0008281823261F48781811109C084819581AB
:100BC000892B29F087A190A5892B09F47EC0E0919B
:100BD0004504F09146048281863661F48781811153
:100BE00009C084819581892B29F087A190A501975F
:100BF00009F475C0E0914504F09146048281843483
:100C000061F48781811109C084819581892B29F044
:100C100087A190A5029709F46CC0E0914504F0917A
:100C2000460487818823E1F08681811119C02381E0
:100C3000822F90E04097A4F482818A3049F4848125
:100C4000958102C0959587952A95E2F780FF76C039
:100C5000E0914504F09146048281873109F453C044
:100C6000E0914504F09146048381803109F085C00C
:100C70008681811182C082818E3209F07EC06BC074
:100C8000168E158E80E072CF868181118DCF818581
:100C9000891720F491E0980F918703C01186108680
:100CA00080E0DF01A80FB11DA80FB11D1A968D912C
:100CB0009C911B9795838483539AE0914504F0910E
:100CC0004604128210A617A26FCF5398E0914504F4
:100CD000F0914604128281E08683878378CF53980F
:100CE000E0914504F0914604128281E08683878377
:100CF00081CF5398E0914504F0914604128281E03F
:100D0000868387838ACF84819581038002C09595ED
:100D100087950A94E2F780FFA3CF5398E0914504AA
:100D2000F0914604128281E08683838190E00196EF
:100D30008383828990E00196828B92CF5398E091D1
:100D40004504F0914604128281E08683838190E01D
:100D5000019683837DCF5398E0914504F09146043A
:100D600081E086831282928990FF06C017821382E7
:100D700015821482128A01C0828BFF91EF91BF917C
:100D8000AF919F918F913F912F910F900FBE0F9038
:100D90001F901895FC018485882311F08150848769
:100DA0001482A18DB28D16968C918230A1F118F427
:100DB000813041F0E9C0833009F477C0843009F410
:100DC0009BC0E2C09189911150C0908991111EC0C1
:100DD0009785368542815381993009F4D5C02FEF2C
:100DE000230F2B3009F4D0C06BE0969FD001112463
:100DF000A20FB11DA40FB51F9C919111C5C0332343
:100E000009F4C2C02687208D98E101C0208D921B75
:100E1000908B8483B9C09189911127C090899111D9
:100E200018C09785268542815381993009F4ACC05A
:100E30002F5F2B3009F4A8C03BE0939FD001112411
:100E4000A20FB11DA40FB51F9C9191119DC0908D53
:100E5000DFCF808D890F883110F4808B04C0108A19
:100E600086858F5F868782E0D4CF692F70E0808D82
:100E7000282F30E0220F331F2617370794F448E15C
:100E800050E0461B570B241735070CF47DC0980F14
:100E9000918B983121F487858F5F8787118A84E051
:100EA000B8CF981B918B83E0B4CF908991114DC03E
:100EB000918991111EC027859FEF920F368542813F
:100EC0005381993009F460C03B3009F45DC06BE098
:100ED000969FD0011124A30FB11DA40FB51F3C9103
:100EE000311152C0222309F44FC09787208D98E119
:100EF00001C0208D921B1CC09089911126C0918940
:100F0000911118C0A78591E09A0F268542815381DF
:100F10009930D1F12B30C1F13BE0939FD0011124E6
:100F2000A20FB11DA40FB51F9C9191112DC0908DE2
:100F3000918B6FCF808D890F883110F4818BAFCF6B
:100F4000118A87858F5F8787AACF692F70E0808D90
:100F5000282F30E0220F331F2617370724F0981B65
:100F6000908B81E056CF48E150E0461B570B241789
:100F7000350754F0980F908B983109F074CF86851F
:100F80008F5F8687108A6FCF44814423B9F181E057
:100F900085838785268560E1269F90011124282B73
:100FA0008089608D882329F00E94FC1D382B3061D8
:100FB00005C081890E94FC1D382B3F7EA38DB48D16
:100FC00018965C911897FD01E50FF11DE50FF11DD5
:100FD000842F90E0982F88279295990F907E282B48
:100FE000392B3387228781E0850F843019F01896DA
:100FF0008C9302C018965C9381E0089585818111DD
:10100000158208950895DC015996ED91FC915A9747
:1010100082819181891720F491E0980F928303C017
:101020001282118280E0E80FF11DE80FF11D23818B
:10103000822F94812F701F962C931F979C01207FE5
:10104000332744E0369527954A95E1F71E962C9371
:101050001E97AC0144275F7058962C91589794FFC7
:101060000AC0259F202D112450962C9350975196FD
:101070001C92519709C050961C925097259F202D85
:10108000112451962C935197892F992782958695F3
:10109000877014968C93089508956F927F928F9223
:1010A0009F92AF92BF92CF92DF92EF92FF920F93F7
:1010B0001F93CF93DF93EC016B018D81813009F099
:1010C00059C059018A013A0188E0680E711C4B0130
:1010D0008CE0880E911C7601F701EC19FD09EA0DF0
:1010E000FB1DE4918E2F90E0FC013197EE30F1056D
:1010F00080F5EC5CFF4F0C94081E24E031E223C025
:101100002AE836E620C026EC34E41DC022E833E2AB
:101110001AC028EA33EA17C025E03AE714C024E8E9
:1011200039E511C02CE43FEF0EC023E23DED0BC0CA
:101130002FEF3FEF08C02BEF3EED05C028E135E86B
:1011400002C020E133E4A801B701888199810E949F
:10115000FE138FEFE81AF80AE814F90409F0BCCF7F
:101160008CE0A80EB11C0F5F1F4F0615170509F084
:10117000B2CF5BC0823009F058C059018A013A01F0
:1011800088E0680E711C4B018CE0880E911C760182
:10119000F701EC19FD09EA0DFB1DE4918E2F90E09B
:1011A000FC013197EE30F10580F5EE5BFF4F0C94BA
:1011B000081E24E031E223C028EC39EE20C023E8E9
:1011C00030EB1DC020E030E81AC028EA33EA17C02F
:1011D00025E03AE714C024E839E511C02CE43FEFDC
:1011E0000EC023E23DED0BC02FEF3FEF08C02BEF09
:1011F0003EED05C028E135E802C020E133E4A80156
:10120000B701888199810E94FE138FEFE81AF80ACE
:10121000E814F90409F0BCCF8CE0A80EB11C0F5FF4
:101220001F4F0615170509F0B2CFDF91CF911F911F
:101230000F91FF90EF90DF90CF90BF90AF909F9075
:101240008F907F906F9008950C94B21E0C94B21EF4
:101250008F929F92AF92BF92CF92DF92EF92FF92C6
:101260000F93CF93DF935C014B01EA01822F97012B
:10127000811104C0C5010E944D0803C0C5010E9430
:10128000D50EAE01485F5F4F9601B401C501011153
:101290000DC0DF91CF910F91FF90EF90DF90CF9035
:1012A000BF90AF909F908F900C944D08DF91CF919D
:1012B0000F91FF90EF90DF90CF90BF90AF909F90F5
:1012C0008F900C94D50EFC0191898089282F30E0F5
:1012D000290F311D232B69F48685681331C087855A
:1012E00048132EC08585815085878CE3848781E0F3
:1012F0000895811112C08685681322C027852413A2
:1013000002C09D3078F330E050E04150510924177D
:101310003507B1F49C30A0F0E5CF911111C097854D
:1013200049130EC02685261302C08D30D8F230E056
:1013300070E0615071092617370711F48C3090F670
:1013400080E00895CF93C62F81E080932D0382E53E
:101350008093990310922E0310924F03642F87E31A
:1013600094E00E94CA146C2F87E394E00E94CA1490
:1013700080914F03813208F045C09091760391111E
:10138000FCCF92E09093760391E0909375039FEFEA
:10139000909374031092730380937203AFE2B3E0EF
:1013A00020E533E0F9019E2F921B981718F49D91C8
:1013B0009193F9CF1092710380917103846A8093A5
:1013C000710380917003813061F4109270038091F9
:1013D00071038093BB008091BC0083FDF8CF85EC46
:1013E00001C085EE8093BC00809176038230E1F3EA
:1013F000809174038F3F31F080917403803211F03B
:101400008091740310922E0310924F0310922D03BB
:101410008FE39CE90197F1F700C00000CF91089598
:10142000CF92DF92FF920F931F93CF93DF93CDB7AD
:10143000DEB72C970FB6F894DEBF0FBECDBF8C0180
:10144000809176038111FCCF81E0809376038093B5
:1014500075039FEF909374031092730395E090933C
:1014600072038093710380917103846A8093710386
:1014700080917003813061F4109270038091710348
:101480008093BB008091BC0083FDF8CF85EC01C048
:1014900085EE8093BC00809176038130E1F38091EA
:1014A0007303863018F4F090730302C036E0F32E15
:1014B000A0E5B3E027E733E0F9018E2F821B8F15FB
:1014C00018F48D918193F9CF10929703F0929803BD
:1014D000CE0101966C0180919703F81649F087E3DD
:1014E00094E00E947E14F601819391936F01F3CFF3
:1014F0008981F80180838B8181838B859C859C0108
:1015000021703327F1E02F27F801258396958795E1
:10151000F1E08F278170F801848340E060E0C8012A
:101520000E94A209F801208130E0828190E0A901A7
:10153000481B590B4C34510514F082E007C0821B44
:10154000930B8C34910524F081E0F801868302C06E
:10155000F8011682F801218130E0838190E0A90131
:10156000481B590B4C34510514F083E007C0821B13
:10157000930B8C3491051CF084E0F8018683F8010C
:1015800086812C960FB6F894DEBF0FBECDBFDF91DB
:10159000CF911F910F91FF90DF90CF900895CF933F
:1015A00020E030E0DB01A20FB31F40E050E0CD911E
:1015B000FA01E20FF31FE80FF91FC0834F5F5F4F7F
:1015C0004B305105A1F7255F3F4F2336310551F7C9
:1015D000CF910895EF92FF920F931F93CF93DC0169
:1015E000862F942FB901A80113962D913C91149741
:1015F000993079F18B3069F1CBE09C9FF001112497
:10160000E80FF11DE20FF31F8081823089F030F482
:10161000882349F0813059F521E00BC08530A1F0D5
:10162000863029F516C028EAE22E21E3F22E15C0F5
:1016300020E01D968D919C911E97CF911F910F9147
:10164000FF90EF900C94340D9AECE92E92ECF92E69
:1016500004C081E1E82E84E7F82E08E110E028E1DB
:1016600030E011968D919C9112970E948B13CF912F
:101670001F910F91FF90EF900895CF92DF92EF921C
:10168000FF920F931F93CF93DF936C017A018B012D
:10169000C0E0D0E0CE15DF0589F0D8016D918D0155
:1016A000D601ED91FC910190F081E02DC6010995E4
:1016B000892B11F47E0102C02196ECCFC701DF9186
:1016C000CF911F910F91FF90EF90DF90CF900895F1
:1016D000FC01918D828D981761F0828DDF01A80F3A
:1016E000B11D5D968C91928D9F5F9F73928F90E05C
:1016F00008958FEF9FEF0895FC01918D828D9817CB
:1017000031F0828DE80FF11D858D90E008958FEF07
:101710009FEF0895FC01918D228D892F90E0805CD0
:101720009F4F821B91098F7399270895FC01848D27
:10173000DF01A80FB11DA35ABF4F2C91848D90E0FB
:1017400001968F739927848FA689B7892C93A089D6
:10175000B1898C9180648C93938D848D981306C08D
:101760000288F389E02D80818F7D80830895EF9238
:10177000FF920F931F93CF93DF93EC0181E0888F4B
:101780009B8D8C8D981305C0E889F989808185FD32
:1017900024C0F62E0B8D10E00F5F1F4F0F73112723
:1017A000E02E8C8DE8120CC00FB607FCFACFE8894A
:1017B000F989808185FFF5CFCE010E94960BF1CF8C
:1017C0008B8DFE01E80FF11DE35AFF4FF0820B8F66
:1017D000EA89FB898081806207C0EE89FF89608386
:1017E000E889F98980818064808381E090E0DF91DD
:1017F000CF911F910F91FF90EF900895CF93DF93BA
:10180000EC01888D8823C9F0EA89FB89808185FDF8
:1018100005C0A889B9898C9186FD0FC00FB607FC59
:10182000F5CF808185FFF2CFA889B9898C9185FF9A
:10183000EDCFCE010E94960BE7CFDF91CF910895B7
:101840000E944A1F8F929F92AF92BF92CF92DF92D7
:10185000EF92FF920F931F93CF93DF935C014A01A6
:10186000D02EE90129912223B9F0D501ED91FC9107
:101870000684F785E02DCD2C81E1E82E84E7F82E53
:101880000AEC12ECA401C5010995BC01F5018681A1
:1018900097818617970734F7CB01DF91CF911F917E
:1018A0000F91FF90EF90DF90CF90BF90AF909F90FF
:1018B0008F90089590E0FC01E755FB4F2491FC01C7
:1018C000EB56FB4F3491FC01EF57FB4FE491EE23B5
:1018D000B1F1222339F1233091F038F42130A9F00D
:1018E000223001F584B58F7D12C0273091F0283069
:1018F000A1F02430B9F4809180008F7D03C08091E5
:1019000080008F77809380000DC084B58F7784BD71
:1019100009C08091B0008F7703C08091B0008F7DA7
:101920008093B000F0E0EE0FFF1FE958FB4FA59148
:10193000B4918FB7F894EC913E2B3C938FBF0895F0
:101940001F920F920FB60F9211242F933F934F9334
:101950005F936F937F938F939F93AF93BF93EF9317
:10196000FF938AE993E00E94960BFF91EF91BF915C
:10197000AF919F918F917F916F915F914F913F9127
:101980002F910F900FBE0F901F9018951F920F92DE
:101990000FB60F9211242F938F939F93EF93FF9382
:1019A000E091AA03F091AB038081E091B003F09144
:1019B000B10382FD12C090818091B3038F5F8F735A
:1019C0002091B403821751F0E091B303F0E0E656A2
:1019D000FC4F958F8093B30301C08081FF91EF91FD
:1019E0009F918F912F910F900FBE0F901F90189580
:1019F000CF93DF9390E0FC01EB56FB4F2491FC0169
:101A0000EF57FB4F8491882361F190E0880F991F75
:101A1000FC01E359FB4FC591D491FC01E958FB4F00
:101A2000A591B491611109C09FB7F8948881209560
:101A300082238883EC912E230BC0623061F49FB720
:101A4000F8943881822F809583238883EC912E2B04
:101A50002C939FBF06C08FB7F894E8812E2B288364
:101A60008FBFDF91CF9108952F923F924F925F9257
:101A70006F927F928F929F92AF92BF92CF92DF929E
:101A8000EF92FF920F931F93CF93DF935C01562E3B
:101A9000472E21114AC06A01812C912CC4019595D1
:101AA0008795C52DD42D612C712CFCE0F89F100179
:101AB000F99F300C1124F301F595E795E20DF31D24
:101AC000E75DFD4F8081813069F038F08230C9F4E4
:101AD000EAECEE2EE2ECFE2E09C0A8EAEA2EA1E323
:101AE000FA2E04C0F4E0EF2EF1E2FF2E02E010E047
:101AF00022E030E0A601BE01F501808191810E94C3
:101B00008B13F2E06F0E711C229628E162167104AD
:101B100091F682E0880E911CE2E0CE0ED11CF8E135
:101B20008F16910409F0BACF4DC0213009F04AC098
:101B30006A01812C912CC40195958795C52DD42DD2
:101B4000612C712CFCE0F89F1001F99F300C1124DE
:101B5000F301F595E795E20DF31DE756FE4F808101
:101B6000823049F0833061F08130C9F451E1E52ED3
:101B700054E7F52E09C048EAE42E41E3F42E04C0F0
:101B800034E0E32E31E2F32E02E010E022E030E018
:101B9000A601BE01F501808191810E948B13F2E0C4
:101BA0006F0E711C229628E16216710489F682E09C
:101BB000880E911CE2E0CE0ED11CF8E18F16910444
:101BC00009F0B9CFDF91CF911F910F91FF90EF9066
:101BD000DF90CF90BF90AF909F908F907F906F904D
:101BE0005F904F903F902F900895CF92DF92EF92A9
:101BF000FF920F93FC012583128213822DEAC22EDD
:101C000023E0D22E3DE0E32E34E0F32E00E020E08E
:101C10000E9428090F91FF90EF90DF90CF900895D8
:101C2000CF92DF92EF92FF920F931F93CF93DF93A8
:101C3000EC012D8311E01A831B838C81882379F0BA
:101C40002DE8C22E22E0D22E3DE4E32E33E0F32E27
:101C500001E021E0CE010E9428091C820EC08DEE19
:101C6000C82E82E0D82E9DE4E92E93E0F92E01E003
:101C700021E0CE010E9428091C83DF91CF911F91A2
:101C80000F91FF90EF90DF90CF900895CF92DF9269
:101C9000EF92FF920F93CF93DF93EC012D831A8283
:101CA0001B828C81882379F02DE8C22E22E0D22E6F
:101CB0003DE4E32E33E0F32E00E020E0CE010E946D
:101CC00028091C820FC08DEEC82E82E0D82E9DE41C
:101CD000E92E93E0F92E00E020E0CE010E942809D1
:101CE00081E08C83DF91CF910F91FF90EF90DF9097
:101CF000CF900895CF92DF92EF92FF920F931F93B0
:101D0000CF93DF93EC012D8311E01A838DE2C82E6F
:101D100082E0D82E9DE0E92E94E0F92E0B8121E09F
:101D2000CE010E9428098A81882311F01A8201C0FD
:101D30001A838B81882311F01B8202C081E08B8380
:101D4000DF91CF911F910F91FF90EF90DF90CF9097
:101D50000895CF92DF92EF92FF920F93CF93DF938C
:101D6000EC012D838DE6C82E81E0D82E9DECE92E66
:101D700091E0F92E0B812A81CE010E9428098A81E7
:101D8000882311F01A8202C081E08A838B81882324
:101D900011F01B8202C081E08B83DF91CF910F9104
:101DA000FF90EF90DF90CF9008955F926F927F92B7
:101DB0008F929F92AF92BF92CF92DF92EF92FF925B
:101DC0000F931F93CF93DF93EC013B0169018D814A
:101DD000813009F056C07A01A12CB12C46018A0C41
:101DE0009B1C83019BE0592EF401E50DF11DE4914C
:101DF0008E2F90E0FC013197EE30F10580F5E05B2D
:101E0000FF4F0C94081E24E031E223C02AE836E696
:101E100020C026EC34E41DC022E833E21AC028EAD0
:101E200033EA17C025E03AE714C024E839E511C0C9
:101E30002CE43FEF0EC023E23DED0BC02FEF3FEF50
:101E400008C02BEF3EED05C028E135E802C020E1D7
:101E500033E4A701B801888199810E94FE135A9446
:101E60000F5F1F4F8FEF5812BFCF8CE0A80EB11C31
:101E70008FEFE81AF80A80E6A816B10409F0AECF91
:101E800058C0823009F055C07A01A12CB12C46010E
:101E90008A0C9B1C83018BE0582EF401E50DF11D8B
:101EA000E4918E2F90E0FC013197EE30F10580F542
:101EB000E25AFF4F0C94081E24E031E223C028ECC4
:101EC00039EE20C023E830EB1DC020E030E81AC016
:101ED00028EA33EA17C025E03AE714C024E839E5D8
:101EE00011C02CE43FEF0EC023E23DED0BC02FEFFD
:101EF0003FEF08C02BEF3EED05C028E135E802C0FA
:101F000020E133E4A701B801888199810E94FE1382
:101F10005A940F5F1F4F8FEF5812BFCF8CE0A80E5F
:101F2000B11C8FEFE81AF80A80E6A816B10409F090
:101F3000AECFDF91CF911F910F91FF90EF90DF9087
:101F4000CF90BF90AF909F908F907F906F905F9059
:101F500008955F9A08958EBD00000DB407FEFDCF71
:101F60008EB50895CF93DF931F92CDB7DEB7872F3D
:101F70005F982B9A2D989CB59F7B9CBD2D9A9CB504
:101F800090649CBD69830E94AB0F2B9A2D989CB5E1
:101F90009F7B9CBD2D9A9CB590649CBD6981862FCA
:101FA0000E94AB0F5F9A0F90DF91CF910895CF936E
:101FB000DF931F92CDB7DEB7872F2B9A2D989CB554
:101FC0009F7B9CBD2D9A9CB590649CBD69830E94AB
:101FD000AB0F2B9A2D989CB59F7B9CBD2D9A9CB5E1
:101FE00090649CBD6981862F0F90DF91CF910C94F6
:101FF000AB0FCF92EF92FF920F931F93CF93DF938C
:10200000EC01262F6A3081F48EAD9FAD9BAF8AAF75
:102010002CA92F778CAD9DAD38E0239F800D911DAD
:1020200011249DAF8CAF47C0862F8B7F893009F478
:1020300042C06AAD7BAD203219F461157105D9F14A
:10204000E881F981E8ACF9AC0EA91FA94CAD5DADF2
:102050000088F189E02DCCA8CE010995BC019BAF89
:102060008AAF8DA9882339F12CA92F77822F90E090
:1020700048EF4203900111244E815F81420F531FAC
:1020800046175707C4F44EAD5FAD5BAF4AAF43E0B0
:10209000880F991F4A95E1F74CAD5DAD840F951FF0
:1020A0009DAF8CAF48855985240F351F28173907F8
:1020B00014F41DAE1CAE81E090E0DF91CF911F9132
:1020C0000F91FF90EF90CF900895CF92EF92FF92F3
:1020D0000F931F93DC01ED91FC910684F785E02DB1
:1020E00009951F910F91FF90EF90CF9008952F9237
:1020F0003F924F925F926F927F928F929F92AF9298
:10210000BF92CF92DF92EF92FF920F931F93CF93E4
:10211000DF9300D01F92CDB7DEB79B838A8348013F
:1021200088E0280290011124D901A354BC4F5D011D
:10213000BC2DBF77CB2EEA81FB8186819781F1E0B0
:10214000FB1708F463C06B0128E0C20ED11C8C158C
:102150009D050CF46EC0AA81BB811896ED91FC918F
:1021600019979A01285F3F4FE217F3070CF461C0FB
:10217000AA81BB81ED91FC9111978A01095F1F4FE4
:102180009B01295F3F4F0680F781E02DCD01099526
:10219000AA81BB81ED91FC9111970084F185E02D1E
:1021A000CD0109958501085F1F4FF5014490FFEFB0
:1021B000AF1ABF0A98E0692E712C20E8522EAA812E
:1021C000BB81ED91FC911197852D84210284F385CB
:1021D000E02D882319F0B401CD0103C0B7018A8135
:1021E0009B8109955694B1E06B1A710841F7A016CE
:1021F000B106D9F6AA81BB81ED91FC9111970484B7
:10220000F585E02DCD010995C60176C0B8E0CB9EDD
:10221000800111243B01600E711E861597054CF05C
:10222000040F151FEA81FB812085318520173107B6
:1022300014F4019661C0AA81BB81ED91FC911197C4
:10224000015011090680F781E02D930121503109D9
:10225000CD010995AA81BB81ED91FC911197008474
:10226000F185E02DCD0109952501B8E04B0E511CFB
:10227000F5012490FFEFAF1ABF0A3C2C08E010E0F4
:1022800080E8D82E8D2D82212C2DA1F0AA81BB8132
:10229000ED91FC9111970284F385E02DB401CD01FD
:1022A000298309952981215089F7D6940150110974
:1022B00049F710C0AA81BB81ED91FC91119702846E
:1022C000F385E02DB701CD0129830995298121509E
:1022D00089F7EBCF3A943110D1CFA414B50409F0AB
:1022E000C7CFAA81BB81ED91FC9111970484F5853C
:1022F000E02DCD010995C3010F900F900F90DF9154
:10230000CF911F910F91FF90EF90DF90CF90BF90F2
:10231000AF909F908F907F906F905F904F903F9085
:102320002F900895DC011B96ED91FC911C97848100
:10233000823009F443C028F4882351F0813019F128
:102340000895833009F455C0843009F46DC00895B0
:1023500097858685418950E028E1929F400D511D67
:1023600011244F5E5F4F608970E098E1899F600D96
:10237000711D11246A5C7F4F21E01D968D919C9107
:102380001E970C94F50D97858685418950E028E1CC
:10239000929F400D511D11244F5E5F4F608970E088
:1023A00098E1899F600D711D11246A5C7F4F21E0C7
:1023B0001D968D919C911E970C94100E9785868585
:1023C000418950E028E1929F400D511D11244F5E3C
:1023D0005F4F608970E098E1899F600D711D112445
:1023E0006A5C7F4F21E01D968D919C911E970C9405
:1023F000460E97858685418950E028E1929F400DE1
:10240000511D11244F5E5F4F608970E098E1899FF4
:10241000600D711D11246A5C7F4F21E01D968D9126
:102420009C911E970C94A90E97858685418950E052
:1024300028E1929F400D511D11244F5E5F4F60892E
:1024400070E098E1899F600D711D11246A5C7F4FD7
:1024500021E01D968D919C911E970C947A0EDC01C3
:102460001996ED91FC911A978481823009F443C04A
:1024700028F4882351F0813019F10895833009F44C
:1024800055C0843009F46DC00895978586854189CB
:1024900050E028E1929F400D511D11244F5E5F4F87
:1024A000608970E098E1899F600D711D11246A5C5C
:1024B0007F4F22E01D968D919C911E970C94F50DF7
:1024C00097858685418950E028E1929F400D511DF6
:1024D00011244F5E5F4F608970E098E1899F600D25
:1024E000711D11246A5C7F4F22E01D968D919C9195
:1024F0001E970C94100E97858685418950E028E13F
:10250000929F400D511D11244F5E5F4F608970E016
:1025100098E1899F600D711D11246A5C7F4F22E054
:102520001D968D919C911E970C94460E97858685DD
:10253000418950E028E1929F400D511D11244F5ECA
:102540005F4F608970E098E1899F600D711D1124D3
:102550006A5C7F4F22E01D968D919C911E970C9492
:10256000A90E97858685418950E028E1929F400D0C
:10257000511D11244F5E5F4F608970E098E1899F83
:10258000600D711D11246A5C7F4F22E01D968D91B4
:102590009C911E970C947A0E862F5F982B9A2D98FB
:1025A0009CB59F7B9CBD2D9A9CB590649CBD0E9460
:1025B000AB0F5F9A0895862F5F982B982D989CB546
:1025C0009F7B9CBD2D9A9CB590649CBD0E94AB0FD7
:1025D0005F9A08956CE20E94DB125F980895AF92B3
:1025E000BF92CF92DF92EF92FF920F931F93CF9300
:1025F000DF93EC015B017A0169016AE20E94DB1260
:10260000B501CE010E94B20FB601CE010E94B20FF9
:102610006BE2CE010E94DB12B701CE010E94B20F25
:10262000B801CE01DF91CF911F910F91FF90EF90F4
:10263000DF90CF90BF90AF900C94B20F0F931F9389
:10264000CF93DF93EC016930710519F06A3571059C
:1026500071F48AE590E09D838C8380EF90E09F8306
:102660008E8380E491E09987888718E434C06231D2
:10267000710519F0643B710571F484EB90E09D8362
:102680008C8380E491E09F838E8380EF90E0998734
:10269000888718E320C06B31710521F07E7F6E3092
:1026A000710571F48EE091E09D838C8380EF90E062
:1026B0009F838E8380E491E09987888718E80BC018
:1026C0001D821C8280E491E09F838E8380EF90E0E6
:1026D0009987888718EE66E3CE010E94DB12612F8E
:1026E000CE010E94CC12E881F9810885198501503C
:1026F00011092E813F81215031090680F781E02D9B
:1027000040E050E060E070E0CE010995DF91CF91AC
:102710001F910F9108958F929F92AF92BF92CF9287
:10272000DF92EF92FF920F931F93CF93DF93EC0111
:10273000690158012E813F81621773071CF0B901AE
:102740006150710988859985481759071CF0AC01BB
:1027500041505109FB01EC0DFD1DE217F3071CF080
:102760006901C61AD70A9A012A0D3B1D2817390795
:102770001CF05C01A41AB50AE881F9818A010A0DEE
:102780001B1D015011099B012C0D3D1D21503109CC
:102790000680F781E02DCE010995E881F98100845A
:1027A000F185E02DCE0109959501D6010E940E1EFE
:1027B0004B015C01E881F98181149104A104B10409
:1027C00061F00284F385E02DB701CE01099581E027
:1027D000881A9108A108B108EDCF0484F585E02D91
:1027E000CE01DF91CF911F910F91FF90EF90DF907D
:1027F000CF90BF90AF909F908F900994EF92FF92EF
:102800000F931F93CF93DF93EC018E819F81681705
:1028100079075CF5888599854817590734F579015A
:10282000E881F9810680F781E02D8A019B01CE01C4
:102830000995E881F9810084F185E02DCE010995A3
:10284000E881F9810284F385E02DB701CE01099575
:10285000E881F9810484F585E02DCE01DF91CF91E7
:102860001F910F91FF90EF900994DF91CF911F91ED
:102870000F91FF90EF90089585ED8093BC008091BB
:10288000BC0084FDFCCF109276030895409169044A
:10289000262F30E0240F311D21323105DCF4209148
:1028A00076032430C9F4FC0180E090E0861758F4E8
:1028B000309169042191DC01A95BBB4FA30FB11DCD
:1028C0002C930196F3CF80916904680F609369049B
:1028D00080E0089581E0089582E008950895E091F0
:1028E000970380919803E81730F4F0E0E958FC4F23
:1028F000808190E008958FEF9FEF08959091970366
:1029000080919803981750F4E92FF0E0E958FC4FB4
:10291000208130E09F5F9093970302C02FEF3FEF3D
:10292000C90108958091980390E020919703821B3C
:1029300091090895CF92DF92EF92FF920F931F9328
:10294000CF93DF937C01262F972F8A0180912D034F
:10295000882391F0C62FD72F6E01C40ED51ECC153B
:10296000DD0571F06991D701ED91FC910190F08145
:10297000E02DC7010995F3CF642F822F0E944614E2
:10298000C801DF91CF911F910F91FF90EF90DF90E1
:10299000CF900895CF93DF931F92CDB7DEB76983B1
:1029A00020912D032223D1F020914F03203240F0BB
:1029B00021E030E0FC013383228380E090E015C009
:1029C00080912E03E82FF0E0E15DFC4F9981908328
:1029D0008F5F80932E0380934F0305C061E0CE018B
:1029E00001960E94461481E090E00F90DF91CF9114
:1029F00008958F929F92AF92BF92EF92FF920F93A2
:102A00001F93CF93DF93EC017B01E881F981088567
:102A10001985015011092E813F812150310906800D
:102A2000F781E02D40E050E060E070E00995E8813A
:102A3000F9810084F185E02DCE010995AE81BF8139
:102A4000288539850E940E1E4B015C0183E0B694F7
:102A5000A794979487948A95D1F7E881F981811496
:102A60009104A104B10409F444C00284F385E02D6B
:102A7000B701CE010995E881F9810284F385E02D43
:102A8000B701CE010995E881F9810284F385E02D33
:102A9000B701CE010995E881F9810284F385E02D23
:102AA000B701CE010995E881F9810284F385E02D13
:102AB000B701CE010995E881F9810284F385E02D03
:102AC000B701CE010995E881F9810284F385E02DF3
:102AD000B701CE010995E881F9810284F385E02DE3
:102AE000B701CE01099581E0881A9108A108B108C3
:102AF000B4CF0484F585E02DCE01DF91CF911F91F5
:102B00000F91FF90EF90BF90AF909F908F9009949E
:102B10001F920F920FB60F9211242F933F934F9352
:102B20005F936F937F938F939F93AF93BF93EF9335
:102B3000FF938091B900887F803609F49CC068F5C6
:102B4000883209F45BC090F4803109F454C038F441
:102B5000882309F4F6C0883009F44DC0F6C08831E6
:102B600009F44CC0803209F45DC0EFC0803409F430
:102B700068C048F4803309F455C0883309F0E5C0D3
:102B800080937403D8C0803509F44FC0883509F4A8
:102B90005DC0883409F0D9C0D6C0883909F4C7C0EF
:102BA000A8F4883709F467C038F4883609F463C09C
:102BB000803709F460C0C9C0883809F4B8C08039CA
:102BC00009F45FC0803809F0C0C05BC0803B09F4E5
:102BD00086C038F4803A09F466C0883A09F47FC0A8
:102BE000B4C0803C09F4A7C0883C09F4A4C0883B69
:102BF00009F48AC0AAC08091710310C09091730338
:102C000080917203981770F5E091730381E08E0F45
:102C100080937303F0E0E05BFC4F80818093BB0006
:102C200085EC86C0809374038EC0E091730381E0CD
:102C30008E0F809373038091BB00F0E0E05BFC4F4C
:102C4000808390917303809172036EC0E09173034F
:102C500081E08E0F809373038091BB00F0E0E05B16
:102C6000FC4F80838091750381116DC081E080935A
:102C7000700384EA61C083E08093760310928D0430
:102C8000CFCF80918D04803208F051C0E0918D0447
:102C900081E08E0F80938D048091BB00F0E0E359BA
:102CA000FB4F8083BDCF85EC8093BC0010927603F0
:102CB00080918D04803230F4E0918D04F0E0E3598E
:102CC000FB4F108260918D0470E0E0916B04F091F5
:102CD0006C048DE694E0099510928D0436C084E072
:102CE0008093760310926A0410926904E09167045D
:102CF000F0916804099580916904811105C081E013
:102D00008093690410924704E0916A0481E08E0F79
:102D100080936A04F0E0E95BFB4F80818093BB0005
:102D200090916A0480916904981708F479CF85E836
:102D30008093BC000AC085EC8093BC00109276039F
:102D400004C0109274030E943C14FF91EF91BF9154
:102D5000AF919F918F917F916F915F914F913F9133
:102D60002F910F900FBE0F901F901895CF93DF9368
:102D7000CDB7DEB769970FB6F894DEBF0FBECDBFF3
:102D8000E0914504F0914604178213821582148263
:102D9000128AE091AA03F091AB0382E08083E09174
:102DA000A603F091A7031082E091A803F091A90374
:102DB0008FEC80831092B203E091AE03F091AF03E9
:102DC00086E08083E091AC03F091AD038081806167
:102DD0008083E091AC03F091AD03808188608083B3
:102DE000E091AC03F091AD03808180688083E09135
:102DF000AC03F091AD0380818F7D808381E490E00E
:102E00000E941D1EFC01138212821582148280E42E
:102E100091E09783868380EF90E091878087178683
:102E200016861586148613861286178A168A158AC0
:102E3000148A138A128A118A108A10AA11AA12AA55
:102E400013AAFF24F394F4AAF5AA17AA16AA8FEFDF
:102E50009FEF91AF80AF17AE16AE15AE14AE13AEA6
:102E600012AE83E791E091838083F0932C03E0938B
:102E70002B0387E090E00E941D1E8C01DC0116965A
:102E80001C92109297031092980310922E031092A6
:102E90004F0310927603F09275031092700382E153
:102EA0000E945A0C83E10E945A0C8091B9008E7FD7
:102EB0008093B9008091B9008D7F8093B90088E438
:102EC0008093B80085E48093BC0040EF65E5C801BD
:102ED0000E94A2094BEF60E0C8010E94A209BFEF67
:102EE000E1EEF4E0B150E040F040E1F700C0000056
:102EF000C8010E94100AC8010E94100AD8018C91D2
:102F000012968C93129711968C91119713968C931D
:102F100010932A030093290386E090E00E941D1E6F
:102F2000FC0100912B0310912C0312821382148256
:102F300011830083909328038093270361E088E046
:102F40000E94F80C289861E081E00E94F80C61E092
:102F500087E00E94F80C61E08DE00E94F80C61E0CF
:102F60008BE00E94F80C60E08CE00E94F80C59980D
:102F70005F9A61E086E00E94F80C5E9AF801E05CDE
:102F8000FF4F10828CB5837F8CBD8CB58F7D8CBD3F
:102F9000FFB6F89480910603811126C0EBE8F4E0B7
:102FA0008491EFE9F4E09491E82FF0E0EE0FFF1F39
:102FB000E359FB4FA591B491EC91E92319F48AE010
:102FC0000E945A0C61E08AE00E94F80C8CB5806186
:102FD0008CBD8CB580648CBD61E08DE00E94F80CE6
:102FE00061E08BE00E94F80C809106038F5F809374
:102FF0000603FFBE8CB58C7F81608CBD8DB5816072
:103000008DBD5F9A2898BFEFE0E7F2E0B150E04055
:10301000F040E1F700C00000289A2FEF3BED45E0BB
:10302000215030404040E1F700C0000048EDC42E80
:1030300040E0D42E5FEFC51AD50AF6013197E4912E
:10304000EF3F51F18E2F807C803439F0803891F73A
:10305000EF73FE2E5601EE2E13C0EF73FE2E5601B7
:10306000EE2EE11003C0CF0CD11CE4CFF50164912A
:10307000C8010E94DB12EA94FFEFAF1ABF0AF1CF3A
:10308000EE2089F3F5016491C8010E94CC12EA9404
:10309000FFEFAF1ABF0AF4CF60E070E0C8010E94F2
:1030A000F9148CB58C7F8CBD8DB58E7F8DBD219A2A
:1030B000299A80916301813009F09BC383E690E0F7
:1030C0000E941D1E8C0160E071E00E94CF0A1093E7
:1030D0002603009325038DE190E00E941D1E2C0124
:1030E000A0904504B09046048091290390912A0352
:1030F000D20113961C930E93129723E0F22E16968C
:10310000FC92169734E0E32E1796EC9217971C96D4
:103110001C921C971D96FC921D97E3E9F1E0119615
:10312000FC93EE935A969C938E9359975C96BC921F
:10313000AE925B978BE190E00E941D1E9B8B8A8B69
:103140008090430490904404DC0113961C930E93EA
:1031500012971696FC9216971796EC9217971C9654
:103160001C921C971D96FC921D9789E891E0119680
:103170009C938E935A969C928E9259978FE090E0F2
:103180000E941D1E6C01209127033091280380911D
:103190002B0390912C03F601928381831483038384
:1031A0003687258796828582B086A7825286418699
:1031B0002A893B8934872387E7E0F3E01192119253
:1031C00033E0EB31F307D1F7D6011C9261E174E7EC
:1031D0000E94F914F8EAEF2EF1E3FF2E08ED10E05B
:1031E00028E031E04DE050E060E370E0F6018181DD
:1031F00092810E948B13E12CF12CADE02A2E312C10
:103200001E2DE6E38E2E912CA12CB12CABE0AE9DB1
:10321000C001AF9D900D11249D8B8C8BF1013496D4
:10322000FF8BEE8BB40166507109D6011396ED91B8
:10323000FC9114976C887D886A0C7B1CE60DF71D49
:103240000081023079F148F4013009F06CC021E0CE
:10325000A101F601858596852CC0033069F1043003
:1032600009F061C022E0A40142505109B401D60125
:103270001D968D919C911E970E94F50DF6018381FC
:103280009481FC01E60DF71D1082D6011996ED918F
:10329000FC911A97A6861787A28AA38A108A118A98
:1032A000008F41C020E0A101D6011D968D919C9117
:1032B0001E970E94340D37C021E04E895F89B4010A
:1032C000F601858596850E94F50DD60113968D91A0
:1032D0009C911497FC01E60DF71D10821B96ED9151
:1032E000FC911C97A6861787A28AA38A108A118A46
:1032F000B4E0B08FF601618072800184F285E02D28
:1033000085854AE0BE016F5F7F4F90E00E944F1FAE
:1033100002E09E012F5F3F4F44E050E064E070E028
:10332000C3010E94220CBFEFAB1ABB0AE8E18E0E6C
:10333000911CFEE38F16F1E09F0609F073CF28E1A0
:10334000220E311C3FEFE31AF30A45EE2416310436
:1033500009F056CFD0922403C092230374E6272E9F
:10336000E0914304F09144048289882309F468C001
:10337000E0902303F0902403D7011596ED91FC9182
:10338000169783899289891720F491E0980F938B7F
:1033900003C0138A128A80E0E80FF11DE80FF11DC7
:1033A000448955896A01B0EFCB22DD2454E0D694DC
:1033B000C7945A95E1F74F70D7011B96ED91FC9198
:1033C0001C97178185E090E0498F0E941D1EFC012B
:1033D000C182498D4283138324821082D7018C914C
:1033E000A82FB0E0AA0FBB1FA95FBC4FED93FC93C1
:1033F0008F5FF70180830380F481E02DC6012BE00D
:10340000249F800D911D1124E80FF91F85E0808312
:1034100038E1439F80011124035F1F4F88E18C9D99
:1034200090018D9D300D1124205D3F4F6C2DC70103
:103430000E94EA0AC7010E949211C7010E942F123E
:10344000D2011D968C91882309F4C4C1E0914304F4
:10345000F09144048181882309F46BC0AA89BB8957
:10346000ED91FC9111970480F581E02DCD01099536
:10347000E0902303F0902403D7011B96ED91FC917B
:103480001C978489882391F043896289B8E14B9F16
:1034900080011124035F1F4FE8E16E9F900111240A
:1034A000285B3F4F6F5FC7010E94EA0AD7011B9656
:1034B000ED91FC911C978589882391F0438962895D
:1034C000B8E14B9F800111240B5D1F4FE8E16E9F17
:1034D00090011124205D3F4F4F5FC7010E94EA0A0F
:1034E000D7011B96ED91FC911C9743896289B8E145
:1034F0004B9F80011124035F1F4FE8E16E9F9001F5
:103500001124205D3F4FC7010E94EA0AC7010E94B3
:103510009211C7010E942F12D7011B96ED91FC91C9
:103520001C978685828B8785838B8089848B818994
:10353000858B8091290390912A030E94100AD20161
:10354000ED91FC910480F581E02DC201099588235D
:1035500009F461C0E0902303F0902403D701199689
:10356000ED91FC911A978489882391F043896289AF
:10357000B8E14B9F80011124035F1F4FE8E16E9F6C
:1035800090011124285B3F4F6F5FC7010E94EA0A38
:10359000D7011996ED91FC911A978589882391F0AE
:1035A00043896289B8E14B9F800111240B5D1F4F55
:1035B000E8E16E9F90011124205D3F4F4F5FC701EE
:1035C0000E94EA0AD7011996ED91FC911A97438956
:1035D0006289B8E14B9F80011124035F1F4FE8E12E
:1035E0006E9F90011124205D3F4FC7010E94EA0A9F
:1035F000C7010E949211C7010E942F12D70119968C
:10360000ED91FC911A978685828B8785838B8089C3
:10361000848B8189858BE0912903F0912A03858130
:10362000882309F4A2C0F2018681882309F49DC091
:10363000C0902303D0902403D6011996ED91FC91FC
:103640001A97808966858C3008F06F5F818947857D
:103650008C3008F04F5FF60123813481493009F442
:1036600084C06B3009F481C0662E712C842E912C9D
:10367000C301FBE0F49F800D911D1124F901E80FB7
:10368000F91F8081853008F070C085E08083D60105
:10369000BC901996ED91FC911A97178185E090E006
:1036A000498F688F0E941D1EFC01688D6183498DC2
:1036B000428313832482B1E0B083D6018C91A82F7A
:1036C000B0E0AA0FBB1FA95FBC4FED93FC938F5FC7
:1036D000F60180830184F285E02D86818150868306
:1036E00080859185019691878087D60117960D91E7
:1036F0001C911897F8012389E20FF11DE20FF11DCB
:1037000084E0660C771C8A95E1F78B2D90E0880F9A
:10371000991F895F9C4FDC018D919C91DC0114966F
:103720008C91782A68287928768A658A81E0820FC8
:10373000843019F0F801838B03C0D80153962C9381
:10374000B8E14B9F80011124035F1F4FE8E16E9F9A
:1037500090011124205D3F4FC6010E94EA0AC60174
:103760000E949211C6010E942F12C0902303D09094
:103770002403812C912CA8E13A2ED6018C9190E063
:10378000881699060CF0ECCD5401AA0CBB1C9501CF
:10379000295F3C4F3901F901A081B18114968C91C8
:1037A00014979FEF980F14969C93149781110EC055
:1037B0008BC0880F991FFC01E95FFC4F11821082BA
:1037C0002150D6012C93B1E08B1A9108EFEF8E1A9D
:1037D0009E0AD3CF80912503909126030E94B21EAA
:1037E00080912303909124030E94B21E86E080936F
:1037F000630180916301863009F05BCC61E174E77D
:1038000080912B0390912C030E94F91403E021EE88
:1038100032E044E150E062E370E080912B0390914C
:103820002C030E94220C02E02BEE32E046E950E02D
:1038300062E370E080912B0390912C030E94220C94
:1038400027EF32E044EB50E062E370E080912B031D
:1038500090912C030E94220CEFE3FCE93197F1F7E1
:1038600000C00000E0914304F0914404948D99233A
:1038700099F3858D891720F491E0980F958F03C0F7
:10388000158E148E80E0DF01A80FB11DA80FB11DA9
:103890005E968D919C915F970F97F1F681E08093F2
:1038A0006301858D948D891718F48F5F858F02C011
:1038B000158E148E858D948D891718F48F5F858FE2
:1038C000F8CB158E148EF5CBF60123813481119639
:1038D0009C91119712968C9112974BE0489FF001A2
:1038E0001124E90FF11DE20FF31F108212964C9183
:1038F000129711966C9188E1489FA0011124435FB3
:103900005F4F98E1699FB0011124605D7F4F88EAA5
:10391000E82E81E3F82E08E110E028E130E0D6013E
:1039200011968D919C9112970E948B13C6010E9453
:103930009211C6010E942F12D301ED91FC91428198
:103940006181F60181859285DC011C962C91211103
:1039500020C00E9463098823E1F0D6011196ED9002
:10396000FC9012971996ED91FC911A9785854AE083
:10397000BE016F5F7F4F90E00E944F1F02E09E01EB
:103980002F5F3F4F44E050E064E070E0C7010E94C9
:10399000220C612C77247394F501E95FFC4FFD8BB9
:1039A000EC8B11E0AC89BD89ED91FC91838181178D
:1039B00008F47AC061814281F3E07F1651F024E07F
:1039C000721649F032E0731611F0611B09C0610FE5
:1039D00007C0411B05C0410F6B3008F46AC06CC0C2
:1039E0006B3008F061C0493008F05EC0D601139614
:1039F000ED91FC911497262F30E0A42FB0E0C9017F
:103A00005BE0549F800D911D1124E80FF91F808108
:103A1000813009F449C0823001F5108263943A9EE6
:103A2000A0013B9E500D1124435F5F4F329EB001B9
:103A3000339E700D1124605D7F4FE8EAEE2EE1E3C6
:103A4000FE2E08E110E028E130E0D60111968D91BC
:103A50009C9112970E948B1327C0F6018185928555
:103A6000DC011C962C9121111DC00E946309882342
:103A7000C9F0F601E180F2800184F285E02D8585B0
:103A80004AE0BE016F5F7F4F90E00E944F1F02E04F
:103A90009E012F5F3F4F44E050E064E070E0C701BB
:103AA0000E94220C1F5F7ECF7394B5E07B1279CF0A
:103AB00003C0493008F49ACFF501E95FFC4F8081DB
:103AC0009181FC012081222371F0D6011996ED919C
:103AD000FC911A9722853385260D311D3387228765
:103AE00026812F5F2683009711F00E94B21EF601F7
:103AF0002081422F50E0F501E95FFC4FC40184179B
:103B000095070CF056CE0196628173816193719393
:103B1000F6CFEAE9F3E01382128288EE93E0A0E0A8
:103B2000B0E084839583A683B7832DEB32E03183A5
:103B3000208325EC30E03587248724EC30E037877C
:103B4000268720EC30E0318B208B21EC30E0338B6A
:103B5000228B22EC30E0358B248B26EC30E0378B47
:103B6000268B118E128E138E148EE7E3F4E01382EF
:103B7000128284839583A683B7838DEC92E0918330
:103B8000808389E290E00E941D1EFC011086118650
:103B9000138A148A158E168E83E28093B0008AE011
:103BA0008093B10083E38093B3008AE18093B400F3
:103BB00084E080937000F0934604E093450488E22B
:103BC00090E00E941D1EFC0111821282148615864F
:103BD0001686108A1786128A138A148E158E5298AA
:103BE000A9E6B0E08C9181608C93E89A7894F09388
:103BF0004404E09343040895991B79E004C0991F9D
:103C0000961708F0961B881F7A95C9F78095089536
:103C1000EE0FFF1F0590F491E02D09940E94791F8B
:103C2000332312F48A1B9B0B0C94181E0E94791FDD
:103C3000B7FF0895821B930B0895CF93DF938230D3
:103C4000910510F482E090E0E0919004F0919104ED
:103C500020E030E0C0E0D0E0309711F140815181A8
:103C600048175907C0F04817590761F482819381BA
:103C7000209719F09B838A832BC0909391048093A3
:103C8000900426C02115310519F04217530718F486
:103C90009A01BE01DF01EF010280F381E02DDCCF4C
:103CA0002115310509F1281B390B2430310590F419
:103CB00012968D919C9113976115710521F0FB016E
:103CC0009383828304C09093910480939004FD01B8
:103CD000329644C0FD01E20FF31F8193919322506D
:103CE00031092D933C933AC020918E0430918F047A
:103CF000232B41F4209167013091680130938F04A8
:103D000020938E04209165013091660121153105C3
:103D100041F42DB73EB74091690150916A01241BCF
:103D2000350BE0918E04F0918F04E217F307A0F4B5
:103D30002E1B3F0B2817390778F0AC014E5F5F4F01
:103D40002417350748F04E0F5F1F50938F044093A0
:103D50008E048193919302C0E0E0F0E0CF01DF9107
:103D6000CF9108950F931F93CF93DF93009709F49A
:103D70008CC0FC0132971382128200919004109142
:103D800091040115110581F420813181820F931F67
:103D900020918E0430918F042817390779F5F0931C
:103DA0008F04E0938E0471C0D80140E050E0AE175C
:103DB000BF0750F412962D913C911397AD01211538
:103DC000310509F1D901F3CF9D01DA013383228353
:103DD00060817181860F971F8217930769F4EC0148
:103DE00028813981260F371F2E5F3F4F3183208373
:103DF0008A819B8193838283452B29F4F0939104DC
:103E0000E093900442C01396FC93EE931297ED0159
:103E1000499159919E01240F351FE217F30771F460
:103E200080819181840F951F029611969C938E93A9
:103E30008281938113969C938E931297E0E0F0E039
:103E4000D80112968D919C911397009719F0F80163
:103E50008C01F6CF8D919C9198012E5F3F4F820F80
:103E6000931F20918E0430918F042817390769F42D
:103E7000309729F4109291041092900402C013829A
:103E8000128210938F0400938E04DF91CF911F91C3
:103E90000F91089581E090E0F8940C94881FBB275F
:103EA000FB015527AA27880F991FAA1FA41710F0F6
:103EB000A41B83955051B9F7A05DAA3308F0A95D02
:103EC000A193009779F7B111B1931192CB010C94A2
:103ED000691FDC01FC01672F71917723E1F73297AD
:103EE00004C07C916D9370836291AE17BF07C8F3D5
:103EF0000895A29FB001B39FC001A39F700D811DC3
:103F00001124911DB29F700D811D1124911D0895E2
:043F1000F894FFCF53
:103F14000300000000000000000000000102010096
:103F24000102010001000000020000000200000084
:103F34000000010201000102010201000000020070
:103F4400000202000000000001020102010001025F
:103F54000100000000020200000002000200010053
:103F64000100010001020100000000000000000047
:103F7400000004060100009204800001000000001B
:103F8400000000F90F3D0B1E13EF12EA12D70FA920
:103F94000F77106510000000004C08260903080084
:103FA40000000002082409CA0603010101010101FD
:103FB40001010101020303010101010101010102E7
:103FC40001030303010101010101020101030303D0
:103FD40002020202020201010103030302020202BD
:103FE40002020101010303030202020202020101AF
:103FF400010303030202020202020101010303039B
:10400400020202020202010101030303020202028C
:104014000202010101030302030303030303030177
:104024000103020303030303030303030102030362
:10403400030303030303030303010101010101015A
:104044000101010101020202020201020202020252
:104054000102020202020102020202020101010142
:104064000101010101010101010202010202020236
:10407400020102020202020102020202020102021F
:104084000201010101010101010101010102020218
:1040940002020102020202020102020202020102FF
:1040A40002020202010101010101010101010101F8
:1040B40001020201020202020201020202020201E0
:1040C40002020202020102020200000000B70B3DDC
:1040D4000B8A0B680B7C0BFE0B00000000CA149AC1
:1040E4001492147E146F146E1400000000200C3D12
:1040F4000B424F4D4245524D414E00506C65617329
:1041040065205761697400466F7220506C6179654F
:0641140072204F6E6500F1
:00000001FF
