:100000000C9408040C949D1A0C9430040C94300445
:100010000C9430040C9430040C9430040C94300490
:100020000C94341B0C9430040C9430040C94300465
:100030000C9430040C944A1A0C9430040C94300440
:100040000C9430040C9430040C94A5100C947F1084
:100050000C9430040C9430040C9430040C94300450
:100060000C941C190C943004EB08F008F508FA08FD
:10007000FF08040909090E09130918091C09400998
:100080002109300987098C09910996099A099F0964
:10009000A409A909AE09B309B709DB09BC09CB0951
:1000A000510A540A570A5A0A5D0A600A630A660A24
:1000B000690A6C0A6F0A7D0A720A750AAA0AAD0AF1
:1000C000B00AB30AB60AB90ABC0ABF0AC20AC50A0C
:1000D000C80AD60ACB0ACE0A270B2A0B2D0B300BE7
:1000E000330B360B390B3C0B3F0B420B450B530BC1
:1000F000480B4B0B830B860B890B8C0B8F0B920BD6
:10010000950B980B9B0B9E0BA10BAF0BA40BA70B96
:100110004128D441CF8300833041ED8464031281B0
:1001200041E88385017941CB85392C00340241F7C0
:10013000812041EA82000041C0812641C1811141F4
:10014000C582353E41C781BE41B182001B41F2816B
:10015000084126810141E08F1F1A180A0F064587C2
:10016000320A070207050041E18F00252705100923
:100170003A784D05180D383A1F41B6840A82270097
:1001800041B78107413A8155413681E8412A8200D1
:100190000082013F412B8200008200EF4111FCFCF4
:1001A0004129D4FFFF43616C6962726174696F6EAB
:1001B0000043616C6962726174696F6E00000103D3
:1001C0000101090901010401000105050403010100
:1001D00004030605010109060102020203010609E2
:1001E00001010809000302030301090801000101DC
:1001F00004080808090401010000010601040303C2
:1002000004000601000001050601010101060501C7
:1002100000000001010100000001010000000000D9
:1002200000240027002A0000000000250028002BE1
:10023000000404040404040404020202020202038F
:100240000303030303010204081020408001020499
:10025000081020010204081020000000080002011C
:10026000000003040700000000000000000001017E
:100270000101010909010100000001090104010156
:10028000010101010000010501030406050508083C
:100290000100000101040304010609080100000136
:1002A0000908080809010101000001070101040310
:1002B0000401060501000106060701010106050506
:1002C0000100000101010101010101010000010023
:1002D0000001010909010100000000000001030103
:1002E00001060100000000000001020307050100F3
:1002F00000000000010103020108080100000000E5
:1003000001090808010908010000000000010103BB
:1003100002010101000000000001070106050501BE
:1003200000000000000001010101010000000000C8
:1003300001010404010100000000000104030202A5
:10034000080901010000010202020309010105067A
:10035000010103040109080106050706050403015C
:100360000801010505060901010404010808060742
:100370000B0D080100010401090807070A0C080118
:10038000010104010109080708080901000001032F
:10039000010101030401070901010505040301042A
:1003A0000401070501010905010202010101010122
:1003B0000001080901030203030901000000010113
:1003C00004080808090401000000010701040304EF
:1003D00001010601000000010101010106050501FE
:1003E000000000000000000001010100000000000A
:1003F00000000105060100000000000001010605E3
:1004000005060100000001010608080806050101B3
:10041000000108010903030304090108010009019F
:10042000040104020301010901000109010303029F
:1004300002030101000001010104030302040101A0
:10044000000000010701030403010101000001068F
:100450000101090901010609010001050501010168
:100460000401060501000106080801020304010158
:100470000000000109080103010101010000000161
:10048000010108010505010100000001010403014B
:10049000060605010000000001010101010106013D
:1004A0000000000000000101010101000000000047
:1004B0000104030404010000000000010302020221
:1004C00003040100000001010605060809030101FB
:1004D00000010907050505060505070801010906CC
:1004E0000606060906060609010001060B0D0808A6
:1004F0000D0B0601000001090A0C08080C0A09018D
:1005000000000001090808080809010000000000B7
:10051000000000000030787830300030006C6C6CE7
:1005200000000000006C6CFE6CFE6C6C00307CC047
:10053000780CF8300000C6CC183066C600386C382D
:1005400076DCCC76006060C00000000000183060EF
:100550006060301800603018181830600000663C89
:10056000FF3C660000003030FC303000000000002E
:100570000000703060000000FC000000000000007F
:100580000000303000060C183060C0800078CCDCF1
:10059000FCECCC780030F030303030FC0078CC0C03
:1005A0003860CCFC0078CC0C380CCC78001C3C6C4F
:1005B000CCFE0C0C00FCC0F80C0CCC78003860C0F1
:1005C000F8CCCC7800FCCC0C183060600078CCCC37
:1005D00078CCCC780078CCCC7C0C18700000003043
:1005E0003000303000000030300070306018306073
:1005F000C0603018000000FC00FC000000603018F3
:100600000C1830600078CC0C18300030007CC6DE4E
:10061000DEDEC078003078CCCCFCCCCC00FC66664A
:100620007C6666FC003C66C0C0C0663C00FC6C6634
:1006300066666CFC00FE6268786862FE00FE6268B6
:10064000786860F0003C66C0C0CE663E00CCCCCC82
:10065000FCCCCCCC0078303030303078001E0C0C24
:100660000CCCCC7800E6666C786C66E600F06060D6
:10067000606266FE00C6EEFED6C6C6C600C6E6F6D8
:10068000DECEC6C600386CC6C6C66C3800FC6666D0
:100690007C6060F00078CCCCCCDC781C00FC66661A
:1006A0007C786CE60078CCE0381CCC7800FCB43068
:1006B0003030307800CCCCCCCCCCCCFC00CCCCCC0A
:1006C000CCCC783000C6C6C6D6FEEEC600C6C66C18
:1006D000386CC6C600CCCCCC7830307800FECC98D4
:1006E0003062C6FE007860606060607800C0603094
:1006F000180C060200781818181818780010386CB2
:10070000C60000000000000000000000FF303018AC
:1007100000000000000000780C7CCC7600E0607CDB
:10072000666666BC00000078CCC0CC78001C0C0C5F
:100730007CCCCC7600000078CCFCC07800386C60B3
:10074000F06060F000000076CCCC7C0CF8E0606CCF
:10075000766666E600300070303030780018007839
:10076000181818D870E060666C786CE6007030304D
:1007700030303078000000ECFED6C6C6000000F82D
:10078000CCCCCCCC00000078CCCCCC78000000DC09
:1007900066667C60F0000076CCCC7C0C1E0000D835
:1007A0006C6C60F00000007CC0780CF80010307CAD
:1007B00030303418000000CCCCCCCC76000000CC1B
:1007C000CCCC7830000000C6C6D6FE6C000000C657
:1007D0006C386CC6000000CCCCCC7C0CF80000FC63
:1007E000983064FC001C3030E030301C00181818C1
:1007F0000018181800E030301C3030E00076DC00C3
:10080000000000000010386CC6C6C6FE0000012AB9
:1008100011241FBECFEFD8E0DEBFCDBF12E0A0E0B5
:10082000B1E0E2E6FBE502C005900D92A43BB10702
:10083000D9F724E0A4EBB2E001C01D92A932B207BF
:10084000E1F714E0C8E0D4E004C02197FE010E9463
:10085000952AC730D107C9F70E94561B0C94AF2DBB
:100860000C940000FC011482A089B18916968C9129
:100870008230A1F118F4813041F0E9C0833009F4ED
:1008800077C0843009F49BC0E2C09285911150C0BA
:10089000918591111EC0908537812FEF230F4281E2
:1008A0005381993009F4D3C02B3009F4D0C06BE0E8
:1008B000969FD0011124A20FB11DA40FB51F9C91CA
:1008C0009111C5C0332309F4C2C02783278598E15D
:1008D00001C02785921B91878483B9C092859111AD
:1008E00027C09185911118C0908527812F5F428183
:1008F0005381993009F4ABC02B3009F4A8C03BE018
:10090000939FD0011124A20FB11DA40FB51F9C917C
:1009100091119DC09785DFCF8785890F883110F4AD
:10092000818704C0118687818F5F878382E0D4CF5F
:10093000692F70E08785282F30E0220F331F26179C
:10094000370794F448E150E0461B570B241735074E
:100950000CF47DC0980F9287983121F480858F5FC9
:100960008087128684E0B8CF981B928783E0B4CF4B
:10097000918591114DC0928591111EC020859FEFE8
:10098000920F378142815381993009F460C03B3026
:1009900009F45DC06BE0969FD0011124A30FB11D37
:1009A000A40FB51F3C91311152C0222309F44FC04E
:1009B0009087278598E101C02785921B1CC09185EF
:1009C000911126C09285911118C0A08591E09A0FCF
:1009D0002781428153819930D1F12B30C1F13BE025
:1009E000939FD0011124A20FB11DA40FB51F9C919C
:1009F00091112DC0978592876FCF8785890F883198
:100A000010F48287AFCF128680858F5F8087AACF50
:100A1000692F70E08785282F30E0220F331F2617BB
:100A2000370724F0981B918781E056CF48E150E0CA
:100A3000461B570B2417350754F0980F91879831B0
:100A400009F074CF87818F5F878311866FCF848190
:100A5000882319F081E085830895858181111582AD
:100A600008950895FC0184818230A9F118F4813041
:100A700041F0ACC0833009F457C0843009F47BC026
:100A8000A5C082858111A2C08185811120C0808589
:100A900027819FEF920F42815381893009F496C0DC
:100AA0009B3009F493C03BE0839FD0011124A90F30
:100AB000B11DA40FB51F8C918150823008F486C0FF
:100AC000222309F483C09783978588E101C0978525
:100AD000891B81877BC08285811176C091859111A8
:100AE0001AC0808597819F5F22813381893009F404
:100AF0006DC09B3009F46AC04BE0849FD001112483
:100B0000A90FB11DA20FB31F8C918150823008F440
:100B10005DC08785DECF8785890F8831D0F2118649
:100B200087818F5F878352C0818581114FC0828505
:100B300081111EC020858FEF820F978142815381E2
:100B4000893009F443C09B3009F440C03BE0839FE7
:100B5000D0011124A90FB11DA40FB51F9C91915074
:100B60009230A0F1222391F18087978588E101C01E
:100B70009785891B22C08185811128C0928591119A
:100B800018C0A08581E08A0F978122813381893046
:100B9000E9F09B30D9F04BE0849FD0011124A90FDC
:100BA000B11DA20FB31F8C918150823078F08785E0
:100BB00004C08785890F883110F4828707C01286A8
:100BC00080858F5F808702C081E008950895089531
:100BD0000C94532B0C94532B8F929F92AF92BF92F5
:100BE000CF92DF92EF92FF920F93CF93DF935C014E
:100BF0004B01EA01822F9701811104C0C5010E94B7
:100C0000F70A03C0C5010E94230AAE01485F5F4F87
:100C10009601B401C50101110DC0DF91CF910F9173
:100C2000FF90EF90DF90CF90BF90AF909F908F900C
:100C30000C94F70ADF91CF910F91FF90EF90DF9026
:100C4000CF90BF90AF909F908F900C94230AAC01EF
:100C50004398FC01BC016E5F7F4F97E08081DA0111
:100C6000A80FB11D12962C9130E0092E02C03595C7
:100C700027950A94E2F720FF02C0419A01C04198EB
:100C8000429A4298915050F73196E617F70729F7A4
:100C9000439A08952F923F924F925F926F927F9264
:100CA0008F929F92AF92BF92CF92DF92EF92FF927C
:100CB0000F931F93CF93DF93CDB7DEB763970FB634
:100CC000F894DEBF0FBECDBF6C014B01860F971F9E
:100CD0009B8B8A8BFC01808DF60183A3868D978D7B
:100CE0000E944A15092E000CAA0BBB0B9C01AD01FA
:100CF0002852310941095109A9E0B0E00E94342D80
:100D00002CED30E040E050E00E94152DEA89FB898F
:100D1000208FF60183A1821709F46BC0C4010196EC
:100D200032E3389F1001399F300C11243101FAE071
:100D30006F0E711C21018AE0481A510897E1299F22
:100D4000B0011124635D7F4F9AECE92E92ECF92EED
:100D500083019B01A201F601868D978D0E94821767
:100D6000F601A3A0F7E1AF9E500111248DE2A80E79
:100D7000B11C21E1E22E24E7F22E9501A201B5017A
:100D8000F601868D978D0E94821728EA31E3A10132
:100D9000B501F601868D978D0E944417F601A68C49
:100DA000B78CC10105971C0193E08916910441F4A9
:100DB000838D811105C008EA11E321EB32E013C0F5
:100DC000EA89FB89808D4BE0BE016F5F7F4F90E029
:100DD0000E94D52C81E1E82E84E7F82E08EA11E381
:100DE0009E012F5F3F4FA10168E171E0C5010E94A4
:100DF0000A0E63960FB6F894DEBF0FBECDBFDF912B
:100E0000CF911F910F91FF90EF90DF90CF90BF9007
:100E1000AF909F908F907F906F905F904F903F909A
:100E20002F900895CF93C62F81E08093C00282E572
:100E300080932C031092C1021092E202642F8AEC7C
:100E400093E00E9415176C2F8AEC93E00E9415170F
:100E50008091E202813208F045C09091090391111E
:100E6000FCCF92E09093090391E0909308039FEFE9
:100E7000909307031092060380930503A2ECB2E05F
:100E800023EE32E0F9019E2F921B981718F49D91E2
:100E90009193F9CF1092040380910403846A8093A4
:100EA000040380910303813061F410920303809165
:100EB00004038093BB008091BC0083FDF8CF85ECD8
:100EC00001C085EE8093BC00809109038230E1F37C
:100ED000809107038F3F31F080910703803211F03A
:100EE000809107031092C1021092E2021092C00298
:100EF0008FE39CE90197F1F700C00000CF910895BE
:100F0000CF92DF92FF920F931F93CF93DF93CDB7D2
:100F1000DEB72C970FB6F894DEBF0FBECDBF8C01A5
:100F2000809109038111FCCF81E0809309038093B4
:100F300008039FEF909307031092060395E09093A8
:100F400005038093040380910403846A809304035F
:100F500080910303813061F41092030380910403B4
:100F60008093BB008091BC0083FDF8CF85EC01C06D
:100F700085EE8093BC00809109038130E1F380917C
:100F80000603863018F4F090060302C036E0F32E14
:100F9000A3EEB2E02AE033E0F9018E2F821B8F1519
:100FA00018F48D918193F9CF10922A03F0922B03BC
:100FB000CE0101966C0180912A03F81649F08AEC63
:100FC00093E00E94C916F601819391936F01F3CFCC
:100FD0008981F80180838B8181838B859C859C012D
:100FE00021703327F1E02F27F80125839695879507
:100FF000F1E08F278170F801848340E060E0C80150
:101000000E941207F801208130E0828190E0A9015E
:10101000481B590B4C34510514F082E007C0821B69
:10102000930B8C34910524F081E0F801868302C093
:10103000F8011682F801218130E0838190E0A90156
:10104000481B590B4C34510514F083E007C0821B38
:10105000930B8C3491051CF084E0F8018683F80131
:1010600086812C960FB6F894DEBF0FBECDBFDF9100
:10107000CF911F910F91FF90DF90CF900895CF9364
:1010800020E030E0DB01A20FB31F40E050E0CD9143
:10109000FA01E20FF31FE80FF91FC0834F5F5F4FA4
:1010A0004B305105A1F7255F3F4F2336310551F7EE
:1010B000CF910895862F5F982B9A2D989CB59F7B92
:1010C0009CBD2D9A9CB590649CBD0E9463145F9A50
:1010D0000895CF93DF931F92CDB7DEB7872F5F9828
:1010E0002B9A2D989CB59F7B9CBD2D9A9CB59064A6
:1010F0009CBD69830E9463142B9A2D989CB59F7B9D
:101100009CBD2D9A9CB590649CBD6981862F0E94E0
:1011100063145F9A0F90DF91CF910895862F5F98A7
:101120002B982D989CB59F7B9CBD2D9A9CB5906467
:101130009CBD0E9463145F9A08952F923F924F9234
:101140005F926F927F928F929F92AF92BF92CF9257
:10115000DF92EF92FF920F931F93CF93DF9300D014
:1011600000D0CDB7DEB79C838B83562E472E190156
:10117000DC0115968C91813009F099C05A01612CDF
:10118000712CC30163E070E00E94812AECE0E69FCD
:10119000C001E79F900D11249101280F391F3A8358
:1011A0002983C52CD42C812C912CC40163E070E0E0
:1011B0000E94812AE981FA81E60FF71FE4918E2FC0
:1011C00090E0FC013197EE30F10508F059C0EC5C7D
:1011D000FF4F0C94952AB4E0EB2EB1E2FB2E44C0F5
:1011E000AAE8EA2EA6E6FA2E30C0F6ECEF2EF4E4DA
:1011F000FF2E3AC0E2E8EE2EE3E2FE2E26C078EAA9
:10120000E72E73EAF72E30C065E0E62E6AE7F62E89
:101210001CC054E8E52E59E5F52E26C04CE4E42E1A
:10122000FF24FA9412C033E2E32E3DEDF32E1CC0EE
:10123000EE24EA94FE2C09C09BEFE92E9EEDF92ED8
:1012400013C088E1E82E85E8F82E03E010E023E0E3
:1012500030E0A501B601AB81BC818D919C910EC09F
:1012600000E1E02E03E4F02E03E010E023E030E0A4
:10127000A501B601EB81FC81808191810E94141649
:10128000F3E08F0E911C23E0C20ED11C31E28316D5
:10129000910409F08ACF83E0680E711CA3E0AA0EC6
:1012A000B11CB8E16B16710409F06BCF9AC08230A3
:1012B00009F097C05A01612C712CC30163E070E002
:1012C0000E94812AACE0A69FC001A79F900D112427
:1012D000F101E80FF91FFA83E983C52CD42C812C86
:1012E000912CC40163E070E00E94812AE981FA81B7
:1012F000E60FF71FE4918E2F90E0FC013197EE305E
:10130000F10508F058C0EE5BFF4F0C94952A14E0ED
:10131000E12E11E2F12E43C0B8ECEB2EB9EEFB2E1C
:101320002FC0A3E8EA2EA0EBFA2E39C0E12CF0E89A
:10133000FF2E26C0E8EAEE2EE3EAFE2E30C075E06E
:10134000E72E7AE7F72E1CC064E8E62E69E5F62E54
:1013500026C05CE4E52EFF24FA9412C043E2E42E9A
:101360004DEDF42E1CC0EE24EA94FE2C09C02BEFA8
:10137000E22E2EEDF22E13C098E1E92E95E8F92E1B
:1013800003E010E023E030E0A501B601EB81FC8131
:10139000808191810EC080E1E82E83E4F82E03E085
:1013A00010E023E030E0A501B601AB81BC818D9156
:1013B0009C910E941416B3E08B0E911CE3E0CE0EBC
:1013C000D11CF1E28F16910409F08BCF23E0620E5D
:1013D000711C33E0A30EB11C88E16816710409F09A
:1013E0006CCF0F900F900F900F90DF91CF911F91C6
:1013F0000F91FF90EF90DF90CF90BF90AF909F90B4
:101400008F907F906F905F904F903F902F900895B6
:10141000CF92DF92EF92FF920F93FC01258312820D
:1014200013822DEBC22E21E0D22E3DEAE32E34E0D2
:10143000F32E00E020E00E94EC050F91FF90EF906A
:10144000DF90CF9008955F926F927F928F929F92DC
:10145000AF92BF92CF92DF92EF92FF920F931F93C2
:10146000CF93DF93EC013B0169018D81813009F05D
:1014700056C07A01A12CB12C46018A0C9B1C830119
:101480009BE0592EF401E50DF11DE4918E2F90E0C3
:10149000FC013197EE30F10580F5E05BFF4F0C94D5
:1014A000952A24E031E223C02AE836E620C026EC63
:1014B00034E41DC022E833E21AC028EA33EA17C038
:1014C00025E03AE714C024E839E511C02CE43FEFE9
:1014D0000EC023E23DED0BC02FEF3FEF08C02BEF16
:1014E0003EED05C028E135E802C020E133E4A70164
:1014F000B801888199810E9444175A940F5F1F4F49
:101500008FEF5812BFCF8CE0A80EB11C8FEFE81AF6
:10151000F80A80E6A816B10409F0AECF58C08230B0
:1015200009F055C07A01A12CB12C46018A0C9B1CF4
:1015300083018BE0582EF401E50DF11DE4918E2F0F
:1015400090E0FC013197EE30F10580F5E25AFF4F53
:101550000C94952A24E031E223C028EC39EE20C017
:1015600023E830EB1DC020E030E81AC028EA33EA57
:1015700017C025E03AE714C024E839E511C02CE48F
:101580003FEF0EC023E23DED0BC02FEF3FEF08C051
:101590002BEF3EED05C028E135E802C020E133E441
:1015A000A701B801888199810E9444175A940F5F5E
:1015B0001F4F8FEF5812BFCF8CE0A80EB11C8FEFDA
:1015C000E81AF80A80E6A816B10409F0AECFDF9158
:1015D000CF911F910F91FF90EF90DF90CF90BF9030
:1015E000AF909F908F907F906F905F9008956F92D3
:1015F0007F928F929F92AF92BF92CF92DF92EF92A3
:10160000FF920F931F93CF93DF93EC016B018D81BA
:10161000813009F059C059018A013A0188E0680E09
:10162000711C4B018CE0880E911C7601F701EC19BE
:10163000FD09EA0DFB1DE4918E2F90E0FC0131972E
:10164000EE30F10580F5E459FF4F0C94952A24E023
:1016500031E223C02AE836E620C026EC34E41DC07F
:1016600022E833E21AC028EA33EA17C025E03AE755
:1016700014C024E839E511C02CE43FEF0EC023E28A
:101680003DED0BC02FEF3FEF08C02BEF3EED05C047
:1016900028E135E802C020E133E4A801B7018881E0
:1016A00099810E9444178FEFE81AF80AE814F904A8
:1016B00009F0BCCF8CE0A80EB11C0F5F1F4F0615C0
:1016C000170509F0B2CF5BC0823009F058C059014C
:1016D0008A013A0188E0680E711C4B018CE0880E8B
:1016E000911C7601F701EC19FD09EA0DFB1DE4914F
:1016F0008E2F90E0FC013197EE30F10580F5E65831
:10170000FF4F0C94952A24E031E223C028EC39EEF7
:1017100020C023E830EB1DC020E030E81AC028EAE2
:1017200033EA17C025E03AE714C024E839E511C0D0
:101730002CE43FEF0EC023E23DED0BC02FEF3FEF57
:1017400008C02BEF3EED05C028E135E802C020E1DE
:1017500033E4A801B701888199810E9444178FEF73
:10176000E81AF80AE814F90409F0BCCF8CE0A80ED6
:10177000B11C0F5F1F4F0615170509F0B2CFDF919F
:10178000CF911F910F91FF90EF90DF90CF90BF907E
:10179000AF909F908F907F906F900895CF92DF923F
:1017A000EF92FF920F931F93CF93DF936C017A0117
:1017B0008B01C0E0D0E0CE15DF0589F0D8016D9136
:1017C0008D01D601ED91FC910190F081E02DC601D3
:1017D0000995892B11F47E0102C02196ECCFC70137
:1017E000DF91CF911F910F91FF90EF90DF90CF90FD
:1017F0000895FC01918D828D981761F0828DDF0133
:10180000A80FB11D5D968C91928D9F5F9F73928FF3
:1018100090E008958FEF9FEF0895FC01918D828DE8
:10182000981731F0828DE80FF11D858D90E00895B5
:101830008FEF9FEF0895FC01918D228D892F90E00D
:10184000805C9F4F821B91098F7399270895FC013B
:10185000848DDF01A80FB11DA35ABF4F2C91848D39
:1018600090E001968F739927848FA689B7892C936E
:10187000A089B1898C9180648C93938D848D981309
:1018800006C00288F389E02D80818F7D80830895D2
:10189000EF92FF920F931F93CF93DF93EC0181E0C0
:1018A000888F9B8D8C8D981305C0E889F98980817C
:1018B00085FD24C0F62E0B8D10E00F5F1F4F0F73B8
:1018C0001127E02E8C8DE8120CC00FB607FCFACF62
:1018D000E889F989808185FFF5CFCE010E94270C28
:1018E000F1CF8B8DFE01E80FF11DE35AFF4FF0821F
:1018F0000B8FEA89FB898081806207C0EE89FF89AE
:101900006083E889F98980818064808381E090E048
:10191000DF91CF911F910F91FF90EF900895CF939A
:10192000DF93EC01888D8823C9F0EA89FB898081E7
:1019300085FD05C0A889B9898C9186FD0FC00FB6B9
:1019400007FCF5CF808185FFF2CFA889B9898C91FA
:1019500085FFEDCFCE010E94270CE7CFDF91CF911D
:1019600008950E94B52C8F929F92AF92BF92CF9212
:10197000EF92FF920F931F93CF93DF935C014A0185
:10198000F9019491E9019923E1F0D501ED91FC91E0
:101990000684F785E02DCC24C394EE24EA94FE2C33
:1019A00000E010E0292FA401C5010995BC01219692
:1019B000F50186819781861797071CF0FE019491A7
:1019C000E2CFCB01DF91CF911F910F91FF90EF906C
:1019D000CF90BF90AF909F908F9008952F923F929D
:1019E0004F925F926F927F928F929F92AF92BF922F
:1019F000CF92DF92EF92FF920F931F93CF93DF93DB
:101A0000CDB7DEB766970FB6F894DEBF0FBECDBF79
:101A10001C016B015A0148012701AB01420F531F02
:101A20005A834983B501600F711F788B6F87C60198
:101A30000A969C838B8326513109B601655F7F4FDF
:101A4000A501C1010E94141694E1891A9108F501BB
:101A50003A96FA87E98784012BE030E0AF01B601BE
:101A6000C1010E94141669807A80FBE06F1A710828
:101A70002BE030E049855A85B301C1010E9414165C
:101A80002F8538892B5031093A8B298B89849A8488
:101A90007E826D8246EF5FEF58874F836AE070E089
:101AA0007E8B6D8B1C861B86C6018A199B099C8BBD
:101AB0008B8BEF85F88929813A81E21BF30BF88B38
:101AC000EF87720184012B813C81A401B9018D89CA
:101AD0009E89681B790B7A836983C1010E948217F2
:101AE000A984BA84ED89FE89AE1ABF0A85012B81CB
:101AF0003C81A5016B897C89680D791D7E876D8786
:101B0000C1010E94821784019301A401CD88DE885F
:101B1000C60CD71CB601C1010E9482178501930132
:101B2000A5016D817E81C1010E948217AF84B888B2
:101B30008D819E81A80EB91E85019301A501B60174
:101B4000C1010E948217C988DA88ED89FE89CE0E0C
:101B5000DF1E86019301A6016D817E81C1010E9475
:101B6000821785012B813C81A50169817A81C101A0
:101B70000E94821786012B813C81A6016D857E859E
:101B8000C1010E9482178B859C8501962F81388523
:101B90004B855C85240F351FB901680F791F788745
:101BA0006F8377FD0DC0ED89FE893197FE8BED8B3C
:101BB0009B012E1B3F0BA9014E1B5F0B58874F83C8
:101BC00051E0851A91086D817E816F5F7F4F7E8322
:101BD0006D839C878B87ED89FE89E817F9070CF0E8
:101BE00070CF66960FB6F894DEBF0FBECDBFDF9103
:101BF000CF911F910F91FF90EF90DF90CF90BF900A
:101C0000AF909F908F907F906F905F904F903F909C
:101C10002F9008954F925F926F927F928F929F9232
:101C2000AF92BF92CF92EF92FF920F931F93CF93F9
:101C3000DF935C01CB014A0138012701E9012991B9
:101C40002223A1F0D501ED91FC910684F785E02DCA
:101C500032E0C32E72018301A401BC01C5010995C4
:101C6000F50126813781281739074CF7DF91CF918D
:101C70001F910F91FF90EF90CF90BF90AF909F90EA
:101C80008F907F906F905F904F900895AF92BF922A
:101C9000CF92DF92EF92FF920F931F93CF93DF9338
:101CA000CDB7DEB761970FB6F894DEBF0FBECDBFDC
:101CB0006C015B01CA0189014AE0BE016F5F7F4F81
:101CC0000E94CA2C81E1E82E84E7F82E9E012F5F46
:101CD0003F4F45E650E0B501C6010E940A0E6196ED
:101CE0000FB6F894DEBF0FBECDBFDF91CF911F912D
:101CF0000F91FF90EF90DF90CF90BF90AF9008953D
:101D00006F927F928F929F92AF92BF92CF92DF920B
:101D1000EF92FF920F931F93CF93DF93EC016B0130
:101D20005A01390148018AECE82E82ECF82E21E0B4
:101D300030E0CE010E941416A501480D591D4150F6
:101D4000510901E010E09301B601CE010E94141682
:101D5000B601660D771D61507109840121E030E004
:101D6000A501CE010E94141601E010E09301A50127
:101D7000B601CE010E941416DF91CF911F910F91F1
:101D8000FF90EF90DF90CF90BF90AF909F908F909B
:101D90007F906F9008952F923F924F925F926F9233
:101DA0007F928F929F92AF92BF92CF92EF92FF92CB
:101DB0000F931F93CF93DF935C013B014A012901ED
:101DC000C0E0D0E088E290E0F40124813581C217C0
:101DD000D30740F5D501ED91FC9126843784F401B9
:101DE000A081B181109729F41092DA03AAEDB3E033
:101DF00002C0AC0FBD1F22E0C22E31E1E32E34E75A
:101E0000F32E82012C91A301BC01C501F1010995BA
:101E1000D50116962D913C9117972817390714F084
:101E20002196D2CFDF91CF911F910F91FF90EF902C
:101E3000CF90BF90AF909F908F907F906F905F906A
:101E40004F903F902F900895CF92DF92EF92FF92A4
:101E50000F931F93CF93DF93EC0111E01D831A833F
:101E60008DE4C82E84E0D82E9DEAE92E94E0F92E68
:101E70000B8121E0CE010E94EC058A81882311F0BC
:101E80001A8201C01A838B81882311F01B8202C041
:101E900081E08B83DF91CF911F910F91FF90EF90A5
:101EA000DF90CF900895CF92DF92EF92FF920F9341
:101EB0001F93CF93DF93EC0111E01D838DE8C82EB3
:101EC00083E0D82E9DEEE92E93E0F92E0B812A8136
:101ED000CE010E94EC058A81882311F01A8201C08C
:101EE0001A838B81882311F01B8202C081E08B83CF
:101EF000DF91CF911F910F91FF90EF90DF90CF90E6
:101F00000895CF92DF92EF92FF920F931F93CF939A
:101F1000DF93EC0111E01D831A821B828C818823E0
:101F200079F02DE6C22E22E0D22E3DE2E32E33E000
:101F3000F32E00E020E0CE010E94EC051C820EC0D2
:101F40008DECC82E82E0D82E9DE2E92E93E0F92E8A
:101F500000E020E0CE010E94EC051C83DF91CF91D0
:101F60001F910F91FF90EF90DF90CF900895CF9247
:101F7000DF92EF92FF920F931F93CF93DF93EC01C9
:101F800011E01D831A831B838C81882379F02DE651
:101F9000C22E22E0D22E3DE2E32E33E0F32E01E00A
:101FA00021E0CE010E94EC051C820EC08DECC82EF3
:101FB00082E0D82E9DE2E92E93E0F92E01E021E0A7
:101FC000CE010E94EC051C83DF91CF911F910F91F0
:101FD000FF90EF90DF90CF90089590E0FC01E75ADA
:101FE000FD4F2491FC01EB5BFD4F3491FC01EF5C54
:101FF000FD4FE491EE23B1F1222339F1233091F02A
:1020000038F42130A9F0223001F584B58F7D12C05B
:10201000273091F02830A1F02430B9F4809180006D
:102020008F7D03C0809180008F77809380000DC0EA
:1020300084B58F7784BD09C08091B0008F7703C0CD
:102040008091B0008F7D8093B000F0E0EE0FFF1F15
:10205000E95DFD4FA591B4918FB7F894EC913E2BBB
:102060003C938FBF0895EF92FF920F931F93CF93EE
:10207000DF93EC01198218821B821A821D821C8256
:1020800061157105A9F17B01FB0101900020E9F7C1
:1020900031978F01061B170BB8016F5F7F4F80E0F0
:1020A00090E00E94EB2B009759F0998388831B8363
:1020B0000A832C813D81232B81F4FC0110820DC009
:1020C00088819981009711F00E94532B1982188200
:1020D0001D821C821B821A820BC01D830C83B701D8
:1020E000DF91CF911F910F91FF90EF900C94C32C33
:1020F000DF91CF911F910F91FF90EF9008951F9264
:102100000F920FB60F9211242F933F934F935F932B
:102110006F937F938F939F93AF93BF93EF93FF93AF
:102120008DE293E00E94270CFF91EF91BF91AF9158
:102130009F918F917F916F915F914F913F912F91DF
:102140000F900FBE0F901F9018951F920F920FB611
:102150000F9211242F938F939F93EF93FF93E0910E
:102160003D03F0913E038081E0914303F0914403ED
:1021700082FD12C09081809146038F5F8F73209102
:102180004703821751F0E0914603F0E0E35DFC4F16
:10219000958F8093460301C08081FF91EF919F91BD
:1021A0008F912F910F900FBE0F901F901895CF9386
:1021B000DF9390E0FC01EB5BFD4F2491FC01EF5CB1
:1021C000FD4F8491882361F190E0880F991FFC01F5
:1021D000E35EFD4FC591D491FC01E95DFD4FA591F2
:1021E000B491611109C09FB7F8948881209582232A
:1021F0008883EC912E230BC0623061F49FB7F89472
:102200003881822F809583238883EC912E2B2C9309
:102210009FBF06C08FB7F894E8812E2B28838FBF0D
:10222000DF91CF9108955F9A08954F925F926F92D8
:102230007F928F929F92AF92BF92CF92DF92EF9256
:10224000FF920F931F93CF93DF93EC01E888F988F7
:102250008C899D890A891B89E816F90609F474C0DE
:10226000FD8AEC8A288D398D4A8D5B8DD7010E94BD
:102270003F2D4B015C012C8D3D8D4E8D5F8DD80126
:102280000E943F2DAB01BC01480D591D6A1D7B1DED
:1022900088A199A1AAA1BBA15A016B01A80EB91EE0
:1022A000CA1EDB1EC601B50128A939A94AA95BA926
:1022B0000E947E2D49015A01DA01C9012C813D811C
:1022C0002A35310509F118F4232B41F03BC0243B9A
:1022D000310521F02E303140B9F034C02E813F81DC
:1022E000A901440F551F60E070E084169506A6060C
:1022F000B70628F5A90160E070E084169506A606E9
:10230000B70600F1C90115C0488559852A01440C5A
:10231000551C612C712C84149504A604B70478F420
:102320002A01612C712C84149504A604B70450F082
:10233000CA010197092E000CAA0BBB0B03C080E059
:1023400090E0DC019B878A878E899F89081719078F
:1023500009F45FC01F8B0E8B2CA13DA14EA15FA184
:10236000D7010E943F2D4B015C0128A539A54AA544
:102370005BA5D8010E943F2DAB01BC01480D591D42
:102380006A1D7B1D8CA59DA5AEA5BFA55A016B013D
:10239000A80EB91ECA1EDB1EC601B50128A939A99F
:1023A0004AA95BA90E947E2DDA01C9016C817D8159
:1023B0006A35710571F018F4672B41F028C0643B51
:1023C000710521F06E30714021F021C0688579855A
:1023D00002C06E817F814B01880C991CA12CB12C0D
:1023E000281539054A055B0578F44B01A12CB12C61
:1023F000281539054A055B0550F0CB010197092ED8
:10240000000CAA0BBB0B03C080E090E0DC019D87B1
:102410008C87DF91CF911F910F91FF90EF90DF900C
:10242000CF90BF90AF909F908F907F906F905F9074
:102430004F900895CF92EF92FF920F931F93CF93F7
:10244000DF93EC01262F6A3081F48EAD9FAD9BAFF8
:102450008AAF2CA92F778CAD9DAD38E0239F800DDE
:10246000911D11249DAF8CAF47C0862F8B7F893083
:1024700009F442C06AAD7BAD203219F461157105D3
:10248000D9F1E881F981E8ACF9AC0EA91FA94CADEE
:102490005DAD0088F189E02DCCA8CE010995BC0185
:1024A0009BAF8AAF8DA9882339F12CA92F77822F72
:1024B00090E048EF4203900111244E815F81420F6A
:1024C000531F46175707C4F44EAD5FAD5BAF4AAF1D
:1024D00043E0880F991F4A95E1F74CAD5DAD840F3D
:1024E000951F9DAF8CAF48855985240F351F281740
:1024F000390714F41DAE1CAE81E090E0DF91CF915E
:102500001F910F91FF90EF90CF900895CF92EF928F
:10251000FF920F931F93DC01ED91FC910684F785E8
:10252000E02D09951F910F91FF90EF90CF900895A6
:102530002F923F924F925F926F927F928F929F92D3
:10254000AF92BF92CF92DF92EF92FF920F931F93C1
:10255000CF93DF9300D01F92CDB7DEB79B838A83E2
:10256000480188E0280290011124D901A35FBB4FE4
:102570005D01BC2DBF77CB2EEA81FB8186819781DF
:10258000F1E0FB1708F463C06B0128E0C20ED11C18
:102590008C159D050CF46EC0AA81BB811896ED9137
:1025A000FC9119979A01285F3F4FE217F3070CF44B
:1025B00061C0AA81BB81ED91FC9111978A01095FED
:1025C0001F4F9B01295F3F4F0680F781E02DCD0112
:1025D0000995AA81BB81ED91FC9111970084F18549
:1025E000E02DCD0109958501085F1F4FF50144904D
:1025F000FFEFAF1ABF0A98E0692E712C20E8522E27
:10260000AA81BB81ED91FC911197852D84210284D3
:10261000F385E02D882319F0B401CD0103C0B70183
:102620008A819B8109955694B1E06B1A710841F734
:10263000A016B106D9F6AA81BB81ED91FC91119744
:102640000484F585E02DCD010995C60176C0B8E07A
:10265000CB9E800111243B01600E711E86159705EB
:102660004CF0040F151FEA81FB812085318520176E
:10267000310714F4019661C0AA81BB81ED91FC91F0
:102680001197015011090680F781E02D9301215027
:102690003109CD010995AA81BB81ED91FC9111977A
:1026A0000084F185E02DCD0109952501B8E04B0EA0
:1026B000511CF5012490FFEFAF1ABF0A3C2C08E033
:1026C00010E080E8D82E8D2D82212C2DA1F0AA813A
:1026D000BB81ED91FC9111970284F385E02DB4014B
:1026E000CD01298309952981215089F7D69401507C
:1026F000110949F710C0AA81BB81ED91FC91119796
:102700000284F385E02DB701CD0129830995298144
:10271000215089F7EBCF3A943110D1CFA414B504EE
:1027200009F0C7CFAA81BB81ED91FC911197048478
:10273000F585E02DCD010995C3010F900F900F9005
:10274000DF91CF911F910F91FF90EF90DF90CF908D
:10275000BF90AF909F908F907F906F905F904F90C1
:102760003F902F9008956CE20E948E085F98089524
:10277000AF92BF92CF92DF92EF92FF920F931F938F
:10278000CF93DF93EC015B017A0169016AE20E9459
:102790008E08B501CE010E946908B601CE010E94E3
:1027A00069086BE2CE010E948E08B701CE010E943B
:1027B0006908B801CE01DF91CF911F910F91FF9071
:1027C000EF90DF90CF90BF90AF900C9469080F937B
:1027D0001F93CF93DF93EC016930710519F06A35CF
:1027E000710571F48AE590E09D838C8380EF90E021
:1027F0009F838E8380E491E09987888718E434C0B2
:102800006231710519F0643B710571F484EB90E05D
:102810009D838C8380E491E09F838E8380EF90E0A2
:102820009987888718E320C06B31710521F07E7F7E
:102830006E30710571F48EE091E09D838C8380EFA2
:1028400090E09F838E8380E491E09987888718E8E1
:102850000BC01D821C8280E491E09F838E8380EFF9
:1028600090E09987888718EE66E3CE010E948E0873
:10287000612FCE010E945A08E881F98108851985E7
:10288000015011092E813F81215031090680F781C5
:10289000E02D40E050E060E070E0CE010995DF916E
:1028A000CF911F910F9108959CB5282F23709C7F85
:1028B000922B9CBD2DB582FB992790F9822F8E7F9C
:1028C000892B8DBD08958EBD00000DB407FEFDCF90
:1028D0008EB50895BF92CF92DF92EF92FF920F9341
:1028E0001F93CF93DF938C01FCB4DDB585E00E948C
:1028F00054145E9888EB0E94631480E00E94631475
:10290000C82F88EC0E94631480E00E9463145E9AD2
:1029100080958F77CF77C80FC63008F45EC05E9879
:1029200080E90E94631480E00E946314C82E80E056
:102930000E94631480E90E94631480E00E94631483
:10294000D82E80E00E946314E82ECD1044C080EDA4
:102950000E94631480E00E946314D82E80E00E94DD
:10296000631480ED0E94631480E00E946314B82E0B
:1029700080E00E946314DB102EC094E0C99E900199
:1029800011244E2D50E096E0559547959A95E1F724
:10299000422B532B6FEF73E0FB01E41BF50BAF01F0
:1029A000A9F0F4E0DF9EB0011124282F30E086E08A
:1029B000359527958A95E1F7262B372B211531057B
:1029C00029F0F801518B408B338B228B8C2F90E0B8
:1029D000F801978786875E9A03C0F80117861686E6
:1029E000FCBCDDBD81E0F80126853785232B09F489
:1029F00080E0DF91CF911F910F91FF90EF90DF90DA
:102A0000CF90BF900895CF93DF931F92CDB7DEB7DD
:102A1000872F2B9A2D989CB59F7B9CBD2D9A9CB59A
:102A200090649CBD69830E9463142B9A2D989CB579
:102A30009F7B9CBD2D9A9CB590649CBD6981862F1F
:102A40000F90DF91CF910C946314CF93DF93EC013F
:102A50000E9415118C819D81009719F48C859D85AC
:102A600016C08A35910529F4288539858A859B8584
:102A700007C0843B910549F4288539858C859D855F
:102A8000A901481B590BCA0102C08A859B85DF91A9
:102A9000CF910895CF93DF93EC010E9415118C81A3
:102AA0009D81009719F48A859B8514C08A3591050C
:102AB00019F48C859D850EC02E813F81843B910544
:102AC00019F48A859B8502C08C859D85A901481BC8
:102AD000590BCA01DF91CF9108952F923F924F92E7
:102AE0005F926F927F928F929F92AF92BF92CF929E
:102AF000DF92EF92FF920F931F93CF93DF9300D05B
:102B000000D0CDB7DEB76C013B015A0179014424F6
:102B10005524421A530A1C821B822B813C81E216E7
:102B2000F3060CF46AC08B809C808A0C9B1C980175
:102B3000A40113012E0C3F1CB101C6010E944417D1
:102B40009801A401C3018E199F099A838983BC014E
:102B5000C6010E9444174501EB81FC818E1A9F0A31
:102B60009801A401B101C6010E9444179801A40173
:102B700069817A81C6010E9444172B803C80260C13
:102B8000371C980145018E0C9F1CA401B101C601A0
:102B90000E94441793018B819C81281B390B3A8337
:102BA00029839801A40169817A81C6010E94441792
:102BB000980145018E189F08A401B101C6010E9429
:102BC00044179801A40169817A81C6010E944417C3
:102BD0008B819C810196EB81FC814E0E5F1E480E1D
:102BE000591E57FC07C0F1E0EF1AF1084E185F08B4
:102BF0004E185F089C838B8390CF0F900F900F909F
:102C00000F90DF91CF911F910F91FF90EF90DF9088
:102C1000CF90BF90AF909F908F907F906F905F907C
:102C20004F903F902F9008958F929F92AF92BF92B6
:102C3000CF92DF92EF92FF920F931F93CF93DF9388
:102C4000EC01690158012E813F81621773071CF066
:102C5000B9016150710988859985481759071CF099
:102C6000AC0141505109FB01EC0DFD1DE217F307CA
:102C70001CF06901C61AD70A9A012A0D3B1D2817B4
:102C800039071CF05C01A41AB50AE881F9818A01B0
:102C90000A0D1B1D015011099B012C0D3D1D2150DA
:102CA00031090680F781E02DCE010995E881F9818F
:102CB0000084F185E02DCE0109959501D6010E9491
:102CC0009B2A4B015C01E881F98181149104A104E4
:102CD000B10461F00284F385E02DB701CE010995BE
:102CE00081E0881A9108A108B108EDCF0484F58528
:102CF000E02DCE01DF91CF911F910F91FF90EF90CA
:102D0000DF90CF90BF90AF909F908F90099485ED0A
:102D10008093BC008091BC0084FDFCCF109209031D
:102D2000089540910004262F30E0240F311D2132F8
:102D30003105DCF4209109032430C9F4FC0180E062
:102D400090E0861758F4309100042191DC01A252E2
:102D5000BC4FA30FB11D2C930196F3CF80910004BB
:102D6000680F6093000480E0089581E0089582E098
:102D700008950895E0912A0380912B03E81730F419
:102D8000F0E0E65FFC4F808190E008958FEF9FEFC9
:102D9000089590912A0380912B03981750F4E92FFE
:102DA000F0E0E65FFC4F208130E09F5F90932A03C4
:102DB00002C02FEF3FEFC901089580912B0390E0EF
:102DC00020912A03821B91090895CF92DF92EF92FE
:102DD000FF920F931F93CF93DF937C01262F972FA2
:102DE0008A018091C002882391F0C62FD72F6E01EF
:102DF000C40ED51ECC15DD0571F06991D701ED919A
:102E0000FC910190F081E02DC7010995F3CF642F6B
:102E1000822F0E949116C801DF91CF911F910F91CF
:102E2000FF90EF90DF90CF900895CF93DF931F92A4
:102E3000CDB7DEB769832091C0022223D1F0209163
:102E4000E202203240F021E030E0FC0133832283B3
:102E500080E090E015C08091C102E82FF0E0EE53D1
:102E6000FD4F998190838F5F8093C1028093E2022E
:102E700005C061E0CE0101960E94911681E090E0CC
:102E80000F90DF91CF910895EF92FF920F931F93D0
:102E9000CF93DF93EC018E819F81681779075CF5F2
:102EA000888599854817590734F57901E881F981B2
:102EB0000680F781E02D8A019B01CE010995E8810A
:102EC000F9810084F185E02DCE010995E881F98131
:102ED0000284F385E02DB701CE010995E881F981DF
:102EE0000484F585E02DCE01DF91CF911F910F91E4
:102EF000FF90EF900994DF91CF911F910F91FF9078
:102F0000EF9008952F923F924F925F926F927F922F
:102F10008F929F92AF92BF92CF92DF92EF92FF92E9
:102F20000F931F93CF93DF93CDB7DEB728970FB6DC
:102F3000F894DEBF0FBECDBF4C016B0158874F83A5
:102F4000590162177307A1F40417150744F4042705
:102F500015274027512758874F83042715272F818E
:102F60003885021B130B0F5F1F4F21E030E015C0A7
:102F70004F81588540175107B9F42617370734F4A5
:102F8000A626B726CA24DB24AC24BD2495012C191F
:102F90003D092F5F3F4F01E010E04F815885B6019A
:102FA000C4010E941416A0C0FC012681378162175B
:102FB000730724F06901F1E0CF1AD108F40180858C
:102FC00091854F8158854817590724F0FC013197A6
:102FD000F887EF83A216B30624F05901F1E0AF1A87
:102FE000B108081719071CF08C01015011093501AF
:102FF0006C187D0828012F813885421A530A77FE04
:1030000008C07194619471084FEF5FEF5A83498350
:1030100004C081E090E09A83898357FE08C05194F0
:1030200041945108EFEFFFEFFC83EB8304C021E0F4
:1030300030E03C832B83A301440F551F5E834D83F7
:103040001201220C331C97014F815885B601C4012F
:103050000E944417461457041CF5810106191709EC
:10306000CA14DB0409F440C017FD0CC08F81988599
:10307000EB81FC818E0F9F1F98878F832D813E816E
:10308000021B130B49815A81C40ED51E020D131D5C
:1030900097014F815885B601C4010E944417E0CFC3
:1030A000AD80BE80A418B5088F81988580179107E0
:1030B000D9F0B7FC06C089819A81C80ED91EA21822
:1030C000B308EF81F8852B813C81E20FF31FF8876D
:1030D000EF834D815E81A40EB51E9701AF01B6014D
:1030E000C4010E944417E0CF28960FB6F894DEBFC3
:1030F0000FBECDBFDF91CF911F910F91FF90EF9049
:10310000DF90CF90BF90AF909F908F907F906F9007
:103110005F904F903F902F9008958F929F92AF9223
:10312000BF92EF92FF920F931F93CF93DF93EC0127
:103130007B01E881F98108851985015011092E81EB
:103140003F81215031090680F781E02D40E050E0B9
:1031500060E070E00995E881F9810084F185E02D57
:10316000CE010995AE81BF81288539850E949B2AB1
:103170004B015C0183E0B694A794979487948A9559
:10318000D1F7E881F98181149104A104B10409F413
:1031900044C00284F385E02DB701CE010995E88192
:1031A000F9810284F385E02DB701CE010995E8810C
:1031B000F9810284F385E02DB701CE010995E881FC
:1031C000F9810284F385E02DB701CE010995E881EC
:1031D000F9810284F385E02DB701CE010995E881DC
:1031E000F9810284F385E02DB701CE010995E881CC
:1031F000F9810284F385E02DB701CE010995E881BC
:10320000F9810284F385E02DB701CE01099581E0B3
:10321000881A9108A108B108B4CF0484F585E02D7F
:10322000CE01DF91CF911F910F91FF90EF90BF9052
:10323000AF909F908F9009941F920F920FB60F92AC
:1032400011242F933F934F935F936F937F938F93AB
:103250009F93AF93BF93EF93FF938091B900887FC3
:10326000803609F49CC068F5883209F45BC090F49C
:10327000803109F454C038F4882309F4F6C088304A
:1032800009F44DC0F6C0883109F44CC0803209F40D
:103290005DC0EFC0803409F468C048F4803309F49D
:1032A00055C0883309F0E5C080930703D8C0803546
:1032B00009F44FC0883509F45DC0883409F0D9C0DD
:1032C000D6C0883909F4C7C0A8F4883709F467C0A4
:1032D00038F4883609F463C0803709F460C0C9C087
:1032E000883809F4B8C0803909F45FC0803809F023
:1032F000C0C05BC0803B09F486C038F4803A09F452
:1033000066C0883A09F47FC0B4C0803C09F4A7C005
:10331000883C09F4A4C0883B09F48AC0AAC0809103
:10332000040310C09091060380910503981770F56F
:10333000E091060381E08E0F80930603F0E0ED51EB
:10334000FD4F80818093BB0085EC86C0809307038E
:103350008EC0E091060381E08E0F8093060380917A
:10336000BB00F0E0ED51FD4F80839091060380910A
:1033700005036EC0E091060381E08E0F8093060383
:103380008091BB00F0E0ED51FD4F808380910803F8
:1033900081116DC081E08093030384EA61C083E002
:1033A0008093090310922404CFCF809124048032AB
:1033B00008F051C0E091240481E08E0F8093240432
:1033C0008091BB00F0E0EC5FFB4F8083BDCF85ECCC
:1033D0008093BC001092090380912404803230F461
:1033E000E0912404F0E0EC5FFB4F10826091240434
:1033F00070E0E0910204F091030484E094E0099508
:103400001092240436C084E08093090310920104D2
:1034100010920004E091FE03F091FF030995809162
:103420000004811105C081E0809300041092DE0346
:10343000E091010481E08E0F80930104F0E0E252FC
:10344000FC4F80818093BB00909101048091000427
:10345000981708F479CF85E88093BC000AC085EC02
:103460008093BC001092090304C0109207030E94CD
:103470008716FF91EF91BF91AF919F918F917F91AF
:103480006F915F914F913F912F910F900FBE0F90D1
:103490001F9018951F920F920FB60F9211242F9321
:1034A0003F934F935F936F937F938F939F93AF93CC
:1034B000BF93EF93FF9387EF9DEF909385008093E9
:1034C00084008091DD038F5F8E3119F08093DD03DE
:1034D00023C01092DD038091C7018130E9F4E091AF
:1034E000DB03F091DC038181811111C080818111A6
:1034F0000AC08AE080838183CF010E94270683E08F
:103500008093C70109C08150808389E001C0815048
:103510008183CF010E942706FF91EF91BF91AF9168
:103520009F918F917F916F915F914F913F912F91DB
:103530000F900FBE0F901F9018951F920F920FB60D
:103540000F9211240F931F932F933F934F935F93E9
:103550006F937F938F939F93AF93BF93CF93DF939B
:10356000EF93FF93E091D603F091D7034A9B17C0E6
:103570008081DF01AD5BBF4F8C93AF014B5B5F4F31
:10358000DA019C918F010A5B1F4FEF01CC5BDF4F8B
:10359000913089F4D8019C91992319F00CC01082C4
:1035A0004EC09CEE980F9B3090F1288130E02F5F49
:1035B0003F4F28831DC0D8011C92DA011C9218824B
:1035C0009181DF01A90FB11DA90FB11DBF01695B79
:1035D0007F4FEB012881398114963C932E931397EA
:1035E00021E0290F203289F49183EB01198218829E
:1035F0009EED980F9B30E0F08F528B3000F5D80194
:103600008C9190E001968C931AC02183EECFE95BF8
:10361000FF4F21E030E0088002C0220F331F0A94E0
:10362000E2F760817181262B372B31832083BDCF58
:10363000FA01208130E02F5F3F4F2083DDCFFF91E3
:10364000EF91DF91CF91BF91AF919F918F917F913A
:103650006F915F914F913F912F911F910F910F901B
:103660000FBE0F901F9018951F920F920FB60F92DA
:1036700011248F939F93EF93FF93E091D603F091E2
:10368000D703808190E001968083E091D803F09188
:10369000D903828190E001968283FF91EF919F91FF
:1036A0008F910F900FBE0F901F901895CF93DF93BF
:1036B000CDB7DEB7CF56D1090FB6F894DEBF0FBE37
:1036C000CDBF81E490E00E94BE2AFC0113821282E9
:1036D0001582148280E491E09783868380EF90E0E6
:1036E000918780871786168615861486138612861C
:1036F000178A168A158A148A138A128A118A108ADE
:1037000010AA11AA12AA13AA11E014AB15AB17AA9A
:1037100016AA8FEF9FEF91AF80AF17AE16AE15AE22
:1037200014AE13AE12AE89EF91E091838083F093D3
:10373000BF02E093BE0287E090E00E94BE2A7C01B7
:10374000DC0116961C9210922A0310922B03109201
:10375000C1021092E2021092090310930803109222
:10376000030382E10E94ED0F83E10E94ED0F80913F
:10377000B9008E7F8093B9008091B9008D7F8093CE
:10378000B90088E48093B80085E48093BC0040EFE2
:1037900065E5C7010E9412074BEF60E0C7010E9478
:1037A0001207BFEFE1EEF4E0B150E040F040E1F786
:1037B00000C00000C7010E948007C7010E94800767
:1037C000D7018C9112968C93129711968C91119728
:1037D00013968C93F092BD02E092BC0286E090E0DA
:1037E0000E94BE2AFC01E090BE02F090BF0212824D
:1037F00013821482F182E0829093BB028093BA021A
:1038000061E088E00E94D710289861E081E00E9482
:10381000D71061E087E00E94D71061E08DE00E9440
:10382000D71061E08BE00E94D71060E08CE00E942E
:10383000D71059985F9A61E086E00E94D7105E9A8F
:10384000F701E05CFF4F10828CB5837F8CBD8CB597
:103850008F7D8CBD1FB7F8948091B402811126C072
:10386000EBE3F2E08491EFE4F2E09491E82FF0E0F2
:10387000EE0FFF1FE35EFD4FA591B491EC91E9239C
:1038800019F48AE00E94ED0F61E08AE00E94D710EF
:103890008CB580618CBD8CB580648CBD61E08DE0A1
:1038A0000E94D71061E08BE00E94D7108091B40293
:1038B0008F5F8093B4021FBF85E00E9454145F9A0B
:1038C0002898BFEFE0E7F2E0B150E040F040E1F7C8
:1038D00000C00000289A2FEF3BED45E0215030401A
:1038E0004040E1F700C0000020E1C22E21E0D22ECE
:1038F0005FEFC51AD50AF6013197E491EF3F51F118
:103900008E2F807C803439F0803891F71E2F1F7302
:103910005601012F13C01E2F1F735601012F0111D5
:1039200003C0C10ED11CE4CFF5016491C7010E9410
:103930008E080150FFEFAF1ABF0AF1CF002389F3C1
:10394000F5016491C7010E945A080150FFEFAF1AB8
:10395000BF0AF4CF60E070E0C7010E948D1880E0DC
:103960000E945414219A299A2090BE023090BF02DE
:10397000E0913D03F0913E0382E08083E0913903C2
:10398000F0913A031082E0913B03F0913C038FECFD
:10399000808310924503E0914103F091420386E059
:1039A0008083E0913F03F0914003808180618083B8
:1039B000E0913F03F0914003808188608083E09133
:1039C0003F03F0914003808180688083E0913F0352
:1039D000F091400380818F7D8083D1011E968D916F
:1039E0009C911F97892B09F047C080E090E00E94CE
:1039F000FF2C8A3A09F040C07101B8E1EB0EF11CCE
:103A000000E010E00F5F1F4FC8010E94FF2CF7017C
:103A100081937F010C311105A9F719A288E388A3CE
:103A200082E38F8FBE01615E7F4FFB01019000201A
:103A3000E9F73197AF01461B570B8DE293E00E94E7
:103A4000CE0B42E050E067E472E08DE293E00E942A
:103A5000CE0BE091D803F091D9038FEF90E09183E2
:103A60008083539A8FE09EE00197F1F700C0000039
:103A7000539880E090E0E9C388E1E2EDF1E0DE01F7
:103A8000929601900D928A95E1F7D10114960D90CE
:103A9000BC91A02DE096BFAFAEAFE097D101ED9104
:103AA000FC910480F581E02D60E070E0C101099592
:103AB0006FEF7FEFC1010E948D18F10140855185A4
:103AC00057FF02C04F5F5F4F559547954A505109C8
:103AD000D10116966D917C91179777FF02C06F5FA9
:103AE0007F4F759567956253710921EB31E0C101F4
:103AF0000E94B30CC1010E946A148111FBCFFE0128
:103B0000B2962896FFAFEEAF289724961FAE1EAE52
:103B1000249724968EAD9FAD2497039709F4F7C0A0
:103B20002896AEADBFAD289714968D909C901597B2
:103B30004D905C9000E010E022E030E0A401B20182
:103B4000C1010E946D1525E030E0A401B201C10160
:103B50000E946D1500E018EF2AE030E0A401B201E8
:103B6000C1010E946D15C1010E946A14882389F267
:103B7000EEEFFFEFFBAFEAAFC12CD12C02E0A02E9D
:103B8000B12CA601480D591DE12C18EFF12E8A0128
:103B900032016A0C7B1C9301C2018A199B099FAFF9
:103BA0008EAFBC01C1010E948217A4014C195D09AE
:103BB0008A0193016EAD7FADC1010E94821736016B
:103BC000640C751CD201AC19BD09BFAFAEAFA40126
:103BD0004A0D5B1D8A019301BD01C1010E9482173C
:103BE000A4014A195B098A0193016EAD7FADC10141
:103BF0000E948217C6010196EAADFBADCE0EDF1E14
:103C00009601280F391F3BAF2AAF2F3F4FEF3407E4
:103C100059F051E0A51AB1086901CA18DB08D601AC
:103C2000AA19BB09BBAFAAAF6C01A816B9060CF064
:103C3000A8CF2496EEADFFAD2497B3E0EE0FFF1FA3
:103C4000BA95E1F721E030E02C0F3D1FE20FF31FA2
:103C5000D10150968D919C915197092E000CAA0B81
:103C6000BB0B80839183A283B383D10152968D9144
:103C70009C915397092E000CAA0BBB0B8483958350
:103C8000A683B783BFEFE1EEF4E0B150E040F0402F
:103C9000E1F700C000006FEF7FEFC1010E948D18B7
:103CA00023962FAD23972230E9F0D10118964D913C
:103CB0005C91199757FF02C04F5F5F4F559547952D
:103CC0004A505109F1016681778177FF02C06F5F29
:103CD0007F4F759567956253710925EA31E0C101FF
:103CE0000E94B30C24962EAD3FAD24972F5F3F4F1B
:103CF00024963FAF2EAF249728964EAD5FAD289700
:103D0000485F5F4F28965FAF4EAF289702CF29815B
:103D10003A814B815C8126962CAF3DAF4EAF5FAFB1
:103D2000269789899A89AB89BC898AAF9BAFACAF4A
:103D3000BDAF281B390B4A0B5B0B2E962CAF3DAF4A
:103D40004EAF5FAF2E972D853E854F8558896E9675
:103D50002CAF3DAF4EAF5FAF6E978D899E89AF8917
:103D6000B88D2A968CAF9DAFAEAFBFAF2A97281BF8
:103D7000390B4A0B5B0BA2962CAF3DAF4EAF5FAF3A
:103D8000A29729853A854B855C8522962CAF3DAF5D
:103D90004EAF5FAF22978AAD9BADACADBDAD281BDA
:103DA000390B4A0B5B0BA6962CAF3DAF4EAF5FAF06
:103DB000A6972D813E814F815885AA962CAF3DAFA5
:103DC0004EAF5FAFAA972A968CAD9DADAEADBFAD9D
:103DD0002A97281B390B4A0B5B0BAE962CAF3DAFD5
:103DE0004EAF5FAFAE97A2962CAD3DAD4EAD5FAD81
:103DF000A2972E966CAD7DAD8EAD9FAD2E970E9495
:103E0000712A6B017C01AE962CAD3DAD4EAD5FAD20
:103E1000AE97A6966CAD7DAD8EAD9FADA6970E9478
:103E2000712AC61AD70AE80AF90AD101D096CD92AA
:103E3000DD92ED92FC92D397CD28CE28CF2809F4BD
:103E4000DCC12AA13BA14CA15DA162962CAF3DAF84
:103E50004EAF5FAF6297CAA8DBA8ECA8FDA8290106
:103E60003A014C185D086E087F088AA59BA5ACA591
:103E7000BDA566968CAF9DAFAEAFBFAF66978C19F0
:103E80009D09AE09BF096A968CAF9DAFAEAFBFAFBB
:103E90006A97A3019201A2966CAD7DAD8EAD9FADE8
:103EA000A2970E94712A4B015C016A962CAD3DAD30
:103EB0004EAD5FAD6A97AE966CAD7DAD8EAD9FADEC
:103EC000AE970E94712A861A970AA80AB90AD101E8
:103ED00058968D929D92AD92BC925B972E966CAD4A
:103EE0007DAD8EAD9FAD2E970E94712A4B015C0176
:103EF000A3019201A6966CAD7DAD8EAD9FADA69748
:103F00000E94712A861A970AA80AB90AF101848EBA
:103F1000958EA68EB78EA701960126966CAD7DADC7
:103F20008EAD9FAD26970E94712A4B015C0162966F
:103F30002CAD3DAD4EAD5FAD62976AAD7BAD8CAD46
:103F40009DAD0E94712AA5019401261B370B480BD9
:103F5000590B6E966CAD7DAD8EAD9FAD6E970E9488
:103F6000712A2B013C0166962CAD3DAD4EAD5FAD87
:103F700066976AAD7BAD8CAD9DAD0E94712A4B01F9
:103F80005C01A701960122966CAD7DAD8EAD9FAD13
:103F900022970E94712AA5019401261B370B480B1A
:103FA000590BAA966CAD7DAD8EAD9FADAA970E94C0
:103FB000712A460E571E681E791E62962CAD3DADC5
:103FC0004EAD5FAD629722966CAD7DAD8EAD9FAD6F
:103FD00022970E94712A6B017C0166962CAD3DAD43
:103FE0004EAD5FAD669726966CAD7DAD8EAD9FAD47
:103FF00026970E94712AA7019601261B370B480BB2
:10400000590B2A966CAD7DAD8EAD9FAD2A970E945F
:10401000712A460E571E681E791E40A251A262A246
:1040200073A22EA13FA148A559A562962CAF3DAF22
:104030004EAF5FAF62978EA89FA8A8ACB9AC6901DC
:104040007A01C818D908EA08FB088EA59FA5A8A977
:10405000B9A966968CAF9DAFAEAFBFAF6697881912
:104060009909AA09BB096A968CAF9DAFAEAFBFAFE5
:104070006A97A7019601A2966CAD7DAD8EAD9FADFE
:10408000A2970E94712A2B013C016A962CAD3DAD8E
:104090004EAD5FAD6A97AE966CAD7DAD8EAD9FAD0A
:1040A000AE970E94712A461A570A680A790A44A2F2
:1040B00055A266A277A22E966CAD7DAD8EAD9FAD5A
:1040C0002E970E94712A2B013C01A7019601A6960A
:1040D0006CAD7DAD8EAD9FADA6970E94712A461A3C
:1040E000570A680A790A40A651A662A673A6A501D6
:1040F000940126966CAD7DAD8EAD9FAD26970E9446
:10410000712A6B017C0162962CAD3DAD4EAD5FAD69
:1041100062976AAD7BAD8CAD9DAD0E94712AA701FF
:104120009601261B370B480B590B6E966CAD7DAD77
:104130008EAD9FAD6E970E94712A2B013C01669651
:104140002CAD3DAD4EAD5FAD66976AAD7BAD8CAD30
:104150009DAD0E94712A6B017C01A50194012296FC
:104160006CAD7DAD8EAD9FAD22970E94712AA701E7
:104170009601261B370B480B590BAA966CAD7DADEB
:104180008EAD9FADAA970E94712A460E571E681EDB
:10419000791E62962CAD3DAD4EAD5FAD6297229615
:1041A0006CAD7DAD8EAD9FAD22970E94712A6B01E3
:1041B0007C0166962CAD3DAD4EAD5FAD6697269603
:1041C0006CAD7DAD8EAD9FAD26970E94712AA70183
:1041D0009601261B370B480B590B2A966CAD7DAD0B
:1041E0008EAD9FAD2A970E94712A460E571E681EFB
:1041F000791E44A655A666A677A6D101ED91FC913D
:104200000480F581E02DE0966EAD7FADE097C101B1
:104210000995C1010E946A148111FBCF6AEA80E00E
:1042200090E00E94072D7101B8E1EB0EF11C01E056
:1042300010E0F70161917F01C8010E94072D0F5F17
:104240001F4F0D311105A9F7E8CBA7E7B5E011978E
:10425000F1F700C0000020813181082E02C03595A1
:1042600027950A94E2F7539A20FF05C0AFE5B9E01D
:104270001197F1F704C0A7E7B5E01197F1F700C077
:104280000000539801968C309105F9F6E7E7F5E0C8
:104290003197F1F700C00000539A8FEB92E101973C
:1042A000F1F700C000005398A7E7B5E01197F1F7C8
:1042B00000C00000F894109280001092810087EFF7
:1042C0009DEF9093850080938400809181008560AC
:1042D0008093810080916F00816080936F0078945B
:1042E00022242394E6E03E2E8091C7018111B3C0C1
:1042F00085E090E00E94BE2A5C01C090BE02D09092
:10430000BF02FC01128223821482D182C082C601C4
:104310000E946A1461E174E7C6010E948D1878EA70
:10432000E72E71E3F72E02E310E028EC30E048E2DC
:1043300050E06CE370E0C6010E94EE0C0AEC12EC57
:104340002AE432E04CE350E060E570E0C6010E94F0
:104350000A0E02E310E028EC30E046E950E06CE39E
:1043600070E0C6010E94EE0C0AEC12EC25E532E08A
:104370004AEA50E069E670E0C6010E940A0E8FE347
:104380009CE90197F1F700C00000C6010E946A1481
:10439000D6011E968D919C911F97892B09F450C0D0
:1043A000C6010E944A15CD970CF4F7C6C6010E94BB
:1043B0004A158E3091400CF0F0C6C6010E942515BA
:1043C0008E970CF4EAC6C6010E9425158F3591051B
:1043D0000CF0E3C67AECE72E72ECF72E02E310E065
:1043E00028EC30E048E250E06CE370E0C6010E9447
:1043F000EE0C08EA11E32AE432E04CE350E060E519
:1044000070E0C6010E940A0EE8EAEE2EE1E3FE2EFD
:1044100002E310E028EC30E046E950E06CE370E0A5
:10442000C6010E94EE0C0AEC12EC25E532E04AEAE5
:1044300050E069E670E0C6010E940A0EF501248290
:10444000D50114968C91882309F499CF8093C701E4
:10445000C5010E94532B1091C701113009F0F8C318
:104460008DE090E00E94BE2A2BE0EAEEF1E0DC0154
:10447000129601900D922A95E1F729E0FC01208324
:104480002183399A3A9A3B9A9093DC038093DB0319
:104490008091C601813051F0823041F483E690E092
:1044A0000E94BE2A8C0160E071E007C083E690E0C4
:1044B0000E94BE2A8C0163E671E0C8010E943F0899
:1044C0001093B9020093B80284E190E00E94BE2AE2
:1044D0005C018091D8039091D9032091BC02309166
:1044E000BD020091B8021091B902D50113961C9338
:1044F0000E93129742E0D42E1696DC92169749E15D
:1045000052E011965C934E9351963C932E935097A4
:1045100053969C938E93529782E190E00E94BE2A1C
:104520007C018091D6039091D703F7011383028316
:10453000D6822FE032E031832083918B808B8AE01A
:1045400090E00E94BE2A6C012091BA023091BB0219
:104550008091BE029091BF02D60111969C938E93DA
:1045600013961C930E9312971596BC92AE921497C5
:104570001796FC92EE92169719963C932E931897E5
:1045800061E174E70E948D1858EAE52E51E3F52E9B
:1045900008ED10E028E031E04DE050E060E370E02D
:1045A000F601808191810E94141661E1662E712CC2
:1045B000212C312C2AAED30114972496BFAFAEAF75
:1045C000249796E3492E512C812C912C2BE0229D8F
:1045D000F001239DF00D1124FFAFEEAFB201665044
:1045E0007109D6011296ED91FC911397EEACFFACD8
:1045F000E80CF91CEE0DFF1D1081123091F198F4BA
:10460000113009F05FC031E1E32E34E7F32E08E109
:1046100010E028E130E024964EAD5FAD2497F6011E
:10462000808191812DC0133071F1143009F04AC09E
:1046300022E0A301B201F601808591850E94080A5B
:10464000D6011696ED91FC9117978782BAADB08787
:1046500083868486118612861787F601828193816C
:104660002DC02AECE22E22ECF22E08E110E028E127
:1046700030E024964EAD5FAD2497D6018D919C918C
:104680000E9414161FC021E0A301B201F60180852B
:1046900091850E94080AD6011496ED91FC91159718
:1046A0008782BAADB087838684861186128624E01D
:1046B0002787D60112968D919C911397FC01EE0DE0
:1046C000FF1D1082FFEF8F1A9F0A28E1420E511C36
:1046D0003EE3431631E0530609F080CF4FEF241A32
:1046E000340A58E1650E711C89EE6816710409F0F0
:1046F00061CFD092B702C092B60281E08093B5023A
:104700000BE0902E85E0882E8091BC029091BD0236
:104710000E948007E091BC02F091BD028581882350
:1047200009F4FCC0D50116968C9116979FEF980F4F
:1047300016969C93882309F4F1C0C090B602D090DD
:10474000B702F601A481B5811A968C911A97189632
:10475000EC9118978C3018F081E08E0F01C08E2FED
:1047600019962C91199717969C912C3008F09F5F01
:10477000D60112962D913C911397989EF001112429
:10478000E90FF11DE20FF31F80821496ED91FC9169
:104790001597828540858C3008F04F5FB8E14B9FBC
:1047A000A0011124435F5F4F818567818C3008F041
:1047B0006F5FE8E16E9FB0011124605D7F4F13E8E9
:1047C000E12E10EBF12E08E110E028E130E0D601F7
:1047D0008D919C910E941416D6011496ED91FC9136
:1047E00015978481823009F462C010F5882309F49A
:1047F00041C0813009F092C090858781428550E0A8
:10480000B8E19B9F400D511D11244F5E5F4F6185A4
:1048100070E0E8E18E9F600D711D11246A5C7F4F8E
:10482000D60118968D919C9119970E94B70F76C06A
:10483000833009F458C0843009F070C090858781B6
:10484000428550E0B8E19B9F400D511D11244F5E01
:104850005F4F618570E0E8E18E9F600D711D11244E
:104860006A5C7F4FD60118968D919C9119970E9492
:10487000240F54C090858781428550E0B8E19B9F0A
:10488000400D511D11244F5E5F4F618570E0E8E1DE
:104890008E9F600D711D11246A5C7F4F21E0D6014F
:1048A00018968D919C9119970E94080A37C090859F
:1048B0008781428550E0B8E19B9F400D511D112436
:1048C0004F5E5F4F618570E0E8E18E9F600D711D66
:1048D00011246A5C7F4FD60118968D919C9119978F
:1048E0000E94810F1BC090858781428550E0B8E10E
:1048F0009B9F400D511D11244F5E5F4F618570E0FD
:10490000E8E18E9F600D711D11246A5C7F4FD60116
:1049100018968D919C9119970E94530FD501ED9196
:10492000FC910480F581E02DC5010995882309F4E7
:10493000EBCEC090B602D090B702D6011496ED919E
:10494000FC9115978585882309F442C044856385C9
:1049500081E0860F12962D913C9113974930C1F159
:104960008B30B1F1949EF0011124E80FF11DE20F9C
:10497000F31F8081811111C0B8E14B9FA001112468
:10498000435F5F4FE8E16E9FB0011124685B7F4F8A
:10499000B8EAEB2EB1E3FB2E12C08530C8F0B8E1C7
:1049A0004B9FA0011124435F5F4FE8E16E9FB00170
:1049B0001124685B7F4FA3E8EA2EA0EBFA2E08E1F2
:1049C00010E028E130E0D6018D919C910E941416F0
:1049D000D6011496ED91FC9115978685882309F4EC
:1049E00042C0448581E0840F638512962D913C91ED
:1049F00013978930C1F16B30B1F1989EF001112409
:104A0000E60FF11DE20FF31F8081811111C0B8E1A3
:104A10004B9FA00111244B5D5F4FE8E16E9FB001F9
:104A20001124605D7F4FF8EAEF2EF1E3FF2E12C0F4
:104A30008530C8F0B8E14B9FA00111244B5D5F4F5A
:104A4000E8E16E9FB0011124605D7F4FE3E8EE2E38
:104A5000E0EBFE2E08E110E028E130E0D6018D9178
:104A60009C910E941416D6011496ED91FC91159715
:104A70004485638512968D919C9113974930C1F1BD
:104A80006B30B1F1949EF0011124E60FF11DE80F97
:104A9000F91F8081811111C0B8E14B9FA001112441
:104AA000435F5F4FE8E16E9FB0011124605D7F4F6F
:104AB00038EAE32E31E3F32E12C08530C8F0B8E1B6
:104AC0004B9FA0011124435F5F4FE8E16E9FB0014F
:104AD0001124605D7F4F23E8E22E20EBF22E08E1E7
:104AE00010E028E130E0D6018D919C910E941416CF
:104AF000D6011496ED91FC9115978481823009F4CA
:104B000062C010F5882309F441C0813009F092C0D9
:104B100090858781428550E0B8E19B9F400D511DF3
:104B200011244F5E5F4F618570E0E8E18E9F600D5C
:104B3000711D11246A5C7F4FD60118968D919C914E
:104B400019970E94B70F76C0833009F458C084309B
:104B500009F070C090858781428550E0B8E19B9F45
:104B6000400D511D11244F5E5F4F618570E0E8E1FB
:104B70008E9F600D711D11246A5C7F4FD6011896BF
:104B80008D919C9119970E94240F54C09085878124
:104B9000428550E0B8E19B9F400D511D11244F5EAE
:104BA0005F4F618570E0E8E18E9F600D711D1124FB
:104BB0006A5C7F4F21E0D60118968D919C911997E0
:104BC0000E94080A37C090858781428550E0B8E18D
:104BD0009B9F400D511D11244F5E5F4F618570E01A
:104BE000E8E18E9F600D711D11246A5C7F4FD60134
:104BF00018968D919C9119970E94810F1BC09085EA
:104C00008781428550E0B8E19B9F400D511D1124E2
:104C10004F5E5F4F618570E0E8E18E9F600D711D12
:104C200011246A5C7F4FD60118968D919C9119973B
:104C30000E94530FD6011496ED91FC911597878130
:104C400083878085848781858587828586875CCDFB
:104C5000123009F080C185E290E00E94BE2A6C010A
:104C6000E090BE02F090BF026DE572E00E9433104A
:104C700068E672E0C60106960E94331062E772E0B1
:104C8000C6010C960E9433106FE772E0C60142968F
:104C90000E94331029E0F601208F35E0318F87E044
:104CA000828F238E10A221A214A3F78EE68E61E1DB
:104CB00074E7C7010E948D1881E1E82E84E7F82E81
:104CC00008EA11E32CE832E043E050E06AEF70E0DC
:104CD000D6015E968D919C915F970E940A0E3601D7
:104CE000F6017896FBAFEAAF94E1A92EB12CFAADAC
:104CF000FEAF2BAD27962FAF279745013EE1830EE0
:104D0000911C28EA31E3A301B501D6015E968D918D
:104D10009C915F970E94CB0EB8EAEB2EB1E3FB2E7D
:104D2000840121E031E0A40168E270E0F601868DA3
:104D3000978D0E9482174501F8E28F0E911C250184
:104D400024E1420E511C840128E230E0A20168E215
:104D500070E0D6015E968D919C915F970E948217BC
:104D600021E031E0A20161E071E0F601868D978DCE
:104D70000E948217D6015E960D90BC91A02D2496BC
:104D8000BFAFAEAF2497EAADFBAD80814BE0BE0173
:104D90006F5F7F4F90E00E94D52CA501475E5F4F6B
:104DA00011E1E12E14E7F12E08EA11E39E012F5FD5
:104DB0003F4F68E171E024968EAD9FAD24970E942D
:104DC0000A0EAAADBBAD6D91BBAFAAAFB7E16B9FA9
:104DD000B0011124635D7F4F0AECE02E02ECF02E4F
:104DE00084019B01A201F601868D978D0E94821796
:104DF000F2E3AF0EB11C26E0620E711C3CEDA3166F
:104E0000B10409F07ACFD6015E968D919C915F979F
:104E10000E946A14F601868D978DDC011E962D91F5
:104E20003C911F97232B09F473C00E944A15889761
:104E30000CF45CC0F601868D978D0E944A158A306D
:104E400091400CF053C0D6015E968D919C915F9776
:104E50000E9425154E975CF0D6015E968D919C912F
:104E60005F970E942515873491050CF4EAC1D6019D
:104E70005E968D919C915F970E94251583359105D3
:104E80005CF0D6015E968D919C915F970E942515EE
:104E90008C3791050CF40EC2D6015E968D919C91D3
:104EA0005F970E942515883891055CF0D6015E96C3
:104EB0008D919C915F970E942515813B91050CF483
:104EC000FFC1D6015E968D919C915F970E9425153A
:104ED0008E3B91055CF0D6015E968D919C915F971B
:104EE0000E942515873E91050CF4F2C1D6015E960D
:104EF0008D919C915F970E944A158B3F910544F0DC
:104F0000F601868D978D0E94251544970CF4E8C113
:104F1000D60194968C919497823009F474CF809343
:104F2000C7015B968C918093C601C114D10499F09E
:104F3000EEAC2796FFAC2797EC14FD0449F0B6E0E1
:104F4000EB1AF108F701808191810E94532BF4CF75
:104F5000C7010E94532B1091C701133009F0C4C937
:104F600085E090E00E94BE2A4C01A090BA02B09069
:104F7000BB02C090BE02D090BF02DC0114961C930D
:104F800014971196DC92CE921396BC92AE92129721
:104F9000C6010E946A1461E174E7C6010E948D187F
:104FA000F8EAEF2EF1E3FF2E00E410E020E330E01A
:104FB0004EE150E066E470E0C6010E94141620E362
:104FC00030E04EE150E06EEC70E0C6010E94141635
:104FD000F50125822DEA34E046E250E06CE470E011
:104FE000C5010E949D082DEB31E04EE350E06CE4DA
:104FF00070E0C5010E949D08E2E0D5011596EC9392
:105000002DEA34E046E250E064ED70E0C5010E9414
:105010009D082DEB31E04EE350E064ED70E0C501FA
:105020000E949D0808E210E02AEF30E04CE850E0D2
:1050300063E270E0C6010E94EE0C0AEC12EC21E97A
:1050400032E04BE950E067E370E0C6010E940A0ECF
:1050500008E210E02AEF30E04EEB50E063E270E04F
:10506000C6010E94EE0C0AEC12EC20EA32E04DEC94
:1050700050E061E470E0C6010E940A0E04E410E012
:1050800024E330E04CE150E064E470E0C6010E94AB
:10509000800E02E410E022E330E04DE150E065E4F0
:1050A00070E0C6010E94800E04E410E024E330E0CA
:1050B0004CE150E06CEC70E0C6010E94800E02E40E
:1050C00010E022E330E04DE150E06DEC70E0C6010D
:1050D0000E94800EA1E1EA2EA4E7FA2E0AEC12EC5F
:1050E0002DEA32E04AE050E064E470E0C6010E943C
:1050F0000A0E2DEA32E04AE050E06CEC70E0C601A6
:105100000E940A0E2AEC32EC40E456E06FE370E0B5
:10511000C6010E94460E2AEC32EC40E456E069ECEF
:1051200070E0C6010E94460EC6010E946A14D601B4
:105130001E968D919C911F97892B21F1C6010E948B
:105140004A1584979CF0C6010E944A158D31914002
:105150006CF4C6010E9425158D3891053CF0C601FE
:105160000E942515843B91050CF416C1C6010E94CE
:105170004A1584973CF0C6010E944A158D31914032
:105180000CF4C4C0D40114968C91833069F28093DE
:10519000C701C4010E94532BA5C8C6010E944A152D
:1051A000CD970CF44DC9C6010E944A158E3091402E
:1051B0000CF046C9C6010E9425158C3991050CF4E6
:1051C0003FC9C6010E9425158D3C91050CF038C9D8
:1051D00058EAE52E51E3F52E02E310E028EC30E02A
:1051E00048E250E06CE370E0C6010E94EE0C0AEC6D
:1051F00012EC2AE432E04CE350E060E570E0C601D6
:105200000E940A0E6AECE62E62ECF62E02E310E033
:1052100028EC30E046E950E06CE370E0C6010E9403
:10522000EE0C08EA11E325E532E04AEA50E069E6CF
:1052300070E0C6010E940A0EE2E0D5011496EC93DC
:10524000FFC8F60110A261A1662369F1A601369E8E
:10525000400D511D1124B2E36B9FB00111246C5E0F
:105260007F4F28EA31E3F601868D978D0E94CB0EA1
:10527000D60190966C91A601369E400D511D1124C9
:10528000B2E36B9FB00111246C5E7F4F2AEC32ECCD
:10529000F601868D978D0E94CB0ED60190968C914B
:1052A000909791968C93F60160A170E0C6010E94E0
:1052B0004A061CCEF60120A261A1613039F6F3CF77
:1052C00022E0F60120A361A1623009F0BFCFEBCF4D
:1052D00023E0F60120A361A1633009F0B7CFE3CF4B
:1052E00041E1E42E44E7F42E0AEC12EC2CE832E023
:1052F00043E050E06AEF70E0D6015E968D919C919C
:105300005F970E940A0EF60114A202CEC6010E9407
:1053100025158F3B91050CF435CFC6010E9425154C
:10532000863E91050CF02ECF88EAE82E81E3F82E18
:1053300008E210E02AEF30E04CE850E063E270E071
:10534000C6010E94EE0C0AEC12EC21E932E04BE9B6
:1053500050E067E370E0C6010E940A0E9AECE92E65
:1053600092ECF92E08E210E02AEF30E04EEB50E02C
:1053700063E270E0C6010E94EE0C08EA11E320EA45
:1053800032E04DEC50E061E470E0C6010E940A0E8C
:10539000D40114961C92F6CE2AECE22E22ECF22EC8
:1053A00008E210E02AEF30E04CE850E063E270E001
:1053B000C6010E94EE0C08EA11E321E932E04BE954
:1053C00050E067E370E0C6010E940A0E38EAE32E5F
:1053D00031E3F32E08E210E02AEF30E04EEB50E02C
:1053E00063E270E0C6010E94EE0C0AEC12EC20EAC7
:1053F00032E04DEC50E061E470E0C6010E940A0E1C
:10540000C1CEEDE2F3E01382128288EE93E0A0E0D9
:10541000B0E084839583A683B78323E232E03183AF
:10542000208325EC30E03587248724EC30E0378773
:10543000268720EC30E0318B208B21EC30E0338B61
:10544000228B22EC30E0358B248B26EC30E0378B3E
:10545000268B118E128E138E148EEAECF3E01382DB
:10546000128284839583A683B78383E392E091833A
:1054700080838AE490E00E94BE2AFC011086118697
:1054800023E22093B0002AE02093B10023E320938D
:10549000B3002AE12093B40024E02093700090939D
:1054A000D9038093D80389E490E00E94BE2AFC01CE
:1054B00011821282EC5BFF4F10823196108231967E
:1054C00010823196118210825298E9E6F0E0208134
:1054D00021602083E89A78949093D7038093D60331
:1054E0000895DB018F939F930E94342DBF91AF915C
:1054F000A29F800D911DA39F900DB29F900D11242E
:10550000089597FB072E16F4009407D077FD09D075
:105510000E94AA2A07FC05D03EF4909581959F4FE2
:105520000895709561957F4F0895EE0FFF1F0590C8
:10553000F491E02D09940E94A02D332312F48A1BCC
:105540009B0B0C94A52A0E94A02DB7FF0895821BE7
:10555000930B0895AA1BBB1B51E107C0AA1FBB1FD9
:10556000A617B70710F0A61BB70B881F991F5A95EF
:10557000A9F780959095BC01CD010895CF93DF9355
:105580008230910510F482E090E0E0912704F091E0
:10559000280420E030E0C0E0D0E0309711F14081F5
:1055A000518148175907C0F04817590761F48281A3
:1055B0009381209719F09B838A832BC090932804B2
:1055C0008093270426C02115310519F0421753078F
:1055D00018F49A01BE01DF01EF010280F381E02D92
:1055E000DCCF2115310509F1281B390B2430310599
:1055F00090F412968D919C9113976115710521F08D
:10560000FB019383828304C0909328048093270432
:10561000FD01329644C0FD01E20FF31F8193919387
:10562000225031092D933C933AC0209125043091AA
:105630002604232B41F42091CA013091CB013093F1
:105640002604209325042091C8013091C901211519
:10565000310541F42DB73EB74091CC015091CD01B9
:10566000241B350BE0912504F0912604E217F30783
:10567000A0F42E1B3F0B2817390778F0AC014E5FC2
:105680005F4F2417350748F04E0F5F1F50932604D5
:10569000409325048193919302C0E0E0F0E0CF01B4
:1056A000DF91CF9108950F931F93CF93DF930097CE
:1056B00009F48CC0FC0132971382128200912704F6
:1056C000109128040115110581F420813181820F88
:1056D000931F20912504309126042817390779F566
:1056E000F0932604E093250471C0D80140E050E017
:1056F000AE17BF0750F412962D913C911397AD0150
:105700002115310509F1D901F3CF9D01DA01338368
:10571000228360817181860F971F8217930769F436
:10572000EC0128813981260F371F2E5F3F4F3183CF
:1057300020838A819B8193838283452B29F4F09374
:105740002804E093270442C01396FC93EE9312972B
:10575000ED01499159919E01240F351FE217F3077E
:1057600071F480819181840F951F029611969C930C
:105770008E938281938113969C938E931297E0E08F
:10578000F0E0D80112968D919C911397009719F033
:10579000F8018C01F6CF8D919C9198012E5F3F4FBF
:1057A000820F931F20912504309126042817390772
:1057B00069F4309729F4109228041092270402C04B
:1057C000138212821093260400932504DF91CF9157
:1057D0001F910F910895A0E0B0E0E1EFFBE20C947F
:1057E0004B2DEC01009721F4CB010E94BE2AB8C0DA
:1057F000FC01E60FF71F9C0122503109E217F30765
:1058000008F4ACC0D9010D911C9111970617170728
:10581000B0F00530110508F49FC0C8010497861741
:10582000970708F499C002501109061B170B019342
:1058300011936D937C93CF010E94532B8DC05B011C
:10584000A01AB10A4C01800E911EA0912704B091BC
:10585000280440E050E0E12CF12C109709F44AC0F4
:10586000A815B905D1F56D907C901197630182E080
:10587000C80ED11CCA14DB0480F1A3014A195B09CC
:105880006A0182E0C80ED11C1296BC901297139642
:10589000AC91B5E0CB16D10440F0B282A383518322
:1058A0004083D9016D937C930AC00E5F1F4FC301E3
:1058B000800F911FF90191838083EB2DFA2FE11462
:1058C000F10431F0D7011396FC93EE93129744C084
:1058D000F0932804E09327043FC08D919C91119789
:1058E0004817590708F4AC017D0112960D90BC9140
:1058F000A02DB3CF80912504909126048815990599
:10590000E1F446175707C8F48091C8019091C90186
:10591000009741F48DB79EB74091CC015091CD01D5
:10592000841B950BE817F907C8F4F0932604E0935D
:105930002504F901718360830FC0CB010E94BE2A48
:105940007C01009759F0A801BE010E94BA2CCE013B
:105950000E94532BC70104C0CE0102C080E090E03A
:10596000CDB7DEB7EEE00C94672D81E090E0F894BF
:105970000C94AF2DFB01DC0102C001900D9241504F
:105980005040D8F70895FB01DC0101900D920020F2
:10599000E1F70895BB274A3031F4992322F4BDE2A0
:1059A000909581959F4F0C94D62CBB27FB015527D2
:1059B000AA27880F991FAA1FA41710F0A41B83956C
:1059C0005051B9F7A05DAA3308F0A95DA1930097E3
:1059D00079F7B111B1931192CB010C94EF2CDC014A
:1059E000FC01672F71917723E1F7329704C07C9116
:1059F0006D9370836291AE17BF07C8F30895F9994C
:105A0000FECF92BD81BDF89A992780B50895262FC3
:105A1000F999FECF1FBA92BD81BD20BD0FB6F89493
:105A2000FA9AF99A0FBE01960895052E97FB1EF477
:105A300000940E942C2D57FD07D00E947E2D07FC5C
:105A400003D04EF40C942C2D509540953095219513
:105A50003F4F4F4F5F4F089590958095709561959A
:105A60007F4F8F4F9F4F08950E94A02DA59F900DAF
:105A7000B49F900DA49F800D911D11240895B7FF30
:105A80000C94342D0E94342D821B930B08952F9279
:105A90003F924F925F926F927F928F929F92AF92BE
:105AA000BF92CF92DF92EF92FF920F931F93CF930B
:105AB000DF93CDB7DEB7CA1BDB0B0FB6F894DEBFA2
:105AC0000FBECDBF09942A88398848885F846E84C8
:105AD0007D848C849B84AA84B984C884DF80EE8012
