:100000000C940A040C9434040C9432040C943204BE
:100010000C9432040C9432040C9432040C94320488
:100020000C9459050C9432040C9432040C94592508
:100030000C9432040C9432040C9432040C94320468
:100040000C9432040C9432040C9426150C94001574
:100050000C9432040C9432040C9432040C94320448
:100060000C942B240C943204DF08E208E508E8081D
:10007000EB08EE08F108F408F708FA08FD080B0988
:10008000000903093B093E094109440947094A0996
:100090004D09500953095609590967095C095F0957
:1000A000E115E615EB15F015F515FA15FF15041613
:1000B00009160E16131617163B161C162B1681164C
:1000C00086168B169016951699169E16A316A816C8
:1000D000AD16B216B616DA16BB16CA16351738178D
:1000E0003B173E174117441747174A174D1750172C
:1000F00053176117561759178E179117941797179B
:100100009A179D17A017A317A617A917AC17BA1708
:10011000AF17B21700000000000000003078783000
:10012000300030006C6C6C00000000006C6CFE6CE9
:10013000FE6C6C00307CC0780CF8300000C6CC1827
:100140003066C600386C3876DCCC76006060C00063
:10015000000000001830606060301800603018182F
:100160001830600000663CFF3C660000003030FC48
:10017000303000000000000000703060000000FC23
:10018000000000000000000000303000060C1830B5
:1001900060C0800078CCDCFCECCC780030F03030F3
:1001A0003030FC0078CC0C3860CCFC0078CC0C38BB
:1001B0000CCC78001C3C6CCCFE0C0C00FCC0F80C89
:1001C0000CCC78003860C0F8CCCC7800FCCC0C1893
:1001D0003060600078CCCC78CCCC780078CCCC7C0B
:1001E0000C1870000000303000303000000030305B
:1001F00000703060183060C0603018000000FC00F3
:10020000FC0000006030180C1830600078CC0C182E
:10021000300030007CC6DEDEDEC078003078CCCC2A
:10022000FCCCCC00FC66667C6666FC003C66C0C00C
:10023000C0663C00FC6C6666666CFC00FE6268781A
:100240006862FE00FE6268786860F0003C66C0C0CC
:10025000CE663E00CCCCCCFCCCCCCC007830303060
:10026000303078001E0C0C0CCCCC7800E6666C7834
:100270006C66E600F06060606266FE00C6EEFED668
:10028000C6C6C600C6E6F6DECEC6C600386CC6C612
:10029000C66C3800FC66667C6060F00078CCCCCC24
:1002A000DC781C00FC66667C786CE60078CCE03874
:1002B0001CCC7800FCB4303030307800CCCCCCCCC6
:1002C000CCCCFC00CCCCCCCCCC783000C6C6C6D6CE
:1002D000FEEEC600C6C66C386CC6C600CCCCCC7868
:1002E00030307800FECC983062C6FE0078606060E6
:1002F00060607800C06030180C060200781818188A
:100300001818780010386CC60000000000000000CB
:10031000000000FF30301800000000000000780CE2
:100320007CCC7600E0607C666666BC00000078CC21
:10033000C0CC78001C0C0C7CCCCC7600000078CCB7
:10034000FCC07800386C60F06060F000000076CC93
:10035000CC7C0CF8E0606C766666E60030007030AD
:1003600030307800180078181818D870E060666C83
:10037000786CE60070303030303078000000ECFEF1
:10038000D6C6C6000000F8CCCCCCCC00000078CC9F
:10039000CCCC78000000DC66667C60F0000076CC97
:1003A000CC7C0C1E0000D86C6C60F00000007CC09F
:1003B000780CF80010307C30303418000000CCCCC1
:1003C000CCCC76000000CCCCCC7830000000C6C687
:1003D000D6FE6C000000C66C386CC6000000CCCCA9
:1003E000CC7C0CF80000FC983064FC001C3030E041
:1003F00030301C001818180018181800E030301C95
:100400003030E00076DC00000000000010386CC6E0
:10041000C6C6FE004128D441CF8300833041ED841D
:100420006403128141E88385017941CB85392C0031
:10043000340241F7812041EA82000041C081264117
:10044000C1811141C582353E41C781BE41B18200A3
:100450001B41F281084126810141E08F1F1A180AD1
:100460000F064587320A070207050041E18F002584
:10047000270510093A784D05180D383A1F41B68402
:100480000A82270041B78107413A8155413681E808
:10049000412A82000082013F412B8200008200EF4E
:1004A0004111FCFC4129D4FFFF000000002400277B
:1004B000002A0043616C6962726174696F6E004367
:1004C000616C6962726174696F6E000000000025E2
:1004D0000028002B000404040404040404020202A3
:1004E0000202020303030303030102040810204075
:1004F00080010204081020010204081020000000FE
:1005000008000201000003040700000000000000D2
:1005100000000103010109090101040100010505B1
:100520000403010104030605010109060102020298
:100530000301060901010809000302030301090878
:100540000100010104080808090401010000010676
:100550000104030304000601000001050601010176
:100560000106050100000001010100000001010079
:100570000000010101010109090101000000010958
:10058000010401010101010100000105010304064C
:10059000050508080100000101040304010609081B
:1005A0000100000109080808090101010000010714
:1005B000010104030401060501000106060701010B
:1005C0000106050501000001010101010101010110
:1005D0000000010000010109090101000000000004
:1005E00000010301010601000000000000010203F8
:1005F00007050100000000000101030201080801D5
:1006000000000000010908080109080100000000BD
:1006100000010103020101010000000000010701C7
:1006200006050501000000000000010101010100B4
:1006300000000000010104040101000000000001AD
:100640000403020208090101000001020202030979
:100650000101050601010304010908010605070659
:10066000050403010801010505060901010404014F
:10067000080806070B0D0801000104010908070717
:100680000A0C080101010401010908070808090111
:10069000000001030101010304010709010105052F
:1006A0000403010404010705010109050102020117
:1006B000010101010001080901030203030901000E
:1006C00000000101040808080904010000000107F6
:1006D0000104030401010601000000010101010100
:1006E00006050501000000000000000001010100F6
:1006F00000000000000001050601000000000000ED
:1007000001010605050601000000010106080808B0
:10071000060501010001080109030303040901089A
:10072000010009010401040203010109010001099A
:10073000010303020203010100000101010403039C
:10074000020401010000000107010304030101018B
:100750000000010601010909010106090100010566
:100760000501010104010605010001060808010256
:100770000304010100000001090801030101010156
:100780000000000101010801050501010000000150
:10079000010403010606050100000000010101013A
:1007A000010106010000000000000101010101003B
:1007B0000000000001040304040100000000000127
:1007C00003020202030401000000010106050608FD
:1007D00009030101000109070505050605050708CC
:1007E00001010906060606090606060901000106BA
:1007F0000B0D08080D0B0601000001090A0C080882
:100800000C0A090100000001090808080809010094
:100810000000833611241FBECFEFD8E0DEBFCDBF6E
:1008200014E0A0E0B1E0E2E8F4E702C005900D9228
:10083000A232B107D9F725E0A2E2B4E001C01D92CF
:10084000A63BB207E1F714E0CAE0D4E004C0219768
:10085000FE010E941A37C930D107C9F70E94AF259F
:100860000C943F3A0C9400001F920F920FB60F9217
:1008700011242F933F934F935F936F937F938F93A5
:100880009F93AF93BF93EF93FF93E0916405F09133
:1008900065054A9BC1C0808183879685911104C0FC
:1008A00095859111BBC051C0913009F04EC091891E
:1008B00090FF4BC015861486168627853089211532
:1008C000310509F43FC046A157A141305105B9F0A7
:1008D0004230510531F1452BA9F59181DF01A90F76
:1008E000B11DA90FB11D14963C932E93139721E0CF
:1008F000290F243011F0218325C0918323C0948DCA
:10090000DF01A90FB11DA90FB11D5F963C932E9376
:100910005E9721E0290F243011F0248F13C0948FAB
:1009200011C09289DF01A90FB11DA90FB11D559604
:100930003C932E93549721E0290F243011F0228B01
:1009400001C0928B108A1786118A9685923009F021
:100950004EC0918915861486168690FD45C0278560
:1009600030892115310509F43FC046A157A1413016
:100970005105B9F04230510531F1452BA9F591816E
:10098000DF01A90FB11DA90FB11D14963C932E9341
:10099000139721E0290F243011F0218325C0918382
:1009A00023C0948DDF01A90FB11DA90FB11D5F9662
:1009B0003C932E935E9721E0290F243011F0248F71
:1009C00013C0948F11C09289DF01A90FB11DA90F27
:1009D000B11D55963C932E93549721E0290F243056
:1009E00011F0228B01C0928B108A1786118A90EE2B
:1009F000980F973088F199EC980F9730A8F19FEBFA
:100A0000980F9730D8F18C52873008F041C0868516
:100A100090E0019686873CC010823AC024859CEE07
:100A2000980F973028F030E02F5F3F4F24878DCF0D
:100A300041E050E0022E02C0440F551F0A94E2F735
:100A400067857089462B572B508B4787418950E02B
:100A50004F5F5F4F418BE7CF258530E02F5F3F4FE2
:100A6000258717A216A2C7CF258530E02F5F3F4FFD
:100A7000258722E030E037A326A3C1CF21E030E074
:100A800037A326A3258530E02F5F3F4F2587BBCFB7
:100A9000FF91EF91BF91AF919F918F917F916F9156
:100AA0005F914F913F912F910F900FBE0F901F902C
:100AB00018951F920F920FB60F9211242F933F9308
:100AC0008F939F93AF93BF93EF93FF93E091640550
:100AD000F0916505808190E001968083E091660544
:100AE000F0916705828190E00196982F828386813C
:100AF000813059F49D3049F487818111539AE091F6
:100B00006605F091670516821282E0916605F09104
:100B1000670582818A3039F48681811104C084811D
:100B20009581892B79F0E0916605F09167059389AD
:100B30009923A1F024813581232B81F48681882398
:100B4000D1F00CC09AB188E089278AB9E091660596
:100B5000F091670581E086831282E5CF958D992318
:100B600009F444C024813581232B09F03FC08681DC
:100B70008823F9F03BC08489891720F491E0980F0D
:100B8000948B03C0148A138A80E0DF01A80FB11D83
:100B9000A80FB11D55968D919C915697958384838E
:100BA000539AE0916605F0916705128282E090E029
:100BB0001AC0868D891708F08DC091E0980F968F26
:100BC000DF01A80FB11DA80FB11D5F968D919C91FB
:100BD000909795838483539AE0916605F091670519
:100BE000128281E090E090A787A308C090859923A6
:100BF00029F024813581232B09F470C0E09166052A
:100C0000F09167058281823261F48781811109C088
:100C100084819581892B29F087A190A5892B09F4DE
:100C20007EC0E0916605F09167058281843461F4AD
:100C30008781811109C084819581892B29F087A141
:100C400090A5019709F475C0E0916605F0916705DC
:100C50008281893361F48781811109C08481958102
:100C6000892B29F087A190A5029709F46CC0E09127
:100C70006605F091670587818823E1F086818111FF
:100C800019C02381822F90E04097A4F482818A309A
:100C900049F48481958102C0959587952A95E2F75C
:100CA00080FF76C0E0916605F0916705828187310B
:100CB00009F453C0E0916605F091670583818031A6
:100CC00009F085C08681811182C082818E3209F04F
:100CD0007EC06BC0168E158E80E072CF868181112A
:100CE0008DCF8185891720F491E0980F918703C0FB
:100CF0001186108680E0DF01A80FB11DA80FB11D7D
:100D00001A968D919C911B9795838483539AE091B9
:100D10006605F0916705128210A617A26FCF53984F
:100D2000E0916605F0916705128281E086838783F2
:100D300078CF5398E0916605F0916705128281E0C3
:100D40008683878381CF5398E0916605F09167058C
:100D5000128281E0868387838ACF84819581038094
:100D600002C0959587950A94E2F780FFA3CF539828
:100D7000E0916605F0916705128281E086838381A8
:100D800090E001968383828990E00196828B92CFD6
:100D90005398E0916605F0916705128281E08683A1
:100DA000838190E0019683837DCF5398E09166051F
:100DB000F091670581E086831282928990FF06C0D8
:100DC0001782138215821482128A01C0828BFF91CE
:100DD000EF91BF91AF919F918F913F912F910F9084
:100DE0000FBE0F901F901895FC018085882311F08D
:100DF000815080871482A589B68916968C9182309D
:100E0000A1F118F4813041F0E9C0833009F477C0D2
:100E1000843009F49BC0E2C09585911150C094853F
:100E200091111EC0938532852FEF230F428153818C
:100E3000993009F4D3C02B3009F4D0C06BE0969FF1
:100E4000D0011124A20FB11DA40FB51F9C919111C7
:100E5000C5C0332309F4C2C02287248998E101C0A8
:100E60002489921B94878483B9C09585911127C0EA
:100E70009485911118C0938522852F5F42815381FB
:100E8000993009F4ABC02B3009F4A8C03BE0939F24
:100E9000D0011124A20FB11DA40FB51F9C91911177
:100EA0009DC09489DFCF8489890F883110F48487AD
:100EB00004C0148682858F5F828782E0D4CF692F39
:100EC00070E08489282F30E0220F331F2617370760
:100ED00094F448E150E0461B570B241735070CF4F7
:100EE0007DC0980F9587983121F483858F5F838724
:100EF000158684E0B8CF981B958783E0B4CF94859E
:100F000091114DC0958591111EC023859FEF920FC1
:100F1000328542815381993009F460C03B3009F435
:100F20005DC06BE0969FD0011124A30FB11DA40FEB
:100F3000B51F3C91311152C0222309F44FC0938751
:100F4000248998E101C02489921B1CC094859111C9
:100F500026C09585911118C0A38591E09A0F22852E
:100F6000428153819930D1F12B30C1F13BE0939F05
:100F7000D0011124A20FB11DA40FB51F9C91911196
:100F80002DC0948995876FCF8489890F883110F49B
:100F90008587AFCF158683858F5F8387AACF692F1B
:100FA00070E08489282F30E0220F331F261737077F
:100FB00024F0981B948781E056CF48E150E0461B0F
:100FC000570B2417350754F0980F9487983109F080
:100FD00074CF82858F5F828714866FCF8481882348
:100FE00019F081E085830895858181111582089526
:100FF0000895FC0184818230A9F118F4813041F018
:10100000ACC0833009F457C0843009F47BC0A5C05C
:1010100085858111A2C08485811120C083852285A8
:101020009FEF920F42815381893009F496C09B3023
:1010300009F493C03BE0839FD0011124A90FB11D97
:10104000A40FB51F8C918150823008F486C02223F2
:1010500009F483C09287948988E101C09489891B2F
:1010600084877BC08585811176C0948591111AC0D3
:10107000838592859F5F22813381893009F46DC019
:101080009B3009F46AC04BE0849FD0011124A90F62
:10109000B11DA20FB31F8C918150823008F45DC046
:1010A0008489DECF8489890F8831D0F214868285C5
:1010B0008F5F828752C0848581114FC085858111E1
:1010C0001EC023858FEF820F928542815381893024
:1010D00009F443C09B3009F440C03BE0839FD0013A
:1010E0001124A90FB11DA40FB51F9C9191509230EE
:1010F000A0F1222391F18387948988E101C094892A
:10110000891B22C08485811128C09585911118C042
:10111000A38581E08A0F9285228133818930E9F0AD
:101120009B30D9F04BE0849FD0011124A90FB11D51
:10113000A20FB31F8C918150823078F0848904C053
:101140008489890F883110F4858707C015868385C7
:101150008F5F838702C081E00895089508956F929C
:101160007F928F929F92AF92BF92CF92DF92EF9237
:10117000FF920F931F93CF93DF93EC016B018D814F
:10118000813009F059C059018A013A0188E0680E9E
:10119000711C4B018CE0880E911C7601F701EC1953
:1011A000FD09EA0DFB1DE4918E2F90E0FC013197C3
:1011B000EE30F10580F5EC5CFF4F0C941A3724E01B
:1011C00031E223C02AE836E620C026EC34E41DC014
:1011D00022E833E21AC028EA33EA17C025E03AE7EA
:1011E00014C024E839E511C02CE43FEF0EC023E21F
:1011F0003DED0BC02FEF3FEF08C02BEF3EED05C0DC
:1012000028E135E802C020E133E4A801B701888174
:1012100099810E94A6108FEFE81AF80AE814F904E1
:1012200009F0BCCF8CE0A80EB11C0F5F1F4F061554
:10123000170509F0B2CF5BC0823009F058C05901E0
:101240008A013A0188E0680E711C4B018CE0880E1F
:10125000911C7601F701EC19FD09EA0DFB1DE491E3
:101260008E2F90E0FC013197EE30F10580F5EE5BBA
:10127000FF4F0C941A3724E031E223C028EC39EEFA
:1012800020C023E830EB1DC020E030E81AC028EA77
:1012900033EA17C025E03AE714C024E839E511C065
:1012A0002CE43FEF0EC023E23DED0BC02FEF3FEFEC
:1012B00008C02BEF3EED05C028E135E802C020E173
:1012C00033E4A801B701888199810E94A6108FEFAD
:1012D000E81AF80AE814F90409F0BCCF8CE0A80E6B
:1012E000B11C0F5F1F4F0615170509F0B2CFDF9134
:1012F000CF911F910F91FF90EF90DF90CF90BF9013
:10130000AF909F908F907F906F9008950C94D837F6
:101310000C94D8378F929F92AF92BF92CF92DF9268
:10132000EF92FF920F93CF93DF935C014B01EA01A1
:10133000822F9701811104C0C5010E94AF0803C02C
:10134000C5010E940717AE01485F5F4F9601B401C7
:10135000C50101110DC0DF91CF910F91FF90EF906A
:10136000DF90CF90BF90AF909F908F900C94AF087C
:10137000DF91CF910F91FF90EF90DF90CF90BF90D2
:10138000AF909F908F900C940717BC01439892E008
:1013900040E050E0FB01E90FF11D8081DB01A80F67
:1013A000B11D12962C9130E0042E02C03595279580
:1013B0000A94E2F720FF02C0429A01C04298419A83
:1013C00041984F5F5F4F4830510539F7915000F712
:1013D000439A0895FC0195858485282F30E0290FD4
:1013E000311D232B61F48285681330C08385481337
:1013F0002DC08185815081878CE38087089581117C
:1014000012C08285681322C02385241302C09D3038
:1014100080F330E050E04150510924173507B1F412
:101420009C30A0F0E6CF911111C0938549130EC0F6
:101430002285261302C08D30E0F230E070E061506A
:1014400071092617370711F48C3098F608952F92FA
:101450003F924F925F926F927F928F929F92AF9244
:10146000BF92CF92DF92EF92FF920F931F93CF9391
:10147000DF93EC014B011C01260E371EF101808D1C
:101480008BA38E8D9F8D0E94D20F092E000CAA0B6C
:10149000BB0B9C01AD012852310941095109A9E05A
:1014A000B0E00E94C4392CED30E040E050E00E94F2
:1014B000A539F101208F8BA1821709F463C0C40103
:1014C000019632E3389F6001399FD00C1124360118
:1014D000FAE06F0E711C26018AE0481A5108E7E114
:1014E0002E9FB0011124635D7F4FFAECEF2EF2ECDA
:1014F000FF2E83019B01A2018E8D9F8D0E948B1177
:10150000ABA0F7E1AF9E500111242DE2A20EB11C59
:10151000A1E1EA2EA4E7FA2E9501A201B5018E8D74
:101520009F8D0E948B1128EA31E3A601B5018E8DB3
:101530009F8D0E94A6108E8D9F8DA601455051094A
:10154000E3E08E16910471F42B8D21110BC0E2E0C3
:10155000CE2E08EA11E328EE33E068E171E00E9444
:10156000F50F10C0F101208D30E061E1C62E64E777
:10157000D62E78EAE72E71E3F72E0BE068E171E0F2
:101580000E948E20DF91CF911F910F91FF90EF90DD
:10159000DF90CF90BF90AF909F908F907F906F9093
:1015A0005F904F903F902F9008955F9A08959CB55B
:1015B000282F23709C7F922B9CBD2DB582FB9927F1
:1015C00090F9822F8E7F892B8DBD08954F925F9267
:1015D0006F927F928F929F92AF92BF92CF92DF9243
:1015E000EF92FF920F931F93CF93DF93EC01E88864
:1015F000F9888C899D890A891B89E816F90609F4FE
:1016000074C0FD8AEC8A288D398D4A8D5B8DD70197
:101610000E94CF394B015C012C8D3D8D4E8D5F8D2D
:10162000D8010E94CF39AB01BC01480D591D6A1D7C
:101630007B1D88A199A1AAA1BBA15A016B01A80E8B
:10164000B91ECA1EDB1EC601B50128A939A94AA9BF
:101650005BA90E940E3A49015A01DA01C9012C81A5
:101660003D812A35310509F118F4232B41F03BC0A7
:10167000243B310521F02E303140B9F034C02E81A9
:101680003F81A901440F551F60E070E08416950664
:10169000A606B70628F5A90160E070E08416950655
:1016A000A606B70600F1C90115C0488559852A016B
:1016B000440C551C612C712C84149504A604B704A9
:1016C00078F42A01612C712C84149504A604B704C3
:1016D00050F0CA010197092E000CAA0BBB0B03C0E6
:1016E00080E090E0DC019B878A878E899F890817BC
:1016F000190709F45FC01F8B0E8B2CA13DA14EA1D1
:101700005FA1D7010E94CF394B015C0128A539A503
:101710004AA55BA5D8010E94CF39AB01BC01480D99
:10172000591D6A1D7B1D8CA59DA5AEA5BFA55A019F
:101730006B01A80EB91ECA1EDB1EC601B50128A981
:1017400039A94AA95BA90E940E3ADA01C9016C8144
:101750007D816A35710571F018F4672B41F028C05E
:10176000643B710521F06E30714021F021C0688525
:10177000798502C06E817F814B01880C991CA12C58
:10178000B12C281539054A055B0578F44B01A12CCD
:10179000B12C281539054A055B0550F0CB0101979E
:1017A000092E000CAA0BBB0B03C080E090E0DC010B
:1017B0009D878C87DF91CF911F910F91FF90EF90C4
:1017C000DF90CF90BF90AF909F908F907F906F9061
:1017D0005F904F900895CF92EF92FF920F931F93D7
:1017E000CF93DF93EC01262F6A3081F48EAD9FAD4D
:1017F0009BAF8AAF2CA92F778CAD9DAD38E0239F8E
:10180000800D911D11249DAF8CAF47C0862F8B7F1B
:10181000893009F442C06AAD7BAD203219F46115FC
:101820007105D9F1E881F981E8ACF9AC0EA91FA9DD
:101830004CAD5DAD0088F189E02DCCA8CE010995B5
:10184000BC019BAF8AAF8DA9882339F12CA92F77D2
:10185000822F90E048EF4203900111244E815F8176
:10186000420F531F46175707C4F44EAD5FAD5BAF31
:101870004AAF43E0880F991F4A95E1F74CAD5DAD43
:10188000840F951F9DAF8CAF48855985240F351F58
:101890002817390714F41DAE1CAE81E090E0DF91EB
:1018A000CF911F910F91FF90EF90CF900895CF921D
:1018B000EF92FF920F931F93DC01ED91FC91068450
:1018C000F785E02D09951F910F91FF90EF90CF9034
:1018D00008952F923F924F925F926F927F928F92D4
:1018E0009F92AF92BF92CF92DF92EF92FF920F93AF
:1018F0001F93CF93DF9300D01F92CDB7DEB79B83AA
:101900008A83480188E0280290011124D901AC5E45
:10191000BF4F5D01BC2DBF77CB2EEA81FB81868155
:101920009781F1E0FB1708F463C06B0128E0C20E59
:10193000D11C8C159D050CF46EC0AA81BB81189634
:10194000ED91FC9119979A01285F3F4FE217F30739
:101950000CF461C0AA81BB81ED91FC9111978A01C1
:10196000095F1F4F9B01295F3F4F0680F781E02DE4
:10197000CD010995AA81BB81ED91FC91119700845D
:10198000F185E02DCD0109958501085F1F4FF50117
:101990004490FFEFAF1ABF0A98E0692E712C20E83F
:1019A000522EAA81BB81ED91FC911197852D842146
:1019B0000284F385E02D882319F0B401CD0103C022
:1019C000B7018A819B8109955694B1E06B1A710821
:1019D00041F7A016B106D9F6AA81BB81ED91FC9121
:1019E00011970484F585E02DCD010995C60176C0D7
:1019F000B8E0CB9E800111243B01600E711E86155C
:101A000097054CF0040F151FEA81FB812085318575
:101A10002017310714F4019661C0AA81BB81ED91B2
:101A2000FC911197015011090680F781E02D930177
:101A300021503109CD010995AA81BB81ED91FC911D
:101A400011970084F185E02DCD0109952501B8E0BD
:101A50004B0E511CF5012490FFEFAF1ABF0A3C2C2E
:101A600008E010E080E8D82E8D2D82212C2DA1F0E9
:101A7000AA81BB81ED91FC9111970284F385E02D41
:101A8000B401CD01298309952981215089F7D69484
:101A90000150110949F710C0AA81BB81ED91FC9159
:101AA00011970284F385E02DB701CD0129830995B3
:101AB0002981215089F7EBCF3A943110D1CFA4146A
:101AC000B50409F0C7CFAA81BB81ED91FC911197B4
:101AD0000484F585E02DCD010995C3010F900F9089
:101AE0000F90DF91CF911F910F91FF90EF90DF90BA
:101AF000CF90BF90AF909F908F907F906F905F90AE
:101B00004F903F902F9008956CE20E94D51A5F98F5
:101B10000895AF92BF92CF92DF92EF92FF920F9310
:101B20001F93CF93DF93EC015B017A0169016AE2B5
:101B30000E94D51AB501CE010E94B01AB601CE019D
:101B40000E94B01A6BE2CE010E94D51AB701CE01F5
:101B50000E94B01AB801CE01DF91CF911F910F9171
:101B6000FF90EF90DF90CF90BF90AF900C94B01AA1
:101B70000F931F93CF93DF93EC016930710519F038
:101B80006A35710571F48AE590E09D838C8380EF5E
:101B900090E09F838E8380E491E09987888718E4A2
:101BA00034C06231710519F0643B710571F484EB46
:101BB00090E09D838C8380E491E09F838E8380EF0F
:101BC00090E09987888718E320C06B31710521F078
:101BD0007E7F6E30710571F48EE091E09D838C8381
:101BE00080EF90E09F838E8380E491E099878887DF
:101BF00018E80BC01D821C8280E491E09F838E83D5
:101C000080EF90E09987888718EE66E3CE010E9406
:101C1000D51A612FCE010E94A11AE881F9810885A9
:101C20001985015011092E813F812150310906800B
:101C3000F781E02D40E050E060E070E0CE010995D2
:101C4000DF91CF911F910F910895CF92DF92EF9284
:101C5000FF920F931F93CF93DF93EC0161E088E035
:101C60000E945815289861E081E00E94581561E0B3
:101C700087E00E94581561E08DE00E94581561E0F0
:101C80008BE00E94581560E08CE00E94581559982E
:101C90005F9A61E086E00E9458155E9AFE01E05C62
:101CA000FF4F10828CB5837F8CBD8CB58F7D8CBD32
:101CB0001FB7F89480914D04811126C0EFEDF4E038
:101CC0008491E3EFF4E09491E82FF0E0EE0FFF1F32
:101CD000E755FB4FA591B491EC91E92319F48AE003
:101CE0000E94992261E08AE00E9458158CB58061BB
:101CF0008CBD8CB580648CBD61E08DE00E94581570
:101D000061E08BE00E94581580914D048F5F8093B5
:101D10004D041FBF85E00E94D70A5F9A28982FEFD5
:101D200080E792E0215080409040E1F700C0000041
:101D3000289AEFEFFBED25E0E150F0402040E1F77D
:101D400000C0000084E1E82E84E0F82E8FEFE81A4E
:101D5000F80AF7013197E491EF3F51F18E2F807C23
:101D6000803439F0803891F71E2F1F736701012FDF
:101D700013C01E2F1F736701012F011103C0E10E55
:101D8000F11CE4CFF6016491CE010E94D51A0150F6
:101D9000FFEFCF1ADF0AF1CF002389F3F601649138
:101DA000CE010E94A11A0150FFEFCF1ADF0AF4CF33
:101DB00060E070E0CE010E949C2380E00E94D70A80
:101DC000219A299ADF91CF911F910F91FF90EF9067
:101DD000DF90CF9008958EBD00000DB407FEFDCFBB
:101DE0008EB50895BF92CF92DF92EF92FF920F933C
:101DF0001F93CF93DF938C01FCB4DDB585E00E9487
:101E0000D70A5E9888EB0E94EB0E80E00E94EB0EF2
:101E1000C82F88EC0E94EB0E80E00E94EB0E5E9AC9
:101E200080958F77CF77C80FC63008F45EC05E9874
:101E300080E90E94EB0E80E00E94EB0EC82E80E04D
:101E40000E94EB0E80E90E94EB0E80E00E94EB0EF8
:101E5000D82E80E00E94EB0EE82ECD1044C080ED1D
:101E60000E94EB0E80E00E94EB0ED82E80E00E94D4
:101E7000EB0E80ED0E94EB0E80E00E94EB0EB82E80
:101E800080E00E94EB0EDB102EC094E0C99E900112
:101E900011244E2D50E096E0559547959A95E1F71F
:101EA000422B532B6FEF73E0FB01E41BF50BAF01EB
:101EB000A9F0F4E0DF9EB0011124282F30E086E085
:101EC000359527958A95E1F7262B372B2115310576
:101ED00029F0F801518B408B338B228B8C2F90E0B3
:101EE000F801978786875E9A03C0F80117861686E1
:101EF000FCBCDDBD81E0F80126853785232B09F484
:101F000080E0DF91CF911F910F91FF90EF90DF90D4
:101F1000CF90BF900895CF93DF931F92CDB7DEB7D8
:101F2000872F2B9A2D989CB59F7B9CBD2D9A9CB595
:101F300090649CBD69830E94EB0E2B9A2D989CB5F2
:101F40009F7B9CBD2D9A9CB590649CBD6981862F1A
:101F50000F90DF91CF910C94EB0ECF93DF93EC01B8
:101F60000E94E60A8C819D81009719F48C859D85DD
:101F700016C08A35910529F4288539858A859B857F
:101F800007C0843B910549F4288539858C859D855A
:101F9000A901481B590BCA0102C08A859B85DF91A4
:101FA000CF910895CF93DF93EC010E94E60A8C81D4
:101FB0009D81009719F48A859B8514C08A35910507
:101FC00019F48C859D850EC02E813F81843B91053F
:101FD00019F48A859B8502C08C859D85A901481BC3
:101FE000590BCA01DF91CF9108954F925F926F9282
:101FF0007F928F929F92AF92BF92CF92DF92EF9299
:10200000FF920F931F93CF93DF935C01CB014A01A3
:1020100038012701DC2CE9012991222399F0D5010F
:10202000ED91FC910684F785E02DCD2C72018301A2
:10203000A401BC01C5010995F50126813781281746
:10204000390754F7DF91CF911F910F91FF90EF90D7
:10205000DF90CF90BF90AF909F908F907F906F90C8
:102060005F904F9008958F929F92AF92BF92CF92C0
:10207000DF92EF92FF920F931F93CF93DF93EC01C8
:10208000690158012E813F81621773071CF0B90165
:102090006150710988859985481759071CF0AC0172
:1020A00041505109FB01EC0DFD1DE217F3071CF037
:1020B0006901C61AD70A9A012A0D3B1D281739074C
:1020C0001CF05C01A41AB50AE881F9818A010A0DA5
:1020D0001B1D015011099B012C0D3D1D2150310983
:1020E0000680F781E02DCE010995E881F981008411
:1020F000F185E02DCE0109959501D6010E9420378A
:102100004B015C01E881F98181149104A104B104BF
:1021100061F00284F385E02DB701CE01099581E0DD
:10212000881A9108A108B108EDCF0484F585E02D47
:10213000CE01DF91CF911F910F91FF90EF90DF9033
:10214000CF90BF90AF909F908F900994EF92FF92A5
:102150000F931F93CF93DF93EC018E819F816817BC
:1021600079075CF5888599854817590734F5790111
:10217000E881F9810680F781E02D8A019B01CE017B
:102180000995E881F9810084F185E02DCE0109955A
:10219000E881F9810284F385E02DB701CE0109952C
:1021A000E881F9810484F585E02DCE01DF91CF919E
:1021B0001F910F91FF90EF900994DF91CF911F91A4
:1021C0000F91FF90EF9008952F923F924F925F9260
:1021D0006F927F928F929F92AF92BF92CF92DF9237
:1021E000EF92FF920F931F93CF93DF9300D000D015
:1021F000CDB7DEB76C013B015A0179014424552467
:10220000421A530A1C821B822B813C81E216F30680
:102210000CF46AC08B809C808A0C9B1C9801A401E2
:1022200013012E0C3F1CB101C6010E94A61098019B
:10223000A401C3018E199F099A838983BC01C60139
:102240000E94A6104501EB81FC818E1A9F0A98011D
:10225000A401B101C6010E94A6109801A4016981E0
:102260007A81C6010E94A6102B803C80260C371C68
:10227000980145018E0C9F1CA401B101C6010E946A
:10228000A61093018B819C81281B390B3A832983EB
:102290009801A40169817A81C6010E94A610980163
:1022A00045018E189F08A401B101C6010E94A61025
:1022B0009801A40169817A81C6010E94A6108B81D0
:1022C0009C810196EB81FC814E0E5F1E480E591ECB
:1022D00057FC07C0F1E0EF1AF1084E185F084E18DE
:1022E0005F089C838B8390CF0F900F900F900F907F
:1022F000DF91CF911F910F91FF90EF90DF90CF90E2
:10230000BF90AF909F908F907F906F905F904F9015
:102310003F902F9008952F923F924F925F926F922D
:102320007F928F929F92AF92BF92CF92DF92EF9265
:10233000FF920F931F93CF93DF93CDB7DEB728970C
:102340000FB6F894DEBF0FBECDBF4C016B015887AE
:102350004F83590162177307A1F40417150744F45A
:10236000042715274027512758874F83042715270F
:102370002F813885021B130B0F5F1F4F21E030E0C8
:1023800015C04F81588540175107B9F426173707F4
:1023900034F4A626B726CA24DB24AC24BD24950138
:1023A0002C193D092F5F3F4F01E010E04F81588508
:1023B000B601C4010E943310A0C0FC012681378100
:1023C0006217730724F06901F1E0CF1AD108F40114
:1023D000808591854F8158854817590724F0FC0165
:1023E0003197F887EF83A216B30624F05901F1E084
:1023F000AF1AB108081719071CF08C010150110918
:1024000035016C187D0828012F813885421A530A3E
:1024100077FE08C07194619471084FEF5FEF5A83A3
:10242000498304C081E090E09A83898357FE08C005
:10243000519441945108EFEFFFEFFC83EB8304C00C
:1024400021E030E03C832B83A301440F551F5E83C2
:102450004D831201220C331C97014F815885B60120
:10246000C4010E94A610461457041CF581010619E8
:102470001709CA14DB0409F440C017FD0CC08F8192
:102480009885EB81FC818E0F9F1F98878F832D810C
:102490003E81021B130B49815A81C40ED51E020DC9
:1024A000131D97014F815885B601C4010E94A610E3
:1024B000E0CFAD80BE80A418B5088F8198858017C5
:1024C0009107D9F0B7FC06C089819A81C80ED91E40
:1024D000A218B308EF81F8852B813C81E20FF31F2E
:1024E000F887EF834D815E81A40EB51E9701AF0181
:1024F000B601C4010E94A610E0CF28960FB6F8944A
:10250000DEBF0FBECDBFDF91CF911F910F91FF9026
:10251000EF90DF90CF90BF90AF909F908F907F9083
:102520006F905F904F903F902F9008952F923F9221
:102530004F925F926F927F928F929F92AF92BF92D3
:10254000CF92DF92EF92FF920F931F93CF93DF937F
:10255000CDB7DEB766970FB6F894DEBF0FBECDBF1E
:1025600098878F832B013A013E8B2D8B4801B70151
:1025700016010417150774F4602671268624972423
:102580006824792442265326242535253E8B2D8B1D
:10259000422653262814390484F42824392482241A
:1025A0009324282439242D893E89622773272627DE
:1025B00037273E8B2D8B622773278614970484F46C
:1025C0006824792486249724682479244D895E8997
:1025D00044265526442555255E8B4D8B442655268D
:1025E00062147304F9F48D899E898415950534F07D
:1025F0009D898E895E8A4D8A492E582EAD89BE8965
:102600006A177B0734F0461657060CF42B016D89C8
:102610007E89750183019201A3018F8198850E94B3
:102620008B11A4C0ED89FE89E419F509F88BEF87B9
:102630009401261937093A8B298BAB0144195509A6
:102640005E834D83C101861997099C878B87DB01C7
:10265000ED89FE89AE1BBF0BBE87AD87910128199E
:1026600039093C8B2B8B8214930431F0A401415027
:1026700051095A87498702C09A86898663011C825C
:102680001B821A821982A985BA85AC15BD0574F121
:1026900089819A8169897A890E940637F201E60F59
:1026A000F71F8B819C816B857C850E940637920188
:1026B000260F371F89819A81AF85B8898A0F9B1FA2
:1026C0009A8389834B815C818D819E81480F591F3C
:1026D0005C834B8375018601A601BF018F819885BC
:1026E0000E948B119FEFC91AD90ACDCFC601881954
:1026F0009909ED85FE85E89F4001E99F900CF89FC0
:10270000900C1124C601861997092D813E81289FBE
:102710003001299F700C389F700C11242C143D043B
:102720002CF1C4016B897C890E940637ED89FE89F2
:10273000E60FF71FC3016B857C850E940637920167
:10274000260F371F4D855E85840E951E8D819E81D7
:10275000680E791E75018601A601BF018F819885DB
:102760000E948B119FEFC91AD90AD8CF66960FB66F
:10277000F894DEBF0FBECDBFDF91CF911F910F91B7
:10278000FF90EF90DF90CF90BF90AF909F908F9091
:102790007F906F905F904F903F902F900895CF92D1
:1027A000DF92EF92FF920F931F93CF93DF936C0111
:1027B0007A018B01C0E0D0E0CE15DF0589F0D801A9
:1027C0006D918D01D601ED91FC910190F081E02D8C
:1027D000C6010995892B11F47E0102C02196ECCF28
:1027E000C701DF91CF911F910F91FF90EF90DF9084
:1027F000CF900895FC01918D828D981761F0828DA4
:10280000DF01A80FB11D5D968C91928D9F5F9F7324
:10281000928F90E008958FEF9FEF0895FC01918DC6
:10282000828D981731F0828DE80FF11D858D90E033
:1028300008958FEF9FEF0895FC01918D228D892FD0
:1028400090E0805C9F4F821B91098F7399270895B8
:10285000FC01848DDF01A80FB11DA35ABF4F2C913D
:10286000848D90E001968F739927848FA689B7890C
:102870002C93A089B1898C9180648C93938D848DE5
:10288000981306C00288F389E02D80818F7D8083B4
:102890000895EF92FF920F931F93CF93DF93EC0174
:1028A00081E0888F9B8D8C8D981305C0E889F9890C
:1028B000808185FD24C0F62E0B8D10E00F5F1F4F29
:1028C0000F731127E02E8C8DE8120CC00FB607FC99
:1028D000FACFE889F989808185FFF5CFCE010E9482
:1028E0002814F1CF8B8DFE01E80FF11DE35AFF4F45
:1028F000F0820B8FEA89FB898081806207C0EE89B4
:10290000FF896083E889F98980818064808381E020
:1029100090E0DF91CF911F910F91FF90EF9008957C
:10292000CF93DF93EC01888D8823C9F0EA89FB8976
:10293000808185FD05C0A889B9898C9186FD0FC06D
:102940000FB607FCF5CF808185FFF2CFA889B98942
:102950008C9185FFEDCFCE010E942814E7CFDF9147
:10296000CF9108950E943A39EF92FF920F931F93EF
:10297000CF93DF93EC01198218821B821A821D8289
:102980001C8261157105A9F17B01FB0101900020FA
:10299000E9F731978F01061B170BB8016F5F7F4F67
:1029A00080E090E00E947038009759F09983888306
:1029B0001B830A832C813D81232B81F4FC0110822F
:1029C0000DC088819981009711F00E94D837198233
:1029D00018821D821C821B821A820BC01D830C83ED
:1029E000B701DF91CF911F910F91FF90EF900C9461
:1029F0004839DF91CF911F910F91FF90EF9008958B
:102A00001F920F920FB60F9211242F933F934F9363
:102A10005F936F937F938F939F93AF93BF93EF9346
:102A2000FF938BEB94E00E942814FF91EF91BF91EC
:102A3000AF919F918F917F916F915F914F913F9156
:102A40002F910F900FBE0F901F9018951F920F920D
:102A50000FB60F9211242F938F939F93EF93FF93B1
:102A6000E091CB04F091CC048081E091D104F0910D
:102A7000D20482FD12C090818091D4048F5F8F7345
:102A80002091D504821751F0E091D404F0E0E55490
:102A9000FB4F958F8093D40401C08081FF91EF910B
:102AA0009F918F912F910F900FBE0F901F901895AF
:102AB000CF93DF9390E0FC01E751FB4F2491FC01A1
:102AC000EB52FB4F8491882361F190E0880F991FAE
:102AD000FC01E755FB4FC591D491FC01E553FB4F39
:102AE000A591B491611109C09FB7F8948881209590
:102AF00082238883EC912E230BC0623061F49FB750
:102B0000F8943881822F809583238883EC912E2B33
:102B10002C939FBF06C08FB7F894E8812E2B288393
:102B20008FBFDF91CF9108952F923F924F925F9286
:102B30006F927F928F929F92AF92BF92CF92DF92CD
:102B4000EF92FF920F931F93CF93DF9300D000D0AB
:102B5000CDB7DEB79C838B83562E472E1901DC013F
:102B600015968C91813009F09DC05A01612C712C11
:102B7000C30163E070E00E940637ACE0A69FC0018D
:102B8000A79F900D1124F101E80FF91FFA83E98343
:102B9000C52CD42C812C912CC40163E070E00E94E0
:102BA0000637E981FA81E60FF71FE4918E2F90E056
:102BB0008F30910508F05FC0FC01E05BFF4F0C9483
:102BC0001A3708EAE02E01E3F02E3AC014E0E12EB5
:102BD00011E2F12E44C0BAE8EB2EB6E6FB2E30C06F
:102BE000A6ECEA2EA4E4FA2E3AC0F2E8EF2EF3E2C5
:102BF000FF2E26C0E8EAEE2EE3EAFE2E30C075E096
:102C0000E72E7AE7F72E1CC064E8E62E69E5F62E7B
:102C100026C05CE4E52EFF24FA9412C043E2E42EC1
:102C20004DEDF42E1CC0EE24EA94FE2C09C02BEFCF
:102C3000E22E2EEDF22E13C098E1E92E95E8F92E42
:102C400003E010E023E030E0A501B601EB81FC8158
:102C5000808191810EC080E1E82E83E4F82E03E0AC
:102C600010E023E030E0A501B601AB81BC818D917D
:102C70009C910E943310B3E08B0E911CE3E0CE0ECA
:102C8000D11CF1E28F16910409F086CF23E0620E89
:102C9000711C33E0A30EB11C88E16816710409F0C1
:102CA00067CF9EC0823009F09BC05A01612C712C05
:102CB000C30163E070E00E940637ECE0E69FC001CC
:102CC000E79F900D11249101280F391F3A83298322
:102CD000C52CD42C812C912CC40163E070E00E949F
:102CE0000637E981FA81E60FF71FE4918E2F90E015
:102CF0008F30910508F05EC0FC01E15AFF4F0C9443
:102D00001A3708EAE02E01E3F02E39C014E0E12E74
:102D100011E2F12E43C0B8ECEB2EB9EEFB2E2FC022
:102D2000A3E8EA2EA0EBFA2E39C0E12CF0E8FF2E42
:102D300026C0E8EAEE2EE3EAFE2E30C075E0E72E6C
:102D40007AE7F72E1CC064E8E62E69E5F62E26C069
:102D50005CE4E52EFF24FA9412C043E2E42E4DED2C
:102D6000F42E1CC0EE24EA94FE2C09C02BEFE22EB8
:102D70002EEDF22E13C098E1E92E95E8F92E03E02E
:102D800010E023E030E0A501B601AB81BC818D915C
:102D90009C910EC080E1E82E83E4F82E03E010E061
:102DA00023E030E0A501B601EB81FC8180819181B7
:102DB0000E943310F3E08F0E911C23E0C20ED11C51
:102DC00031E28316910409F087CF83E0680E711C0D
:102DD000A3E0AA0EB11CB8E16B16710409F068CF2C
:102DE0000F900F900F900F90DF91CF911F910F9147
:102DF000FF90EF90DF90CF90BF90AF909F908F901B
:102E00007F906F905F904F903F902F9008955F92CA
:102E10006F927F928F929F92AF92BF92CF92DF92EA
:102E2000EF92FF920F931F93CF93DF93EC013B013F
:102E300069018D81813009F056C07A01A12CB12C35
:102E400046018A0C9B1C83019BE0592EF401E50D81
:102E5000F11DE4918E2F90E0FC013197EE30F105E9
:102E600080F5E259FF4F0C941A3724E031E223C079
:102E70002AE836E620C026EC34E41DC022E833E21E
:102E80001AC028EA33EA17C025E03AE714C024E85C
:102E900039E511C02CE43FEF0EC023E23DED0BC03D
:102EA0002FEF3FEF08C02BEF3EED05C028E135E8DE
:102EB00002C020E133E4A701B801888199810E9412
:102EC000A6105A940F5F1F4F8FEF5812BFCF8CE0A0
:102ED000A80EB11C8FEFE81AF80A80E6A816B10414
:102EE00009F0AECF58C0823009F055C07A01A12C4C
:102EF000B12C46018A0C9B1C83018BE0582EF401F7
:102F0000E50DF11DE4918E2F90E0FC013197EE303C
:102F1000F10580F5E458FF4F0C941A3724E031E2B4
:102F200023C028EC39EE20C023E830EB1DC020E0A0
:102F300030E81AC028EA33EA17C025E03AE714C09F
:102F400024E839E511C02CE43FEF0EC023E23DED4B
:102F50000BC02FEF3FEF08C02BEF3EED05C028E17F
:102F600035E802C020E133E4A701B80188819981E6
:102F70000E94A6105A940F5F1F4F8FEF5812BFCFB9
:102F80008CE0A80EB11C8FEFE81AF80A80E6A816AC
:102F9000B10409F0AECFDF91CF911F910F91FF9057
:102FA000EF90DF90CF90BF90AF909F908F907F90E9
:102FB0006F905F900895CF93C62F81E080934E0469
:102FC00082E58093BA0410924F0410927004642F2B
:102FD00088E595E00E946D236C2F88E595E00E94BE
:102FE0006D2380917004813208F045C09091970460
:102FF0009111FCCF92E09093970491E09093960406
:103000009FEF909395041092940480939304A0E50D
:10301000B4E021E734E0F9019E2F921B981718F4D1
:103020009D919193F9CF1092920480919204846AB9
:103030008093920480919104813061F41092910404
:10304000809192048093BB008091BC0083FDF8CFF7
:1030500085EC01C085EE8093BC008091970482309E
:10306000E1F3809195048F3F31F080919504803297
:1030700011F08091950410924F04109270041092F8
:103080004E048FE39CE90197F1F700C00000CF9157
:103090000895CF92DF92FF920F931F93CF93DF9308
:1030A000CDB7DEB72C970FB6F894DEBF0FBECDBFFD
:1030B0008C01809197048111FCCF81E0809397046B
:1030C000809396049FEF909395041092940495E05A
:1030D000909393048093920480919204846A8093E5
:1030E000920480919104813061F410929104809156
:1030F00092048093BB008091BC0083FDF8CF85ECE7
:1031000001C085EE8093BC00809197048130E1F38B
:1031100080919404863018F4F090940402C036E054
:10312000F32EA1E7B4E028E934E0F9018E2F821BE9
:103130008F1518F48D918193F9CF1092B804F09205
:10314000B904CE0101966C018091B804F81649F0DB
:1031500088E595E00E942123F601819391936F0108
:10316000F3CF8981F80180838B8181838B859C8556
:103170009C0121703327F1E02F27F80125839695D4
:103180008795F1E08F278170F801848340E060E04B
:10319000C8010E94DB17F801208130E0828190E0B5
:1031A000A901481B590B4C34510514F082E007C0AB
:1031B000821B930B8C34910524F081E0F801868307
:1031C00002C0F8011682F801218130E0838190E08D
:1031D000A901481B590B4C34510514F083E007C07A
:1031E000821B930B8C3491051CF084E0F8018683DC
:1031F000F80186812C960FB6F894DEBF0FBECDBFC6
:10320000DF91CF911F910F91FF90DF90CF900895A4
:10321000CF93DF93EC011E821092B8041092B90490
:1032200010924F04109270041092970481E08093E2
:1032300096041092910482E10E94992283E10E94F7
:103240009922E9EBF0E080818E7F808380818D7F01
:10325000808388E48093B80085E48093BC0040EFCD
:1032600065E5CE010E94DB174BEF60E0CE010E94C6
:10327000DB172FEF81EE94E0215080409040E1F782
:1032800000C00000CE010E944918CE010E944918DA
:1032900088818A8389818B83DF91CF910895CF9232
:1032A000EF92FF920F931F93CF93DF93EC018881EE
:1032B00099810E94AD0F8B35910544F088819981E9
:1032C0000E94AD0F823891050CF464C08881998109
:1032D0000E94AD0F8D3891050CF4AEC088819981A4
:1032E0000E94AD0F843B91050CF0A6C008EA11E3E3
:1032F00028EC30E04AE550E06CE370E08881998189
:103300000E947A1F32E0C32E48EAE42E41E3F42EF5
:103310000AEC12EC25E733E049E650E060E570E0A6
:10332000888199810E94F50F28EC30E04CE850E04C
:103330006CE370E0888199810E947A1F5AECE52E37
:1033400052ECF52E08EA11E320E833E04BE950E0B7
:1033500060E570E0888199810E94F50F28EC30E0EB
:103360004EEB50E06CE370E0888199810E947A1FF7
:1033700068EAE62E61E3F62E0AEC12EC2BE833E065
:103380004DEC50E060E570E0888199810E94F50F76
:1033900085E0B3C00AEC12EC28EC30E04AE550E0DE
:1033A0006CE370E0888199810E947A1F72E0C72ED9
:1033B000EAECEE2EE2ECFE2E08EA11E325E733E01C
:1033C00049E650E060E570E0888199810E94F50F40
:1033D00028EC30E04CE850E06CE370E088819981A3
:1033E0000E947A1FF8EAEF2EF1E3FF2E0AEC12ECAE
:1033F00020E833E04BE950E060E570E08881998196
:103400000E94F50F08EA11E328EC30E04EEB50E0A3
:103410006CE370E0888199810E947A1F0AEC12ECBB
:103420002BE833E04DEC50E060E570E08881998155
:103430000E94F50F81E061C0888199810E94AD0FE3
:103440008F3B91050CF45AC0888199810E94AD0F81
:10345000863E91050CF052C008EA11E328EC30E0FA
:103460004AE550E06CE370E0888199810E947A1F00
:1034700082E0C82E98EAE92E91E3F92E0AEC12ECCC
:1034800025E733E049E650E060E570E08881998106
:103490000E94F50F08EA11E328EC30E04CE850E018
:1034A0006CE370E0888199810E947A1F0AEC12EC2B
:1034B00020E833E04BE950E060E570E088819981D5
:1034C0000E94F50F28EC30E04EEB50E06CE370E02A
:1034D000888199810E947A1F2AECE22E22ECF22E3A
:1034E00008EA11E32BE833E04DEC50E060E570E0D2
:1034F000888199810E94F50F82E08C83DF91CF91C2
:103500001F910F91FF90EF90CF900895CF9320E0FF
:1035100030E0DB01A20FB31F40E050E0CD91FA0193
:10352000E20FF31FE80FF91FC0834F5F5F4F4B306F
:103530005105A1F7255F3F4F2336310551F7CF9154
:103540000895862F5F982B9A2D989CB59F7B9CBDE4
:103550002D9A9CB590649CBD0E94EB0E5F9A0895D5
:10356000CF93DF931F92CDB7DEB7872F5F982B9A4B
:103570002D989CB59F7B9CBD2D9A9CB590649CBD5D
:1035800069830E94EB0E2B9A2D989CB59F7B9CBD66
:103590002D9A9CB590649CBD6981862F0E94EB0E8C
:1035A0005F9A0F90DF91CF910895862F5F982B98A7
:1035B0002D989CB59F7B9CBD2D9A9CB590649CBD1D
:1035C0000E94EB0E5F9A08952F923F924F925F9266
:1035D0006F927F928F929F92AF92BF92CF92DF9223
:1035E000EF92FF920F931F93CF93DF93CDB7DEB788
:1035F000C656D1090FB6F894DEBF0FBECDBF1C0171
:1036000088E1E8E2F3E0DE01599601900D928A9597
:10361000E1F7D10114960D90BC91A02DA796BFAFF4
:10362000AEAFA797D101ED91FC910480F581E02D1B
:1036300060E070E0C10109956FEF7FEFC1010E946A
:103640009C23F1014085518557FF02C04F5F5F4FBA
:10365000559547954A505109D10116966D917C9127
:10366000179777FF02C06F5F7F4F7595679562531D
:1036700071092FEB34E0C1010E943F1FC1010E947C
:10368000F20E8111FBCFFE017996FEAFEDAF1AAEBF
:1036900019AE89AD9AAD039709F4E9C0ADADBEADE1
:1036A00014968D909C9015974D905C9000E010E0E2
:1036B00022E030E0A401B201C1010E94E41025E043
:1036C00030E0A401B201C1010E94E41000E018EF53
:1036D0002AE030E0A401B201C1010E94E410C1015E
:1036E0000E94F20E8823A9F2EEEFFFEFFEABEDABE6
:1036F000C12CD12C42E0A42EB12CA601480D591D9D
:10370000E12C38EFF32E8A0132016A0C7B1C930105
:10371000C2018A199B099AAB89ABBC01C1010E9405
:103720008B11A4014C195D098A01930169A97AA939
:10373000C1010E948B113601640C751CD201AC19B9
:10374000BD09BAABA9ABA4014A0D5B1D8A01930167
:10375000BD01C1010E948B11A4014A195B098A01B4
:10376000930169A97AA9C1010E948B11C601019632
:10377000EDA9FEA9CE0EDF1E9601280F391F3EAB24
:103780002DAB2F3F4FEF340759F051E0A51AB10888
:103790006901CA18DB08D601AA19BB09BEABADABDB
:1037A0006C01A816B9060CF0A8CFE9ADFAAD23E07C
:1037B000EE0FFF1F2A95E1F721E030E02C0F3D1FAF
:1037C000E20FF31FD10150968D919C915197092ED4
:1037D000000CAA0BBB0B80839183A283B383D1011E
:1037E00052968D919C915397092E000CAA0BBB0BFE
:1037F00084839583A683B783BFEFE1EEF4E0B150F5
:10380000E040F040E1F700C000006FEF7FEFC10142
:103810000E949C2329AD2230E9F0D10118964D91E8
:103820005C91199757FF02C04F5F5F4F55954795C1
:103830004A505109F1016681778177FF02C06F5FBD
:103840007F4F759567956253710923EB34E0C10191
:103850000E943F1F29AD3AAD2F5F3F4F3AAF29AFCE
:103860004DAD5EAD485F5F4F5EAF4DAF12CF29816A
:103870003A814B815C8129AF3AAF4BAF5CAF89890C
:103880009A89AB89BC898DAB9EABAFABB8AF281B17
:10389000390B4A0B5B0B25962CAF3DAF4EAF5FAF9C
:1038A00025972D853E854F85588965962CAF3DAF70
:1038B0004EAF5FAF65978D899E89AF89B88D219690
:1038C0008CAF9DAFAEAFBFAF2197281B390B4A0B12
:1038D0005B0B69962CAF3DAF4EAF5FAF6997298503
:1038E0003A854B855C8529AB3AAB4BAB5CAB8DA97C
:1038F0009EA9AFA9B8AD281B390B4A0B5B0B6D967F
:103900002CAF3DAF4EAF5FAF6D972D813E814F81A4
:103910005885A1962CAF3DAF4EAF5FAFA1972196D2
:103920008CAD9DADAEADBFAD2197281B390B4A0BB9
:103930005B0BA5962CAF3DAF4EAF5FAFA5976996D9
:103940002CAD3DAD4EAD5FAD699725966CAD7DADAF
:103950008EAD9FAD25970E94F6366B017C01A59632
:103960002CAD3DAD4EAD5FADA5976D966CAD7DAD0B
:103970008EAD9FAD6D970E94F636C61AD70AE80A3B
:10398000F90AD101D096CD92DD92ED92FC92D397B7
:10399000CD28CE28CF2809F4CCC1298D3A8D4B8D66
:1039A0005C8D29962CAF3DAF4EAF5FAF2997C9A470
:1039B000DAA4EBA4FCA429013A014C185D086E08B6
:1039C0007F0889A19AA1ABA1BCA12D968CAF9DAF18
:1039D000AEAFBFAF2D978C199D09AE09BF09619697
:1039E0008CAF9DAFAEAFBFAF6197A3019201699657
:1039F0006CAD7DAD8EAD9FAD69970E94F6364B01E3
:103A00005C0161962CAD3DAD4EAD5FAD6197A59665
:103A10006CAD7DAD8EAD9FADA5970E94F636861A32
:103A2000970AA80AB90AD10158968D929D92AD9233
:103A3000BC925B9725966CAD7DAD8EAD9FAD259705
:103A40000E94F6364B015C01A30192016D966CADAC
:103A50007DAD8EAD9FAD6D970E94F636861A970AA2
:103A6000A80AB90AF101848E958EA68EB78EA70199
:103A7000960169AD7AAD8BAD9CAD0E94F6364B01D7
:103A80005C0129962CAD3DAD4EAD5FAD29976DA97A
:103A90007EA98FA998AD0E94F636A5019401261B38
:103AA000370B480B590B65966CAD7DAD8EAD9FAD58
:103AB00065970E94F6362B013C012D962CAD3DAD4D
:103AC0004EAD5FAD2D976DA97EA98FA998AD0E94CF
:103AD000F6364B015C01A701960169A97AA98BA969
:103AE0009CA90E94F636A5019401261B370B480BB2
:103AF000590BA1966CAD7DAD8EAD9FADA1970E9487
:103B0000F636460E571E681E791E29962CAD3DAD21
:103B10004EAD5FAD299769A97AA98BA99CA90E948E
:103B2000F6366B017C012D962CAD3DAD4EAD5FADF3
:103B30002D9769AD7AAD8BAD9CAD0E94F636A7018D
:103B40009601261B370B480B590B21966CAD7DADAA
:103B50008EAD9FAD21970E94F636460E571E681E09
:103B6000791E40A251A262A273A22D8D3E8D4F8D6F
:103B700058A129962CAF3DAF4EAF5FAF29978DA4CA
:103B80009EA4AFA4B8A869017A01C818D908EA08A8
:103B9000FB088DA19EA1AFA1B8A52D968CAF9DAFBE
:103BA000AEAFBFAF2D9788199909AA09BB096196D5
:103BB0008CAF9DAFAEAFBFAF6197A701960169967D
:103BC0006CAD7DAD8EAD9FAD69970E94F6362B0131
:103BD0003C0161962CAD3DAD4EAD5FAD6197A596B4
:103BE0006CAD7DAD8EAD9FADA5970E94F636461AA1
:103BF000570A680A790A44A255A266A277A22596B6
:103C00006CAD7DAD8EAD9FAD25970E94F6362B0134
:103C10003C01A70196016D966CAD7DAD8EAD9FAD5B
:103C20006D970E94F636461A570A680A790A40A626
:103C300051A662A673A6A501940169AD7AAD8BADBC
:103C40009CAD0E94F6366B017C0129962CAD3DADF2
:103C50004EAD5FAD29976DA97EA98FA998AD0E9441
:103C6000F636A7019601261B370B480B590B6596B4
:103C70006CAD7DAD8EAD9FAD65970E94F6362B0184
:103C80003C012D962CAD3DAD4EAD5FAD2D976DA990
:103C90007EA98FA998AD0E94F6366B017C01A50123
:103CA000940169A97AA98BA99CA90E94F636A7015B
:103CB0009601261B370B480B590BA1966CAD7DADB9
:103CC0008EAD9FADA1970E94F636460E571E681E18
:103CD000791E29962CAD3DAD4EAD5FAD299769A9F2
:103CE0007AA98BA99CA90E94F6366B017C012D96BE
:103CF0002CAD3DAD4EAD5FAD2D9769AD7AAD8BADC1
:103D00009CAD0E94F636A7019601261B370B480B87
:103D1000590B21966CAD7DAD8EAD9FAD21970E9464
:103D2000F636460E571E681E791E44A655A666A690
:103D300077A6D101ED91FC910480F581E02DA79645
:103D40006EAD7FADA797C1010995C1010E94F20E2A
:103D50008111FBCFCA59DF4F0FB6F894DEBF0FBEFB
:103D6000CDBFDF91CF911F910F91FF90EF90DF902A
:103D7000CF90BF90AF909F908F907F906F905F900B
:103D80004F903F902F900895EBEBF4E0A089B1891C
:103D900082E08C93A485B5851C92A685B7858FECAF
:103DA0008C93108EA489B58986E08C93A289B389FF
:103DB0008C9180618C93A289B3898C9188608C935B
:103DC000A289B3898C9180688C930288F389E02D55
:103DD00080818F7D80830895009769F0FC010190B8
:103DE0000020E9F73197AF01481B590BBC018BEB61
:103DF00094E00C94CF1380E090E008958F929F920E
:103E0000AF92BF920F931F93CF93DF93CDB7DEB7DF
:103E1000A1970FB6F894DEBF0FBECDBF19A24230F6
:103E200008F44AE08E010F5D1F4F842E912CA12CC7
:103E3000B12CA50194010E940E3AE62FB901CA01E6
:103E400001501109EA3014F4E05D01C0E95CD801C9
:103E5000EC93232B242B252B61F7C8010E94EC1E29
:103E6000A1960FB6F894DEBF0FBECDBFDF91CF9104
:103E70001F910F91BF90AF909F908F9008958F9258
:103E80009F92AF92BF92CF92EF92FF920F931F93A8
:103E9000CF93DF935C014A01F9019491E9019923E1
:103EA000E1F0D501ED91FC910684F785E02DCC245D
:103EB000C394EE24EA94FE2C00E010E0292FA40124
:103EC000C5010995BC012196F50186819781861768
:103ED00097071CF0FE019491E2CFCB01DF91CF91C7
:103EE0001F910F91FF90EF90CF90BF90AF909F9058
:103EF0008F9008952F923F924F925F926F927F9290
:103F00008F929F92AF92BF92CF92DF92EF92FF92E9
:103F10000F931F93CF93DF93CDB7DEB768970FB69C
:103F2000F894DEBF0FBECDBF988F8F8B3B015A0137
:103F300068014B01820E931EAB01465F5F4F5E83AB
:103F40004D8326513109655F7F4F780108E210E00B
:103F5000A5010E943310B501665F7F4F7A8769879C
:103F600004E110E02BE030E0AB01B3018F89988DC4
:103F70000E94331014017BE0271A31082BE030E057
:103F800049855A85B1018F89988D0E943310C501EA
:103F90004D96988B8F87E985FA85FA83E98326EF1A
:103FA0003FEF38872F832AE0422E512C1C821B8240
:103FB000A3014A195B095A8B498B3C8A2B8A9E8B39
:103FC0008D8B760109811A812D813E81A801B9016D
:103FD000641975097C876B878F89988D0E948B1176
:103FE00089849A848418950884012D813E81A401D6
:103FF00089899A89E981FA818E0F9F1F9E878D8713
:10400000BC018F89988D0E948B1109811A819101C1
:10401000A8015101A40CB51CB5018F89988D0E948F
:104020008B116B887C882B813C81620E731E84010E
:104030009101A401B3018F89988D0E948B118D8805
:104040009E884B815C81840E951E84019101A401A0
:10405000B5018F89988D0E948B11AF84B888A40C0C
:10406000B51C85019101A501B3018F89988D0E942E
:104070008B1184012D813E81A4016B857C858F8904
:10408000988D0E948B1185012D813E81A5016D8542
:104090007E858F89988D0E948B118B819C810196E2
:1040A0002F8138856B817C81260F371FF901E80F3E
:1040B000F91FF887EF83F7FD0CC0F1E04F1A5108A4
:1040C0002F81388524193509A901441955095887C4
:1040D0004F8369817A81615071097A8369839C83F6
:1040E0008B83481659060CF06CCF68960FB6F8947F
:1040F000DEBF0FBECDBFDF91CF911F910F91FF901B
:10410000EF90DF90CF90BF90AF909F908F907F9077
:104110006F905F904F903F902F9008954F925F92D5
:104120006F927F928F929F92AF92BF92CF92DF92C7
:10413000EF92FF920F931F93CF93DF93CDB7DEB72C
:1041400061970FB6F894DEBF0FBECDBF5C014B0187
:104150003A01C90127017601402F50E0BE016F5F8F
:104160007F4F0E945A3982E0C82E82019E012F5F44
:104170003F4FA301B401C5010E94F50F61960FB630
:10418000F894DEBF0FBECDBFDF91CF911F910F918D
:10419000FF90EF90DF90CF90BF90AF909F908F9067
:1041A0007F906F905F904F9008956F927F928F9263
:1041B0009F92AF92BF92CF92EF92FF920F931F9375
:1041C000CF93DF93CDB7DEB761970FB6F894DEBF1C
:1041D0000FBECDBF5C014B013A01C9014AE0BE01EF
:1041E0006F5F7F4F0E944F399E012F5F3F4FA301AA
:1041F000B401C5010E94F50F61960FB6F894DEBFB9
:104200000FBECDBFDF91CF911F910F91FF90EF9027
:10421000CF90BF90AF909F908F907F906F900895B8
:104220006F927F928F929F92AF92BF92CF92DF92C6
:10423000EF92FF920F931F93CF93DF93EC016B01EB
:104240005A01390148018AECE82E82ECF82E21E06F
:1042500030E0CE010E943310A501480D591D415098
:10426000510901E010E09301B601CE010E94331024
:10427000B601660D771D61507109840121E030E0BF
:10428000A501CE010E94331001E010E09301A501C9
:10429000B601CE010E943310DF91CF911F910F9193
:1042A000FF90EF90DF90CF90BF90AF909F908F9056
:1042B0007F906F9008952F923F924F925F926F92EE
:1042C0007F928F929F92AF92BF92CF92EF92FF9286
:1042D0000F931F93CF93DF935C013B014A012901A8
:1042E000C0E0D0E088E290E0F40124813581C2177B
:1042F000D30740F5D501ED91FC9126843784F40174
:10430000A081B181109729F410926805A8E6B5E064
:1043100002C0AC0FBD1F22E0C22E31E1E32E34E714
:10432000F32E82012C91A301BC01C501F101099575
:10433000D50116962D913C9117972817390714F03F
:104340002196D2CFDF91CF911F910F91FF90EF90E7
:10435000CF90BF90AF909F908F907F906F905F9025
:104360004F903F902F900895CF92DF92EF92FF925F
:104370000F931F93CF93DF93EC0111E01D831A83FA
:1043800081E5C82E87E0D82E91EBE92E97E0F92E33
:104390000B8121E0CE010E948A098A81882311F0D5
:1043A0001A8201C01A838B81882311F01B8202C0FC
:1043B00081E08B83DF91CF911F910F91FF90EF9060
:1043C000DF90CF900895CF92DF92EF92FF920F93FC
:1043D0001F93CF93DF93EC0111E01D8381E9C82E79
:1043E00086E0D82E91EFE92E96E0F92E0B812A81F6
:1043F000CE010E948A098A81882311F01A8201C0A5
:104400001A838B81882311F01B8202C081E08B8389
:10441000DF91CF911F910F91FF90EF90DF90CF90A0
:104420000895CF92DF92EF92FF920F931F93CF9355
:10443000DF93EC0111E01D831A821B828C8188239B
:1044400079F021E7C22E25E0D22E31E3E32E36E0CB
:10445000F32E00E020E0CE010E948A091C820EC0EB
:1044600081EDC82E85E0D82E91E3E92E96E0F92E55
:1044700000E020E0CE010E948A091C83DF91CF91E9
:104480001F910F91FF90EF90DF90CF900895CF9202
:10449000DF92EF92FF920F931F93CF93DF93EC0184
:1044A00011E01D831A831B838C81882379F021E717
:1044B000C22E25E0D22E31E3E32E36E0F32E01E0CA
:1044C00021E0CE010E948A091C820EC081EDC82E17
:1044D00085E0D82E91E3E92E96E0F92E01E021E067
:1044E000CE010E948A091C83DF91CF911F910F9109
:1044F000FF90EF90DF90CF900895CF92DF92EF92F0
:10450000FF920F9321E0FC0125831282138221E1A7
:10451000C22E25E0D22E31EBE32E37E0F32E00E061
:1045200020E00E948A090F91FF90EF90DF90CF90DA
:10453000089590E0FC01E350FB4F2491FC01E7510A
:10454000FB4F3491FC01EB52FB4FE491EE23B1F1B0
:10455000222339F1233091F038F42130A9F02230B0
:1045600001F584B58F7D12C0273091F02830A1F07D
:104570002430B9F4809180008F7D03C08091800049
:104580008F77809380000DC084B58F7784BD09C07C
:104590008091B0008F7703C08091B0008F7D8093B1
:1045A000B000F0E0EE0FFF1FE553FB4FA591B49173
:1045B0008FB7F894EC913E2B3C938FBF089585ED17
:1045C0008093BC008091BC0084FDFCCF10929704C6
:1045D000089540918D05262F30E0240F311D2132A2
:1045E0003105DCF4209197042430C9F4FC0180E00B
:1045F00090E0861758F430918D052191DC01A55982
:10460000BA4FA30FB11D2C930196F3CF80918D0566
:10461000680F60938D0580E0089581E0089582E041
:1046200008950895E091B8048091B904E81730F432
:10463000F0E0E856FB4F808190E008958FEF9FEF08
:1046400008959091B8048091B904981750F4E92F17
:10465000F0E0E856FB4F208130E09F5F9093B80474
:1046600002C02FEF3FEFC90108958091B90490E097
:104670002091B804821B91090895CF92DF92EF92A6
:10468000FF920F931F93CF93DF937C01262F972FD9
:104690008A0180914E04882391F0C62FD72F6E0196
:1046A000C40ED51ECC15DD0571F06991D701ED91D1
:1046B000FC910190F081E02DC7010995F3CF642FA3
:1046C000822F0E94E922C801DF91CF911F910F91A3
:1046D000FF90EF90DF90CF900895CF93DF931F92DC
:1046E000CDB7DEB7698320914E042223D1F020910B
:1046F0007004203240F021E030E0FC01338322835B
:1047000080E090E015C080914F04E82FF0E0E05B7E
:10471000FB4F998190838F5F80934F048093700447
:1047200005C061E0CE0101960E94E92281E090E09F
:104730000F90DF91CF9108958F929F92AF92BF9289
:10474000EF92FF920F931F93CF93DF93EC017B01C6
:10475000E881F98108851985015011092E813F8171
:10476000215031090680F781E02D40E050E060E003
:1047700070E00995E881F9810084F185E02DCE0192
:104780000995AE81BF81288539850E9420374B016C
:104790005C0183E0B694A794979487948A95D1F7A7
:1047A000E881F98181149104A104B10409F444C0A1
:1047B0000284F385E02DB701CE010995E881F981E6
:1047C0000284F385E02DB701CE010995E881F981D6
:1047D0000284F385E02DB701CE010995E881F981C6
:1047E0000284F385E02DB701CE010995E881F981B6
:1047F0000284F385E02DB701CE010995E881F981A6
:104800000284F385E02DB701CE010995E881F98195
:104810000284F385E02DB701CE010995E881F98185
:104820000284F385E02DB701CE01099581E0881A55
:104830009108A108B108B4CF0484F585E02DCE011C
:10484000DF91CF911F910F91FF90EF90BF90AF90AC
:104850009F908F9009941F920F920FB60F92112480
:104860002F933F934F935F936F937F938F939F9378
:10487000AF93BF93EF93FF938091B900887F803609
:1048800009F49CC068F5883209F45BC090F480316B
:1048900009F454C038F4882309F4F6C0883009F4C8
:1048A0004DC0F6C0883109F44CC0803209F45DC0B7
:1048B000EFC0803409F468C048F4803309F455C06F
:1048C000883309F0E5C080939504D8C0803509F499
:1048D0004FC0883509F45DC0883409F0D9C0D6C00E
:1048E000883909F4C7C0A8F4883709F467C038F4D8
:1048F000883609F463C0803709F460C0C9C08838BD
:1049000009F4B8C0803909F45FC0803809F0C0C02C
:104910005BC0803B09F486C038F4803A09F466C075
:10492000883A09F47FC0B4C0803C09F4A7C0883C31
:1049300009F4A4C0883B09F48AC0AAC080919204FB
:1049400010C09091940480919304981770F5E091B1
:10495000940481E08E0F80939404F0E0EF58FB4FB5
:1049600080818093BB0085EC86C0809395048EC0C7
:10497000E091940481E08E0F809394048091BB00B9
:10498000F0E0EF58FB4F8083909194048091930462
:104990006EC0E091940481E08E0F80939404809126
:1049A000BB00F0E0EF58FB4F8083809196048111AB
:1049B0006DC081E08093910484EA61C083E08093BC
:1049C00097041092B105CFCF8091B105803208F0E5
:1049D00051C0E091B10581E08E0F8093B1058091C7
:1049E000BB00F0E0EF56FA4F8083BDCF85EC80939B
:1049F000BC00109297048091B105803230F4E091B0
:104A0000B105F0E0EF56FA4F10826091B10570E009
:104A1000E0918F05F091900581E995E0099510925C
:104A2000B10536C084E08093970410928E051092F1
:104A30008D05E0918B05F0918C05099580918D0590
:104A4000811105C081E080938D0510926B05E09186
:104A50008E0581E08E0F80938E05F0E0E559FA4FC8
:104A600080818093BB0090918E0580918D05981771
:104A700008F479CF85E88093BC000AC085EC809368
:104A8000BC001092970404C0109295040E94DF228B
:104A9000FF91EF91BF91AF919F918F917F916F9116
:104AA0005F914F913F912F910F900FBE0F901F90EC
:104AB00018951F920F920FB60F9211242F933F93C8
:104AC0004F935F936F937F938F939F93AF93BF9316
:104AD000EF93FF938091C801823021F48091C80147
:104AE0008F5F15C08091C8018430A1F480916A0560
:104AF0008F5F823019F080936A0508C010926A05B2
:104B00008091C701813011F48093690581E0809321
:104B1000C80114C085E194E00E94EC1E88E693E091
:104B20000E94EC1E6091C80170E080E090E04AE0D5
:104B30000E94FE1E88E693E00E94EC1EFF91EF911A
:104B4000BF91AF919F918F917F916F915F914F91A5
:104B50003F912F910F900FBE0F901F901895CF93FC
:104B6000DF93CDB7DEB7C354D1090FB6F894DEBFDB
:104B70000FBECDBFE0916605F091670517821382E5
:104B800015821482128A0E94C41EA0916605B091FB
:104B9000670518968C911897FD01E80FF11DE80F35
:104BA000F11D2FEF30E03387228791E0980F1896A0
:104BB0009C931897943011F418968C9381E490E0AC
:104BC0000E944337FC01138212821582148280E412
:104BD00091E09783868380EF90E0918780871786A6
:104BE00016861586148613861286178A168A158AE3
:104BF000148A138A128A118A108A10AA11AA12AA78
:104C000013AA81E084AB85AB17AA16AA8FEF9FEF9A
:104C100091AF80AF17AE16AE15AE14AE13AE12AE96
:104C200082EE91E091838083F0934C04E0934B04F7
:104C300087E090E00E9443378C010E94081910938E
:104C40004A040093490486E090E00E944337FC0147
:104C500080914B0490914C041282138214829183B0
:104C60008083F0934804E09347040E94250EC0908F
:104C70004B04D0904C040E94C41ED6011E968D9108
:104C80009C911F978601085E1F4F892B09F580E0D4
:104C900090E00E948F398A3AD9F4C12CD12CBFEF11
:104CA000CB1ADB0AC6010E948F39F80181938F016C
:104CB000FCE1CF16D10499F74AE06CE170E080E0A6
:104CC00090E00E94FE1E88E693E00E94EC1EECC17C
:104CD000C6010E94E41A6AEA80E090E00E949739D7
:104CE000CC24C394D12CD8016D918D01C6010E94B2
:104CF0009739BFEFCB1ADB0AEDE1CE16D10499F755
:104D0000DBCFFE0135963F016F010EE110E0C801D7
:104D10000E948F398F3FF1F0F60134978083C801EC
:104D200001960E948F39F60133978083C80102965D
:104D30000E948F39F60132978083C80103960E9442
:104D40008F39F60131978083C80104960E948F390C
:104D5000D6018C930B5F1F4FB5E0CB0ED11C0035F5
:104D60001105A9F6CE0104968E01095C1F4FFE01C4
:104D70003596FCABEBAB1E01FCE32F0E311C6BA98F
:104D80007CA9DC018C90912C982C8824FB0120813B
:104D9000820E911C3596FCABEBABDF01FE90AD01B2
:104DA0002F2D30E0322F2227D0802D0D311D82167D
:104DB000930660F4DC013C91DB012C91DC01FC9258
:104DC000F080DB01FC92DA013C9320833596E215FA
:104DD000F30519F70596EBA9FCA9E017F10779F699
:104DE00061E174E7C5010E949C2388EAE82E81E313
:104DF000F82E05EA10E026E331E045E050E065E0FA
:104E000070E0C5010E94331008EA11E32AEF30E098
:104E10004EEB50E063E270E0C5010E947A1F92E021
:104E2000C92E0AEC12EC26ED33E04DEC50E061E4C3
:104E300070E0C5010E94F50F23E0C22E25EF33E09C
:104E40004AE050E06DE270E0C5010E94F50F32E0EB
:104E5000C32E20E034E042E350E06AE070E0C50198
:104E60000E94F50F22E034E04BE450E06AE070E08D
:104E7000C5010E94F50F24E034E044E650E06AE00A
:104E800070E0C5010E94F50F26E034E04DE750E0E8
:104E90006AE070E0C5010E94F50F28E034E046E9C1
:104EA00050E06AE070E0C5010E94F50F2AE034E0AE
:104EB00042E350E065EA70E0C5010E94F50F2CE086
:104EC00034E04BE450E065EA70E0C5010E94F50F64
:104ED0002EE034E044E650E065EA70E0C5010E944F
:104EE000F50F20E134E04DE750E065EA70E0C501E0
:104EF0000E94F50F22E134E046E950E06DE970E0F0
:104F0000C5010E94F50F42E3842E912CF3013497E2
:104F100020812F3F09F448C033962080312C322C59
:104F20002224D3018C91280E311CD501ED91FC91E6
:104F30000088F189E02DA2E0CA2EB8EAEB2EB1E399
:104F4000FB2E0AEC12ECA40163E270E0C5010995A6
:104F5000D501ED91FC910088F189E02DD3011397E3
:104F60002C91A40162E370E0C5010995D501ED9192
:104F7000FC910088F189E02DD30112972C91A401B6
:104F800061E470E0C501099518EAC12E11E3D12E44
:104F90000AECE02E02ECF02E0AE09101A4016AE591
:104FA00070E0C5010E948E20B5E06B0E711CE9E136
:104FB0008E0E911CFFEA8F16910409F0A7CF3E01D7
:104FC0002EE1620E711C72E3872E912CF30134974F
:104FD00020812F3F09F448C033962080312C322C99
:104FE0002224D3018C91280E311CD501ED91FC9126
:104FF0000088F189E02D32E0C32E48EAE42E41E337
:10500000F42E0AEC12ECA4016EEB70E0C5010995D8
:10501000D501ED91FC910088F189E02DD301139722
:105020002C91A4016DEC70E0C5010995D501ED91BD
:10503000FC910088F189E02DD30112972C91A401F5
:105040006CED70E0C501099558EAC52E51E3D52EE7
:105050006AECE62E62ECF62E0AE09101A40165EFFF
:1050600070E0C5010E948E20B5E06B0E711CE9E175
:105070008E0E911CFFEA8F16910409F0A7CFC5018F
:105080000E94F20ED5011E968D919C911F97892B3F
:1050900011F00C944133F2018281853081F38093C9
:1050A000C701C2010E94D8378091C7018111AEC0EB
:1050B00085E090E00E9443375C0180914B04909121
:1050C0004C04D50112961C92129721E013962C9352
:1050D000139714961C9214978D939C9361E174E737
:1050E0000E949C2363E0C62E71E1E72E74E7F72E41
:1050F0000AEC12EC2BE633E044E150E062E370E0AE
:10510000F501808191810E94F50F08EA11E328ECF6
:1051100030E04AE550E06CE370E0D5018D919C9160
:105120000E947A1FE2E0CE2EF8EAEF2EF1E3FF2E86
:105130000AEC12EC25E733E049E650E060E570E068
:10514000F501808191810E94F50F08EA11E328ECB6
:1051500030E04CE850E06CE370E0D5018D919C911B
:105160000E947A1F0AEC12EC20E833E04BE950E091
:1051700060E570E0F501808191810E94F50F08EAF9
:1051800011E328EC30E04EEB50E06CE370E0D50129
:105190008D919C910E947A1F0AEC12EC2BE833E06F
:1051A0004DEC50E060E570E0F501808191810E9456
:1051B000F50F8FE39CE90197F1F700C00000D501DE
:1051C0008D919C910E94F20EF50180819181DC010C
:1051D0001E962D913C911F97232B71F00E94D20FA8
:1051E000CD9754F0F501808191810E94D20F8430D7
:1051F000914014F40C946133D50114968C9188235A
:10520000C1F28093C701C5010E94D8378091C701C0
:10521000813009F0A7C58DE090E00E944337E3EDAF
:10522000F1E0DC0112962BE001900D922A95E1F756
:1052300029E0FC01208321833A9A399A3B9A909382
:105240004604809345048091C601813051F082303C
:1052500041F483E690E00E9443378C0160E071E006
:1052600007C083E690E00E9443378C0163E671E05B
:10527000C8010E94861A109344040093430489E1F4
:1052800090E00E9443379CAB8BAB80916605909178
:1052900067052091490430914A04A0904304B090DE
:1052A0004404ABA9BCA91396BC92AE92129743E0FA
:1052B000F42E1696FC92169754E0D52E1796DC9293
:1052C000179718961C9218971996FC92199742E214
:1052D00053E011965C934E9356963C932E935597BC
:1052E00058969C938E93579787E190E00E9443379E
:1052F0008C018091640590916505F801B382A282CA
:10530000F682D7821086F18628E133E0318320834C
:10531000968B858B8BE090E00E9443376C01209147
:1053200047043091480480914B0490914C04D6017D
:1053300012969C938E9311971496BC92AE921397EB
:10534000EBA9FCA91696FC93EE93159718961C935F
:105350000E9317971A963C932E931997E2E2F4E076
:105360001192119224E0E633F207D1F7D6011C9294
:1053700061E174E70E949C2328EAE22E21E3F22EE9
:1053800008ED10E028E031E04DE050E060E370E02F
:10539000F601818192810E9433101CAE1BAE2DE07C
:1053A00030E038AF2FAB5BAD5FAF1EAA1DAA30E374
:1053B000232E312CEBE0ABADBCADEA9FC001EB9FDF
:1053C000900D112422969FAF8EAF22972FA938AD52
:1053D0002C5F3F4F24963FAF2EAF2497D6011396F4
:1053E000ED91FC9114972296AEACBFAC22972DA9FB
:1053F0003EA9A20EB31EEA0DFB1D908032E093166B
:1054000009F48FC0391578F041E0941213C1D60128
:1054100019960D90BC91A02DBAAFA9AF8FA898ACEA
:10542000612C712C57C053E0951609F4DDC064E07F
:10543000961200C143E8E42E40EBF42E08E110E0A0
:1054400028E130E04FA958ADB101F6018181928188
:105450000E943310D6011796ED91FC911897BDA9C3
:10546000B2872FAD2387B687B78714861586948AAF
:10547000D8C0F201F595E7952DAD3EADE20FF31FD3
:10548000EC50FE4F80818230A1F508EAE02E01E366
:10549000F02E02E010E022E030E0A401B501E9AD19
:1054A000FAAD808191810E943310B2E04B0E511C05
:1054B000E2E0AE0EB11CF8E14F165104D1F622E045
:1054C000620E711C32E0830E911C48E16416710477
:1054D00009F4B0C0C301959587955101412C512C19
:1054E000ECE0E89FD001E99FB00D1124BEAFADAF55
:1054F000C0CF833039F08130C1F681E1E82E84E7F6
:10550000F82E04C014E0E12E11E2F12E02E010E0CA
:1055100022E030E0A401B501A9ADBAAD8D919C9116
:10552000C2CFD60119960D90BC91A02DBAAFA9AFEC
:105530008FA898AC612C712CC3019595879551016A
:10554000412C512CECE0E89FD001E99FB00D1124D3
:10555000BEAFADAFF201F595E7952DAD3EADE20FD3
:10556000F31FEC57FD4F8081813069F038F08230B5
:1055700029F56AECE62E62ECF62E14C0E8EAEE2E6F
:10558000E1E3FE2E0FC074E0E72E71E2F72E02E099
:1055900010E022E030E0A401B501E9ADFAAD808170
:1055A00091810AC002E010E022E030E0A401B501E0
:1055B000A9ADBAAD8D919C910E943310B2E04B0E13
:1055C000511CE2E0AE0EB11CF8E14F16510411F689
:1055D00022E0620E711C32E0830E911C48E16416D9
:1055E000710409F0A9CF26C024964EAD5FAD249773
:1055F000B1016A5F7F4FD60119968D919C911A97E0
:105600000E947D22D6011596ED91FC911697BDA9B9
:10561000B2872FAD2387B687B7871486158654E0E7
:10562000548BD60113968D919C911497FC01EA0D31
:10563000FB1D1082B8E12B0E311CEDA9FEA931969D
:10564000FEABEDABF8E32F16F1E03F0609F0C6CE56
:105650002FA938AD285E3F4F38AF2FAB4BAD5CADB7
:105660004F5F5F4F5CAF4BAF253E310509F09BCEDE
:10567000D0924204C092410481E080934004F894A7
:105680001092800010928100109285001092840088
:1056900082E099ED90938900809388008091810049
:1056A0008860809381008091810082608093810076
:1056B00080916F00826080936F00789488E1382E2B
:1056C00095E0D92E28EC222E8091C801813009F076
:1056D0000DC380916905882359F1E0914504F0914B
:1056E0004604818181111DC08081811116C08AE02C
:1056F00080838183CF010E94C509809143049091EA
:1057000044040E94D83780914104909142040E9441
:10571000D83783E08093C70125C38150808389E017
:1057200001C081508183CF010E94C5091092690593
:105730008091490490914A040E944918ABA9BCA9E0
:10574000ED91FC9111970480F581E02DCD01099533
:10575000882309F496C1A0904104B0904204D50179
:105760001596ED91FC9116978089882309F445C020
:105770004785668581E0860F13962D913C9114979D
:105780004930D9F18B30C9F1BBE0B49FF00111244D
:10579000E80FF11DE20FF31F8081811111C0E8E1D4
:1057A0004E9FA0011124435F5F4FF8E16F9FB0014E
:1057B0001124685B7F4F08EAE02E01E3F02E12C04F
:1057C0008530D8F0B8E14B9FA0011124435F5F4FB3
:1057D000E8E16E9FB0011124685B7F4F13E8E12E72
:1057E00010EBF12E08E110E028E130E0D501119630
:1057F0008D919C9112970E943310D5011596ED91D1
:10580000FC9116978189882309F445C0478581E07A
:10581000840F668513962D913C9114978930D9F1A8
:105820006B30C9F1BBE0B89FF0011124E60FF11D08
:10583000E20FF31F8081811111C0E8E14E9FA001AA
:1058400011244B5D5F4FF8E16F9FB0011124605D43
:105850007F4FB8EAEB2EB1E3FB2E12C08530D8F0B3
:10586000B8E14B9FA00111244B5D5F4FE8E16E9FB3
:10587000B0011124605D7F4FA3E8EA2EA0EBFA2E61
:1058800008E110E028E130E0D50111968D919C915E
:1058900012970E943310D5011596ED91FC91169741
:1058A0004785668513968D919C9114974930D9F15F
:1058B0006B30C9F1BBE0B49FF0011124E60FF11D7C
:1058C000E80FF91F8081811111C0E8E14E9FA0010E
:1058D0001124435F5F4FF8E16F9FB0011124605DB9
:1058E0007F4FF8EAEF2EF1E3FF2E12C08530D8F09B
:1058F000B8E14B9FA0011124435F5F4FE8E16E9F29
:10590000B0011124605D7F4FE3E8EE2EE0EBFE2E48
:1059100008E110E028E130E0D50111968D919C91CD
:1059200012970E943310D5011596ED91FC911697B0
:105930008481823009F461C010F5882309F441C0E4
:10594000813009F091C093858285458550E0B8E1AA
:105950009B9F400D511D11244F5E5F4F648570E089
:10596000E8E18E9F600D711D11246A5C7F4FD501A7
:1059700019968D919C911A970E94472275C0833089
:1059800009F457C0843009F06FC09385828545853E
:1059900050E0B8E19B9F400D511D11244F5E5F4FB9
:1059A000648570E0E8E18E9F600D711D11246A5CD2
:1059B0007F4FD50119968D919C911A970E94B42121
:1059C00053C093858285458550E0B8E19B9F400D8B
:1059D000511D11244F5E5F4F648570E0E8E18E9F9A
:1059E000600D711D11246A5C7F4FD50119968D9150
:1059F0009C911A970E947D2237C0938582854585A8
:105A000050E0B8E19B9F400D511D11244F5E5F4F48
:105A1000648570E0E8E18E9F600D711D11246A5C61
:105A20007F4FD50119968D919C911A970E94112252
:105A30001BC093858285458550E0B8E19B9F400D52
:105A4000511D11244F5E5F4F648570E0E8E18E9F29
:105A5000600D711D11246A5C7F4FD50119968D91DF
:105A60009C911A970E94E321D5011596ED91FC9126
:105A7000169782858687838587878485808B858531
:105A8000818BE0914904F0914A048581882309F4CF
:105A900063C1EBA9FCA98681882309F45DC1A090AC
:105AA0004104B0904204D5011596ED91FC911697F2
:105AB000848562858C3018F011E0160F01C0162F16
:105AC000858543858C3018F001E0040F01C0042F58
:105AD000F50123813481812F90E0402F50E009307F
