:100000000C9470020C94A3160C9498020C94980211
:100010000C9498020C9498020C9498020C949802F8
:100020000C943A170C9498020C9498020C94980231
:100030000C9498020C9498020C9498020C949802D8
:100040000C9435060C9498020C94C7050C94A105E9
:100050000C9498020C9498020C9498020C949802B8
:100060000C94890D0C949802F402F702FA02FD0236
:1000700000030303060309030C030F031203150314
:10008000230318031B034F035203550358035B0359
:100090005E036103640367036A036D0370037E03F9
:1000A00073037603CE03D103D403D703DA03DD034E
:1000B000E003E303E603E903EC03EF03FD03F203CC
:1000C000F5032A042D0430043304360439043C04B7
:1000D0003F044204450448044B0459044E045104AF
:1000E0004128D441CF8300833041ED8464031281E1
:1000F00041E88385017941CB85392C00340241F7F1
:10010000812041EA82000041C0812641C181114124
:10011000C582353E41C781BE41B182001B41F2819B
:10012000084126810141E08F1F1A180A0F064587F2
:10013000320A070207050041E18F00252705100953
:100140003A784D05180D383A1F41B6840A822700C7
:1001500041B78107413A8155413681E8412A820001
:100160000082013F412B8200008200EF4111FCFC24
:100170004129D4FFFF43616C6962726174696F6EDB
:100180000043616C6962726174696F6E0000000007
:1001900000240027002A00000000000000000030BA
:1001A000787830300030006C6C6C00000000006C1F
:1001B0006CFE6CFE6C6C00307CC0780CF83000007B
:1001C000C6CC183066C600386C3876DCCC76006059
:1001D00060C00000000000183060606030180060EF
:1001E0003018181830600000663CFF3C66000000C4
:1001F0003030FC3030000000000000007030600043
:100200000000FC000000000000000000303000068C
:100210000C183060C0800078CCDCFCECCC7800306E
:10022000F030303030FC0078CC0C3860CCFC0078FA
:10023000CC0C380CCC78001C3C6CCCFE0C0C00FCBC
:10024000C0F80C0CCC78003860C0F8CCCC7800FC3E
:10025000CC0C183060600078CCCC78CCCC780078AE
:10026000CCCC7C0C18700000003030003030000026
:1002700000303000703060183060C060301800000E
:1002800000FC00FC0000006030180C1830600078A2
:10029000CC0C18300030007CC6DEDEDEC0780030CA
:1002A00078CCCCFCCCCC00FC66667C6666FC003C62
:1002B00066C0C0C0663C00FC6C6666666CFC00FEF6
:1002C0006268786862FE00FE6268786860F0003CF0
:1002D00066C0C0CE663E00CCCCCCFCCCCCCC00788A
:1002E000303030303078001E0C0C0CCCCC7800E66E
:1002F000666C786C66E600F06060606266FE00C660
:10030000EEFED6C6C6C600C6E6F6DECEC6C60038C7
:100310006CC6C6C66C3800FC66667C6060F000780F
:10032000CCCCCCDC781C00FC66667C786CE6007873
:10033000CCE0381CCC7800FCB4303030307800CCC5
:10034000CCCCCCCCCCFC00CCCCCCCCCC783000C64B
:10035000C6C6D6FEEEC600C6C66C386CC6C600CC95
:10036000CCCC7830307800FECC983062C6FE007875
:1003700060606060607800C06030180C0602007831
:100380001818181818780010386CC6000000000003
:10039000000000000000FF303018000000000000E6
:1003A00000780C7CCC7600E0607C666666BC000061
:1003B0000078CCC0CC78001C0C0C7CCCCC76000037
:1003C0000078CCFCC07800386C60F06060F0000011
:1003D0000076CCCC7C0CF8E0606C766666E600308B
:1003E00000703030307800180078181818D870E095
:1003F00060666C786CE60070303030303078000029
:1004000000ECFED6C6C6000000F8CCCCCCCC000078
:100410000078CCCCCC78000000DC66667C60F00014
:100420000076CCCC7C0C1E0000D86C6C60F0000018
:10043000007CC0780CF80010307C3030341800009C
:1004400000CCCCCCCC76000000CCCCCC78300000FA
:1004500000C6C6D6FE6C000000C66C386CC6000034
:1004600000CCCCCC7C0CF80000FC983064FC001C68
:100470003030E030301C001818180018181800E050
:1004800030301C3030E00076DC000000000000104E
:10049000386CC6C6C6FE0000000000250028002BF0
:1004A000000404040404040404020202020202031D
:1004B0000303030303010204081020408001020427
:1004C00008102001020408102000000008000201AA
:1004D0000000030407000000000000000000A82244
:1004E00011241FBECFEFD8E0DEBFCDBF15E0A0E0E6
:1004F000B1E0EAE5FCE402C005900D92AC32B10730
:10050000D9F726E0ACE2B5E001C01D92A53AB207EA
:10051000E1F712E0C0E7D2E004C02197FE010E949B
:100520002523CF36D107C9F70E94B3170C942B2689
:100530000C940000CF92DF92EF92FF920F931F93E3
:10054000CF93DF936C017A018B01C0E0D0E0CE1530
:10055000DF0589F0D8016D918D01D601ED91FC91F7
:100560000190F081E02DC6010995892B11F47E01DF
:1005700002C02196ECCFC701DF91CF911F910F915F
:10058000FF90EF90DF90CF9008950E9431255F9209
:100590006F927F928F929F92AF92BF92CF92DF9293
:1005A000EF92FF920F931F93CF93DF93EC014B01D8
:1005B00069018D81813009F058C07A01A12CB12CDC
:1005C00036016A0C7B1C84019BE0592EF301E50D7A
:1005D000F11DE0818E2F90E08F309105A0F5FC0198
:1005E000EC5CFF4F0C94252328EA31E326C024E07D
:1005F00031E223C02AE836E620C026EC34E41DC0F0
:1006000022E833E21AC028EA33EA17C025E03AE7C5
:1006100014C024E839E511C02CE43FEF0EC023E2FA
:100620003DED0BC02FEF3FEF08C02BEF3EED05C0B7
:1006300028E135E802C020E133E4A701B801888150
:1006400099810E940A0B5A940F5F1F4F8FEF581227
:10065000BDCF8CE0A80EB11C8FEFE81AF80A80E637
:10066000A816B10409F0ACCF5AC0823009F057C0C7
:100670007A01A12CB12C36016A0C7B1C84018BE021
:10068000582EF301E50DF11DE0818E2F90E08F30A3
:100690009105A0F5FC01ED5BFF4F0C94252328EAA2
:1006A00031E326C024E031E223C028EC39EE20C03B
:1006B00023E830EB1DC020E030E81AC028EA33EA16
:1006C00017C025E03AE714C024E839E511C02CE44E
:1006D0003FEF0EC023E23DED0BC02FEF3FEF08C010
:1006E0002BEF3EED05C028E135E802C020E133E400
:1006F000A701B801888199810E940A0B5A940F5F63
:100700001F4F8FEF5812BDCF8CE0A80EB11C8FEF9A
:10071000E81AF80A80E6A816B10409F0ACCFDF9118
:10072000CF911F910F91FF90EF90DF90CF90BF90EE
:10073000AF909F908F907F906F905F9008954F92B1
:100740005F926F927F928F929F92AF92BF92CF9261
:10075000DF92EF92FF920F931F93CF93DF93EC0101
:100760005B018D81813009F059C069018A012A013C
:1007700088E0480E511C3B01ACE06A0E711C75010B
:100780004601D401ED914D018E2F90E08F309105FF
:10079000A0F5FC01EE5AFF4F0C94252328EA31E323
:1007A00026C024E031E223C02AE836E620C026EC49
:1007B00034E41DC022E833E21AC028EA33EA17C045
:1007C00025E03AE714C024E839E511C02CE43FEFF6
:1007D0000EC023E23DED0BC02FEF3FEF08C02BEF23
:1007E0003EED05C028E135E802C020E133E4A80170
:1007F000B701888199810E940A0BBFEFEB1AFB0AAF
:10080000E614F70409F0BDCF8CE0C80ED11C0F5FD1
:100810001F4F0415150509F0B2CF5BC0823009F0F7
:1008200058C069018A012A01A8E04A0E511C3B0107
:10083000BCE06B0E711C75014601D401ED914D01B8
:100840008E2F90E08F309105A0F5FC01EF59FF4FFE
:100850000C94252328EA31E326C024E031E223C0AA
:1008600028EC39EE20C023E830EB1DC020E030E852
:100870001AC028EA33EA17C025E03AE714C024E892
:1008800039E511C02CE43FEF0EC023E23DED0BC073
:100890002FEF3FEF08C02BEF3EED05C028E135E814
:1008A00002C020E133E4A801B701888199810E9448
:1008B0000A0BBFEFEB1AFB0AE614F70409F0BDCFF1
:1008C0008CE0C80ED11C0F5F1F4F0415150509F0F1
:1008D000B2CFDF91CF911F910F91FF90EF90DF90FA
:1008E000CF90BF90AF909F908F907F906F905F90D0
:1008F0004F9008950F931F93CF93DF93FC01A6852C
:10090000B78516968C911697848316968C918230B3
:10091000A1F118F4813041F0EDC0833009F478C0C2
:10092000843009F49EC0E6C08085811151C0878162
:10093000811120C0868125819FEF920F42815381D2
:10094000893009F4D7C09B3009F4D4C03BE0839FC1
:10095000D0011124A90FB11DA40FB51F8C91815096
:10096000823008F4C7C0222309F4C4C0958395855A
:1009700088E101C09585891B24C08085811128C02C
:10098000978191111AC0868195819F5F2281338161
:10099000893009F4AFC09B3009F4ACC04BE0849FB0
:1009A000D0011124A90FB11DA20FB31F8C9181504A
:1009B000823008F49FC0858504C08585890F883101
:1009C00010F4878395C0178285818F5F858390C0DF
:1009D000682F70E09585292F30E0220F331F2617EE
:1009E000370794F448E150E0461B570B24173507AE
:1009F0000CF480C0890F8087883121F486818F5F55
:100A00008683108684E073C0891B808783E06FC073
:100A1000878181114EC08085811120C026818FEF92
:100A2000820F958142815381893009F463C09B30E4
:100A300009F460C03BE0839FD0011124A90FB11DD0
:100A4000A40FB51F9C919150923008F453C02223FB
:100A500009F450C08683958588E101C09585891B7E
:100A60001DC08781811125C09085911119C0A68173
:100A700081E08A0F9581228133818930D9F19B30C1
:100A8000C9F14BE0849FD0011124A90FB11DA20F21
:100A9000B31F8C918150823068F18585808728C092
:100AA0008585890F8831D0F3108686818F5F868394
:100AB0001FC0682F70E09585292F30E0220F331F6B
:100AC000261737078CF448E150E0461B570B2417D4
:100AD000350784F0890F8783883121F485818F5F02
:100AE0008583178282E003C0891B878381E084832A
:100AF00011E001C010E084818823E9F0EF01008556
:100B00008781080F802F0E9476152F81888590E0BD
:100B1000820F911D892B61F08C81843009F41C8235
:100B20008C8190E2899F000D1124802F807801C074
:100B300080E00E947615812FDF91CF911F910F9158
:100B400008951F920F920FB60F9211242F933F9387
:100B50004F935F936F937F938F939F93AF93BF93C5
:100B6000EF93FF9383EF95E00E94CD15FF91EF91F6
:100B7000BF91AF919F918F917F916F915F914F91B5
:100B80003F912F910F900FBE0F901F9018951F92BD
:100B90000F920FB60F9211242F938F939F93EF9381
:100BA000FF93E0910306F09104068081E09109062D
:100BB000F0910A0682FD12C0908180910C068F5F31
:100BC0008F7320910D06821751F0E0910C06F0E032
:100BD000ED50FA4F958F80930C0601C08081FF91F4
:100BE000EF919F918F912F910F900FBE0F901F90BB
:100BF0001895CF93DF9390E0FC01EB54FB4F2491C9
:100C0000FC01EF55FB4F8491882361F190E0880F40
:100C1000991FFC01E357FE4FC591D491FC01E956A1
:100C2000FB4FA591B491611109C09FB7F8948881D9
:100C3000209582238883EC912E230BC0623061F4CF
:100C40009FB7F8943881822F809583238883EC9115
:100C50002E2B2C939FBF06C08FB7F894E8812E2BC4
:100C600028838FBFDF91CF9108951F920F920FB607
:100C70000F9211242F933F938F939F93AF93BF9322
:100C800080913B0590913C05A0913D05B0913E05BA
:100C900030913A0523E0230F2D3720F40196A11D52
:100CA000B11D05C026E8230F0296A11DB11D20939A
:100CB0003A0580933B0590933C05A0933D05B09386
:100CC0003E058091360590913705A0913805B09189
:100CD00039050196A11DB11D809336059093370506
:100CE000A0933805B0933905BF91AF919F918F9133
:100CF0003F912F910F900FBE0F901F9018954F921C
:100D00005F926F927F928F929F92AF92BF92CF929B
:100D1000DF92EF92FF920F931F93CF93DF935C01CB
:100D20004B01EA01422E502E3701425051096250C8
:100D3000710988EAE82E81E3F82E04E110E020E151
:100D400030E0F501808191810E94970A9301AE0104
:100D5000B401C501411003C00E949F0302C00E945C
:100D6000C702AE01485F5F4F9601B401C501511043
:100D700012C0DF91CF911F910F91FF90EF90DF9004
:100D8000CF90BF90AF909F908F907F906F905F902B
:100D90004F900C949F03DF91CF911F910F91FF9083
:100DA000EF90DF90CF90BF90AF909F908F907F900B
:100DB0006F905F904F900C94C702CF92DF92EF92AA
:100DC000FF920F93FC0125831282138223EAC22E25
:100DD00023E0D22E33E0E32E34E0F32E00E020E0D7
:100DE0000E947F060F91FF90EF90DF90CF900895C3
:100DF0004F925F926F927F928F929F92AF92BF922B
:100E0000CF92DF92EF92FF920F931F93CF93DF93D6
:100E1000EC01E888F9888C899D890A891B89E81684
:100E2000F90609F474C0FD8AEC8A288D398D4A8D43
:100E30005B8DD7010E94BB254B015C012C8D3D8D44
:100E40004E8D5F8DD8010E94BB25AB01BC01480DC2
:100E5000591D6A1D7B1D88A199A1AAA1BBA15A0198
:100E60006B01A80EB91ECA1EDB1EC601B50128A95A
:100E700039A94AA95BA90E94FA2549015A01DA0158
:100E8000C9012C813D812A35310509F118F4232B44
:100E900041F03BC0243B310521F02E303140B9F008
:100EA00034C02E813F81A901440F551F60E070E0DE
:100EB00084169506A606B70628F5A90160E070E03D
:100EC00084169506A606B70600F1C90115C0488527
:100ED00059852A01440C551C612C712C84149504ED
:100EE000A604B70478F42A01612C712C84149504AB
:100EF000A604B70450F0CA010197092E000CAA0BF2
:100F0000BB0B03C080E090E0DC019B878A878E8961
:100F10009F890817190709F45FC01F8B0E8B2CA13E
:100F20003DA14EA15FA1D7010E94BB254B015C01F1
:100F300028A539A54AA55BA5D8010E94BB25AB0110
:100F4000BC01480D591D6A1D7B1D8CA59DA5AEA534
:100F5000BFA55A016B01A80EB91ECA1EDB1EC60131
:100F6000B50128A939A94AA95BA90E94FA25DA0185
:100F7000C9016C817D816A35710571F018F4672BA8
:100F800041F028C0643B710521F06E30714021F0C2
:100F900021C06885798502C06E817F814B01880CF4
:100FA000991CA12CB12C281539054A055B0578F44C
:100FB0004B01A12CB12C281539054A055B0550F0D1
:100FC000CB010197092E000CAA0BBB0B03C080E0DC
:100FD00090E0DC019D878C87DF91CF911F910F916D
:100FE000FF90EF90DF90CF90BF90AF909F908F9049
:100FF0007F906F905F904F900895CF92EF92FF9205
:101000000F931F93CF93DF93EC01262F6A3081F467
:101010008EAD9FAD9BAF8AAF2CA92F778CAD9DADC8
:1010200038E0239F800D911D11249DAF8CAF47C0E8
:10103000862F8B7F893009F442C06AAD7BAD2032A8
:1010400019F461157105D9F1E881F981E8ACF9ACC1
:101050000EA91FA94CAD5DAD0088F189E02DCCA88B
:10106000CE010995BC019BAF8AAF8DA9882339F1C8
:101070002CA92F77822F90E048EF42039001112492
:101080004E815F81420F531F46175707C4F44EAD80
:101090005FAD5BAF4AAF43E0880F991F4A95E1F718
:1010A0004CAD5DAD840F951F9DAF8CAF48855985C4
:1010B000240F351F2817390714F41DAE1CAE81E02C
:1010C00090E0DF91CF911F910F91FF90EF90CF9023
:1010D0000895CF92EF92FF920F931F93DC01ED9151
:1010E000FC910684F785E02D09951F910F91FF90E3
:1010F000EF90CF9008952F923F924F925F926F9210
:101100007F928F929F92AF92BF92CF92DF92EF9297
:10111000FF920F931F93CF93DF9300D01F92CDB711
:10112000DEB79B838A83480188E02802900111245E
:10113000D901A956BF4F5D01BC2DBF77CB2EEA81E7
:10114000FB8186819781F1E0FB1708F463C06B0196
:1011500028E0C20ED11C8C159D050CF46EC0AA812E
:10116000BB811896ED91FC9119979A01285F3F4F2A
:10117000E217F3070CF461C0AA81BB81ED91FC91E9
:1011800011978A01095F1F4F9B01295F3F4F06801E
:10119000F781E02DCD010995AA81BB81ED91FC91EC
:1011A00011970084F185E02DCD0109958501085F37
:1011B0001F4FF5014490FFEFAF1ABF0A98E0692E68
:1011C000712C20E8522EAA81BB81ED91FC911197E0
:1011D000852D84210284F385E02D882319F0B40144
:1011E000CD0103C0B7018A819B8109955694B1E076
:1011F0006B1A710841F7A016B106D9F6AA81BB8116
:10120000ED91FC9111970484F585E02DCD010995B0
:10121000C60176C0B8E0CB9E800111243B01600E70
:10122000711E861597054CF0040F151FEA81FB818E
:10123000208531852017310714F4019661C0AA81F9
:10124000BB81ED91FC911197015011090680F78146
:10125000E02D930121503109CD010995AA81BB816F
:10126000ED91FC9111970084F185E02DCD01099558
:101270002501B8E04B0E511CF5012490FFEFAF1A89
:10128000BF0A3C2C08E010E080E8D82E8D2D82218A
:101290002C2DA1F0AA81BB81ED91FC9111970284C4
:1012A000F385E02DB401CD012983099529812150D1
:1012B00089F7D6940150110949F710C0AA81BB8162
:1012C000ED91FC9111970284F385E02DB701CD01DA
:1012D000298309952981215089F7EBCF3A94311060
:1012E000D1CFA414B50409F0C7CFAA81BB81ED9179
:1012F000FC9111970484F585E02DCD010995C3017A
:101300000F900F900F90DF91CF911F910F91FF9051
:10131000EF90DF90CF90BF90AF909F908F907F9095
:101320006F905F904F903F902F90089585ED809340
:10133000BC008091BC0084FDFCCF1092CF050895C5
:101340000895E091F0058091F105E81730F4F0E0A0
:10135000E053FA4F808190E008958FEF9FEF08955A
:101360009091F0058091F105981750F4E92FF0E085
:10137000E053FA4F208130E09F5F9093F00502C068
:101380002FEF3FEFC90108958091F10590E0209182
:10139000F005821B910908950F931F93CF93DF935C
:1013A000EC016930710519F06A35710571F48AE54F
:1013B00090E09D838C8380EF90E09F838E8380E418
:1013C00091E09987888718E434C06231710519F07B
:1013D000643B710571F484EB90E09D838C8380E421
:1013E00091E09F838E8380EF90E09987888718E350
:1013F00020C06B31710521F07E7F6E30710571F474
:101400008EE091E09D838C8380EF90E09F838E83BC
:1014100080E491E09987888718E80BC01D821C82C0
:1014200080E491E09F838E8380EF90E099878887A6
:1014300018EE66E3CE010E941A12612FCE010E94BF
:101440000B12E881F98108851985015011092E8157
:101450003F81215031090680F781E02D40E050E0C6
:1014600060E070E0CE010995DF91CF911F910F915F
:1014700008959CB5282F23709C7F922B9CBD2DB581
:1014800082FB992790F9822F8E7F892B8DBD08953D
:101490008EBD00000DB407FEFDCF8EB50895CF932D
:1014A000DF93EC010E94F8068C819D81009719F46E
:1014B0008C859D8516C08A35910529F42885398546
:1014C0008A859B8507C0843B910549F42885398529
:1014D0008C859D85A901481B590BCA0102C08A85CC
:1014E0009B85DF91CF910895CF93DF93EC010E940C
:1014F000F8068C819D81009719F48A859B8514C01C
:101500008A35910519F48C859D850EC02E813F8109
:10151000843B910519F48A859B8502C08C859D8545
:10152000A901481B590BCA01DF91CF9108958F92F1
:101530009F92AF92BF92CF92DF92EF92FF920F9362
:101540001F93CF93DF93EC01690158012E813F81F6
:10155000621773071CF0B90161507109888599857C
:10156000481759071CF0AC0141505109FB01EC0D23
:10157000FD1DE217F3071CF06901C61AD70A9A018C
:101580002A0D3B1D281739071CF05C01A41AB50A67
:10159000E881F9818A010A0D1B1D015011099B0187
:1015A0002C0D3D1D215031090680F781E02DCE0123
:1015B0000995E881F9810084F185E02DCE01099536
:1015C0009501D6010E942B234B015C01E881F98132
:1015D00081149104A104B10461F00284F385E02D2B
:1015E000B701CE01099581E0881A9108A108B108D8
:1015F000EDCF0484F585E02DCE01DF91CF911F91D1
:101600000F91FF90EF90DF90CF90BF90AF909F90A1
:101610008F900994EF92FF920F931F93CF93DF93D4
:10162000EC018E819F81681779075CF58885998523
:101630004817590734F57901E881F9810680F78167
:10164000E02D8A019B01CE010995E881F981008492
:10165000F185E02DCE010995E881F9810284F385B9
:10166000E02DB701CE010995E881F9810484F58563
:10167000E02DCE01DF91CF911F910F91FF90EF9060
:101680000994DF91CF911F910F91FF90EF900895F2
:101690002F923F924F925F926F927F928F929F9282
:1016A000AF92BF92CF92DF92EF92FF920F931F9370
:1016B000CF93DF9300D000D0CDB7DEB76C013B01F4
:1016C0005A01790144245524421A530A1C821B8270
:1016D0002B813C81E216F3060CF46AC08B809C805F
:1016E0008A0C9B1C9801A40113012E0C3F1CB10114
:1016F000C6010E940A0B9801A401C3018E199F091B
:101700009A838983BC01C6010E940A0B4501EB81C3
:10171000FC818E1A9F0A9801A401B101C6010E94A2
:101720000A0B9801A40169817A81C6010E940A0B03
:101730002B803C80260C371C980145018E0C9F1C89
:10174000A401B101C6010E940A0B93018B819C8107
:10175000281B390B3A8329839801A40169817A8176
:10176000C6010E940A0B980145018E189F08A4012A
:10177000B101C6010E940A0B9801A40169817A8116
:10178000C6010E940A0B8B819C810196EB81FC8132
:101790004E0E5F1E480E591E57FC07C0F1E0EF1AAF
:1017A000F1084E185F084E185F089C838B8390CF1A
:1017B0000F900F900F900F90DF91CF911F910F918D
:1017C000FF90EF90DF90CF90BF90AF909F908F9061
:1017D0007F906F905F904F903F902F9008952F9241
:1017E0003F924F925F926F927F928F929F92AF92B1
:1017F000BF92CF92DF92EF92FF920F931F93CF93FE
:10180000DF93CDB7DEB728970FB6F894DEBF0FBED3
:10181000CDBF4C016B0158874F8359016217730785
:10182000A1F40417150744F404271527402751276E
:1018300058874F83042715272F813885021B130BE8
:101840000F5F1F4F21E030E015C04F8158854017D2
:101850005107B9F42617370734F4A626B726CA2449
:10186000DB24AC24BD2495012C193D092F5F3F4F8B
:1018700001E010E04F815885B601C4010E94970A2B
:10188000A0C0FC01268137816217730724F069012B
:10189000F1E0CF1AD108F401808591854F815885F8
:1018A0004817590724F0FC013197F887EF83A216F7
:1018B000B30624F05901F1E0AF1AB108081719076F
:1018C0001CF08C010150110935016C187D082801AC
:1018D0002F813885421A530A77FE08C071946194AB
:1018E00071084FEF5FEF5A83498304C081E090E0B5
:1018F0009A83898357FE08C0519441945108EFEFB1
:10190000FFEFFC83EB8304C021E030E03C832B83BA
:10191000A301440F551F5E834D831201220C331C1B
:1019200097014F815885B601C4010E940A0B4614E5
:1019300057041CF5810106191709CA14DB0409F4C0
:1019400040C017FD0CC08F819885EB81FC818E0F04
:101950009F1F98878F832D813E81021B130B498126
:101960005A81C40ED51E020D131D97014F81588553
:10197000B601C4010E940A0BE0CFAD80BE80A4185E
:10198000B5088F81988580179107D9F0B7FC06C0FC
:1019900089819A81C80ED91EA218B308EF81F885F3
:1019A0002B813C81E20FF31FF887EF834D815E812D
:1019B000A40EB51E9701AF01B601C4010E940A0B27
:1019C000E0CF28960FB6F894DEBF0FBECDBFDF91F3
:1019D000CF911F910F91FF90EF90DF90CF90BF902C
:1019E000AF909F908F907F906F905F904F903F90BF
:1019F0002F9008958F929F92AF92BF92EF92FF9295
:101A00000F931F93CF93DF93EC017B01E881F98162
:101A100008851985015011092E813F812150310916
:101A20000680F781E02D40E050E060E070E009952D
:101A3000E881F9810084F185E02DCE010995AE8120
:101A4000BF81288539850E942B234B015C0183E0EF
:101A5000B694A794979487948A95D1F7E881F981F1
:101A600081149104A104B10409F444C00284F385F3
:101A7000E02DB701CE010995E881F9810284F38553
:101A8000E02DB701CE010995E881F9810284F38543
:101A9000E02DB701CE010995E881F9810284F38533
:101AA000E02DB701CE010995E881F9810284F38523
:101AB000E02DB701CE010995E881F9810284F38513
:101AC000E02DB701CE010995E881F9810284F38503
:101AD000E02DB701CE010995E881F9810284F385F3
:101AE000E02DB701CE01099581E0881A9108A1087F
:101AF000B108B4CF0484F585E02DCE01DF91CF91FC
:101B00001F910F91FF90EF90BF90AF909F908F909B
:101B100009941F920F920FB60F9211242F933F93A7
:101B20004F935F936F937F938F939F93AF93BF93E5
:101B3000EF93FF938091B900887F803609F49CC0B1
:101B400068F5883209F45BC090F4803109F454C020
:101B500038F4882309F4F6C0883009F44DC0F6C083
:101B6000883109F44CC0803209F45DC0EFC0803484
:101B700009F468C048F4803309F455C0883309F08B
:101B8000E5C08093CD05D8C0803509F44FC08835B5
:101B900009F45DC0883409F0D9C0D6C0883909F489
:101BA000C7C0A8F4883709F467C038F4883609F448
:101BB00063C0803709F460C0C9C0883809F4B8C070
:101BC000803909F45FC0803809F0C0C05BC0803B39
:101BD00009F486C038F4803A09F466C0883A09F4FA
:101BE0007FC0B4C0803C09F4A7C0883C09F4A4C0FD
:101BF000883B09F48AC0AAC08091CA0510C09091A0
:101C0000CC058091CB05981770F5E091CC0581E06B
:101C10008E0F8093CC05F0E0E755FA4F80818093DA
:101C2000BB0085EC86C08093CD058EC0E091CC05CD
:101C300081E08E0F8093CC058091BB00F0E0E755EA
:101C4000FA4F80839091CC058091CB056EC0E091D6
:101C5000CC0581E08E0F8093CC058091BB00F0E035
:101C6000E755FA4F80838091CE0581116DC081E0E8
:101C70008093C90584EA61C083E08093CF05109208
:101C80008505CFCF80918505803208F051C0E09165
:101C9000850581E08E0F809385058091BB00F0E083
:101CA000EB59FA4F8083BDCF85EC8093BC00109236
:101CB000CF0580918505803230F4E0918505F0E014
:101CC000EB59FA4F10826091850570E0E091630551
:101CD000F091640585E695E009951092850536C07A
:101CE00084E08093CF051092620510926105E09127
:101CF0005F05F0916005099580916105811105C02E
:101D000081E08093610510923F05E091620581E0DA
:101D10008E0F80936205F0E0E15CFA4F8081809342
:101D2000BB009091620580916105981708F479CF06
:101D300085E88093BC000AC085EC8093BC001092BB
:101D4000CF0504C01092CD050E949609FF91EF9136
:101D5000BF91AF919F918F917F916F915F914F91C3
:101D60003F912F910F900FBE0F901F9018954091AB
:101D70006105262F30E0240F311D21323105DCF4BE
:101D80002091CF052430C9F4FC0180E090E0861753
:101D900058F4309161052191DC01A15CBA4FA30F89
:101DA000B11D2C930196F3CF80916105680F60936C
:101DB000610580E0089581E0089582E00895089526
:101DC000FC01A685B78512968C91129711969C916D
:101DD0001197891730F491E0980F12969C931297FF
:101DE00007C012961C92129711961C92119780E0D0
:101DF000A80FB11DA80FB11D13968D919C9114973A
:101E00008076992725E0959587952A95E1F70097A3
:101E100009F484E0848384818230A9F118F481304C
:101E200041F0ACC0833009F457C0843009F47BC062
:101E3000A5C080858111A2C08781811120C08681C3
:101E400025819FEF920F42815381893009F496C01A
:101E50009B3009F493C03BE0839FD0011124A90F6C
:101E6000B11DA40FB51F8C918150823008F486C03B
:101E7000222309F483C09583958588E101C0958567
:101E8000891B87837BC08085811176C097819111E2
:101E90001AC0868195819F5F22813381893009F440
:101EA0006DC09B3009F46AC04BE0849FD0011124BF
:101EB000A90FB11DA20FB31F8C918150823008F47D
:101EC0005DC08585DECF8585890F8831D0F2178288
:101ED00085818F5F858352C0878181114FC0808546
:101EE00081111EC026818FEF820F9581428153811F
:101EF000893009F443C09B3009F440C03BE0839F24
:101F0000D0011124A90FB11DA40FB51F9C919150B0
:101F10009230A0F1222391F18683958588E101C05A
:101F20009585891B22C08781811128C090859111D8
:101F300018C0A68181E08A0F958122813381893082
:101F4000E9F09B30D9F04BE0849FD0011124A90F18
:101F5000B11DA20FB31F8C918150823078F085851E
:101F600004C08585890F883110F4808707C01086EA
:101F700086818F5F868302C081E008950895089569
:101F80005F9A08950C94CF230C94CF23CF93DF93C3
:101F90001F92CDB7DEB7872F5F982B9A2D989CB5EF
:101FA0009F7B9CBD2D9A9CB590649CBD69830E94CB
:101FB000480A2B9A2D989CB59F7B9CBD2D9A9CB569
:101FC00090649CBD6981862F0E94480A5F9A0F9099
:101FD000DF91CF910895CF93DF931F92CDB7DEB7F6
:101FE000872F2B9A2D989CB59F7B9CBD2D9A9CB5D5
:101FF00090649CBD69830E94480A2B9A2D989CB5D9
:102000009F7B9CBD2D9A9CB590649CBD6981862F59
:102010000F90DF91CF910C94480A2F923F924F92EC
:102020005F926F927F928F929F92AF92BF92CF9268
:10203000DF92EF92FF920F931F93CF93DF93CDB771
:10204000DEB763970FB6F894DEBF0FBECDBF6C014D
:102050004B01CB01880F991F9601280F391F3B8B2D
:102060002A8BF901808DF60187A382A193A10E949A
:10207000740A092E000CAA0BBB0B9C01AD0128525F
:10208000310941095109A9E0B0E00E94B0252CEDC9
:1020900030E040E050E00E949125EA89FB89318FD1
:1020A000208FF60187A190E08217930709F46FC093
:1020B000C401019662E3689F1001699F300C1124EE
:1020C0003101FAE06F0E711C21018AE0481A5108B3
:1020D00087E1829FB001839F700D1124635D7F4F64
:1020E0009AECE92E92ECF92E83019B01A201F601F4
:1020F00082A193A10E94EF0BF601A7A0F7E1AF9E8A
:10210000500111242DE2A20EB11C21E1E22E24E7A0
:10211000F22E9501A201B501F60182A193A10E94C0
:10212000EF0B28EA31E3A101B501F60182A193A1E9
:102130000E940A0BF601A2A0B3A09101255031091B
:10214000190133E08316910449F4868D978D892B0C
:1021500029F408EA11E326E235E013C04BE0BE01A2
:102160006F5F7F4FEA89FB89808D918D0E944625A4
:1021700081E1E82E84E7F82E08EA11E39E012F5F43
:102180003F4FA10168E171E0C5010E94B813639659
:102190000FB6F894DEBF0FBECDBFDF91CF911F9178
:1021A0000F91FF90EF90DF90CF90BF90AF909F90F6
:1021B0008F907F906F905F904F903F902F900895F9
:1021C000CF93C62F81E08093860582E58093F20548
:1021D000109287051092A805642F80E996E00E946E
:1021E00084176C2F80E996E00E9484178091A805DF
:1021F000813208F045C09091CF059111FCCF92E05B
:102200009093CF0591E09093CE059FEF9093CD05ED
:102210001092CC058093CB05A8E8B5E029EA35E01B
:10222000F9019E2F921B981718F49D919193F9CF65
:102230001092CA058091CA05846A8093CA0580916C
:10224000C905813061F41092C9058091CA05809357
:10225000BB008091BC0083FDF8CF85EC01C085EE0A
:102260008093BC008091CF058230E1F38091CD0551
:102270008F3F31F08091CD05803211F08091CD05F6
:10228000109287051092A805109286058FE39CE9AD
:102290000197F1F700C00000CF910895CF92DF922F
:1022A000FF920F931F93CF93DF93CDB7DEB72C9799
:1022B0000FB6F894DEBF0FBECDBF8C018091CF0565
:1022C0008111FCCF81E08093CF058093CE059FEFF5
:1022D0009093CD051092CC0595E09093CB0580931B
:1022E000CA058091CA05846A8093CA058091C90590
:1022F000813061F41092C9058091CA058093BB00BA
:102300008091BC0083FDF8CF85EC01C085EE809301
:10231000BC008091CF058130E1F38091CC058630FF
:1023200018F4F090CC0502C036E0F32EA9EAB5E02F
:1023300020ED35E0F9018E2F821B8F1518F48D9159
:102340008193F9CF1092F005F092F105CE0101963C
:102350006C018091F005F81649F080E996E00E9442
:10236000B009F601819391936F01F3CF8981F80150
:1023700080838B8181838B859C859C012170332791
:10238000F1E02F27F801258396958795F1E08F27B7
:102390008170F801848340E060E0C8010E94E01091
:1023A000F801208130E0828190E0A901481B590B9F
:1023B0004630510514F082E006C0821B930B06974D
:1023C00024F081E0F801868302C0F8011682F8014A
:1023D000218130E0838190E0A901481B590B4630F0
:1023E000510514F083E006C0821B930B06971CF086
:1023F00084E0F8018683F80186812C960FB6F89464
:10240000DEBF0FBECDBFDF91CF911F910F91FF9027
:10241000DF90CF900895862F5F982B9A2D989CB5CA
:102420009F7B9CBD2D9A9CB590649CBD0E94480AE0
:102430005F9A0895862F5F982B982D989CB59F7B67
:102440009CBD2D9A9CB590649CBD0E94480A5F9AE1
:1024500008956CE20E941A125F980895AF92BF929D
:10246000CF92DF92EF92FF920F931F93CF93DF9360
:10247000EC015B017A0169016AE20E941A12B5015E
:10248000CE010E94C60FB601CE010E94C60F6BE2BC
:10249000CE010E941A12B701CE010E94C60FB801E8
:1024A000CE01DF91CF911F910F91FF90EF90DF90C0
:1024B000CF90BF90AF900C94C60FBF92CF92DF9297
:1024C000EF92FF920F931F93CF93DF938C01FCB495
:1024D000DDB585E00E94390A5E9888EB0E94480AC3
:1024E00080E00E94480AC82F88EC0E94480A80E0D9
:1024F0000E94480A5E9A80958F77CF77C80FC630C2
:1025000008F45EC05E9880E90E94480A80E00E945C
:10251000480AC82E80E00E94480A80E90E94480AC2
:1025200080E00E94480AD82E80E00E94480AE82EE7
:10253000CD1044C080ED0E94480A80E00E94480A05
:10254000D82E80E00E94480A80ED0E94480A80E070
:102550000E94480AB82E80E00E94480ADB102EC074
:1025600094E0C99E900111244E2D50E096E05595BF
:1025700047959A95E1F7422B532B6FEF73E0FB01E0
:10258000E41BF50BAF01A9F0F4E0DF9EB0011124CC
:10259000282F30E086E0359527958A95E1F7262BA0
:1025A000372B2115310529F0F801518B408B338BE6
:1025B000228B8C2F90E0F801978786875E9A03C064
:1025C000F80117861686FCBCDDBD81E0F801268582
:1025D0003785232B09F480E0DF91CF911F910F9174
:1025E000FF90EF90DF90CF90BF900895FC01918D08
:1025F000828D981761F0828DDF01A80FB11D5D9665
:102600008C91928D9F5F9F73928F90E008958FEFD2
:102610009FEF0895FC01918D828D981731F0828D86
:10262000E80FF11D858D90E008958FEF9FEF0895DD
:10263000FC01918D228D892F90E0805C9F4F821B41
:1026400091098F73992708958F929F92AF92BF92AD
:10265000CF92EF92FF920F931F93CF93DF935C0182
:102660004A01F9019491E9019923E1F0D501ED9135
:10267000FC910684F785E02DCC24C394EE24EA94E3
:10268000FE2C00E010E0292FA401C5010995BC0132
:102690002196F50186819781861797071CF0FE0128
:1026A0009491E2CFCB01DF91CF911F910F91FF90D9
:1026B000EF90CF90BF90AF909F908F9008952F9202
:1026C0003F924F925F926F927F928F929F92AF92C2
:1026D000BF92CF92EF92FF920F931F93CF93DF930E
:1026E0005C013B014A012901C0E0D0E088E290E0B2
:1026F000F40124813581C217D30740F5D501ED914E
:10270000FC9126843784F401A081B181109729F4CB
:102710001092A006A0EAB6E002C0AC0FBD1F22E0F6
:10272000C22E31E1E32E34E7F32E82012C91A30176
:10273000BC01C501F1010995D50116962D913C9179
:1027400017972817390714F02196D2CFDF91CF9130
:102750001F910F91FF90EF90CF90BF90AF909F90FF
:102760008F907F906F905F904F903F902F90089543
:102770004F925F926F927F928F929F92AF92BF9291
:10278000CF92EF92FF920F931F93CF93DF935C0151
:10279000CB014A0138012701E90129912223A1F047
:1027A000D501ED91FC910684F785E02D32E0C32E32
:1027B00072018301A401BC01C5010995F5012681BF
:1027C0003781281739074CF7DF91CF911F910F916F
:1027D000FF90EF90CF90BF90AF909F908F907F90A1
:1027E0006F905F904F9008952F923F924F925F921B
:1027F0006F927F928F929F92AF92BF92CF92DF9211
:10280000EF92FF920F931F93CF93DF93CDB7DEB775
:1028100060970FB6F894DEBF0FBECDBF988B8F8741
:102820005B016A017A0102E310E022EB30E0AB01C8
:1028300067E470E00E94970AC5010A969C838B8327
:102840000EE110E02BE030E0AC016CE370E08F852E
:1028500098890E94970A2BE030E04B815C8169EFF8
:1028600070E08F8598890E94970AF501B796FA87DC
:10287000E98786EF682E77247A949AE0492E512CC6
:10288000212C312C8B819C819C878B87FE87ED8747
:10289000AB84BC84A218B3087601850126E430E03D
:1028A000A501E6E4F0E0E419F509FE83ED83BF013C
:1028B0008F8598890E94EF0B86E490E08219930936
:1028C00098878F838B809C8084189508840126E4E8
:1028D00030E0A401BC018F8598890E94EF0B85012F
:1028E00029EF30E0A501520199EFA90EB11CB50105
:1028F0008F8598890E94EF0BF101E750FF4FFA8313
:10290000E983840129EF30E0A401BF018F85988914
:102910000E94EF0B8D849E84820C931C840129EF0E
:1029200030E0A401B5018F8598890E94EF0BA9843E
:10293000BA84A40CB51C850129EF30E0A50169819A
:102940007A818F8598890E94EF0B840126E430E01C
:10295000A4016D817E818F8598890E94EF0B85018E
:1029600026E430E0A5016F8178858F8598890E94E3
:10297000EF0BC1010196260C371C3101680E791E40
:1029800077FC09C0F1E04F1A5108130124183508EB
:102990003101641875081C01481659060CF078CFEF
:1029A00060960FB6F894DEBF0FBECDBFDF91CF911A
:1029B0001F910F91FF90EF90DF90CF90BF90AF905D
:1029C0009F908F907F906F905F904F903F902F904F
:1029D00008952FEF30E0FC0131832083539AEFE01C
:1029E000FEE03197F1F700C00000539820E030E09E
:1029F000E7E7F5E03197F1F700C00000FC01408106
:102A00005181022E02C0559547950A94E2F7539AD8
:102A100040FF05C0EFE5F9E03197F1F704C0E7E7C3
:102A2000F5E03197F1F700C0000053982F5F3F4F5A
:102A30002C303105E9F687E795E00197F1F700C002
:102A40000000539AEFEBF2E13197F1F700C000007C
:102A5000539887E795E00197F1F700C000000895CB
:102A600090E0FC01E753FB4F2491FC01EB54FB4F3A
:102A70003491FC01EF55FB4FE491EE23B1F1222399
:102A800039F1233091F038F42130A9F0223001F5EA
:102A900084B58F7D12C0273091F02830A1F024300A
:102AA000B9F4809180008F7D03C0809180008F7782
:102AB000809380000DC084B58F7784BD09C080915C
:102AC000B0008F7703C08091B0008F7D8093B000FD
:102AD000F0E0EE0FFF1FE956FB4FA591B4918FB7C1
:102AE000F894EC913E2B3C938FBF0895CF92DF92E8
:102AF000EF92FF920F931F93CF93DF93CDB7DEB783
:102B0000A1970FB6F894DEBF0FBECDBF282F30E0DF
:102B100040E050E019A28E010F5D1F4F8AE0C82EE1
:102B2000D12CE12CF12CCA01B901A70196010E9418
:102B3000FA25605DF80162938F0121153105410589
:102B4000510589F7309771F001900020E9F731972E
:102B5000AF01401B510BB80183EF95E00E949A0230
:102B60008C0102C000E010E042E050E068E275E055
:102B700083EF95E00E949A02800F911FA1960FB6F5
:102B8000F894DEBF0FBECDBFDF91CF911F910F91A3
:102B9000FF90EF90DF90CF900895FC01848DDF01CE
:102BA000A80FB11DA35ABF4F2C91848D90E00196C0
:102BB0008F739927848FA689B7892C93A089B189AF
:102BC0008C9180648C93938D848D981306C00288B9
:102BD000F389E02D80818F7D80830895EF92FF92AD
:102BE0000F931F93CF93DF93EC0181E0888F9B8D30
:102BF0008C8D981305C0E889F989808185FD24C0F2
:102C0000F62E0B8D10E00F5F1F4F0F731127E02E74
:102C10008C8DE8120CC00FB607FCFACFE889F98951
:102C2000808185FFF5CFCE010E94CD15F1CF8B8D30
:102C3000FE01E80FF11DE35AFF4FF0820B8FEA8986
:102C4000FB898081806207C0EE89FF896083E88903
:102C5000F98980818064808381E090E0DF91CF9169
:102C60001F910F91FF90EF900895CF93DF93EC01A8
:102C7000888D8823C9F0EA89FB89808185FD05C09C
:102C8000A889B9898C9186FD0FC00FB607FCF5CFD6
:102C9000808185FFF2CFA889B9898C9185FFEDCF1E
:102CA000CE010E94CD15E7CFDF91CF910895EF922D
:102CB000FF920F931F93CF93DF93EC011982188239
:102CC0001B821A821D821C8261157105A9F17B018C
:102CD000FB0101900020E9F731978F01061B170BCC
:102CE000B8016F5F7F4F80E090E00E9467240097FB
:102CF00059F0998388831B830A832C813D81232B80
:102D000081F4FC0110820DC088819981009711F037
:102D10000E94CF23198218821D821C821B821A8274
:102D20000BC01D830C83B701DF91CF911F910F91D1
:102D3000FF90EF900C943F25DF91CF911F910F9161
:102D4000FF90EF9008951F920F920FB60F921124EB
:102D50000F931F932F933F934F935F936F937F93A3
:102D60008F939F93AF93BF93CF93DF93EF93FF9393
:102D7000E0919C06F0919D064A9B17C08081DF017F
:102D8000AD5BBF4F8C93AF014B5B5F4FDA019C9102
:102D90008F010A5B1F4FEF01CC5BDF4F913089F44D
:102DA000D8019C91992319F00CC010824EC09CEE62
:102DB000980F9B3090F1288130E02F5F3F4F2883A0
:102DC0001DC0D8011C92DA011C9218829181DF018A
:102DD000A90FB11DA90FB11DBF01695B7F4FEB01A9
:102DE0002881398114963C932E93139721E0290F63
:102DF000203289F49183EB01198218829EED980F9D
:102E00009B30E0F08F528B3000F5D8018C9190E030
:102E100001968C931AC02183EECFE95BFF4F21E02E
:102E200030E0088002C0220F331F0A94E2F760816D
:102E30007181262B372B31832083BDCFFA0120816E
:102E400030E02F5F3F4F2083DDCFFF91EF91DF9187
:102E5000CF91BF91AF919F918F917F916F915F9132
:102E60004F913F912F911F910F910F900FBE0F9097
:102E70001F9018951F920F920FB60F9211248F93E7
:102E80009F93EF93FF93E0919C06F0919D068081C4
:102E900090E001968083FF91EF919F918F910F9029
:102EA0000FBE0F901F901895CF92DF92EF92FF9276
:102EB0000F931F93CF93DF937C01262F972F8A01C7
:102EC00080918605882391F0C62FD72F6E01C40EFE
:102ED000D51ECC15DD0571F06991D701ED91FC91FE
:102EE0000190F081E02DC7010995F3CF642F822F67
:102EF0000E94B70EC801DF91CF911F910F91FF90F3
:102F0000EF90DF90CF900895CF93DF931F92CDB7CE
:102F1000DEB76983209186052223D1F02091A80590
:102F2000203240F021E030E0FC013383228380E056
:102F300090E015C080918705E82FF0E0E857FA4F40
:102F4000998190838F5F809387058093A80505C042
:102F500061E0CE0101960E94B70E81E090E00F90F3
:102F6000DF91CF910895CF93DF93CDB7DEB7C656EB
:102F7000D1090FB6F894DEBF0FBECDBF80919E067B
:102F800090919F060E94E914789484B5826084BD74
:102F900084B5816084BD85B5826085BD85B581605D
:102FA00085BD80916E00816080936E0010928100DB
:102FB0008091810082608093810080918100816096
:102FC0008093810080918000816080938000809157
:102FD000B10084608093B1008091B00081608093E3
:102FE000B00080917A00846080937A0080917A00AA
:102FF000826080937A0080917A00816080937A0069
:1030000080917A00806880937A001092C10083E6F4
:1030100090E00E943A2320E030E0D901A05CBC4F50
:1030200040E050E06D91FA01E20FF31FE80FF91F45
:1030300060834F5F5F4F4B305105A1F7255F3F4FD6
:103040002336310551F7909335058093340581E49B
:1030500090E00E943A23FC011382128215821482AE
:1030600080E491E09783868380EF90E0918780876A
:10307000178616861586148613861286178A168A70
:10308000158A148A138A128A118A108A10AA11AA20
:1030900012AA13AA11E014AB15AB17AA16AA8FEF48
:1030A0009FEF91AF80AF17AE16AE15AE14AE13AE54
:1030B00012AE81E994E091838083F0933305E0932D
:1030C000320587E090E00E943A237C01DC011696ED
:1030D0001C921092F0051092F10510928705109243
:1030E000A8051092CF051093CE051092C90582E174
:1030F0000E94301583E10E9430158091B9008E7FC7
:103100008093B9008091B9008D7F8093B90088E4E5
:103110008093B80085E48093BC0040EF65E5C7016B
:103120000E94E0104BEF60E0C7010E94E010BFEF8B
:10313000E1EEF4E0B150E040F040E1F700C0000003
:10314000C7010E944E11C7010E944E11D7018C91F8
:1031500012968C93129711968C91119713968C93CB
:10316000F0923105E0923005E0903205F0903305A1
:1031700061E088E00E94F905289861E081E00E9402
:10318000F90561E087E00E94F90561E08DE00E94A9
:10319000F90561E08BE00E94F90560E08CE00E9497
:1031A000F90559985F9A61E086E00E94F9055E9AF8
:1031B000F701E05CFF4F10828CB5837F8CBD8CB52E
:1031C0008F7D8CBD1FB7F89480912C05811126C08E
:1031D000EBEAF4E08491EFEBF4E09491E82FF0E077
:1031E000EE0FFF1FE357FE4FA591B491EC91E92339
:1031F00019F48AE00E94301561E08AE00E94F90526
:103200008CB580618CBD8CB580648CBD61E08DE037
:103210000E94F90561E08BE00E94F90580912C0580
:103220008F5F80932C051FBF85E00E94390A5F9A4B
:103230002898BFEFE0E7F2E0B150E040F040E1F75E
:1032400000C00000289A2FEF3BED45E021503040B0
:103250004040E1F700C0000090EEC92E90E0D92E6A
:103260005FEFC51AD50AF6013197E491EF3F51F1AE
:103270008E2F807C803439F0803891F71E2F1F7399
:103280005601012F13C01E2F1F735601012F01116C
:1032900003C0C10ED11CE4CFF5016491C7010E94A7
:1032A0001A120150FFEFAF1ABF0AF1CF002389F3C2
:1032B000F5016491C7010E940B120150FFEFAF1A94
:1032C000BF0AF4CF60E070E0C7010E94FA0C80E012
:1032D0000E94390A219A299A2090320530903305AC
:1032E000D1011E968D919C911F97892B01F580E04D
:1032F00090E00E947B258A3AD1F47101B8E1EB0E8F
:10330000F11C00E010E00F5F1F4FC8010E947B25F9
:10331000F70181937F010C311105A9F780919E0679
:1033200090919F060E94E91422242394C4C388E14B
:10333000EDE6F4E0DE01599601900D928A95E1F7F1
:10334000D10114960D90BC91A02DA796BFAFAEAF42
:10335000A797D101ED91FC910480F581E02D60E00B
:1033600070E0C10109956FEF7FEFC1010E94FA0C77
:10337000F1014085518557FF02C04F5F5F4F559562
:1033800047954A505109D10116966D917C91179736
:1033900077FF02C06F5F7F4F759567956253710924
:1033A00021E831E0C1010E942413C1010E945D1295
:1033B0008111FBCFFE017996FAAFE9AF1EAA1DAAD3
:1033C0008DA99EA9039709F4E9C0A9ADBAAD1496D9
:1033D0008D909C9015974D905C9000E010E022E05D
:1033E00030E0A401B201C1010E94480B25E030E0A9
:1033F000A401B201C1010E94480B00E018EF2AE0CD
:1034000030E0A401B201C1010E94480BC1010E9439
:103410005D128823A9F2EEEFFFEFFAABE9ABC12C06
:10342000D12C12E0A12EB12CA601480D591DE12C82
:10343000B8EFFB2E8A0132016A0C7B1C9301C2019A
:103440008A199B099EAF8DAFBC01C1010E94EF0B91
:10345000A4014C195D098A0193016DAD7EADC101D6
:103460000E94EF0B3601640C751CD201AC19BD092A
:10347000BEAFADAFA4014A0D5B1D8A019301BD0132
:10348000C1010E94EF0BA4014A195B098A01930153
:103490006DAD7EADC1010E94EF0BC6010196E9A999
:1034A000FAA9CE0EDF1E9601280F391F3AAB29ABC1
:1034B0002F3F4FEF340759F051E0A51AB1086901C9
:1034C000CA18DB08D601AA19BB09BAABA9AB6C01B3
:1034D000A816B9060CF0A8CFEDA9FEA9A3E0EE0F3F
:1034E000FF1FAA95E1F721E030E02C0F3D1FE20F0E
:1034F000F31FD10150968D919C915197092E000C8C
:10350000AA0BBB0B80839183A283B383D101529614
:103510008D919C915397092E000CAA0BBB0B8483B1
:103520009583A683B783BFEFE1EEF4E0B150E040AE
:10353000F040E1F700C000006FEF7FEFC1010E9493
:10354000FA0C2DA92230E9F0D10118964D915C9129
:10355000199757FF02C04F5F5F4F559547954A50E7
:103560005109F1016681778177FF02C06F5F7F4F5C
:10357000759567956253710925E731E0C1010E9495
:1035800024132DA93EA92F5F3F4F3EAB2DAB49AD74
:103590005AAD485F5F4F5AAF49AF12CF29813A8188
:1035A0004B815C812DAB3EAB4FAB58AF89899A897B
:1035B000AB89BC8989AB9AABABABBCAB281B390BD5
:1035C0004A0B5B0B25962CAF3DAF4EAF5FAF2597F7
:1035D0002D853E854F85588965962CAF3DAF4EAF02
:1035E0005FAF65978D899E89AF89B88D21968CAF25
:1035F0009DAFAEAFBFAF2197281B390B4A0B5B0BBA
:1036000069962CAF3DAF4EAF5FAF699729853A857C
:103610004B855C8529AF3AAF4BAF5CAF89A99AA9BE
:10362000ABA9BCA9281B390B4A0B5B0B6D962CAFC1
:103630003DAF4EAF5FAF6D972D813E814F81588575
:10364000A1962CAF3DAF4EAF5FAFA19721968CAD49
:103650009DADAEADBFAD2197281B390B4A0B5B0B5F
:10366000A5962CAF3DAF4EAF5FAFA59769962CAD39
:103670003DAD4EAD5FAD699725966CAD7DAD8EAD20
:103680009FAD25970E9415236B017C01A5962CAD5B
:103690003DAD4EAD5FADA5976D966CAD7DAD8EAD7C
:1036A0009FAD6D970E941523C61AD70AE80AF90A3A
:1036B000D101D096CD92DD92ED92FC92D397CD2898
:1036C000CE28CF2809F4CCC1298D3A8D4B8D5C8D45
:1036D00029962CAF3DAF4EAF5FAF2997C9A4DAA4AE
:1036E000EBA4FCA429013A014C185D086E087F0880
:1036F00089A19AA1ABA1BCA12D968CAF9DAFAEAF15
:10370000BFAF2D978C199D09AE09BF0961968CAF8B
:103710009DAFAEAFBFAF6197A301920169966CAD4B
:103720007DAD8EAD9FAD69970E9415234B015C0165
:1037300061962CAD3DAD4EAD5FAD6197A5966CAD7C
:103740007DAD8EAD9FADA5970E941523861A970A71
:10375000A80AB90AD10158968D929D92AD92BC9259
:103760005B9725966CAD7DAD8EAD9FAD25970E9484
:1037700015234B015C01A30192016D966CAD7DADEB
:103780008EAD9FAD6D970E941523861A970AA80AE1
:10379000B90AF101848E958EA68EB78EA701960187
:1037A0006DA97EA98FA998AD0E9415234B015C01DC
:1037B00029962CAD3DAD4EAD5FAD299769A97AA98B
:1037C0008BA99CA90E941523A5019401261B370BE8
:1037D000480B590B65966CAD7DAD8EAD9FAD659771
:1037E0000E9415232B013C012D962CAD3DAD4EAD15
:1037F0005FAD2D9769A97AA98BA99CA90E94152371
:103800004B015C01A701960169AD7AAD8BAD9CAD12
:103810000E941523A5019401261B370B480B590B59
:10382000A1966CAD7DAD8EAD9FADA1970E94152385
:10383000460E571E681E791E29962CAD3DAD4EAD25
:103840005FAD299769AD7AAD8BAD9CAD0E94152314
:103850006B017C012D962CAD3DAD4EAD5FAD2D972E
:103860006DA97EA98FA998AD0E941523A701960185
:10387000261B370B480B590B21966CAD7DAD8EADD9
:103880009FAD21970E941523460E571E681E791E74
:1038900040A251A262A273A22D8D3E8D4F8D58A1E0
:1038A00029962CAF3DAF4EAF5FAF29978DA49EA454
:1038B000AFA4B8A869017A01C818D908EA08FB08BA
:1038C0008DA19EA1AFA1B8A52D968CAF9DAFAEAF37
:1038D000BFAF2D9788199909AA09BB0961968CAFCA
:1038E0009DAFAEAFBFAF6197A701960169966CAD72
:1038F0007DAD8EAD9FAD69970E9415232B013C01D4
:1039000061962CAD3DAD4EAD5FAD6197A5966CADAA
:103910007DAD8EAD9FADA5970E941523461A570A1F
:10392000680A790A44A255A266A277A225966CADD0
:103930007DAD8EAD9FAD25970E9415232B013C01D7
:10394000A70196016D966CAD7DAD8EAD9FAD6D9767
:103950000E941523461A570A680A790A40A651A6FA
:1039600062A673A6A50194016DA97EA98FA998AD41
:103970000E9415236B017C0129962CAD3DAD4EAD07
:103980005FAD299769A97AA98BA99CA90E941523E3
:10399000A7019601261B370B480B590B65966CAD9A
:1039A0007DAD8EAD9FAD65970E9415232B013C0127
:1039B0002D962CAD3DAD4EAD5FAD2D9769A97AA981
:1039C0008BA99CA90E9415236B017C01A501940180
:1039D00069AD7AAD8BAD9CAD0E941523A701960110
:1039E000261B370B480B590BA1966CAD7DAD8EADE8
:1039F0009FADA1970E941523460E571E681E791E83
:103A000029962CAD3DAD4EAD5FAD299769AD7AAD30
:103A10008BAD9CAD0E9415236B017C012D962CADC6
:103A20003DAD4EAD5FAD2D976DA97EA98FA998AD27
:103A30000E941523A7019601261B370B480B590B33
:103A400021966CAD7DAD8EAD9FAD21970E94152363
:103A5000460E571E681E791E44A655A666A677A672
:103A6000D101ED91FC910480F581E02DA7966EAD1A
:103A70007FADA797C1010995C1010E945D12811117
:103A8000FBCF6AEA80E090E00E9483257101B8E1F3
:103A9000EB0EF11C01E010E0F70161917F01C8011C
:103AA0000E9483250F5F1F4F0D311105A9F736CCFA
:103AB000C7010E94CF2366E0362E80912F05811129
:103AC000A7C085E090E00E943A235C01C0903205D7
:103AD000D0903305DC0112961C92129713962C920B
:103AE000139714961C921497CD92DC92C6010E94F3
:103AF0005D1261E174E7C6010E94FA0C48EA51E3E5
:103B000068E270E0C6010E94F41358EAE52E51E322
:103B1000F52E0AEC12EC2FED34E04CE350E060E5BA
:103B200070E0C6010E94B81348EA51E366E970E00C
:103B3000C6010E94F4132AEE34E04AEA50E069E636
:103B400070E0C6010E94B813EFE3FCE93197F1F78A
:103B500000C00000C6010E945D12D6011E968D9124
:103B60009C911F97892B09F448C0C6010E94740AD2
:103B7000CD970CF42FC4C6010E94740A8E30914078
:103B80000CF028C4C6010E944F0A8E970CF422C480
:103B9000C6010E944F0A8F3591050CF01BC44AECF8
:103BA00052EC68E270E0C6010E94F4133AECE32E96
:103BB00032ECF32E08EA11E32FED34E04CE350E051
:103BC00060E570E0C6010E94B81348EA51E366E977
:103BD00070E0C6010E94F41348EAE42E41E3F42E9B
:103BE0000AEC12EC2AEE34E04AEA50E069E670E0B2
:103BF000C6010E94B813F5012482D50114968C9158
:103C0000882309F4A1CF80932F05C5010E94CF23FB
:103C100010912F05113009F06DC282E190E00E94F1
:103C20003A234C0180919E0690919F062091300589
:103C300030913105E0903405F0903505F401F382C0
:103C4000E28241EB54E05183408337872687918B92
:103C5000808B80E190E00E943A238C0180919C0649
:103C600090919D06D8011396FC92EE92129727EA46
:103C700034E011963C932E931F969C938E931E973F
:103C80008AE090E00E943A236C0180913205909185
:103C90003305F60191838083F382E28295828482E8
:103CA0001783068361E174E70E94FA0C38EAE32E79
:103CB00031E3F32E08ED10E028E031E04DE050E074
:103CC00060E370E0D6018D919C910E94970A41E1DA
:103CD000642E712C212C312C29AAD3011497BEAB50
:103CE000ADAB86E3482E512CA12CB12C2BE0229DAC
:103CF000F001239DF00D1124FAAFE9AFB201665037
:103D00007109D6011296ED91FC911397E9ACFAACCA
:103D1000EA0CFB1CEE0DFF1D1081123081F188F4BE
:103D2000113009F06EC021E1E22E24E7F22E08E105
:103D300010E028E130E04DA95EA9F6018081918173
:103D40002BC0133061F1143009F05BC022E0A301F5
:103D5000B201F601808591850E94DD06D601169696
:103D6000ED91FC911797A582B9A9B683A186A28689
:103D7000178210861587F601828193813EC09AECE6
:103D8000E92E92ECF92E08E110E028E130E04DA98F
:103D90005EA9D6018D919C910E94970A32C086E05F
:103DA00090E00E943A238C01F60180819181D80134
:103DB00012961C92129713961C92139714961C92AB
:103DC00014978D939C9321E0A301B201C8010E9436
:103DD000DD06F601118700870480F581E02DA582BC
:103DE00029A92683A186A2861782108634E035870A
:103DF000D60112968D919C911397FC01EE0DFF1D3B
:103E00001082FFEFAF1ABF0A28E1420E511C3EE3B9
:103E1000431631E0530609F071CF4FEF241A340AEC
:103E200058E1650E711C89EE6816710409F054CFD3
:103E3000D0922E05C0922D055524539480913005C3
:103E4000909131050E944E11D401ED91FC910480B6
:103E5000F581E02DC4010995882381F3A0902D05FB
:103E6000B0902E05D5011496ED91FC911597928591
:103E70008185448550E0B8E19B9F400D511D112480
:103E8000435F5F4F638570E0E8E18E9F600D711DB9
:103E90001124605D7F4F08EAE02E01E3F02E08E177
:103EA00010E028E130E0D5018D919C910E94970AA5
:103EB000D5011496ED91FC9115971481123009F4F7
:103EC0008CC030F4112389F1113009F44BC004C1C6
:103ED000133009F4C3C0143009F0FEC08681408558
:103EE00050E028E1829F400D511D11244F5E5F4F2D
:103EF0008581678170E038E1839F600D711D112419
:103F00006A5C7F4FD50118966D907C901997F301EC
:103F100055825282B0EECB2EB2E0DB2E13E0E12EC2
:103F200014E0F12E038121E0BEC096818581408599
:103F300050E0B8E19B9F400D511D11244F5E5F4F33
:103F4000678170E0E8E18E9F600D711D11246A5C4D
:103F50007F4F21E0D50118968D919C9119970E9471
:103F6000DD06BAC08681408550E0B8E18B9F400DE8
:103F7000511D11244F5E5F4F8581678170E0E8E13C
:103F80008E9F600D711D11246A5C7F4FD5011896BC
:103F90006D907C901997F3011583128313838481AC
:103FA000882359F0B0E0CB2EB1E0DB2E10ECE12EEF
:103FB00011E0F12E01E021E03AC0F0E6CF2EF1E071
:103FC000DF2EA0ECEA2EA1E0FA2E01E021E0C301F1
:103FD0000E947F06F30114837FC08681408550E0F4
:103FE00028E1829F400D511D11244F5E5F4F858156
:103FF000678170E038E1839F600D711D11246A5C58
:104000007F4FD50118966D907C901997F3015582DA
:10401000128213828481882389F030E0C32E31E03C
:10402000D32EE0ECEE2EE1E0FE2E00E020E0C30116
:104030000E947F06D30114961C924EC090E6C92EB2
:1040400091E0D92E20ECE22E21E0F22E00E020E0DB
:10405000C3010E947F06F30154823EC086814085E1
:1040600050E028E1829F400D511D11244F5E5F4FAB
:104070008581678170E038E1839F600D711D112497
:104080006A5C7F4FD50118966D907C901997F3016B
:10409000558200E2C02E02E0D02E80E8E82E82E0B9
:1040A000F82E03812281C3010E947F06D30112965C
:1040B0008C911297882319F012961C9202C0F3017A
:1040C0005282D30113968C911397882319F013967B
:1040D0001C9202C0F3015382D5011496ED91FC911C
:1040E00015978581818786818287878183878085EF
:1040F0008487A4CE123009F0E0CC89E290E00E94DF
:104100003A236C01E0903205F090330562EF74E0E1
:104110000E9457166DEF74E0C60106960E9457166E
:1041200067E075E0C6010C960E94571664E175E0E1
:10413000C60142960E94571688E0E5E8F4E0D601F1
:10414000589601900D928A95E1F7F60114A225A2E6
:1041500010A7F3A2E2A261E174E7C7010E94FA0C82
:10416000F1E1EF2EF4E7FF2E08EA11E321E235E05A
:1041700043E050E06AEF70E0D60192968D919C91F9
:1041800093970E94B8133601F6017896FAABE9AB23
:10419000A4E1AA2EB12CF9A9FDAF2AA922962FAF2E
:1041A000229745013EE1830E911C28EA31E3A301E9
:1041B000B501D60192968D919C9193970E945F13C1
:1041C00058EAE52E51E3F52E840121E031E0A40107
:1041D00068E270E0F60182A193A10E94EF0B450115
:1041E000F8E28F0E911C250124E1420E511C84013E
:1041F00028E230E0A20168E270E0D60192968D914B
:104200009C9193970E94EF0B21E031E0A20161E0C5
:1042100071E0F60182A193A10E94EF0B29A93AA9AE
:104220003EAB2DABD60192960D90BC91A02DBAAFAE
:10423000A9AF4BE0BE016F5F7F4FF9018191919172
:10424000FAABE9AB0E944625A501475E5F4F61E1ED
:10425000E62E64E7F62E08EA11E39E012F5F3F4F3A
:1042600068E171E089AD9AAD0E94B813ADA9BEA90D
:104270008D919C91B7E1B89FB001B99F700D112449
:10428000635D7F4FEAECEE2EE2ECFE2E84019B0193
:10429000A201F60182A193A10E94EF0BF2E3AF0EFF
:1042A000B11C26E0620E711C3CEDA316B10409F0AE
:1042B00078CFD60192968D919C9193970E945D1232
:1042C000F60182A193A1DC011E962D913C911F97CE
:1042D000232B09F463C00E94740A88970CF44CC025
:1042E000F60182A193A10E94740A8A3091400CF0D9
:1042F00043C0D60192968D919C9193970E944F0A4C
:104300004E975CF0D60192968D919C9193970E9466
:104310004F0A873491050CF4B2C0F60182A193A133
:104320000E944F0A833591050CF0A0C0D6019296E9
:104330008D919C9193970E944F0A883891054CF07B
:10434000F60182A193A10E944F0A813B91050CF4D2
:10435000D6C0D60192968D919C9193970E944F0A58
:104360008E3B91054CF0F60182A193A10E944F0A69
:10437000873E91050CF4CBC0F60182A193A10E9467
:10438000740A8B3F910554F0D60192968D919C91C1
:1043900093970E944F0A44970CF4C4C0F60180A57D
:1043A000823009F486CF80932F05C114D10409F41B
:1043B00084CBEDAC2296FFAC2297EC14FD0409F4FB
:1043C00077CBF6E0EF1AF108D7018D919C910E940E
:1043D000CF23F3CFC6010E94740ACD970CF40DCC05
:1043E000C6010E94740A8E3091400CF006CCC601C2
:1043F0000E944F0A8C3991050CF4FFCBC6010E9434
:104400004F0A8D3C91050CF0F8CB48EA51E368E285
:1044100070E0C6010E94F41398EAE92E91E3F92EA8
:104420000AEC12EC2FED34E04CE350E060E570E074
:10443000C6010E94B8134AEC52EC66E970E0C6016E
:104440000E94F4132AECE22E22ECF22E08EA11E389
:104450002AEE34E04AEA50E069E670E0C6010E94C4
:10446000B813E2E0D5011496EC93C7CBF60182A114
:1044700093A10E944F0A8C379105DCF157CFF601CA
:1044800014A265A1662369F1A601369E400D511D57
:104490001124F2E36F9FB00111246C5E7F4F28EA74
:1044A00031E3D60192968D919C9193970E945F1370
:1044B000F60164A1A601369E400D511D1124F2E3C0
:1044C0006F9FB00111246C5E7F4F2AEC32ECD60155
:1044D00092968D919C9193970E945F13F60184A10F
:1044E00085A3D60194966C9170E0C6010E940D10D0
:1044F00043CFF60124A265A1613031F6F2CF22E06C
:10450000F60124A365A1623009F0BECFEACFE3E053
:10451000D6019496EC93949795966C91633009F03C
:10452000B3CFDFCF81E1E82E84E7F82E0AEC12EC5E
:1045300021E235E043E050E06AEF70E0D601929668
:104540008D919C9193970E94B813F60110A626CFE7
:10455000E3EFF5E01382128288EE93E0A0E0B0E092
:1045600084839583A683B7832BEB34E03183208348
:1045700025EC30E03587248724EC30E03787268728
:1045800020EC30E0318B208B21EC30E0338B228B20
:1045900022EC30E0358B248B26EC30E0378B268BF9
:1045A000118E128E138E148EE0E9F6E013821282C1
:1045B00084839583A683B7838BEC94E09183808377
:1045C00082E090E00E943A2323E22093B0002AE0A8
:1045D0002093B10023E32093B3002AE12093B40099
:1045E00024E02093700090939F0680939E0689E4B8
:1045F00090E00E943A23FC0111821282EC5BFF4F93
:10460000108231961082319610823196118210827A
:104610005298E9E6F0E0208121602083E89A7894BE
:1046200090939D0680939C060895DB018F939F9342
:104630000E94B025BF91AF91A29F800D911DA39FB5
:10464000900DB29F900D11240895EE0FFF1F05905D
:10465000F491E02D09940E941C26332312F48A1B46
:104660009B0B0C9435230E941C26B7FF0895821BD8
:10467000930B0895CF93DF938230910510F482E07D
:1046800090E0E091A306F091A40620E030E0C0E0C5
:10469000D0E0309711F14081518148175907C0F09F
:1046A0004817590761F482819381209719F09B8301
:1046B0008A832BC09093A4068093A30626C021155D
:1046C000310519F04217530718F49A01BE01DF01B2
:1046D000EF010280F381E02DDCCF2115310509F1D6
:1046E000281B390B2430310590F412968D919C9142
:1046F00013976115710521F0FB019383828304C038
:104700009093A4068093A306FD01329644C0FD0158
:10471000E20FF31F81939193225031092D933C9323
:104720003AC02091A1063091A206232B41F420919A
:104730006504309166043093A2062093A10620916F
:104740006304309164042115310541F42DB73EB75F
:104750004091670450916804241B350BE091A10639
:10476000F091A206E217F307A0F42E1B3F0B2817C7
:10477000390778F0AC014E5F5F4F2417350748F0DA
:104780004E0F5F1F5093A2064093A1068193919311
:1047900002C0E0E0F0E0CF01DF91CF9108950F93E8
:1047A0001F93CF93DF93009709F48CC0FC013297DD
:1047B000138212820091A3061091A406011511051F
:1047C00081F420813181820F931F2091A1063091C5
:1047D000A2062817390779F5F093A206E093A106FF
:1047E00071C0D80140E050E0AE17BF0750F41296F8
:1047F0002D913C911397AD012115310509F1D90196
:10480000F3CF9D01DA013383228360817181860FAA
:10481000971F8217930769F4EC0128813981260FCD
:10482000371F2E5F3F4F318320838A819B81938383
:104830008283452B29F4F093A406E093A30642C09B
:104840001396FC93EE931297ED01499159919E01B5
:10485000240F351FE217F30771F480819181840FD3
:10486000951F029611969C938E9382819381139645
:104870009C938E931297E0E0F0E0D80112968D9110
:104880009C911397009719F0F8018C01F6CF8D9148
:104890009C9198012E5F3F4F820F931F2091A1069C
:1048A0003091A2062817390769F4309729F410923D
:1048B000A4061092A30602C0138212821093A206CD
:1048C0000093A106DF91CF911F910F910895A0E071
:1048D000B0E0EDE6F4E20C94C725EC01009721F47A
:1048E000CB010E943A23B8C0FC01E60FF71F9C01E0
:1048F00022503109E217F30708F4ACC0D9010D9139
:104900001C91119706171707B0F00530110508F430
:104910009FC0C80104978617970708F499C00250F2
:104920001109061B170B019311936D937C93CF0113
:104930000E94CF238DC05B01A01AB10A4C01800EEA
:10494000911EA091A306B091A40640E050E0E12C96
:10495000F12C109709F44AC0A815B905D1F56D904E
:104960007C901197630182E0C80ED11CCA14DB044D
:1049700080F1A3014A195B096A0182E0C80ED11CCB
:104980001296BC9012971396AC91B5E0CB16D10459
:1049900040F0B282A38351834083D9016D937C930D
:1049A0000AC00E5F1F4FC301800F911FF901918351
:1049B0008083EB2DFA2FE114F10431F0D701139627
:1049C000FC93EE93129744C0F093A406E093A306E1
:1049D0003FC08D919C9111974817590708F4AC017D
:1049E0007D0112960D90BC91A02DB3CF8091A106B0
:1049F0009091A20688159905E1F446175707C8F467
:104A00008091630490916404009741F48DB79EB740
:104A10004091670450916804841B950BE817F907CF
:104A2000C8F4F093A206E093A106F90171836083B4
:104A30000FC0CB010E943A237C01009759F0A801D6
:104A4000BE010E943625CE010E94CF23C70104C0BB
:104A5000CE0102C080E090E0CDB7DEB7EEE00C946E
:104A6000E32581E090E0F8940C942B26FB01DC0117
:104A700002C001900D9241505040D8F70895FB01BB
:104A8000DC0101900D920020E1F70895BB274A3028
:104A900031F4992322F4BDE2909581959F4F0C94B7
:104AA0005225BB27FB015527AA27880F991FAA1F4C
:104AB000A41710F0A41B83955051B9F7A05DAA3339
:104AC00008F0A95DA193009779F7B111B193119204
:104AD000CB010C946B25DC01FC01672F71917723CE
:104AE000E1F7329704C07C916D9370836291AE17A9
:104AF000BF07C8F30895F999FECF92BD81BDF89A1A
:104B0000992780B50895262FF999FECF1FBA92BD37
:104B100081BD20BD0FB6F894FA9AF99A0FBE01969E
:104B20000895052E97FB1EF400940E94A82557FDBA
:104B300007D00E94FA2507FC03D04EF40C94A82558
:104B400050954095309521953F4F4F4F5F4F0895B9
:104B500090958095709561957F4F8F4F9F4F0895E9
:104B60000E941C26A59F900DB49F900DA49F800DC0
:104B7000911D11240895B7FF0C94B0250E94B02513
:104B8000821B930B08952F923F924F925F926F92E8
:104B90007F928F929F92AF92BF92CF92DF92EF92CD
:104BA000FF920F931F93CF93DF93CDB7DEB7CA1B4E
:104BB000DB0B0FB6F894DEBF0FBECDBF09942A8879
:104BC000398848885F846E847D848C849B84AA8421
:104BD000B984C884DF80EE80FD800C811B81AA81AE
:104BE000B981CE0FD11D0FB6F894DEBF0FBECDBF79
:104BF000ED010895A1E21A2EAA1BBB1BFD010DC0F9
:104C0000AA1FBB1FEE1FFF1FA217B307E407F5077C
:104C100020F0A21BB30BE40BF50B661F771F881F58
:104C2000991F1A9469F760957095809590959B01EE
:104C3000AC01BD01CF010895A29FB001B39FC00197
:104C4000A39F700D811D1124911DB29F700D811DB8
:0A4C50001124911D0895F894FFCF80
:104C5A000001010101010909010100000001090126
:104C6A000401010101010100000105010304060517
:104C7A0005080801000001010403040106090801EE
:104C8A0000000109080808090101010000010701E3
:104C9A0001040304010605010001060607010101DA
:104CAA0006050501000001010101010101010100E0
:104CBA0000010000010109090101000000000000D3
:104CCA0001030101060100000000000001020307C0
:104CDA0005010000000000010103020108080100AB
:104CEA00000000010908080109080100000000008D
:104CFA000101030201010100000000000107010691
:104D0A000505010000000000000101010101000089
:104D1A000000000101040401010000000000010478
:104D2A00030202080901010000010202020309014B
:104D3A000105060101030401090801060507060524
:104D4A00040301080101050506090101040401081B
:104D5A000806070B0D080100010401090807070AE4
:104D6A000C080101010401010908070808090100EA
:104D7A0000010301010103040107090101050504FA
:104D8A0003010404010705010109050102020101E9
:104D9A0001010100010809010302030309010000DE
:104DAA0000010104080808090401000000010701C4
:104DBA0004030401010601000000010101010106CA
:104DCA0005050100000000000000000101010000CB
:104DDA0000000000000105060100000000000001BB
:104DEA00010605050601000000010106080808067B
:104DFA00050101000108010903030304090108016F
:104E0A000009010401040203010109010001090169
:104E1A00030302020301010000010101040303026A
:104E2A00040101000000010701030403010101005C
:104E3A000001060101090901010609010001050530
:104E4A000101010401060501000106080801020327
:104E5A000401010000000109080103010101010028
:104E6A00000001010108010505010100000001011E
:104E7A000403010606050100000000010101010109
:104E8A00010601000000000000010101010100000B
:104E9A000300000000000000000000000102010001
:104EAA0001020100010000000200000002000000EF
:104EBA0000000102010001020102010000000200DB
:104ECA0000020200000000000102010201000102CA
:104EDA0001000000000202000000020002000100BE
:104EEA0001000100010201000000000000000000B2
:104EFA000000040001030101090901010401000184
:104F0A00050504030101040306050101090601025E
:104F1A000202030106090101080900030203030151
:104F2A000908010001010408080809040101000038
:104F3A00010601040303040006010000010506013D
:104F4A000101010605010000000101010000000144
:104F5A000100000000000104030404010000000035
:104F6A000001030202020304010000000101060518
:104F7A0006080903010100010907050505060505DB
:104F8A0007080101090606060609060606090100C0
:104F9A0001060B0D08080D0B0601000001090A0C99
:104FAA0008080C0A09010000000109080808080994
:104FBA000100000000A506800001000000140000A6
:104FCA0000140000002C01000078000000A000007E
:104FDA0000DC0000000900050007000100000000D5
:104FEA0000FD079A02CC092E122912EB0FC00F7B83
:104FFA0008690800000000BF0FC40FE00E0000009F
:10500A0000DF0EC20F7A0400000000EE159A0218A3
:10501A0013F6120A1335160000000084175417C439
:10502A0009B009A109A00900000000C5029A0253AB
:10503A00746172742047616D65004F7074696F6E98
:10504A0073004272696768744E6573730047616DD5
:10505A0065537065656400426F6D622044656E73C6
:10506A00697479004C6576656C2053656C65637468
:0C507A00004241434B0052000D0A0000B0
:00000001FF
