:100000000C940E040C9489190C9436040C94360448
:100010000C9436040C9436040C9436040C94360478
:100020000C94201A0C9436040C9436040C94360468
:100030000C9436040C94711A0C9436040C94360407
:100040000C9436040C9436040C9446080C94200846
:100050000C9436040C9436040C9436040C94360438
:100060000C94D3100C943604010906090B091009ED
:1000700015091A091F09240929092E093309370905
:100080005B093C094B09A109A609AB09B009B509EF
:10009000B909BE09C309C809CD09D209D609FA09A7
:1000A000DB09EA098217851788178B178E179117B6
:1000B000941797179A179D17A017A317B117A6178C
:1000C000A917DD17E017E317E617E917EC17EF1785
:1000D000F217F517F817FB17FE170C18011804187C
:1000E0005C185F186218651868186B186E1871181C
:1000F000741877187A187D188B1880188318BA1816
:10010000BD18C018C318C618C918CC18CF18D218F3
:10011000D518D818DB18E918DE18E1184128D441A1
:10012000CF8300833041ED846403128141E88385ED
:10013000017941CB85392C00340241F7812041EA15
:1001400082000041C0812641C1811141C582353EF6
:1001500041C781BE41B182001B41F2810841268125
:100160000141E08F1F1A180A0F064587320A07025D
:1001700007050041E18F0025270510093A784D0554
:10018000180D383A1F41B6840A82270041B781070B
:10019000413A8155413681E8412A82000082013F7F
:1001A000412B8200008200EF4111FCFC4129D4FF69
:1001B000FF43616C6962726174696F6E0043616CC8
:1001C0006962726174696F6E0000010101010109C9
:1001D00009010100000001090104010101010101FF
:1001E00000000105010304060505080801000001DF
:1001F00001040304010609080100000109080808B8
:1002000009010101000001070101040304010605C1
:1002100001000106060701010106050501000001B4
:1002200001010101010101010000010000010109BA
:1002300009010100000000000001030101060100A6
:10024000000000000001020307050100000000009B
:10025000010103020108080100000000010908086B
:100260000109080100000000000101030201010171
:100270000000000000010701060505010000000064
:10028000000001010101010000000000010104045F
:10029000010100000000000104030202080901013D
:1002A0000000010202020309010105060101030425
:1002B00001090801060507060504030108010105F7
:1002C0000506090101040401080806070B0D0801D1
:1002D00000010401090807070A0C080101010401D3
:1002E00001090807080809010000010301010103D1
:1002F00004010709010105050403010404010705C0
:1003000001010905010202010101010100010809C1
:1003100001030203030901000000010104080808A9
:1003200009040100000001070104030401010601A2
:1003300000000001010101010605050100000000A7
:1003400000000000010101000000000000000105A4
:10035000060100000000000001010605050601007D
:100360000000010106080808060501010001080156
:10037000090303030409010801000901040104023F
:100380000301010901000109010303020203010144
:100390000000010101040303020401010000000147
:1003A000070103040301010100000106010109091D
:1003B000010106090100010505010101040106050D
:1003C0000100010608080102030401010000000108
:1003D00009080103010101010000000101010801F8
:1003E00005050101000000010104030106060501E5
:1003F00000000000010101010101060100000000F0
:1004000000000101010101000000010301010909CF
:1004100001010401000105050403010104030605AF
:10042000010109060102020203010609010108098E
:100430000003020303010908010001010408080880
:100440000904010100000106010403030400060180
:10045000000001050601010101060501000000017F
:10046000010100000001010000000000010403047C
:100470000401000000000001030202020304010065
:100480000000010106050608090301010001090732
:100490000505050605050708010109060606060902
:1004A00006060609010001060B0D08080D0B0601E2
:1004B000000001090A0C08080C0A090100000001EB
:1004C00009080808080901000000000000240027AE
:1004D000002A0000000000250028002B000404046E
:1004E00004040404040202020202020303030303DD
:1004F00003010204081020408001020408102001BA
:10050000020408102000000008000201000003049B
:1005100007000000000000000000000000000000D4
:100520000030787830300030006C6C6C00000000D7
:10053000006C6CFE6CFE6C6C00307CC0780CF8308B
:100540000000C6CC183066C600386C3876DCCC7635
:10055000006060C00000000000183060606030186B
:1005600000603018181830600000663CFF3C6600E0
:1005700000003030FC30300000000000000070301F
:1005800060000000FC0000000000000000003030AF
:1005900000060C183060C0800078CCDCFCECCC7815
:1005A0000030F030303030FC0078CC0C3860CCFCBF
:1005B0000078CC0C380CCC78001C3C6CCCFE0C0CBD
:1005C00000FCC0F80C0CCC78003860C0F8CCCC78BB
:1005D00000FCCC0C183060600078CCCC78CCCC78A7
:1005E0000078CCCC7C0C187000000030300030302B
:1005F000000000303000703060183060C06030188B
:10060000000000FC00FC0000006030180C18306096
:100610000078CC0C18300030007CC6DEDEDEC078FE
:10062000003078CCCCFCCCCC00FC66667C6666FCEA
:10063000003C66C0C0C0663C00FC6C6666666CFC34
:1006400000FE6268786862FE00FE6268786860F0AA
:10065000003C66C0C0CE663E00CCCCCCFCCCCCCC42
:100660000078303030303078001E0C0C0CCCCC7858
:1006700000E6666C786C66E600F06060606266FEBC
:1006800000C6EEFED6C6C6C600C6E6F6DECEC6C6B6
:1006900000386CC6C6C66C3800FC66667C6060F0CC
:1006A0000078CCCCCCDC781C00FC66667C786CE6F0
:1006B0000078CCE0381CCC7800FCB4303030307896
:1006C00000CCCCCCCCCCCCFC00CCCCCCCCCC7830C2
:1006D00000C6C6C6D6FEEEC600C6C66C386CC6C618
:1006E00000CCCCCC7830307800FECC983062C6FE9E
:1006F000007860606060607800C06030180C0602AE
:1007000000781818181818780010386CC600000007
:100710000000000000000000FF3030180000000062
:10072000000000780C7CCC7600E0607C666666BCDD
:1007300000000078CCC0CC78001C0C0C7CCCCC76B3
:1007400000000078CCFCC07800386C60F06060F08D
:1007500000000076CCCC7C0CF8E0606C766666E637
:10076000003000703030307800180078181818D831
:1007700070E060666C786CE6007030303030307855
:10078000000000ECFED6C6C6000000F8CCCCCCCCF5
:1007900000000078CCCCCC78000000DC66667C6081
:1007A000F0000076CCCC7C0C1E0000D86C6C60F0A5
:1007B0000000007CC0780CF80010307C3030341819
:1007C000000000CCCCCCCC76000000CCCCCC783077
:1007D000000000C6C6D6FE6C000000C66C386CC6B1
:1007E000000000CCCCCC7C0CF80000FC983064FC01
:1007F000001C3030E030301C001818180018181891
:1008000000E030301C3030E00076DC0000000000FA
:100810000010386CC6C6C6FE00001E2811241FBE7C
:10082000CFEFD8E0DEBFCDBF12E0A0E0B1E0ECE951
:10083000F7E502C005900D92A23BB107D9F724E07D
:10084000A2EBB2E001C01D92A832B207E1F714E0BA
:10085000CEE0D4E004C02197FE010E94B228CD3042
:10086000D107C9F70E94C41A0C94CC2B0C94000039
:10087000CF92DF92EF92FF920F931F93CF93DF936C
:100880006C017A018B01C0E0D0E0CE15DF0589F064
:10089000D8016D918D01D601ED91FC910190F0810F
:1008A000E02DC6010995892B11F47E0102C0219625
:1008B000ECCFC701DF91CF911F910F91FF90EF9087
:1008C000DF90CF900895FC01918D828D981761F093
:1008D000828DDF01A80FB11D5D968C91928D9F5F77
:1008E0009F73928F90E008958FEF9FEF0895FC0122
:1008F000918D828D981731F0828DE80FF11D858DD5
:1009000090E008958FEF9FEF0895FC01918D228D67
:10091000892F90E0805C9F4F821B91098F739927EC
:100920000895FC01848DDF01A80FB11DA35ABF4FAC
:100930002C91848D90E001968F739927848FA689DE
:10094000B7892C93A089B1898C9180648C93938D05
:10095000848D981306C00288F389E02D80818F7DF5
:1009600080830895EF92FF920F931F93CF93DF93AD
:10097000EC0181E0888F9B8D8C8D981305C0E889F0
:10098000F989808185FD24C0F62E0B8D10E00F5F64
:100990001F4F0F731127E02E8C8DE8120CC00FB67D
:1009A00007FCFACFE889F989808185FFF5CFCE0170
:1009B0000E949104F1CF8B8DFE01E80FF11DE35AE7
:1009C000FF4FF0820B8FEA89FB898081806207C02C
:1009D000EE89FF896083E889F9898081806480835A
:1009E00081E090E0DF91CF911F910F91FF90EF9008
:1009F0000895CF93DF93EC01888D8823C9F0EA89AD
:100A0000FB89808185FD05C0A889B9898C9186FD07
:100A10000FC00FB607FCF5CF808185FFF2CFA88904
:100A2000B9898C9185FFEDCFCE010E949104E7CF6B
:100A3000DF91CF9108950E94D22A8F929F92AF9218
:100A4000BF92CF92EF92FF920F931F93CF93DF93BA
:100A50005C014A01F9019491E9019923E1F0D50182
:100A6000ED91FC910684F785E02DCC24C394EE240F
:100A7000EA94FE2C00E010E0292FA401C50109959D
:100A8000BC012196F50186819781861797071CF096
:100A9000FE019491E2CFCB01DF91CF911F910F9195
:100AA000FF90EF90CF90BF90AF909F908F90089560
:100AB0002F923F924F925F926F927F928F929F926E
:100AC000AF92BF92CF92DF92EF92FF920F931F935C
:100AD000CF93DF93CDB7DEB766970FB6F894DEBF3E
:100AE0000FBECDBF1C016B015A0148012701AB01AC
:100AF000420F531F5A834983B501600F711F788BD2
:100B00006F87C6010A969C838B8326513109B601F3
:100B1000655F7F4FA501C1010E94E10D94E1891A33
:100B20009108F5013A96FA87E98784012BE030E0D5
:100B3000AF01B601C1010E94E10D69807A80FBE03E
:100B40006F1A71082BE030E049855A85B301C10165
:100B50000E94E10D2F8538892B5031093A8B298B62
:100B600089849A847E826D8246EF5FEF58874F8337
:100B70006AE070E07E8B6D8B1C861B86C6018A192D
:100B80009B099C8B8B8BEF85F88929813A81E21B2D
:100B9000F30BF88BEF87720184012B813C81A40158
:100BA000B9018D899E89681B790B7A836983C1019C
:100BB0000E94390FA984BA84ED89FE89AE1ABF0A52
:100BC00085012B813C81A5016B897C89680D791D8C
:100BD0007E876D87C1010E94390F84019301A401B2
:100BE000CD88DE88C60CD71CB601C1010E94390F22
:100BF00085019301A5016D817E81C1010E94390F9C
:100C0000AF84B8888D819E81A80EB91E850193019D
:100C1000A501B601C1010E94390FC988DA88ED89A2
:100C2000FE89CE0EDF1E86019301A6016D817E81B5
:100C3000C1010E94390F85012B813C81A501698189
:100C40007A81C1010E94390F86012B813C81A60166
:100C50006D857E85C1010E94390F8B859C8501962B
:100C60002F8138854B855C85240F351FB901680FAE
:100C7000791F78876F8377FD0DC0ED89FE893197E5
:100C8000FE8BED8B9B012E1B3F0BA9014E1B5F0BB7
:100C900058874F8351E0851A91086D817E816F5F7F
:100CA0007F4F7E836D839C878B87ED89FE89E81754
:100CB000F9070CF070CF66960FB6F894DEBF0FBE42
:100CC000CDBFDF91CF911F910F91FF90EF90DF90FB
:100CD000CF90BF90AF909F908F907F906F905F90DC
:100CE0004F903F902F9008954F925F926F927F9216
:100CF0008F929F92AF92BF92CF92EF92FF920F93FB
:100D00001F93CF93DF935C01CB014A013801270188
:100D1000E90129912223A1F0D501ED91FC910684EE
:100D2000F785E02D32E0C32E72018301A401BC01DE
:100D3000C5010995F50126813781281739074CF738
:100D4000DF91CF911F910F91FF90EF90CF90BF90C7
:100D5000AF909F908F907F906F905F904F9008958D
:100D6000AF92BF92CF92DF92EF92FF920F931F93B9
:100D7000CF93DF93CDB7DEB761970FB6F894DEBFA0
:100D80000FBECDBF6C015B01CA0189014AE0BE0103
:100D90006F5F7F4F0E94E72A81E1E82E84E7F82EFB
:100DA0009E012F5F3F4F45E650E0B501C6010E940E
:100DB000740661960FB6F894DEBF0FBECDBFDF910B
:100DC000CF911F910F91FF90EF90DF90CF90BF9048
:100DD000AF9008956F927F928F929F92AF92BF9241
:100DE000CF92DF92EF92FF920F931F93CF93DF93F7
:100DF000EC016B015A01390148018AECE82E82ECC2
:100E0000F82E21E030E0CE010E94E10DA501480D51
:100E1000591D4150510901E010E09301B601CE0186
:100E20000E94E10DB601660D771D615071098401C4
:100E300021E030E0A501CE010E94E10D01E010E0CB
:100E40009301A501B601CE010E94E10DDF91CF9182
:100E50001F910F91FF90EF90DF90CF90BF90AF90D8
:100E60009F908F907F906F9008952F923F924F9216
:100E70005F926F927F928F929F92AF92BF92CF922A
:100E8000EF92FF920F931F93CF93DF935C013B018F
:100E90004A012901C0E0D0E088E290E0F401248119
:100EA0003581C217D30740F5D501ED91FC91268419
:100EB0003784F401A081B181109729F410926B035B
:100EC000ABE6B3E002C0AC0FBD1F22E0C22E31E1A1
:100ED000E32E34E7F32E82012C91A301BC01C5015E
:100EE000F1010995D50116962D913C911797281778
:100EF000390714F02196D2CFDF91CF911F910F9136
:100F0000FF90EF90CF90BF90AF909F908F907F9089
:100F10006F905F904F903F902F90089590E0FC016C
:100F2000EB5FFA4F2491FC01EF50FB4F3491FC0131
:100F3000E352FB4FE491EE23B1F1222339F1233048
:100F400091F038F42130A9F0223001F584B58F7D7D
:100F500012C0273091F02830A1F02430B9F48091EC
:100F600080008F7D03C0809180008F778093800008
:100F70000DC084B58F7784BD09C08091B0008F7794
:100F800003C08091B0008F7D8093B000F0E0EE0F41
:100F9000FF1FED52FB4FA591B4918FB7F894EC91E0
:100FA0003E2B3C938FBF0895EF92FF920F931F93B8
:100FB000CF93DF93EC01198218821B821A821D8263
:100FC0001C8261157105A9F17B01FB0101900020D4
:100FD000E9F731978F01061B170BB8016F5F7F4F41
:100FE00080E090E00E94082A009759F09983888356
:100FF0001B830A832C813D81232B81F4FC01108209
:101000000DC088819981009711F00E947029198282
:1010100018821D821C821B821A820BC01D830C83C6
:10102000B701DF91CF911F910F91FF90EF900C943A
:10103000E02ADF91CF911F910F91FF90EF900895DB
:101040001F920F920FB60F9211242F933F934F933D
:101050005F936F937F938F939F93AF93BF93EF9320
:10106000FF938EEB92E00E949104FF91EF91BF916C
:10107000AF919F918F917F916F915F914F913F9130
:101080002F910F900FBE0F901F9018951F920F92E7
:101090000FB60F9211242F938F939F93EF93FF938B
:1010A000E091CE02F091CF028081E091D402F091E4
:1010B000D50282FD12C090818091D7028F5F8F731D
:1010C0002091D802821751F0E091D702F0E0E2546B
:1010D000FD4F958F8093D70201C08081FF91EF91E2
:1010E0009F918F912F910F900FBE0F901F90189589
:1010F000CF93DF9390E0FC01EF50FB4F2491FC0174
:10110000E352FB4F8491882361F190E0880F991F8F
:10111000FC01E753FB4FC591D491FC01ED52FB4F0D
:10112000A591B491611109C09FB7F8948881209569
:1011300082238883EC912E230BC0623061F49FB729
:10114000F8943881822F809583238883EC912E2B0D
:101150002C939FBF06C08FB7F894E8812E2B28836D
:101160008FBFDF91CF9108952F923F924F925F9260
:101170006F927F928F929F92AF92BF92CF92DF92A7
:10118000EF92FF920F931F93CF93DF9300D000D085
:10119000CDB7DEB79C838B83562E472E1901DC0119
:1011A00015968C91813009F09DC05A01612C712CEB
:1011B000C30163E070E00E949E28ACE0A69FC001DE
:1011C000A79F900D1124F101E80FF91FFA83E9831D
:1011D000C52CD42C812C912CC40163E070E00E94BA
:1011E0009E28E981FA81E60FF71FE4918E2F90E0A7
:1011F0008F30910508F05FC0FC01EC5CFF4F0C9450
:10120000B22808EAE02E01E3F02E3AC014E0E12E05
:1012100011E2F12E44C0BAE8EB2EB6E6FB2E30C048
:10122000A6ECEA2EA4E4FA2E3AC0F2E8EF2EF3E29E
:10123000FF2E26C0E8EAEE2EE3EAFE2E30C075E06F
:10124000E72E7AE7F72E1CC064E8E62E69E5F62E55
:1012500026C05CE4E52EFF24FA9412C043E2E42E9B
:101260004DEDF42E1CC0EE24EA94FE2C09C02BEFA9
:10127000E22E2EEDF22E13C098E1E92E95E8F92E1C
:1012800003E010E023E030E0A501B601EB81FC8132
:10129000808191810EC080E1E82E83E4F82E03E086
:1012A00010E023E030E0A501B601AB81BC818D9157
:1012B0009C910E94E10DB3E08B0E911CE3E0CE0EF9
:1012C000D11CF1E28F16910409F086CF23E0620E63
:1012D000711C33E0A30EB11C88E16816710409F09B
:1012E00067CF9EC0823009F09BC05A01612C712CDF
:1012F000C30163E070E00E949E28ECE0E69FC0011D
:10130000E79F900D11249101280F391F3A832983FB
:10131000C52CD42C812C912CC40163E070E00E9478
:101320009E28E981FA81E60FF71FE4918E2F90E065
:101330008F30910508F05EC0FC01ED5BFF4F0C940F
:10134000B22808EAE02E01E3F02E39C014E0E12EC5
:1013500011E2F12E43C0B8ECEB2EB9EEFB2E2FC0FC
:10136000A3E8EA2EA0EBFA2E39C0E12CF0E8FF2E1C
:1013700026C0E8EAEE2EE3EAFE2E30C075E0E72E46
:101380007AE7F72E1CC064E8E62E69E5F62E26C043
:101390005CE4E52EFF24FA9412C043E2E42E4DED06
:1013A000F42E1CC0EE24EA94FE2C09C02BEFE22E92
:1013B0002EEDF22E13C098E1E92E95E8F92E03E008
:1013C00010E023E030E0A501B601AB81BC818D9136
:1013D0009C910EC080E1E82E83E4F82E03E010E03B
:1013E00023E030E0A501B601EB81FC818081918191
:1013F0000E94E10DF3E08F0E911C23E0C20ED11C80
:1014000031E28316910409F087CF83E0680E711CE6
:10141000A3E0AA0EB11CB8E16B16710409F068CF05
:101420000F900F900F900F90DF91CF911F910F9120
:10143000FF90EF90DF90CF90BF90AF909F908F90F4
:101440007F906F905F904F903F902F900895CF9234
:10145000DF92EF92FF920F93FC0125831282138299
:1014600029E0C22E24E0D22E39E6E32E34E0F32E1A
:1014700000E020E00E9408190F91FF90EF90DF90AC
:10148000CF9008954F925F926F927F928F929F922A
:10149000AF92BF92CF92DF92EF92FF920F931F9382
:1014A000CF93DF93EC01E888F9888C899D890A89BC
:1014B0001B89E816F90609F474C0FD8AEC8A288DA8
:1014C000398D4A8D5B8DD7010E945C2B4B015C01ED
:1014D0002C8D3D8D4E8D5F8DD8010E945C2BAB0114
:1014E000BC01480D591D6A1D7B1D88A199A1AAA1A7
:1014F000BBA15A016B01A80EB91ECA1EDB1EC60194
:10150000B50128A939A94AA95BA90E949B2B4901C9
:101510005A01DA01C9012C813D812A35310509F1D1
:1015200018F4232B41F03BC0243B310521F02E3031
:101530003140B9F034C02E813F81A901440F551FBD
:1015400060E070E084169506A606B70628F5A901A6
:1015500060E070E084169506A606B70600F1C901A2
:1015600015C0488559852A01440C551C612C712CE5
:1015700084149504A604B70478F42A01612C712C14
:1015800084149504A604B70450F0CA010197092EEB
:10159000000CAA0BBB0B03C080E090E0DC019B8732
:1015A0008A878E899F890817190709F45FC01F8BE6
:1015B0000E8B2CA13DA14EA15FA1D7010E945C2BF7
:1015C0004B015C0128A539A54AA55BA5D8010E945D
:1015D0005C2BAB01BC01480D591D6A1D7B1D8CA500
:1015E0009DA5AEA5BFA55A016B01A80EB91ECA1EC6
:1015F000DB1EC601B50128A939A94AA95BA90E9429
:101600009B2BDA01C9016C817D816A35710571F00E
:1016100018F4672B41F028C0643B710521F06E304F
:10162000714021F021C06885798502C06E817F817B
:101630004B01880C991CA12CB12C281539054A05A1
:101640005B0578F44B01A12CB12C281539054A050E
:101650005B0550F0CB010197092E000CAA0BBB0BC8
:1016600003C080E090E0DC019D878C87DF91CF9103
:101670001F910F91FF90EF90DF90CF90BF90AF90B0
:101680009F908F907F906F905F904F900895CF9232
:10169000EF92FF920F931F93CF93DF93EC01262FCE
:1016A0006A3081F48EAD9FAD9BAF8AAF2CA92F77A6
:1016B0008CAD9DAD38E0239F800D911D11249DAF11
:1016C0008CAF47C0862F8B7F893009F442C06AAD4A
:1016D0007BAD203219F461157105D9F1E881F981EA
:1016E000E8ACF9AC0EA91FA94CAD5DAD0088F1893D
:1016F000E02DCCA8CE010995BC019BAF8AAF8DA986
:10170000882339F12CA92F77822F90E048EF4203EC
:10171000900111244E815F81420F531F46175707D6
:10172000C4F44EAD5FAD5BAF4AAF43E0880F991F85
:101730004A95E1F74CAD5DAD840F951F9DAF8CAF21
:1017400048855985240F351F2817390714F41DAE15
:101750001CAE81E090E0DF91CF911F910F91FF903F
:10176000EF90CF900895CF92EF92FF920F931F9337
:10177000DC01ED91FC910684F785E02D09951F9120
:101780000F91FF90EF90CF9008952F923F924F923C
:101790005F926F927F928F929F92AF92BF92CF9201
:1017A000DF92EF92FF920F931F93CF93DF9300D0BE
:1017B0001F92CDB7DEB79B838A83480188E0280259
:1017C00090011124D901A75EBB4F5D01BC2DBF77ED
:1017D000CB2EEA81FB8186819781F1E0FB1708F42B
:1017E00063C06B0128E0C20ED11C8C159D050CF462
:1017F0006EC0AA81BB811896ED91FC9119979A0150
:10180000285F3F4FE217F3070CF461C0AA81BB8148
:10181000ED91FC9111978A01095F1F4F9B01295F90
:101820003F4F0680F781E02DCD010995AA81BB814C
:10183000ED91FC9111970084F185E02DCD01099582
:101840008501085F1F4FF5014490FFEFAF1ABF0AF3
:1018500098E0692E712C20E8522EAA81BB81ED916F
:10186000FC911197852D84210284F385E02D882336
:1018700019F0B401CD0103C0B7018A819B8109959C
:101880005694B1E06B1A710841F7A016B106D9F66B
:10189000AA81BB81ED91FC9111970484F585E02D1F
:1018A000CD010995C60176C0B8E0CB9E8001112418
:1018B0003B01600E711E861597054CF0040F151F35
:1018C000EA81FB81208531852017310714F40196C8
:1018D00061C0AA81BB81ED91FC9111970150110962
:1018E0000680F781E02D930121503109CD01099542
:1018F000AA81BB81ED91FC9111970084F185E02DC7
:10190000CD0109952501B8E04B0E511CF50124903D
:10191000FFEFAF1ABF0A3C2C08E010E080E8D82E99
:101920008D2D82212C2DA1F0AA81BB81ED91FC91FE
:1019300011970284F385E02DB401CD012983099527
:101940002981215089F7D6940150110949F710C017
:10195000AA81BB81ED91FC9111970284F385E02D62
:10196000B701CD01298309952981215089F7EBCF52
:101970003A943110D1CFA414B50409F0C7CFAA818D
:10198000BB81ED91FC9111970484F585E02DCD018B
:101990000995C3010F900F900F90DF91CF911F9188
:1019A0000F91FF90EF90DF90CF90BF90AF909F90FE
:1019B0008F907F906F905F904F903F902F90089501
:1019C00085ED8093BC008091BC0084FDFCCF10921B
:1019D000FC0308950895E0911D0480911E04E8170A
:1019E00030F4F0E0E350FC4F808190E008958FEFF9
:1019F0009FEF089590911D0480911E04981750F454
:101A0000E92FF0E0E350FC4F208130E09F5F90939E
:101A10001D0402C02FEF3FEFC901089580911E04FD
:101A200090E020911D04821B910908950F931F934C
:101A3000CF93DF93EC016930710519F06A357105B8
:101A400071F48AE590E09D838C8380EF90E09F8322
:101A50008E8380E491E09987888718E434C06231EE
:101A6000710519F0643B710571F484EB90E09D837E
:101A70008C8380E491E09F838E8380EF90E0998750
:101A8000888718E320C06B31710521F07E7F6E30AE
:101A9000710571F48EE091E09D838C8380EF90E07E
:101AA0009F838E8380E491E09987888718E80BC034
:101AB0001D821C8280E491E09F838E8380EF90E002
:101AC0009987888718EE66E3CE010E947A15612F08
:101AD000CE010E946B15E881F981088519850150B6
:101AE00011092E813F81215031090680F781E02DB7
:101AF00040E050E060E070E0CE010995DF91CF91C9
:101B00001F910F9108959CB5282F23709C7F922BD5
:101B10009CBD2DB582FB992790F9822F8E7F892B52
:101B20008DBD08958EBD00000DB407FEFDCF8EB5AE
:101B30000895CF93DF93EC010E94420A8C819D812E
:101B4000009719F48C859D8516C08A35910529F476
:101B5000288539858A859B8507C0843B910549F492
:101B6000288539858C859D85A901481B590BCA019B
:101B700002C08A859B85DF91CF910895CF93DF9333
:101B8000EC010E94420A8C819D81009719F48A859C
:101B90009B8514C08A35910519F48C859D850EC0EE
:101BA0002E813F81843B910519F48A859B8502C073
:101BB0008C859D85A901481B590BCA01DF91CF91E6
:101BC00008958F929F92AF92BF92CF92DF92EF9241
:101BD000FF920F931F93CF93DF93EC01690158019C
:101BE0002E813F81621773071CF0B90161507109A2
:101BF00088859985481759071CF0AC014150510957
:101C0000FB01EC0DFD1DE217F3071CF06901C61A7C
:101C1000D70A9A012A0D3B1D281739071CF05C01D1
:101C2000A41AB50AE881F9818A010A0D1B1D015029
:101C300011099B012C0D3D1D215031090680F781B2
:101C4000E02DCE010995E881F9810084F185E02D30
:101C5000CE0109959501D6010E94B8284B015C017F
:101C6000E881F98181149104A104B10461F0028436
:101C7000F385E02DB701CE01099581E0881A91081E
:101C8000A108B108EDCF0484F585E02DCE01DF91E8
:101C9000CF911F910F91FF90EF90DF90CF90BF9069
:101CA000AF909F908F900994EF92FF920F931F93A4
:101CB000CF93DF93EC018E819F81681779075CF5E4
:101CC000888599854817590734F57901E881F981A4
:101CD0000680F781E02D8A019B01CE010995E881FC
:101CE000F9810084F185E02DCE010995E881F98123
:101CF0000284F385E02DB701CE010995E881F981D1
:101D00000484F585E02DCE01DF91CF911F910F91D5
:101D1000FF90EF900994DF91CF911F910F91FF9069
:101D2000EF9008952F923F924F925F926F927F9221
:101D30008F929F92AF92BF92CF92DF92EF92FF92DB
:101D40000F931F93CF93DF9300D000D0CDB7DEB7B2
:101D50006C013B015A01790144245524421A530A6B
:101D60001C821B822B813C81E216F3060CF46AC0B4
:101D70008B809C808A0C9B1C9801A40113012E0C63
:101D80003F1CB101C6010E94540E9801A401C30179
:101D90008E199F099A838983BC01C6010E94540E43
:101DA0004501EB81FC818E1A9F0A9801A401B101C3
:101DB000C6010E94540E9801A40169817A81C6016E
:101DC0000E94540E2B803C80260C371C9801450144
:101DD0008E0C9F1CA401B101C6010E94540E9301F8
:101DE0008B819C81281B390B3A8329839801A4019C
:101DF00069817A81C6010E94540E980145018E18AE
:101E00009F08A401B101C6010E94540E9801A401CB
:101E100069817A81C6010E94540E8B819C81019652
:101E2000EB81FC814E0E5F1E480E591E57FC07C009
:101E3000F1E0EF1AF1084E185F084E185F089C8316
:101E40008B8390CF0F900F900F900F90DF91CF91D9
:101E50001F910F91FF90EF90DF90CF90BF90AF90C8
:101E60009F908F907F906F905F904F903F902F90BA
:101E700008952F923F924F925F926F927F928F922E
:101E80009F92AF92BF92CF92DF92EF92FF920F9309
:101E90001F93CF93DF93CDB7DEB728970FB6F89493
:101EA000DEBF0FBECDBF4C016B0158874F83590178
:101EB00062177307A1F40417150744F404271527C4
:101EC0004027512758874F83042715272F813885AE
:101ED000021B130B0F5F1F4F21E030E015C04F8135
:101EE000588540175107B9F42617370734F4A6264A
:101EF000B726CA24DB24AC24BD2495012C193D0946
:101F00002F5F3F4F01E010E04F815885B601C401BB
:101F10000E94E10DA0C0FC01268137816217730782
:101F200024F06901F1E0CF1AD108F4018085918590
:101F30004F8158854817590724F0FC013197F887DD
:101F4000EF83A216B30624F05901F1E0AF1AB108ED
:101F5000081719071CF08C010150110935016C1884
:101F60007D0828012F813885421A530A77FE08C060
:101F70007194619471084FEF5FEF5A83498304C0F5
:101F800081E090E09A83898357FE08C05194419480
:101F90005108EFEFFFEFFC83EB8304C021E030E05A
:101FA0003C832B83A301440F551F5E834D83120195
:101FB000220C331C97014F815885B601C4010E9441
:101FC000540E461457041CF5810106191709CA144A
:101FD000DB0409F440C017FD0CC08F819885EB81AC
:101FE000FC818E0F9F1F98878F832D813E81021B5E
:101FF000130B49815A81C40ED51E020D131D970182
:102000004F815885B601C4010E94540EE0CFAD80C7
:10201000BE80A418B5088F81988580179107D9F0E4
:10202000B7FC06C089819A81C80ED91EA218B308D0
:10203000EF81F8852B813C81E20FF31FF887EF8356
:102040004D815E81A40EB51E9701AF01B601C4019A
:102050000E94540EE0CF28960FB6F894DEBF0FBE54
:10206000CDBFDF91CF911F910F91FF90EF90DF9047
:10207000CF90BF90AF909F908F907F906F905F9028
:102080004F903F902F9008958F929F92AF92BF9262
:10209000EF92FF920F931F93CF93DF93EC017B019D
:1020A000E881F98108851985015011092E813F8148
:1020B000215031090680F781E02D40E050E060E0DA
:1020C00070E00995E881F9810084F185E02DCE0169
:1020D0000995AE81BF81288539850E94B8284B01BA
:1020E0005C0183E0B694A794979487948A95D1F77E
:1020F000E881F98181149104A104B10409F444C078
:102100000284F385E02DB701CE010995E881F981BC
:102110000284F385E02DB701CE010995E881F981AC
:102120000284F385E02DB701CE010995E881F9819C
:102130000284F385E02DB701CE010995E881F9818C
:102140000284F385E02DB701CE010995E881F9817C
:102150000284F385E02DB701CE010995E881F9816C
:102160000284F385E02DB701CE010995E881F9815C
:102170000284F385E02DB701CE01099581E0881A2C
:102180009108A108B108B4CF0484F585E02DCE01F3
:10219000DF91CF911F910F91FF90EF90BF90AF9083
:1021A0009F908F9009941F920F920FB60F92112457
:1021B0002F933F934F935F936F937F938F939F934F
:1021C000AF93BF93EF93FF938091B900887F8036E0
:1021D00009F49CC068F5883209F45BC090F4803142
:1021E00009F454C038F4882309F4F6C0883009F49F
:1021F0004DC0F6C0883109F44CC0803209F45DC08E
:10220000EFC0803409F468C048F4803309F455C045
:10221000883309F0E5C08093FA03D8C0803509F40B
:102220004FC0883509F45DC0883409F0D9C0D6C0E4
:10223000883909F4C7C0A8F4883709F467C038F4AE
:10224000883609F463C0803709F460C0C9C0883893
:1022500009F4B8C0803909F45FC0803809F0C0C003
:102260005BC0803B09F486C038F4803A09F466C04C
:10227000883A09F47FC0B4C0803C09F4A7C0883C08
:1022800009F4A4C0883B09F48AC0AAC08091F7036E
:1022900010C09091F9038091F803981770F5E091C0
:1022A000F90381E08E0F8093F903F0E0EA52FC4FCE
:1022B00080818093BB0085EC86C08093FA038EC03A
:1022C000E091F90381E08E0F8093F9038091BB00C8
:1022D000F0E0EA52FC4F80839091F9038091F8037B
:1022E0006EC0E091F90381E08E0F8093F903809135
:1022F000BB00F0E0EA52FC4F80838091FB03811128
:102300006DC081E08093F60384EA61C083E080932E
:10231000FC031092B203CFCF8091B203803208F059
:1023200051C0E091B20381E08E0F8093B20380919F
:10233000BB00F0E0EE56FC4F8083BDCF85EC809370
:10234000BC001092FC038091B203803230F4E09123
:10235000B203F0E0EE56FC4F10826091B20370E0E1
:10236000E0919003F091910382E993E00995109236
:10237000B20336C084E08093FC0310928F03109266
:102380008E03E0918C03F0918D03099580918E036B
:10239000811105C081E080938E0310926C03E0915F
:1023A0008F0381E08E0F80938F03F0E0E459FC4FA0
:1023B00080818093BB0090918F0380918E0398174A
:1023C00008F479CF85E88093BC000AC085EC80933F
:1023D000BC001092FC0304C01092FA030E94E00CAF
:1023E000FF91EF91BF91AF919F918F917F916F91ED
:1023F0005F914F913F912F910F900FBE0F901F90C3
:10240000189540918E03262F30E0240F311D213284
:102410003105DCF42091FC032430C9F4FC0180E098
:1024200090E0861758F430918E032191DC01A45975
:10243000BC4FA30FB11D2C930196F3CF80918E0357
:10244000680F60938E0380E0089581E0089582E034
:102450000895CF92DF92EF92FF920F931F93CF9345
:10246000DF937C01262F972F8A018091B303882365
:1024700091F0C62FD72F6E01C40ED51ECC15DD05E9
:1024800071F06991D701ED91FC910190F081E02DFF
:10249000C7010995F3CF642F822F0E940112C80152
:1024A000DF91CF911F910F91FF90EF90DF90CF9030
:1024B00008950895FC0184818230A9F118F48130D7
:1024C00041F0ACC0833009F457C0843009F47BC0BC
:1024D000A5C080858111A2C08781811120C086811D
:1024E00025819FEF920F42815381893009F496C074
:1024F0009B3009F493C03BE0839FD0011124A90FC6
:10250000B11DA40FB51F8C918150823008F486C094
:10251000222309F483C09583958588E101C09585C0
:10252000891B87837BC08085811176C0978191113B
:102530001AC0868195819F5F22813381893009F499
:102540006DC09B3009F46AC04BE0849FD001112418
:10255000A90FB11DA20FB31F8C918150823008F4D6
:102560005DC08585DECF8585890F8831D0F21782E1
:1025700085818F5F858352C0878181114FC080859F
:1025800081111EC026818FEF820F95814281538178
:10259000893009F443C09B3009F440C03BE0839F7D
:1025A000D0011124A90FB11DA40FB51F9C9191500A
:1025B0009230A0F1222391F18683958588E101C0B4
:1025C0009585891B22C08781811128C09085911132
:1025D00018C0A68181E08A0F9581228133818930DC
:1025E000E9F09B30D9F04BE0849FD0011124A90F72
:1025F000B11DA20FB31F8C918150823078F0858578
:1026000004C08585890F883110F4808707C0108643
:1026100086818F5F868302C081E0089508950895C2
:102620005F9A08950C9470290C947029CF93DF93CE
:102630001F92CDB7DEB7872F5F982B9A2D989CB548
:102640009F7B9CBD2D9A9CB590649CBD69830E9424
:10265000920D2B9A2D989CB59F7B9CBD2D9A9CB575
:1026600090649CBD6981862F0E94920D5F9A0F90A5
:10267000DF91CF910895CF93DF931F92CDB7DEB74F
:10268000872F2B9A2D989CB59F7B9CBD2D9A9CB52E
:1026900090649CBD69830E94920D2B9A2D989CB5E5
:1026A0009F7B9CBD2D9A9CB590649CBD6981862FB3
:1026B0000F90DF91CF910C94920D2F923F924F92F9
:1026C0005F926F927F928F929F92AF92BF92CF92C2
:1026D000DF92EF92FF920F931F93CF93DF93CDB7CB
:1026E000DEB763970FB6F894DEBF0FBECDBF6C01A7
:1026F0004B01860F971F9B8B8A8BFC01808DF60107
:1027000083A3868D978D0E94BE0D092E000CAA0B07
:10271000BB0B9C01AD012852310941095109A9E0C7
:10272000B0E00E94512B2CED30E040E050E00E94E0
:10273000322BEA89FB89208FF60183A1821709F4E5
:102740006BC0C401019632E3389F1001399F300CF1
:1027500011243101FAE06F0E711C21018AE0481A40
:10276000510897E1299FB0011124635D7F4F9AECD6
:10277000E92E92ECF92E83019B01A201F601868DD0
:10278000978D0E94390FF601A3A0F7E1AF9E50018B
:1027900011248DE2A80EB11C21E1E22E24E7F22ED5
:1027A0009501A201B501F601868D978D0E94390F22
:1027B00028EA31E3A101B501F601868D978D0E94CB
:1027C000540EF601A68CB78CC10105971C0193E04D
:1027D0008916910441F4838D811105C008EA11E343
:1027E00020EB32E013C0EA89FB89808D4BE0BE010B
:1027F0006F5F7F4F90E00E94F22A81E1E82E84E72C
:10280000F82E08EA11E39E012F5F3F4FA10168E116
:1028100071E0C5010E94740663960FB6F894DEBF9E
:102820000FBECDBFDF91CF911F910F91FF90EF9021
:10283000DF90CF90BF90AF909F908F907F906F90E0
:102840005F904F903F902F900895CF93C62F81E0D7
:102850008093B30382E580931F041092B403109217
:10286000D503642F8BE593E00E94421A6C2F8BE511
:1028700093E00E94421A8091D503813208F045C04E
:102880009091FC039111FCCF92E09093FC0391E0B6
:102890009093FB039FEF9093FA031092F9038093B8
:1028A000F803A5EBB3E026ED33E0F9019E2F921B70
:1028B000981718F49D919193F9CF1092F703809196
:1028C000F703846A8093F7038091F603813061F403
:1028D0001092F6038091F7038093BB008091BC00B7
:1028E00083FDF8CF85EC01C085EE8093BC0080911C
:1028F000FC038230E1F38091FA038F3F31F0809145
:10290000FA03803211F08091FA031092B40310920E
:10291000D5031092B3038FE39CE90197F1F700C050
:102920000000CF910895CF92DF92FF920F931F93F3
:10293000CF93DF93CDB7DEB72C970FB6F894DEBFF9
:102940000FBECDBF8C018091FC038111FCCF81E0D3
:102950008093FC038093FB039FEF9093FA03109204
:10296000F90395E09093F8038093F7038091F703C0
:10297000846A8093F7038091F603813061F41092AA
:10298000F6038091F7038093BB008091BC0083FD28
:10299000F8CF85EC01C085EE8093BC008091FC03EC
:1029A0008130E1F38091F903863018F4F090F90357
:1029B00002C036E0F32EA6EDB3E02DEF33E0F901CF
:1029C0008E2F821B8F1518F48D918193F9CF109261
:1029D0001D04F0921E04CE0101966C0180911D042D
:1029E000F81649F08BE593E00E94FA0CF60181930A
:1029F00091936F01F3CF8981F80180838B8181836B
:102A00008B859C859C0121703327F1E02F27F801ED
:102A1000258396958795F1E08F278170F80184834F
:102A200040E060E0C8010E942514F801208130E0F8
:102A3000828190E0A901481B590B4630510514F0E2
:102A400082E006C0821B930B069724F081E0F80118
:102A5000868302C0F8011682F801218130E083816B
:102A600090E0A901481B590B4630510514F083E052
:102A700006C0821B930B06971CF084E0F801868346
:102A8000F80186812C960FB6F894DEBF0FBECDBF3D
:102A9000DF91CF911F910F91FF90DF90CF9008951C
:102AA000CF9320E030E0DB01A20FB31F40E050E005
:102AB000CD91FA01E20FF31FE80FF91FC0834F5FBA
:102AC0005F4F4B305105A1F7255F3F4F233631054E
:102AD00051F7CF910895862F5F982B9A2D989CB52A
:102AE0009F7B9CBD2D9A9CB590649CBD0E94920DCD
:102AF0005F9A0895862F5F982B982D989CB59F7BA1
:102B00009CBD2D9A9CB590649CBD0E94920D5F9ACD
:102B100008956CE20E947A155F980895AF92BF9273
:102B2000CF92DF92EF92FF920F931F93CF93DF9399
:102B3000EC015B017A0169016AE20E947A15B50134
:102B4000CE010E941613B601CE010E9416136BE24D
:102B5000CE010E947A15B701CE010E941613B8016A
:102B6000CE01DF91CF911F910F91FF90EF90DF90F9
:102B7000CF90BF90AF900C941613BF92CF92DF927C
:102B8000EF92FF920F931F93CF93DF938C01FCB4CE
:102B9000DDB585E00E94830D5E9888EB0E94920D62
:102BA00080E00E94920DC82F88EC0E94920D80E078
:102BB0000E94920D5E9A80958F77CF77C80FC630AE
:102BC00008F45EC05E9880E90E94920D80E00E9449
:102BD000920DC82E80E00E94920D80E90E94920D15
:102BE00080E00E94920DD82E80E00E94920DE82E87
:102BF000CD1044C080ED0E94920D80E00E94920DA5
:102C0000D82E80E00E94920D80ED0E94920D80E00F
:102C10000E94920DB82E80E00E94920DDB102EC013
:102C200094E0C99E900111244E2D50E096E05595F8
:102C300047959A95E1F7422B532B6FEF73E0FB0119
:102C4000E41BF50BAF01A9F0F4E0DF9EB001112405
:102C5000282F30E086E0359527958A95E1F7262BD9
:102C6000372B2115310529F0F801518B408B338B1F
:102C7000228B8C2F90E0F801978786875E9A03C09D
:102C8000F80117861686FCBCDDBD81E0F8012685BB
:102C90003785232B09F480E0DF91CF911F910F91AD
:102CA000FF90EF90DF90CF90BF900895FC01A68534
:102CB000B78516968C911697848316968C918230E0
:102CC000A1F118F4813041F0EEC0833009F478C0EE
:102CD000843009F49EC0E7C08085811151C087818E
:102CE000811120C0868125819FEF920F42815381FF
:102CF000893009F4D8C09B3009F4D5C03BE0839FEC
:102D0000D0011124A90FB11DA40FB51F8C918150C2
:102D1000823008F4C8C0222309F4C5C09583958584
:102D200088E101C09585891B24C08085811128C058
:102D3000978191111AC0868195819F5F228133818D
:102D4000893009F4B0C09B3009F4ADC04BE0849FDA
:102D5000D0011124A90FB11DA20FB31F8C91815076
:102D6000823008F4A0C0858504C08585890F88312C
:102D700010F4878388C0178285818F5F858383C025
:102D8000682F70E09585292F30E0220F331F26171A
:102D9000370794F448E150E0461B570B24173507DA
:102DA0000CF481C0890F8087883121F486818F5F80
:102DB0008683108684E04AC0891B808783E046C0F2
:102DC0008781811129C08085811120C026818FEFE4
:102DD000820F958142815381893009F464C09B3010
:102DE00009F461C03BE0839FD0011124A90FB11DFC
:102DF000A40FB51F9C919150923008F454C0222327
:102E000009F451C08683958588E101C09585891BA9
:102E100039C087818823E1F0682F70E09585292FDC
:102E200030E0220F331F26173707C4F548E150E082
:102E3000461B570B24173507B4F1890F8783883158
:102E400021F485818F5F8583178282E084831BC094
:102E5000908591111AC0A68181E08A0F9581228107
:102E60003381893001F19B30F1F04BE0849FD00138
:102E70001124A90FB11DA20FB31F8C918150823074
:102E800090F08585808781E008958585890F883158
:102E9000C8F3108686818F5F8683F5CF891B878371
:102EA00081E08483089580E008955F926F927F921D
:102EB0008F929F92AF92BF92CF92DF92EF92FF924A
:102EC0000F931F93CF93DF93EC013B0169018D8139
:102ED000813009F058C07A01A12CB12C46018A0C2E
:102EE0009B1C83019BE0592EF401E50DF11DE4913B
:102EF0008E2F90E08F309105A0F5FC01EE5AFF4F28
:102F00000C94B22828EA31E326C024E031E223C041
:102F10002AE836E620C026EC34E41DC022E833E27D
:102F20001AC028EA33EA17C025E03AE714C024E8BB
:102F300039E511C02CE43FEF0EC023E23DED0BC09C
:102F40002FEF3FEF08C02BEF3EED05C028E135E83D
:102F500002C020E133E4A701B801888199810E9471
:102F6000540E5A940F5F1F4F8FEF5812BDCF8CE055
:102F7000A80EB11C8FEFE81AF80A80E6A816B10473
:102F800009F0ACCF5AC0823009F057C07A01A12CA9
:102F9000B12C46018A0C9B1C83018BE0582EF40156
:102FA000E50DF11DE4918E2F90E08F309105A0F595
:102FB000FC01EF59FF4F0C94B22828EA31E326C0F8
:102FC00024E031E223C028EC39EE20C023E830EBC6
:102FD0001DC020E030E81AC028EA33EA17C025E017
:102FE0003AE714C024E839E511C02CE43FEF0EC0E5
:102FF00023E23DED0BC02FEF3FEF08C02BEF3EED7E
:1030000005C028E135E802C020E133E4A701B8019A
:10301000888199810E94540E5A940F5F1F4F8FEF41
:103020005812BDCF8CE0A80EB11C8FEFE81AF80A39
:1030300080E6A816B10409F0ACCFDF91CF911F91C3
:103040000F91FF90EF90DF90CF90BF90AF909F9047
:103050008F907F906F905F9008956F927F928F9284
:103060009F92AF92BF92CF92DF92EF92FF920F9317
:103070001F93CF93DF93EC016B018D81813009F0B9
:103080005BC059018A013A0188E0680E711C4B014E
:103090008CE0880E911C7601F701EC19FD09EA0D10
:1030A000FB1DE4918E2F90E08F309105A0F5FC017F
:1030B000E059FF4F0C94B22828EA31E326C024E0FF
:1030C00031E223C02AE836E620C026EC34E41DC0F5
:1030D00022E833E21AC028EA33EA17C025E03AE7CB
:1030E00014C024E839E511C02CE43FEF0EC023E200
:1030F0003DED0BC02FEF3FEF08C02BEF3EED05C0BD
:1031000028E135E802C020E133E4A801B701888155
:1031100099810E94540E8FEFE81AF80AE814F90416
:1031200009F0BACF8CE0A80EB11C0F5F1F4F061537
:10313000170509F0B0CF5DC0823009F05AC05901BF
:103140008A013A0188E0680E711C4B018CE0880E00
:10315000911C7601F701EC19FD09EA0DFB1DE491C4
:103160008E2F90E08F309105A0F5FC01E158FF4FC4
:103170000C94B22828EA31E326C024E031E223C0CF
:1031800028EC39EE20C023E830EB1DC020E030E809
:103190001AC028EA33EA17C025E03AE714C024E849
:1031A00039E511C02CE43FEF0EC023E23DED0BC02A
:1031B0002FEF3FEF08C02BEF3EED05C028E135E8CB
:1031C00002C020E133E4A801B701888199810E94FF
:1031D000540E8FEFE81AF80AE814F90409F0BACF90
:1031E0008CE0A80EB11C0F5F1F4F0615170509F0E4
:1031F000B0CFDF91CF911F910F91FF90EF90DF90B3
:10320000CF90BF90AF909F908F907F906F900895D8
:103210004F925F926F927F928F929F92AF92BF92E6
:10322000CF92DF92EF92FF920F931F93CF93DF9392
:103230005C014B01EA01422E502E370142505109E8
:103240006250710988EAE82E81E3F82E04E110E06B
:1032500020E130E0F501808191810E94E10D930130
:10326000AE01B401C501411003C00E942D1802C077
:103270000E945517AE01485F5F4F9601B401C5012A
:10328000511012C0DF91CF911F910F91FF90EF90DD
:10329000DF90CF90BF90AF909F908F907F906F9076
:1032A0005F904F900C942D18DF91CF911F910F914B
:1032B000FF90EF90DF90CF90BF90AF909F908F9056
:1032C0007F906F905F904F900C945517AC0143988E
:1032D000FC01BC016E5F7F4F97E08081DA01A80F8F
:1032E000B11D12962C9130E0092E02C0359527951C
:1032F0000A94E2F720FF02C0419A01C04198429A25
:103300004298915050F73196E617F70729F7439AFC
:1033100008951F920F920FB60F9211240F931F93CF
:103320002F933F934F935F936F937F938F939F93CD
:10333000AF93BF93CF93DF93EF93FF93E091670336
:10334000F09168034A9B17C08081DF01AD5BBF4FDE
:103350008C93AF014B5B5F4FDA019C918F010A5B4D
:103360001F4FEF01CC5BDF4F913089F4D8019C9166
:10337000992319F00CC010824EC09CEE980F9B3020
:1033800090F1288130E02F5F3F4F28831DC0D80186
:103390001C92DA011C9218829181DF01A90FB11DE4
:1033A000A90FB11DBF01695B7F4FEB0128813981F6
:1033B00014963C932E93139721E0290F203289F421
:1033C0009183EB01198218829EED980F9B30E0F0FB
:1033D0008F528B3000F5D8018C9190E001968C9340
:1033E0001AC02183EECFE95BFF4F21E030E0088077
:1033F00002C0220F331F0A94E2F760817181262BED
:10340000372B31832083BDCFFA01208130E02F5F3D
:103410003F4F2083DDCFFF91EF91DF91CF91BF919F
:10342000AF919F918F917F916F915F914F913F915C
:103430002F911F910F910F900FBE0F901F90189515
:103440001F920F920FB60F9211248F939F93EF93B9
:10345000FF93E0916703F0916803808190E001960B
:103460008083E0916903F0916A03828190E0019684
:103470008283FF91EF919F918F910F900FBE0F90DC
:103480001F901895CF93DF931F92CDB7DEB7698356
:103490002091B3032223D1F02091D503203240F0B4
:1034A00021E030E0FC013383228380E090E015C00E
:1034B0008091B403E82FF0E0EB54FC4F99819083A6
:1034C0008F5F8093B4038093D50305C061E0CE0184
:1034D00001960E94011281E090E00F90DF91CF9160
:1034E00008951F920F920FB60F9211242F933F93BE
:1034F0004F935F936F937F938F939F93AF93BF93FC
:10350000EF93FF9387EF9DEF909385008093840066
:10351000809123048F5F8E3119F08093230423C0A0
:1035200010922304809122048130E9F4E091200478
:10353000F09121048181811111C0808181110AC023
:103540008AE080838183CF010E94661983E08093A3
:10355000220409C08150808389E001C081508183A9
:10356000CF010E946619FF91EF91BF91AF919F919A
:103570008F917F916F915F914F913F912F910F901C
:103580000FBE0F901F901895CF93DF93CDB7DEB786
:10359000CF56D1090FB6F894DEBF0FBECDBF81E480
:1035A00090E00E94DB28FC011382128215821482B3
:1035B00080E491E09783868380EF90E09187808715
:1035C000178616861586148613861286178A168A1B
:1035D000158A148A138A128A118A108A10AA11AACB
:1035E00012AA13AA11E014AB15AB17AA16AA8FEFF3
:1035F0009FEF91AF80AF17AE16AE15AE14AE13AEFF
:1036000012AE88EF91E091838083F093BD02E09346
:10361000BC0287E090E00E94DB287C01DC0116966A
:103620001C9210921D0410921E041092B40310926A
:10363000D5031092FC031093FB031092F60382E172
:103640000E948E0783E10E948E078091B9008E7FD1
:103650008093B9008091B9008D7F8093B90088E490
:103660008093B80085E48093BC0040EF65E5C70116
:103670000E9425144BEF60E0C7010E942514BFEFA4
:10368000E1EEF4E0B150E040F040E1F700C00000AE
:10369000C7010E949314C7010E949314D7018C9113
:1036A00012968C93129711968C91119713968C9376
:1036B000F092BB02E092BA0286E090E00E94DB2822
:1036C000FC01E090BC02F090BD02128213821482D1
:1036D000F182E0829093B9028093B80261E088E0C1
:1036E0000E947808289861E081E00E94780861E0F3
:1036F00087E00E94780861E08DE00E94780861E030
:103700008BE00E94780860E08CE00E94780859986D
:103710005F9A61E086E00E9478085E9AF701E05CBB
:10372000FF4F10828CB5837F8CBD8CB58F7D8CBD97
:103730001FB7F8948091B202811126C0E7EEF4E041
:103740008491EBEFF4E09491E82FF0E0EE0FFF1F8F
:10375000E753FB4FA591B491EC91E92319F48AE06A
:103760000E948E0761E08AE00E9478088CB5806133
:103770008CBD8CB580648CBD61E08DE00E947808C2
:1037800061E08BE00E9478088091B2028F5F8093A5
:10379000B2021FBF85E00E94830D5F9A2898BFEF99
:1037A000E0E7F2E0B150E040F040E1F700C0000097
:1037B000289A2FEF3BED45E0215030404040E1F7A3
:1037C00000C000009CE1C92E91E0D92E5FEFC51A20
:1037D000D50AF6013197E491EF3F51F18E2F807CAD
:1037E000803439F0803891F71E2F1F735601012F56
:1037F00013C01E2F1F735601012F011103C0C10EEC
:10380000D11CE4CFF5016491C7010E947A150150E3
:10381000FFEFAF1ABF0AF1CF002389F3F5016491DE
:10382000C7010E946B150150FFEFAF1ABF0AF4CF1A
:1038300060E070E0C7010E94441080E00E94830DA8
:10384000219A299A2090BC023090BD02E091CE02CC
:10385000F091CF0282E08083E091CA02F091CB0226
:103860001082E091CC02F091CD028FEC8083109217
:10387000D602E091D202F091D30286E08083E091FB
:10388000D002F091D102808180618083E091D002EA
:10389000F091D102808188608083E091D002F09124
:1038A000D102808180688083E091D002F091D102C2
:1038B00080818F7D8083D1011E968D919C911F9771
:1038C000892B09F047C080E090E00E941C2B8A3AC7
:1038D00009F040C07101B8E1EB0EF11C00E010E00E
:1038E0000F5F1F4FC8010E941C2BF70181937F01BE
:1038F0000C311105A9F719A288E388A382E38F8F01
:10390000BE01615E7F4FFB0101900020E9F7319716
:10391000AF01461B570B8EEB92E00E94380442E049
:1039200050E066E472E08EEB92E00E943804E09191
:103930006903F0916A038FEF90E091838083539A3B
:103940008FE09EE00197F1F700C00000539880E0FF
:1039500090E0E5C388E1E1EDF1E0DE0192960190AF
:103960000D928A95E1F7D10114960D90BC91A02D8E
:10397000E096BFAFAEAFE097D101ED91FC9104802E
:10398000F581E02D60E070E0C10109956FEF7FEFF8
:10399000C1010E944410F1014085518557FF02C0CA
:1039A0004F5F5F4F559547954A505109D101169683
:1039B0006D917C91179777FF02C06F5F7F4F759570
:1039C0006795625371092DEB31E0C1010E941D051D
:1039D000C1010E94BD158111FBCFFE01B296249654
:1039E000FFAFEEAF24971BAE1AAE8AAD9BAD039727
:1039F00009F4F7C02496AEADBFAD249714968D9010
:103A00009C9015974D905C9000E010E022E030E033
:103A1000A401B201C1010E94920E25E030E0A40190
:103A2000B201C1010E94920E00E018EF2AE030E0DE
:103A3000A401B201C1010E94920EC1010E94BD15F4
:103A4000882399F2EEEFFFEFFFAFEEAFC12CD12C40
:103A500012E0A12EB12CA601480D591DE12CB8EFA2
:103A6000FB2E8A0132016A0C7B1C9301C2018A1968
:103A70009B0928969FAF8EAF2897BC01C1010E9479
:103A8000390FA4014C195D098A01930128966EAD86
:103A90007FAD2897C1010E94390F3601640C751C57
:103AA000D201AC19BD092896BFAFAEAF2897A401CB
:103AB0004A0D5B1D8A019301BD01C1010E94390FAE
:103AC000A4014A195B098A01930128966EAD7FAD66
:103AD0002897C1010E94390FC6010196EEADFFADD6
:103AE000CE0EDF1E9601280F391F3FAF2EAF2F3F9E
:103AF0004FEF340759F051E0A51AB1086901CA180F
:103B0000DB08D601AA19BB09BFAFAEAF6C01A8167E
:103B1000B9060CF0A0CFEAADFBADA3E0EE0FFF1F9E
:103B2000AA95E1F721E030E02C0F3D1FE20FF31FD3
:103B3000D10150968D919C915197092E000CAA0BA2
:103B4000BB0B80839183A283B383D10152968D9165
:103B50009C915397092E000CAA0BBB0B8483958371
:103B6000A683B783BFEFE1EEF4E0B150E040F04050
:103B7000E1F700C000006FEF7FEFC1010E94441029
:103B80002AAD2230E9F0D10118964D915C91199738
:103B900057FF02C04F5F5F4F559547954A505109F7
:103BA000F1016681778177FF02C06F5F7F4F759566
:103BB00067956253710921EB31E0C1010E941D0537
:103BC0002AAD3BAD2F5F3F4F3BAF2AAF24964EADA2
:103BD0005FAD2497485F5F4F24965FAF4EAF249749
:103BE00004CF29813A814B815C8122962CAF3DAF75
:103BF0004EAF5FAF229789899A89AB89BC898AAF1A
:103C00009BAFACAFBDAF281B390B4A0B5B0B2E969D
:103C10002CAF3DAF4EAF5FAF2E972D853E854F85C4
:103C200058896E962CAF3DAF4EAF5FAF6E978D89C2
:103C30009E89AF89B88D2A968CAF9DAFAEAFBFAFCE
:103C40002A97281B390B4A0B5B0BA2962CAF3DAF72
:103C50004EAF5FAFA29729853A854B855C85269646
:103C60002CAF3DAF4EAF5FAF26978AAD9BADACADED
:103C7000BDAD281B390B4A0B5B0BA6962CAF3DAF95
:103C80004EAF5FAFA6972D813E814F815885AA9692
:103C90002CAF3DAF4EAF5FAFAA972A968CAD9DADCE
:103CA000AEADBFAD2A97281B390B4A0B5B0BAE9606
:103CB0002CAF3DAF4EAF5FAFAE97A2962CAD3DADF2
:103CC0004EAD5FADA2972E966CAD7DAD8EAD9FAD26
:103CD0002E970E948E286B017C01AE962CAD3DADD7
:103CE0004EAD5FADAE97A6966CAD7DAD8EAD9FAD82
:103CF000A6970E948E28C61AD70AE80AF90AD101A7
:103D0000D096CD92DD92ED92FC92D397CD28CE281D
:103D1000CF2809F4DCC12AA13BA14CA15DA1629688
:103D20002CAF3DAF4EAF5FAF6297CAA8DBA8ECA83F
:103D3000FDA829013A014C185D086E087F088AA584
:103D40009BA5ACA5BDA566968CAF9DAFAEAFBFAF32
:103D500066978C199D09AE09BF096A968CAF9DAF15
:103D6000AEAFBFAF6A97A3019201A2966CAD7DADD5
:103D70008EAD9FADA2970E948E284B015C016A9682
:103D80002CAD3DAD4EAD5FAD6A97AE966CAD7DADE1
:103D90008EAD9FADAE970E948E28861A970AA80A0C
:103DA000B90AD10158968D929D92AD92BC925B97C3
:103DB0002E966CAD7DAD8EAD9FAD2E970E948E2858
:103DC0004B015C01A3019201A6966CAD7DAD8EAD59
:103DD0009FADA6970E948E28861A970AA80AB90A4C
:103DE000F101848E958EA68EB78EA701960122963C
:103DF0006CAD7DAD8EAD9FAD22970E948E284B019C
:103E00005C0162962CAD3DAD4EAD5FAD62976AAD83
:103E10007BAD8CAD9DAD0E948E28A5019401261B23
:103E2000370B480B590B6E966CAD7DAD8EAD9FADCB
:103E30006E970E948E282B013C0166962CAD3DADFD
:103E40004EAD5FAD66976AAD7BAD8CAD9DAD0E940A
:103E50008E284B015C01A701960126966CAD7DADC5
:103E60008EAD9FAD26970E948E28A5019401261B3A
:103E7000370B480B590BAA966CAD7DAD8EAD9FAD3F
:103E8000AA970E948E28460E571E681E791E6296BB
:103E90002CAD3DAD4EAD5FAD629726966CAD7DAD60
:103EA0008EAD9FAD26970E948E286B017C01669691
:103EB0002CAD3DAD4EAD5FAD669722966CAD7DAD40
:103EC0008EAD9FAD22970E948E28A7019601261BDA
:103ED000370B480B590B2A966CAD7DAD8EAD9FAD5F
:103EE0002A970E948E28460E571E681E791E40A2F1
:103EF00051A262A273A22EA13FA148A559A5629624
:103F00002CAF3DAF4EAF5FAF62978EA89FA8A8AC15
:103F1000B9AC69017A01C818D908EA08FB088EA56E
:103F20009FA5A8A9B9A966968CAF9DAFAEAFBFAF4C
:103F3000669788199909AA09BB096A968CAF9DAF43
:103F4000AEAFBFAF6A97A7019601A2966CAD7DADEB
:103F50008EAD9FADA2970E948E282B013C016A96E0
:103F60002CAD3DAD4EAD5FAD6A97AE966CAD7DADFF
:103F70008EAD9FADAE970E948E28461A570A680AEA
:103F8000790A44A255A266A277A22E966CAD7DADA9
:103F90008EAD9FAD2E970E948E282B013C01A7016C
:103FA0009601A6966CAD7DAD8EAD9FADA6970E9495
:103FB0008E28461A570A680A790A40A651A662A6B0
:103FC00073A6A501940122966CAD7DAD8EAD9FAD1B
:103FD00022970E948E286B017C0162962CAD3DAD2C
:103FE0004EAD5FAD62976AAD7BAD8CAD9DAD0E946D
:103FF0008E28A7019601261B370B480B590B6E968E
:104000006CAD7DAD8EAD9FAD6E970E948E282B015D
:104010003C0166962CAD3DAD4EAD5FAD66976AAD89
:104020007BAD8CAD9DAD0E948E286B017C01A501FE
:10403000940126966CAD7DAD8EAD9FAD26970E9406
:104040008E28A7019601261B370B480B590BAA9601
:104050006CAD7DAD8EAD9FADAA970E948E28460EA9
:10406000571E681E791E62962CAD3DAD4EAD5FADFC
:10407000629726966CAD7DAD8EAD9FAD26970E9462
:104080008E286B017C0166962CAD3DAD4EAD5FADCB
:10409000669722966CAD7DAD8EAD9FAD22970E9446
:1040A0008E28A7019601261B370B480B590B2A9621
:1040B0006CAD7DAD8EAD9FAD2A970E948E28460EC9
:1040C000571E681E791E44A655A666A677A6D1017E
:1040D000ED91FC910480F581E02DE0966EAD7FAD11
:1040E000E097C1010995C1010E94BD158111FBCF67
:1040F0006AEA80E090E00E94242B7101B8E1EB0EA7
:10410000F11C01E010E0F70161917F01C8010E94FC
:10411000242B0F5F1F4F0D311105A9F7ECCBA7E73B
:10412000B5E01197F1F700C0000020813181082E21
:1041300002C0359527950A94E2F7539A20FF05C0EF
:10414000AFE5B9E01197F1F704C0A7E7B5E0119723
:10415000F1F700C00000539801968C309105F9F6F4
:10416000E7E7F5E03197F1F700C00000539A8FEBD5
:1041700092E10197F1F700C000005398A7E7B5E07E
:104180001197F1F700C00000F8941092800010928F
:10419000810087EF9DEF909385008093840080914C
:1041A000810085608093810080916F0081608093A1
:1041B0006F0078942224239436E0332E80912204D9
:1041C0008111B3C085E090E00E94DB285C01C090C3
:1041D000BC02D090BD02FC01128223821482D182E3
:1041E000C082C6010E94BD1561E174E7C6010E944C
:1041F000441028EAE22E21E3F22E02E310E028EC3C
:1042000030E048E250E06CE370E0C6010E945805DF
:104210000AEC12EC29E432E04CE350E060E570E097
:10422000C6010E94740602E310E028EC30E046E983
:1042300050E06CE370E0C6010E9458050AEC12ECF5
:1042400024E532E04AEA50E069E670E0C6010E94E7
:1042500074068FE39CE90197F1F700C00000C601E6
:104260000E94BD15D6011E968D919C911F97892B9A
:1042700009F450C0C6010E94BE0DCD970CF4D2C502
:10428000C6010E94BE0D8E3091400CF0CBC5C60118
:104290000E94990D8E970CF4C5C5C6010E94990D18
:1042A0008F3591050CF0BEC57AECE72E72ECF72E37
:1042B00002E310E028EC30E048E250E06CE370E00C
:1042C000C6010E94580508EA11E329E432E04CE3F4
:1042D00050E060E570E0C6010E947406E8EAEE2E48
:1042E000E1E3FE2E02E310E028EC30E046E950E086
:1042F0006CE370E0C6010E9458050AEC12EC24E55C
:1043000032E04AEA50E069E670E0C6010E947406B5
:10431000F5012482D50114968C91882309F499CF54
:1043200080932204C5010E9470291091220411304B
:1043300009F0A6C28DE090E00E94DB282BE0E9EEB8
:10434000F1E0DC01129601900D922A95E1F729E047
:10435000FC0120832183399A3A9A3B9A9093210455
:10436000809320048091C601813051F0823041F465
:1043700083E690E00E94DB288C0160E071E007C0DA
:1043800083E690E00E94DB288C0163E671E0C801BF
:104390000E9450151093B7020093B60282E190E09C
:1043A0000E94DB284C018091690390916A0320915F
:1043B000BA023091BB020091B6021091B702D4014B
:1043C00013961C930E93129740E452E011965C935F
:1043D0004E931F963C932E931E9751969C938E93CB
:1043E000509780E190E00E94DB287C018091670378
:1043F00090916803F7011383028326E332E031834F
:104400002083978786878AE090E00E94DB286C01F2
:104410002091B8023091B9028091BC029091BD0206
:10442000D60111969C938E9313961C930E9312971C
:1044300015969C928E9214971796FC92EE92169770
:1044400019963C932E93189761E174E70E944410EB
:1044500088EAE82E81E3F82E08ED10E028E031E04C
:104460004DE050E060E370E0F601808191810E94B0
:10447000E10D91E1692E712C212C312C2AAED30152
:104480001497BFAFAEAFB6E34B2E512CA12CB12C7D
:104490002BE0229DF001239DF00D11242496FFAF07
:1044A000EEAF2497B20166507109D6011296ED91D4
:1044B000FC9113972496EEACFFAC2497EA0CFB1CFE
:1044C000EE0DFF1D1081123081F188F4113009F0DA
:1044D0005BC001E1E02E04E7F02E08E110E028E1E6
:1044E00030E04EAD5FADF601808191812BC013307D
:1044F00061F1143009F048C022E0A301B201F601D5
:10450000808591850E94270AD6011696ED91FC912F
:104510001797A582BAADB683A186A28617821086A8
:104520001587F601828193812BC01AECE12E12ECE3
:10453000F12E08E110E028E130E04EAD5FADD6018C
:104540008D919C910E94E10D1FC021E0A301B20159
:10455000F601808591850E94270AD6011496ED9177
:10456000FC911597A582BAADB683A186A286178263
:10457000108624E02587D60112968D919C91139781
:10458000FC01EE0DFF1D1082FFEFAF1ABF0A28E1FC
:10459000420E511C3EE3431631E0530609F082CF30
:1045A0004FEF241A340A58E1650E711C89EE681623
:1045B000710409F063CFD092B502C092B40281E0D9
:1045C0008093B302552453948091BA029091BB0218
:1045D0000E949314D401ED91FC910480F581E02DAB
:1045E000C4010995882381F3A090B402B090B5026C
:1045F000D5011496ED91FC9115979285818544859E
:1046000050E0B8E19B9F400D511D1124435F5F4F67
:10461000638570E0E8E18E9F600D711D1124605D7F
:104620007F4FA8EAEA2EA1E3FA2E08E110E028E184
:1046300030E0D5018D919C910E94E10DD501149639
:10464000ED91FC9115971481123009F48CC030F46F
:10465000112389F1113009F44BC004C1133009F45E
:10466000C3C0143009F0FEC08681408550E028E1C7
:10467000829F400D511D11244F5E5F4F85816781E0
:1046800070E038E1839F600D711D11246A5C7F4FDB
:10469000D50118966D907C901997F301558252823E
:1046A00029EAC22E23E0D22E39E6E32E34E0F32E9F
:1046B000038121E0BEC096818581408550E0B8E14C
:1046C0009B9F400D511D11244F5E5F4F678170E02D
:1046D000E8E18E9F600D711D11246A5C7F4F21E01F
:1046E000D50118968D919C9119970E94270ABAC0FE
:1046F0008681408550E0B8E18B9F400D511D11240B
:104700004F5E5F4F8581678170E0E8E18E9F600DAD
:10471000711D11246A5C7F4FD50118966D907C90B5
:104720001997F3011583128313838481882359F029
:10473000E9ECCE2EE1E0DE2EF9E8EF2EF2E0FF2EDE
:1047400001E021E03AC029E2C22E22E0D22E39E86F
:10475000E32E32E0F32E01E021E0C3010E940819AC
:10476000F30114837FC08681408550E028E1829F59
:10477000400D511D11244F5E5F4F8581678170E0B0
:1047800038E1839F600D711D11246A5C7F4FD50154
:1047900018966D907C901997F301558212821382BE
:1047A0008481882389F089ECC82E81E0D82E99E88D
:1047B000E92E92E0F92E00E020E0C3010E940819E2
:1047C000D30114961C924EC019E2C12E12E0D12ED4
:1047D00009E8E02E02E0F02E00E020E0C3010E9494
:1047E0000819F30154823EC08681408550E028E1DB
:1047F000829F400D511D11244F5E5F4F858167815F
:1048000070E038E1839F600D711D11246A5C7F4F59
:10481000D50118966D907C901997F3015582A9EEF9
:10482000CA2EA2E0DA2EB9E4EB2EB3E0FB2E038110
:104830002281C3010E940819D30112968C9112970C
:10484000882319F012961C9202C0F3015282D30100
:1048500013968C911397882319F013961C9202C01B
:10486000F3015382D5011496ED91FC911597858142
:104870008187868182878781838780858487A4CE8C
:10488000123009F080C185E290E00E94DB286C01C3
:10489000E090BC02F090BD026CE572E00E94D4078B
:1048A00067E672E0C60106960E94D40761E772E0EF
:1048B000C6010C960E94D4076EE772E0C6014296CC
:1048C0000E94D40729E0F601208F35E0318F87E080
:1048D000828F238E10A221A214A3F78EE68E61E1AF
:1048E00074E7C7010E94441081E1E82E84E7F82EA6
:1048F00008EA11E32BE832E043E050E06AEF70E0B1
:10490000D6015E968D919C915F970E947406360148
:10491000F6017896FBAFEAAF94E1A92EB12CFAAD7F
:104920002396FFAF23972BAD27962FAF27974501EF
:104930003EE1830E911C28EA31E3A301B501D601C3
:104940005E968D919C915F970E943507B8EAEB2E99
:10495000B1E3FB2E840121E031E0A40168E270E0C4
:10496000F601868D978D0E94390F4501F8E28F0E72
:10497000911C250124E1420E511C840128E230E003
:10498000A20168E270E0D6015E968D919C915F97DE
:104990000E94390F21E031E0A20161E071E0F601EF
:1049A000868D978D0E94390FD6015E960D90BC9131
:1049B000A02DBFAFAEAFEAADFBAD80814BE0BE0135
:1049C0006F5F7F4F90E00E94F22AA501475E5F4F24
:1049D00011E1E12E14E7F12E08EA11E39E012F5FA9
:1049E0003F4F68E171E08EAD9FAD0E947406AAADA5
:1049F000BBAD6D91BBAFAAAFB7E16B9FB001112406
:104A0000635D7F4F0AECE02E02ECF02E84019B01E7
:104A1000A201F601868D978D0E94390FF2E3AF0E49
:104A2000B11C26E0620E711C3CEDA316B10409F026
:104A30007ECFD6015E968D919C915F970E94BD15A9
:104A4000F601868D978DDC011E962D913C911F9766
:104A5000232B09F473C00E94BE0D88970CF45CC030
:104A6000F601868D978D0E94BE0D8A3091400CF024
:104A700053C0D6015E968D919C915F970E94990DCF
:104A80004E975CF0D6015E968D919C915F970E9447
:104A9000990D873491050CF419C2D6015E968D915B
:104AA0009C915F970E94990D833591055CF0D6012A
:104AB0005E968D919C915F970E94990D8C37910520
:104AC0000CF43DC2D6015E968D919C915F970E9439
:104AD000990D883891055CF0D6015E968D919C9178
:104AE0005F970E94990D813B91050CF42EC2D6016F
:104AF0005E968D919C915F970E94990D8E3B9105DA
:104B00005CF0D6015E968D919C915F970E94990D05
:104B1000873E91050CF421C2D6015E968D919C9141
:104B20005F970E94BE0D8B3F910544F0F601868D84
:104B3000978D0E94990D44970CF417C2D601949654
:104B40008C919497823009F474CF809322045B9601
:104B50008C918093C601C114D104A9F02396EFACC7
:104B600023972796FFAC2797EC14FD0449F0B6E095
:104B7000EB1AF108F701808191810E947029F4CF2E
:104B8000C7010E94702910912204133009F016CB3E
:104B900085E090E00E94DB284C01A090B802B09024
:104BA000B902C090BC02D090BD02DC0114961C93E7
:104BB00014971196DC92CE921396BC92AE921297F5
:104BC000C6010E94BD1561E174E7C6010E94441050
:104BD000F8EAEF2EF1E3FF2E00E410E020E330E0EE
:104BE0004EE150E066E470E0C6010E94E10D20E372
:104BF00030E04EE150E06EEC70E0C6010E94E10D45
:104C0000F501258229E634E046E250E06CE470E0EC
:104C1000C5010E94B40829E034E04EE350E06CE4A2
:104C200070E0C5010E94B408E2E0D5011596EC934E
:104C300029E634E046E250E064ED70E0C5010E94F0
:104C4000B40829E034E04EE350E064ED70E0C501C3
:104C50000E94B40808E210E02AEF30E04CE850E08F
:104C600063E270E0C6010E9458050AEC12EC20E9EC
:104C700032E04BE950E067E370E0C6010E94740641
:104C800008E210E02AEF30E04EEB50E063E270E023
:104C9000C6010E9458050AEC12EC2FE932E04DECF7
:104CA00050E061E470E0C6010E94740604E410E084
:104CB00024E330E04CE150E064E470E0C6010E947F
:104CC000EA0602E410E022E330E04DE150E065E462
:104CD00070E0C6010E94EA0604E410E024E330E03C
:104CE0004CE150E06CEC70E0C6010E94EA0602E480
:104CF00010E022E330E04DE150E06DEC70E0C601E1
:104D00000E94EA06A1E1EA2EA4E7FA2E0AEC12ECD0
:104D10002CEA32E04AE050E064E470E0C6010E9410
:104D200074062CEA32E04AE050E06CEC70E0C60118
:104D30000E9474062AEC32EC40E456E06FE370E027
:104D4000C6010E94B0062AEC32EC40E456E069EC61
:104D500070E0C6010E94B006C6010E94BD15D601D2
:104D60001E968D919C911F97892B09F44FC0C60107
:104D70000E94BE0D84970CF40EC1C6010E94BE0DA8
:104D80008D3191400CF007C1C6010E94990D8D38FC
:104D900091050CF400C1C6010E94990D843B910558
:104DA0000CF0F9C02AECE22E22ECF22E08E210E020
:104DB0002AEF30E04CE850E063E270E0C6010E9468
:104DC000580508EA11E320E932E04BE950E067E3D7
:104DD00070E0C6010E94740638EAE32E31E3F32E38
:104DE00008E210E02AEF30E04EEB50E063E270E0C2
:104DF000C6010E9458050AEC12EC2FE932E04DEC96
:104E000050E061E470E0C6010E947406D40114967B
:104E10008C91833009F4A0CF80932204C4010E94B6
:104E20007029CAC9C6010E94BE0DCD970CF472CA82
:104E3000C6010E94BE0D8E3091400CF06BCAC601B7
:104E40000E94990D8C3991050CF464CAC6010E9428
:104E5000990D8D3C91050CF05DCA58EAE52E51E3A1
:104E6000F52E02E310E028EC30E048E250E06CE37D
:104E700070E0C6010E9458050AEC12EC29E432E009
:104E80004CE350E060E570E0C6010E9474066AECF5
:104E9000E62E62ECF62E02E310E028EC30E046E964
:104EA00050E06CE370E0C6010E94580508EA11E387
:104EB00024E532E04AEA50E069E670E0C6010E946B
:104EC0007406E2E0D5011496EC9324CAF60110A210
:104ED00061A1662369F1A601369E400D511D112482
:104EE000B2E36B9FB00111246C5E7F4F28EA31E37F
:104EF000F601868D978D0E943507D60190966C91AC
:104F0000A601369E400D511D1124B2E36B9FB001E6
:104F100011246C5E7F4F2AEC32ECF601868D978D62
:104F20000E943507D60190968C91909791968C931C
:104F3000F60160A170E0C6010E945D13EDCDF6019F
:104F400020A261A1613039F6F3CF22E0F60120A35F
:104F500061A1623009F0BFCFEBCF23E0F60120A3BF
:104F600061A1633009F0B7CFE3CF41E1E42E44E71C
:104F7000F42E0AEC12EC2BE832E043E050E06AEF4A
:104F800070E0D6015E968D919C915F970E947406A9
:104F9000F60114A2D3CDC6010E94BE0D84970CF475
:104FA00035CFC6010E94BE0D8D3191400CF02ECF41
:104FB000C6010E94990D8F3B91050CF427CFC601C5
:104FC0000E94990D863E91050CF020CF88EAE82ECC
:104FD00081E3F82E08E210E02AEF30E04CE850E0E0
:104FE00063E270E0C6010E9458050AEC12EC20E969
:104FF00032E04BE950E067E370E0C6010E947406BE
:105000009AECE92E92ECF92E08E210E02AEF30E05B
:105010004EEB50E063E270E0C6010E94580508EADA
:1050200011E32FE932E04DEC50E061E470E0C6019D
:105030000E947406D40114961C92E8CEEEEBF2E0C6
:105040001382128288EE93E0A0E0B0E0848395831F
:10505000A683B7832EE032E03183208325EC30E055
:105060003587248724EC30E03787268720EC30E032
:10507000318B208B21EC30E0338B228B22EC30E023
:10508000358B248B26EC30E0378B268B118E128EDD
:10509000138E148EEBE5F3E01382128284839583E2
:1050A000A683B7838EE192E0918380838AE490E0C7
:1050B0000E94DB28FC011086118623E22093B000B9
:1050C0002AE02093B10023E32093B3002AE1209348
:1050D000B40024E02093700090936A0380936903E6
:1050E00089E490E00E94DB28FC0111821282EC5BD3
:1050F000FF4F1082319610823196108231961182C4
:1051000010825298E9E6F0E0208121602083E89A3D
:10511000789490936803809367030895DB018F93DD
:105120009F930E94512BBF91AF91A29F800D911D23
:10513000A39F900DB29F900D1124089597FB072E09
:1051400016F4009407D077FD09D00E94C72807FC09
:1051500005D03EF4909581959F4F08957095619587
:105160007F4F0895EE0FFF1F0590F491E02D0994F5
:105170000E94BD2B332312F48A1B9B0B0C94C22874
:105180000E94BD2BB7FF0895821B930B0895AA1BA5
:10519000BB1B51E107C0AA1FBB1FA617B70710F022
:1051A000A61BB70B881F991F5A95A9F78095909554
:1051B000BC01CD010895CF93DF938230910510F4A7
:1051C00082E090E0E0912604F091270420E030E0B6
:1051D000C0E0D0E0309711F1408151814817590764
:1051E000C0F04817590761F482819381209719F024
:1051F0009B838A832BC0909327048093260426C028
:105200002115310519F04217530718F49A01BE0110
:10521000DF01EF010280F381E02DDCCF21153105A4
:1052200009F1281B390B2430310590F412968D9129
:105230009C9113976115710521F0FB019383828383
:1052400004C09093270480932604FD01329644C045
:10525000FD01E20FF31F81939193225031092D93A9
:105260003C933AC02091240430912504232B41F42F
:105270002091C9013091CA01309325042093240460
:105280002091C7013091C8012115310541F42DB796
:105290003EB74091CB015091CC01241B350BE091DE
:1052A0002404F0912504E217F307A0F42E1B3F0B12
:1052B0002817390778F0AC014E5F5F4F2417350788
:1052C00048F04E0F5F1F50932504409324048193B0
:1052D000919302C0E0E0F0E0CF01DF91CF9108951B
:1052E0000F931F93CF93DF93009709F48CC0FC01B9
:1052F000329713821282009126041091270401151F
:10530000110581F420813181820F931F20912404A3
:10531000309125042817390779F5F0932504E09397
:10532000240471C0D80140E050E0AE17BF0750F42C
:1053300012962D913C911397AD012115310509F17C
:10534000D901F3CF9D01DA0133832283608171811A
:10535000860F971F8217930769F4EC012881398122
:10536000260F371F2E5F3F4F318320838A819B8119
:1053700093838283452B29F4F0932704E09326043A
:1053800042C01396FC93EE931297ED014991599107
:105390009E01240F351FE217F30771F4808191817C
:1053A000840F951F029611969C938E938281938110
:1053B00013969C938E931297E0E0F0E0D80112963A
:1053C0008D919C911397009719F0F8018C01F6CFFD
:1053D0008D919C9198012E5F3F4F820F931F2091DA
:1053E0002404309125042817390769F4309729F4EB
:1053F000109227041092260402C013821282109386
:10540000250400932404DF91CF911F910F910895FB
:10541000A0E0B0E0EEE0FAE20C94682BEC0100971B
:1054200021F4CB010E94DB28B8C0FC01E60FF71F76
:105430009C0122503109E217F30708F4ACC0D901EE
:105440000D911C91119706171707B0F00530110543
:1054500008F49FC0C80104978617970708F499C0FD
:1054600002501109061B170B019311936D937C9346
:10547000CF010E9470298DC05B01A01AB10A4C01B6
:10548000800E911EA0912604B091270440E050E0C8
:10549000E12CF12C109709F44AC0A815B905D1F5F3
:1054A0006D907C901197630182E0C80ED11CCA14E4
:1054B000DB0480F1A3014A195B096A0182E0C80E8E
:1054C000D11C1296BC9012971396AC91B5E0CB16F6
:1054D000D10440F0B282A38351834083D9016D93FC
:1054E0007C930AC00E5F1F4FC301800F911FF9010B
:1054F00091838083EB2DFA2FE114F10431F0D70171
:105500001396FC93EE93129744C0F0932704E09314
:1055100026043FC08D919C9111974817590708F4B4
:10552000AC017D0112960D90BC91A02DB3CF80915E
:1055300024049091250488159905E1F4461757072E
:10554000C8F48091C7019091C801009741F48DB7CC
:105550009EB74091CB015091CC01841B950BE8176D
:10556000F907C8F4F0932504E0932404F90171834A
:1055700060830FC0CB010E94DB287C01009759F0AB
:10558000A801BE010E94D72ACE010E947029C7013E
:1055900004C0CE0102C080E090E0CDB7DEB7EEE0FF
:1055A0000C94842B81E090E0F8940C94CC2BFB01BC
:1055B000DC0102C001900D9241505040D8F708958F
:1055C000FB01DC0101900D920020E1F70895BB275B
:1055D0004A3031F4992322F4BDE2909581959F4F92
:1055E0000C94F32ABB27FB015527AA27880F991F84
:1055F000AA1FA41710F0A41B83955051B9F7A05D02
:10560000AA3308F0A95DA193009779F7B111B1937E
:105610001192CB010C940C2BDC01FC01672F7191D2
:105620007723E1F7329704C07C916D937083629188
:10563000AE17BF07C8F30895F999FECF92BD81BD9B
:10564000F89A992780B50895262FF999FECF1FBAA9
:1056500092BD81BD20BD0FB6F894FA9AF99A0FBE9B
:1056600001960895052E97FB1EF400940E94492B85
:1056700057FD07D00E949B2B07FC03D04EF40C94DF
:10568000492B50954095309521953F4F4F4F5F4F97
:10569000089590958095709561957F4F8F4F9F4F9E
:1056A00008950E94BD2BA59F900DB49F900DA49FBF
:1056B000800D911D11240895B7FF0C94512B0E9469
:1056C000512B821B930B08952F923F924F925F9222
:1056D0006F927F928F929F92AF92BF92CF92DF9202
:1056E000EF92FF920F931F93CF93DF93CDB7DEB767
:1056F000CA1BDB0B0FB6F894DEBF0FBECDBF0994FB
:105700002A88398848885F846E847D848C849B8451
:10571000AA84B984C884DF80EE80FD800C811B815F
:10572000AA81B981CE0FD11D0FB6F894DEBF0FBE8E
:10573000CDBFED010895A1E21A2EAA1BBB1BFD01EE
:105740000DC0AA1FBB1FEE1FFF1FA217B307E40760
:10575000F50720F0A21BB30BE40BF50B661F771FB8
:10576000881F991F1A9469F7609570958095909598
:105770009B01AC01BD01CF010895A29FB001B39F71
:10578000C001A39F700D811D1124911DB29F700D4A
:0C579000811D1124911D0895F894FFCF95
:10579C0003000202000000000002000001020100F0
:1057AC0001020100010200000000000002020000E2
:1057BC0000000102010201020102010000000202CC
:1057CC0000020202000000000102010201020100BD
:1057DC0001020000000202020000000202000102AD
:1057EC0001020100010201020000000000000000A3
:1057FC000000040300000000000000000000000195
:10580C000201000102010001000000020000000280
:10581C000000000000010201000102010201000071
:10582C00000200000202000000000001020102015F
:10583C000001020100000000020200000002000250
:10584C000001000100010001020100000000000045
:10585C00000000000004010000280480000100008A
:10586C000014000000140000002C0100007800005F
:10587C0000A0000000DC0000007E0CB69ECCDAFA22
:10588C000EFEDE8000000000470B3804160D8E154E
:10589C0089153B131013C50BB30B00000000B204A9
:1058AC003804850463047704F90400000000421AEC
:1058BC0029120E0DFA0CEB0CEA0C000000001B0573
:1058CC003804000000000F1314135A1200000000DB
:1058DC005912121356160D0A005374617274204734
:1058EC00616D65004F7074696F6E73004272696709
:1058FC0068744E6573730047616D655370656564BC
:10590C0000426F6D622044656E73697479004C655A
:10591C0076656C2053656C656374004241434B00A3
:10592C0053617665204869676873636F72650042DE
:10593C0061636B20546F204D656E750054494500B2
:02594C00520007
:00000001FF
