:100000000C9434000C9451000C9451000C94510049
:100010000C9451000C9451000C9451000C9451001C
:100020000C9451000C9451000C9451000C9451000C
:100030000C9451000C9451000C9451000C945100FC
:100040000C9451000C9451000C9451000C945100EC
:100050000C9451000C9451000C9451000C945100DC
:100060000C9451000C94510011241FBECFEFD8E026
:10007000DEBFCDBF11E0A0E0B1E0E2EBF3E002C0F3
:1000800005900D92A231B107D9F721E0A2E1B1E0CC
:1000900001C01D92A631B207E1F70E9476000C94D0
:1000A000D7010C940000AC014398FC01BC016E5FC9
:1000B0007F4F97E08081DA01A80FB11D12962C9135
:1000C00030E0092E02C0359527950A94E2F720FF0B
:1000D00002C0419A01C04198429A4298915050F70B
:1000E0003196E617F70729F7439A08951F93CF93A0
:1000F000DF938DE090E00E94AA00EC018BE0E6E047
:10010000F1E0DE01129601900D928A95E1F789E007
:1001100088838983399A3A9A3B9A19E089818111B7
:1001200007C08881882351F081508883198302C0D9
:1001300081508983CE010E945300F0CF8AE08883EA
:100140008983CE010E94530080E090E0DF91CF913F
:100150001F910895CF93DF938230910510F482E0D0
:1001600090E0E0911401F091150120E030E0C0E052
:10017000D0E0309711F14081518148175907C0F004
:100180004817590761F482819381209719F09B8366
:100190008A832BC0909315018093140126C02115EA
:1001A000310519F04217530718F49A01BE01DF0117
:1001B000EF010280F381E02DDCCF2115310509F13B
:1001C000281B390B2430310590F412968D919C91A7
:1001D00013976115710521F0FB019383828304C09D
:1001E0009093150180931401FD01329644C0FD01E6
:1001F000E20FF31F81939193225031092D933C9389
:100200003AC02091120130911301232B41F4209127
:1002100002013091030130931301209312012091C8
:100220000001309101012115310541F42DB73EB790
:100230004091040150910501241B350BE0911201FE
:10024000F0911301E217F307A0F42E1B3F0B2817C0
:10025000390778F0AC014E5F5F4F2417350748F03F
:100260004E0F5F1F5093130140931201819391939E
:1002700002C0E0E0F0E0CF01DF91CF9108950F934D
:100280001F93CF93DF93009709F48CC0FC01329742
:1002900013821282009114011091150101151105AC
:1002A00081F420813181820F931F209112013091BE
:1002B00013012817390779F5F0931301E093120120
:1002C00071C0D80140E050E0AE17BF0750F412965D
:1002D0002D913C911397AD012115310509F1D901FB
:1002E000F3CF9D01DA013383228360817181860F10
:1002F000971F8217930769F4EC0128813981260F33
:10030000371F2E5F3F4F318320838A819B819383E8
:100310008283452B29F4F0931501E093140142C028
:100320001396FC93EE931297ED01499159919E011A
:10033000240F351FE217F30771F480819181840F38
:10034000951F029611969C938E93828193811396AA
:100350009C938E931297E0E0F0E0D80112968D9175
:100360009C911397009719F0F8018C01F6CF8D91AD
:100370009C9198012E5F3F4F820F931F2091120195
:10038000309113012817390769F4309729F4109236
:1003900015011092140102C01382128210931301EE
:1003A00000931201DF91CF911F910F910895F8945E
:0203B000FFCF7D
:1003B2000000160180007E0CB69ECCDAFA0EFEDE3C
:0203C2008000B9
:00000001FF
